:040000000DEF00F010
:04000800B3EF32F030
:06001800FF0083EF36F04B
:1037000000000000000000000000000000000000B9
:1037100000000000000000000000000000000000A9
:103720000000000000000000000000000000000099
:1037300000000000000000000000280C01064C45BD
:1037400044314F46460025332E32660A004C45442C
:10375000314F4E00494E46004E414E00696E6600A4
:103760006E616E006C660000000E0501C96F000EF0
:10377000C86F37C5DAF538C5DBF539C5DCF53AC5AC
:10378000DDF5DDBFC8EF1BF0C6EF1BF0DEEF1BF071
:10379000000EC96F010EC86FDAC502F5DBC503F56F
:1037A000DCC504F5DDC505F52EEC37F002C5DAF50C
:1037B00003C5DBF504C5DCF505C5DDF5000E050127
:1037C000E16F000EE06F9CC5CCF59DC5CDF5C851ED
:1037D000C911D8A4EEEF1BF0F0EF1BF0F7EF1BF0D0
:1037E000A0A5F5EF1BF0F7EF1BF011EF1CF0C8518F
:1037F000C911D8A4FEEF1BF000EF1CF006EF1CF07F
:10380000000EAF6F2B0EAE6F0AEF1CF0000EAF6F05
:103810002D0EAE6FAEC554F6E04BE12BCC07D8A011
:10382000CD07DAC502F5DBC503F5DCC504F5DDC55A
:1038300005F529EC30F002040310D8A422EF1CF0A7
:1038400024EF1CF07BEF1CF0BF0E3C6EFF0E3D6EB4
:103850003B503E6E3F6A3C503E263D503F223F501B
:103860000AE11A0E3E5CD8A038EF1CF03BEF1CF0CA
:10387000010E3CEF1CF0000E0501B06FB16BB051B2
:10388000B111D8B446EF1CF048EF1CF056EF1CF015
:10389000540EE025026E060EE121036E540E046EF6
:1038A000370E056E4CEC35F062EF1CF0540EE0253F
:1038B000026E060EE121036E5C0E046E370E056E7D
:1038C0004CEC35F00501FD0ECC27FF0ECD2335C5A0
:1038D00014F536C515F5540E166E060E176ECCC5CA
:1038E00018F5CDC519F58BEC31F014C535F515C5B6
:1038F00036F508EF22F0DAC502F5DBC503F5DCC5C5
:1039000004F5DDC505F529EC30F002500310D8A40C
:103910008CEF1CF08EEF1CF0E5EF1CF0BF0E3C6E40
:10392000FF0E3D6E3B503E6E3F6A3C503E263D5082
:103930003F223F500AE11A0E3E5CD8A0A2EF1CF0D5
:10394000A5EF1CF0010EA6EF1CF0000E0501B26FF2
:10395000B36BB251B311D8B4B0EF1CF0B2EF1CF09E
:10396000C0EF1CF0540EE025026E060EE121036E3E
:10397000580E046E370E056E4CEC35F0CCEF1CF093
:10398000540EE025026E060EE121036E600E046EF9
:10399000370E056E4CEC35F00501FD0ECC27FF0E01
:1039A000CD2335C514F536C515F5540E166E060E25
:1039B000176ECCC518F5CDC519F58BEC31F014C5D3
:1039C00035F515C536F508EF22F0000E0501E26F5A
:1039D000000EE36F800EE46F3F0EE56F000EDF6FA9
:1039E000000EDE6FDAC502F5DBC503F5DCC504F5B4
:1039F000DDC505F5000E066E000E076E000E086EA2
:103A0000000E096E77EC34F0D8B009EF1DF00BEF23
:103A10001DF08EEF1DF02AEF1DF0E2C510F5E3C595
:103A200011F5E4C512F5E5C513F5000E146E000E90
:103A3000156E200E166E410E176EBEEC27F010C5E7
:103A4000E2F511C5E3F512C5E4F513C5E5F5050189
:103A5000DE4BDF2BDAC529F5DBC52AF5DCC52BF5F6
:103A6000DDC52CF5000E146E000E156E200E166EC0
:103A7000410E176EE2C510F5E3C511F5E4C512F568
:103A8000E5C513F5BEEC27F010C52DF511C52EF5D3
:103A900012C52FF513C530F5A7EC2FF0D8B053EFB2
:103AA0001DF055EF1DF00DEF1DF075EF1DF0E2C597
:103AB00002F5E3C503F5E4C504F5E5C505F5000E1B
:103AC000066E000E076E200E086E410E096EE5ECC4
:103AD00029F002C5E2F503C5E3F504C5E4F505C523
:103AE000E5F50501DE07D8A0DF07DAC529F5DBC556
:103AF0002AF5DCC52BF5DDC52CF5E2C52DF5E3C5B2
:103B00002EF5E4C52FF5E5C530F5A7EC2FF0D8A0CC
:103B10008CEF1DF08EEF1DF057EF1DF03BC508F543
:103B2000096A7FEC35F008500501CF6FCFC5CEF59F
:103B3000670ECF19D8A49FEF1DF0A1EF1DF0C7EFBE
:103B40001DF09E519F11D8A4A8EF1DF0AAEF1DF003
:103B5000AEEF1DF0000E9F6F010E9E6F9FBFBBEF7B
:103B60001DF09F5106E19E05D8B0B9EF1DF0BBEFE7
:103B70001DF0C1EF1DF0000ECB6F060ECA6FD0EF27
:103B80001DF09EC5CAF59FC5CBF5D0EF1DF09FBFB8
:103B9000CCEF1DF0CEEF1DF0BBEF1DF0C1EF1DF01F
:103BA000670ECF19D8A4D7EF1DF0D9EF1DF008EF9D
:103BB0001EF0DFAFE7EF1DF0FC0EDE5DFF0EDF59FC
:103BC000D8A0E5EF1DF0E7EF1DF006EF1EF0FF0EA9
:103BD0003C6EFF0E3D6ECAC53EF5CBC53FF53C5071
:103BE0003E263D503F22DE513E5C3F50800A406EF3
:103BF000DF51800A4058D8A000EF1EF002EF1EF0FF
:103C000006EF1EF0660ECE6F08EF1EF0650ECE6F4B
:103C1000CAC5C0F5CBC5C1F5670ECF19D8A413EF3F
:103C20001EF015EF1EF025EF1EF0660ECE19D8A47B
:103C30001CEF1EF01EEF1EF027EF1EF0DFBF25EF7A
:103C40001EF023EF1EF027EF1EF0C04BC12B660EB7
:103C5000CE19D8A42EEF1EF030EF1EF050EF1EF05C
:103C6000DFBF37EF1EF035EF1EF043EF1EF0000E02
:103C7000E26F000EE36F800EE46F3F0EE56F000E03
:103C8000DF6F000EDE6F670ECF19D8B44AEF1EF05B
:103C90004CEF1EF050EF1EF0DE51C027DF51C12364
:103CA000000ED96F000ED86FDAC5D0F5DBC5D1F59F
:103CB000DCC5D2F5DDC5D3F5E2C5C2F5E3C5C3F574
:103CC000E4C5C4F5E5C5C5F5E1EF1EF0D0C502F5C4
:103CD000D1C503F5D2C504F5D3C505F5E2C506F592
:103CE000E3C507F5E4C508F5E5C509F5E5EC29F0F8
:103CF00002C51BF503C51CF504C51DF505C51EF55C
:103D0000B2EC2BF01BC5D4F51CC5D5F51DC5D6F5F9
:103D10001EC5D7F5D4C502F5D5C503F5D6C504F53E
:103D2000D7C505F524EC2FF002C5C6F503C5C7F5C8
:103D3000D0C529F5D1C52AF5D2C52BF5D3C52CF5AB
:103D4000E2C514F5E3C515F5E4C516F5E5C517F5A7
:103D5000D4C510F5D5C511F5D6C512F5D7C513F5DF
:103D6000BEEC27F010C52DF511C52EF512C52FF5A7
:103D700013C530F5AAEC36F029C5D0F52AC5D1F522
:103D80002BC5D2F52CC5D3F5E2C502F5E3C503F585
:103D9000E4C504F5E5C505F5000E066E000E076ED8
:103DA000200E086E410E096EE5EC29F002C5E2F521
:103DB00003C5E3F504C5E4F505C5E5F50501D84BF4
:103DC000D92BC051D85DD951800A3C6EC151800AAF
:103DD0003C58D8A0EEEF1EF0F0EF1EF066EF1EF09C
:103DE000E2C510F5E3C511F5E4C512F5E5C513F517
:103DF000000E146E000E156EA00E166E400E176E9D
:103E0000BEEC27F010C5D4F511C5D5F512C5D6F511
:103E100013C5D7F5D0C529F5D1C52AF5D2C52BF5DF
:103E2000D3C52CF5D4C52DF5D5C52EF5D6C52FF5A2
:103E3000D7C530F5A7EC2FF0D8B021EF1FF023EF56
:103E40001FF02EEF1FF0000E0501D46F000ED56F8E
:103E5000000ED66F000ED76F57EF1FF0D0C502F5DA
:103E6000D1C503F5D2C504F5D3C505F5D4C506F50E
:103E7000D5C507F5D6C508F5D7C509F577EC34F0F3
:103E8000D8A045EF1FF047EF1FF057EF1FF00501D7
:103E9000C6B14DEF1FF04FEF1FF057EF1FF0000EB0
:103EA000D46F000ED56F000ED66F000ED76FDAC537
:103EB00002F5DBC503F5DCC504F5DDC505F5D4C5A4
:103EC00006F5D5C507F5D6C508F5D7C509F55EECE5
:103ED00025F002C5D0F503C5D1F504C5D2F505C559
:103EE000D3F5D0C529F5D1C52AF5D2C52BF5D3C553
:103EF0002CF5000E146E000E156E200E166E410E7F
:103F0000176EC2C510F5C3C511F5C4C512F5C5C5F8
:103F100013F5BEEC27F010C52DF511C52EF512C511
:103F20002FF513C530F5A7EC2FF0D8A09AEF1FF0AE
:103F30009CEF1FF0C5EF1FF00501DE4BDF2BC2C564
:103F400010F5C3C511F5C4C512F5C5C513F5000EAE
:103F5000146E000E156E200E166E410E176EBEEC1E
:103F600027F010C5C2F511C5C3F512C5C4F513C5B8
:103F7000C5F5660E0501CE19D8A4C1EF1FF0C3EF39
:103F80001FF0C5EF1FF0C04BC12BC2C5E2F5C3C582
:103F9000E3F5C4C5E4F5C5C5E5F5650E0501CE1923
:103FA000D8B4D5EF1FF0D7EF1FF0DDEF1FF0DEC55F
:103FB000BEF5DFC5BFF5E1EF1FF0000EBF6F000ECD
:103FC000BE6F000EBD6F000EBC6F000EBB6F000E0B
:103FD000BA6F000ED96F000ED86FDCEF20F0D0C59D
:103FE00002F5D1C503F5D2C504F5D3C505F5E2C583
:103FF00006F5E3C507F5E4C508F5E5C509F5E5EC03
:1040000029F002C51BF503C51CF504C51DF505C542
:104010001EF5B2EC2BF01BC5D4F51CC5D5F51DC59E
:10402000D6F51EC5D7F5D4C502F5D5C503F5D6C559
:1040300004F5D7C505F524EC2FF002C5C6F503C578
:10404000C7F50501A0B927EF20F029EF20F046EFD2
:1040500020F0C651C711D8A430EF20F032EF20F085
:1040600046EF20F0670ECF19D8A439EF20F03BEFD0
:1040700020F046EF20F0BFBF42EF20F040EF20F0ED
:1040800046EF20F0BA4BBB2B90EF20F0BC51BD1196
:10409000D8A44DEF20F04FEF20F079EF20F0BFBF14
:1040A00056EF20F054EF20F079EF20F0540EE02589
:1040B000D96E060EE121DA6E2E0EDF6EE04BE12B9B
:1040C000CC07D8A0CD07000EBD6F010EBC6F79EFF5
:1040D00020F0540EE025D96E060EE121DA6E300E86
:1040E000DF6EE04BE12BCC07D8A0CD07BA07D8A0F4
:1040F000BB07BA51BB11D8A480EF20F082EF20F0AB
:1041000069EF20F0540EE025D96E060EE121DA6E3B
:10411000C651300FDF6EE04BE12BCC07D8A0CD07A6
:10412000D0C529F5D1C52AF5D2C52BF5D3C52CF5B7
:10413000E2C514F5E3C515F5E4C516F5E5C517F5B3
:10414000D4C510F5D5C511F5D6C512F5D7C513F5EB
:10415000BEEC27F010C52DF511C52EF512C52FF5B3
:1041600013C530F5AAEC36F029C5D0F52AC5D1F52E
:104170002BC5D2F52CC5D3F5E2C502F5E3C503F591
:10418000E4C504F5E5C505F5000E066E000E076EE4
:10419000200E086E410E096EE5EC29F002C5E2F52D
:1041A00003C5E3F504C5E4F505C5E5F50501BE075E
:1041B000D8A0BF07D84BD92BC051D85DD951800AA0
:1041C0003C6EC151800A3C58D8B0E9EF20F0EBEFCB
:1041D00020F0F9EF20F0E1BFF7EF20F0E15109E125
:1041E0004B0EE05DD8A0F7EF20F0F9EF20F0EFEFF5
:1041F0001FF0BC51BD11D8A400EF21F002EF21F057
:1042000013EF21F0A0A907EF21F009EF21F013EF40
:1042100021F0540EE025D96E060EE121DA6E2E0E45
:10422000DF6EE04BE12B540EE025D96E060EE12146
:10423000DA6E000EDF6E650ECE19D8A422EF21F0E3
:1042400024EF21F0F6EF21F0000ED96F4F0ED86F5A
:10425000540ED825D96E060ED921DA6E000EDF6E07
:10426000000EC96F000EC86FDFBF3BEF21F039EFC2
:1042700021F043EF21F0000EC96F010EC86FDE6D13
:10428000DF1FD8B0DF2B000ECB6F020ECA6F74EFAA
:1042900021F0D807D8A0D907540ED825D96E060E1C
:1042A000D921DA6EDEC502F5DFC503F5000E056E15
:1042B0000A0E046EC7EC33F00250300FDF6EDEC51D
:1042C00002F5DFC503F5000E056E0A0E046E51EC13
:1042D00032F002C5DEF503C5DFF50501CA07D8A037
:1042E000CB07CC07D8A0CD07DE51DF11D8A47BEFD8
:1042F00021F07DEF21F049EF21F0CBBF8AEF21F0D3
:10430000CB5106E1CA05D8B088EF21F08AEF21F041
:1043100049EF21F0D807D8A0D907C851C911D8A4AE
:1043200094EF21F096EF21F09CEF21F0000EB56F95
:104330002B0EB46FA0EF21F0000EB56F2D0EB46FF1
:10434000540ED825D96E060ED921DA6E6100D0F64A
:10435000DFF4CC07D8A0CD07D807D8A0D907BF0E67
:104360003C6EFF0E3D6E3B503E6E3F6A3C503E261B
:104370003D503F223F500AE11A0E3E5CD8A0C3EFE9
:1043800021F0C6EF21F0010EC7EF21F0000EB86F4B
:10439000B96BB851B911D8A4D0EF21F0D2EF21F008
:1043A000D8EF21F0000EB76F650EB66FDCEF21F08D
:1043B000000EB76F450EB66F540ED825D96E060E97
:1043C000D921DA6E6100D8F6DFF4CC07D8A0CD078A
:1043D000540EE025026E060EE121036E540ED82520
:1043E000046E060ED921056E4CEC35F035C514F57A
:1043F00036C515F5540E166E060E176ECCC518F59B
:10440000CDC519F58BEC31F014C535F515C536F56C
:10441000120061000CF5D9F4610010F5DAF4DEC485
:10442000F6F4DDC4F7F4000EF86E0800F550250A26
:10443000D8A41DEF22F01FEF22F03CEF25F0610021
:104440000CF5D9F4610010F5DAF4DE2A000EDD2255
:10445000000E05019D6F000E9C6F9CC5A0F59DC5CB
:10446000A1F59E699F6961000CF5D9F4610010F512
:10447000DAF4DEC4F6F4DDC4F7F4000EF86E0800DA
:10448000F5502A0AD8A447EF22F049EF22F07CEF3A
:1044900022F061000CF5D9F4610010F5DAF4DE2A9F
:1044A000000EDD22610014F5D9F4610018F5DAF48C
:1044B00061007CF347F5020EDE2661007CF348F5CF
:1044C000000EDD2261001CF5D9F4610020F5DAF45C
:1044D000610078F39CF5610074F39DF59DBF75EF65
:1044E00022F073EF22F0C9EF22F0A0819C6D9D1F96
:1044F000D8B09D2BC9EF22F061000CF5D9F4610012
:1045000010F5DAF4610078F309F5610074F30AF547
:10451000BBEC2CF009C59CF50AC59DF599EF22F07E
:1045200061000CF5D9F4610010F5DAF4DE2A000E12
:10453000DD22D00E476EFF0E486E61000CF5D9F4F7
:10454000610010F5DAF4DEC4F6F4DDC4F7F4000E11
:10455000F86E0800F550496E4A6A4750492648509F
:104560004A224A500AE10A0E495CD8A0BAEF22F06A
:10457000BDEF22F0010EBEEF22F0000E4B6E4C6A32
:104580004B504C10D8A4C7EF22F0C9EF22F090EFA7
:1045900022F061000CF5D9F4610010F5DAF4DEC404
:1045A000F6F4DDC4F7F4000EF86E0800F5502E0A9C
:1045B000D8A4DDEF22F0DFEF22F077EF23F0000E3A
:1045C00005019F6F000E9E6F61000CF5D9F461002C
:1045D00010F5DAF4DE2A000EDD2261000CF5D9F4C4
:1045E000610010F5DAF4DEC4F6F4DDC4F7F4000E71
:1045F000F86E0800F5502A0AD8A401EF23F003EF63
:1046000023F02AEF23F061000CF5D9F4610010F5D6
:10461000DAF4DE2A000EDD22610014F5D9F461001F
:1046200018F5DAF461007CF347F5020EDE2661002E
:104630007CF348F5000EDD2261001CF5D9F4610021
:1046400020F5DAF4610078F39EF5610074F39FF5CC
:1046500077EF23F061000CF5D9F4610010F5DAF47E
:10466000610078F309F5610074F30AF5BBEC2CF0F6
:1046700009C59EF50AC59FF547EF23F061000CF5CB
:10468000D9F4610010F5DAF4DE2A000EDD22D00E36
:10469000476EFF0E486E61000CF5D9F4610010F50D
:1046A000DAF4DEC4F6F4DDC4F7F4000EF86E0800A8
:1046B000F550496E4A6A4750492648504A224A50A6
:1046C0000AE10A0E495CD8A068EF23F06BEF23F0F3
:1046D000010E6CEF23F0000E4D6E4E6A4D504E10E1
:1046E000D8A475EF23F077EF23F03EEF23F06100BD
:1046F0000CF5D9F4610010F5DAF4DEC4F6F4DDC48B
:10470000F7F4000EF86E0800F550086E096A7FECA9
:1047100035F00850556E5550D8B491EF23F093EF13
:1047200023F0DBEF23F061000CF5D9F4610010F504
:10473000DAF4610078F347F5610074F348F5010E8F
:104740004726000E482261001CF5F6F4610020F5B2
:10475000F7F4000EF86E0800F550086E096A7FEC59
:1047600035F00850566E5650D8B4B9EF23F0BBEF71
:1047700023F0DBEF23F061000CF5D9F4610010F5B4
:10478000DAF4610078F347F5610074F348F5020E3E
:104790004726000E482261001CF5F6F4610020F562
:1047A000F7F4000EF86E0800F550086E096A7FEC09
:1047B00035F00850576E660E5518D8A4E2EF23F076
:1047C000E4EF23F035EF24F061000CF5D9F461003B
:1047D00010F5DAF4DEC4F6F4DDC4F7F4000EF86E7A
:1047E00008006100D4F358F561000CF5D9F46100BC
:1047F00010F5DAF4DE2A000EDD22610014F5D9F49A
:10480000610018F5DAF461007CF347F5040EDE264A
:1048100061007CF348F5000EDD2261001CF5D9F43F
:10482000610020F5DAF4610078F351F5610078F366
:1048300052F5610078F353F5610078F354F541C502
:1048400035F542C536F551C537F552C538F553C56E
:1048500039F554C53AF558C53BF5B4EC1BF035C5F0
:1048600041F536C542F55DEF25F0550E026E050E99
:10487000036E640E046E370E056E000E076E020E98
:10488000066EA8EC30F002500310D8A44AEF24F0D2
:104890004CEF24F0FEEF24F061000CF5D9F4610038
:1048A00010F5DAF4610078F347F5610074F348F528
:1048B000010E4726000E482261001CF5F6F4610047
:1048C00020F5F7F4000EF86E08006100D4F358F5F7
:1048D000BF0E476EFF0E486E61000CF5D9F4610003
:1048E00010F5DAF4DEC4F6F4DDC4F7F4000EF86E69
:1048F0000800F550496E4A6A4750492648504A22F6
:104900004A500AE11A0E495CD8A089EF24F08CEFD6
:1049100024F0010E8DEF24F0000E4F6E506A4F50C0
:104920005010D8B496EF24F098EF24F0BCEF24F0A8
:10493000610014F5D9F4610018F5DAF461007CF334
:1049400047F5040EDE2661007CF348F5000EDD22FB
:1049500061001CF5D9F4610020F5DAF4610078F308
:1049600051F5610078F352F5610078F353F5610079
:1049700078F354F5DEEF24F0610014F5D9F461000A
:1049800018F5DAF461007CF347F5040EDE266100C9
:104990007CF348F5000EDD2261001CF5D9F46100BE
:1049A00020F5DAF4610078F351F5610078F352F5FF
:1049B000610078F353F5610078F354F5020E61005D
:1049C0000CF5D9F4610010F5DAF4DE26000EDD22D4
:1049D00041C535F542C536F551C537F552C538F5EF
:1049E00053C539F554C53AF558C53BF5B4EC1BF041
:1049F00035C541F536C542F55DEF25F061000CF592
:104A0000D9F4610010F5DAF4DEC4F6F4DDC4F7F48D
:104A1000000EF86E0800F550250AD8A412EF25F014
:104A200014EF25F02DEF25F061000CF5D9F46100AD
:104A300010F5DAF4DE2A000EDD22000E056E250EDA
:104A4000046E41C506F542C507F5CCEC34F0000E06
:104A5000426E010E416E5DEF25F061000CF5D9F458
:104A6000610010F5DAF4DE2A000EDD22000E426E3F
:104A7000000E416E5DEF25F061000CF5D9F4610088
:104A800010F5DAF4DEC4F6F4DDC4F7F4000EF86EC7
:104A90000800F550046E056A41C506F542C507F5E4
:104AA000CCEC34F061000CF5D9F4610010F5DAF4C7
:104AB000DE2A000EDD2227EF25F012000550800BC4
:104AC0000E6E05500524106E04AE69EF25F06BEFF5
:104AD00025F06CEF25F010801050D8B472EF25F05F
:104AE00074EF25F089EF25F01028D8A47AEF25F08F
:104AF0007CEF25F084EF25F0000E026E000E036EB1
:104B0000000E046E000E056E048E000E056E91EF11
:104B100025F0000E026E000E036E000E046E000EF5
:104B2000056E0950800B0F6E0E500F18D8B49BEF16
:104B300025F09DEF25F09EEF25F00E8C09500924FD
:104B40000F6E08AEA6EF25F0A8EF25F0A9EF25F02F
:104B50000F800F50D8B4AFEF25F0B1EF25F0C6EFBE
:104B600025F00F28D8A4B7EF25F0B9EF25F0C1EF55
:104B700025F0000E066E000E076E000E086E000E89
:104B8000096E088E000E096ECEEF25F0000E066E3F
:104B9000000E076E000E086E000E096E10500F5CBE
:104BA000D8B0D5EF25F0D7EF25F0FEEF25F00EAC0D
:104BB000DCEF25F0DEEF25F0E0EF25F0800E0E1A99
:104BC00010C511F50FC510F511C50FF502C511F58A
:104BD00006C502F511C506F503C511F507C503F5B0
:104BE00011C507F504C511F508C504F511C508F58B
:104BF00005C511F509C505F511C509F5000E116EBC
:104C000010500FC50AF50B6A0A5E000E0B5A0BBE58
:104C100013EF26F00B5009E11A0E0A5CD8A013EF2F
:104C200026F015EF26F04CEF26F00250031004108A
:104C30000510D8A41EEF26F021EF26F0010E22EF7A
:104C400026F0000E116E000E026E000E036E000EB6
:104C5000046E000E056E0FC510F555EF26F011A07D
:104C600034EF26F036EF26F03CEF26F0D8901130E6
:104C70000109116E3EEF26F0D890113202A043EFE9
:104C800026F045EF26F046EF26F0118E053405326A
:104C9000043203320232102A0F50105CD8A053EFB6
:104CA00026F055EF26F02FEF26F00EBC5AEF26F037
:104CB0005CEF26F09CEF26F01050D8A462EF26F0AF
:104CC00064EF26F06EEF26F0000E026E000E036E0B
:104CD000000E046E000E056EBDEF27F00650022692
:104CE00007500322085004220950052205A07BEF3B
:104CF00026F07DEF26F029EF27F011A082EF26F0B5
:104D000084EF26F08AEF26F0D89011300109116E59
:104D10008CEF26F0D890113202A091EF26F093EF9D
:104D200026F094EF26F0118E05340532043203325A
:104D30000232102A29EF27F00650025C0750035870
:104D4000085004580550800A0A6E0950800A0A5813
:104D5000D8B0ADEF26F0AFEF26F0DAEF26F0025034
:104D6000065C0A6E035007580B6E045008580C6E10
:104D7000055009580D6EFF0E0A24026EFF0E0B201F
:104D8000036EFF0E0C20046EFF0E0D20056E800ECC
:104D90000E1A116C1150D8A4D0EF26F0D2EF26F0E5
:104DA000E2EF26F0010E0226000E03220422052265
:104DB000E2EF26F00650025E0750035A0850045AEC
:104DC0000950055A0250031004100510D8A4EBEF47
:104DD00026F0EDEF26F022EF27F01150D8A4F3EFE4
:104DE00026F0F5EF26F022EF27F0000E026E000EFF
:104DF000036E000E046E000E056EBDEF27F0D89016
:104E0000023603360436053611AE09EF27F00BEFF4
:104E100027F00CEF27F0028011A011EF27F013EF1D
:104E200027F017EF27F0D880113619EF27F0D89028
:104E300011361050D8B41FEF27F021EF27F022EFE2
:104E400027F0100604AE27EF27F029EF27F0FFEF39
:104E500026F0000E0F6E11AE30EF27F032EF27F084
:104E60004AEF27F011C50AF57F0E0A16D8B43BEFBA
:104E700027F03DEF27F041EF27F0010E0F6E4AEFCC
:104E800027F002A046EF27F048EF27F04AEF27F07F
:104E90003DEF27F00F50D8B450EF27F052EF27F036
:104EA0007DEF27F0010E0226000E032204220522C8
:104EB00005A05DEF27F05FEF27F07DEF27F002C53B
:104EC0000AF503C50BF504C50CF505C50DF50D3444
:104ED0000D320C320B320A320AC502F50BC503F54E
:104EE0000CC504F50DC505F51028D8B47AEF27F0E8
:104EF0007CEF27F07DEF27F0102A1028D8B483EF3D
:104F000027F085EF27F08DEF27F01050D8A48BEF16
:104F100027F08DEF27F09FEF27F0000E026E000EB6
:104F2000036E000E046E000E056E1050D8A49BEFA9
:104F300027F09DEF27F09FEF27F0000E0E6E10A0D8
:104F4000A4EF27F0A6EF27F0A9EF27F0048EAAEF31
:104F500027F0049ED8901030056E0EAEB2EF27F009
:104F6000B4EF27F0B5EF27F0058E02C502F503C5B3
:104F700003F504C504F505C505F512001350800BB3
:104F80001C6E13501324226E12AEC9EF27F0CBEF24
:104F900027F0CCEF27F022802250D8B4D2EF27F0B0
:104FA000D4EF27F0E7EF27F02228D8A4DAEF27F094
:104FB000DCEF27F0E4EF27F0000E106E000E116E0C
:104FC000000E126E000E136E128EEFEF27F0000E21
:104FD000106E000E116E000E126E000E136E175042
:104FE000800B1C1A175017241D6E16AEFAEF27F00F
:104FF000FCEF27F0FDEF27F01D801D50D8B403EF24
:1050000028F005EF28F018EF28F01D28D8A40BEFA2
:1050100028F00DEF28F015EF28F0000E146E000EAA
:10502000156E000E166E000E176E168E20EF28F00D
:10503000000E146E000E156E000E166E000E176E2A
:105040001D50D8B426EF28F028EF28F030EF28F0D4
:105050002250D8A42EEF28F030EF28F03AEF28F0B5
:10506000000E106E000E116E000E126E000E136E0A
:10507000E4EF29F0165010026100CCF327F561002F
:10508000D0F328F527501E6E1F6A206A216A285027
:10509000236E246A256A266A155011026100CCF33A
:1050A00027F56100D0F328F527501E26000E1F2299
:1050B0002022212228502326000E242225222622C7
:1050C000145012026100CCF327F56100D0F328F5EB
:1050D00027501E26000E1F22202221222850232680
:1050E000000E24222522262220C521F51FC520F5E9
:1050F0001EC51FF51E6A145011026100CCF327F57E
:105100006100D0F328F527501E2628501F22000EDC
:105110002022000E2122155010026100CCF327F549
:105120006100D0F328F527501E2628501F22000EBC
:105130002022000E212220C521F51FC520F51EC505
:105140001FF51E6A145010026100CCF327F56100B0
:10515000D0F328F527501E2628501F22000E2022AB
:10516000000E2122165011026100CCF327F56100D8
:10517000D0F328F52750232628502422000E25227C
:10518000000E2622155012026100CCF327F56100B3
:10519000D0F328F52750232628502422000E25225C
:1051A000000E2622165012026100CCF327F5610092
:1051B000D0F328F52750186E2850196E1A6A1B6A0A
:1051C0001AC51BF519C51AF518C519F5186A18502E
:1051D0002326195024221A5025221B5026221EC590
:1051E00018F51FC519F520C51AF521C51BF5190EAF
:1051F000FFEF28F0D8901B321A3219321832E82EFD
:10520000FAEF28F018502326195024221A5025228C
:105210001B50262220C521F51FC520F51EC51FF5F0
:105220001E6A1D5022C518F5196A1826000E19228B
:10523000820E1824276EFF0E1920286E35EF29F0F4
:10524000D890233624362536263621AE2AEF29F08B
:105250002CEF29F02DEF29F02380D8901E361F3631
:10526000203621362706D8A0280625AE3AEF29F0A9
:105270003CEF29F020EF29F0000E1D6E21AE43EF28
:1052800029F045EF29F069EF29F0FF0E1E14186E82
:10529000FF0E1F14196EFF0E20141A6E7F0E2114BC
:1052A0001B6E185019101A101B10D8B45AEF29F0A1
:1052B0005CEF29F060EF29F0010E1D6E69EF29F017
:1052C00023A065EF29F067EF29F069EF29F05CEF83
:1052D00029F01D50D8B46FEF29F071EF29F095EF48
:1052E00029F0010E2326000E24222522262226A0A4
:1052F0007CEF29F07EEF29F095EF29F023C518F512
:1053000024C519F525C51AF526C51BF51B341B3216
:105310001A321932183218C523F519C524F51AC5E1
:1053200025F51BC526F5274A282A28BEA0EF29F017
:10533000285008E12728D8A0A0EF29F0A2EF29F0F3
:10534000ACEF29F0000E236E000E246E800E256E49
:105350007F0E266EDAEF29F028BEB9EF29F028502B
:1053600006E12704D8B0B7EF29F0B9EF29F0C5EF6F
:1053700029F0000E236E000E246E000E256E000E26
:10538000266E000E1C6EDAEF29F027C522F5FF0EFF
:105390002316FF0E24167F0E2516000E261622A0B9
:1053A000D4EF29F0D6EF29F0D7EF29F0258ED89049
:1053B0002230266E1C50261223C510F524C511F587
:1053C00025C512F526C513F512000550800B126E87
:1053D00005500524196E04AEF0EF29F0F2EF29F024
:1053E000F3EF29F019801950D8B4F9EF29F0FBEF49
:1053F00029F010EF2AF01928D8A401EF2AF003EFC2
:105400002AF00BEF2AF0000E026E000E036E000E63
:10541000046E000E056E048E000E056E18EF2AF065
:10542000000E026E000E036E000E046E000E056E7E
:105430000950800B121A095009241A6E08AE23EF86
:105440002AF025EF2AF026EF2AF01A801A50D8B455
:105450002CEF2AF02EEF2AF043EF2AF01A28D8A4D6
:1054600034EF2AF036EF2AF03EEF2AF0000E066EF7
:10547000000E076E000E086E000E096E088E000EFC
:10548000096E4BEF2AF0000E066E000E076E000E3E
:10549000086E000E096E0650071008100910D8A4F7
:1054A00054EF2AF056EF2AF06EEF2AF0000E026E4B
:1054B000000E036E000E046E000E056E800E0412C8
:1054C0007F0E05121250051202C502F503C503F541
:1054D00004C504F505C505F5B1EF2BF01950D8A4A6
:1054E00074EF2AF076EF2AF080EF2AF0000E026EB9
:1054F000000E036E000E046E000E056EB1EF2BF071
:105500001A5019C50AF50B6A0A5E000E0B5A7F0E77
:105510000A24136E000E0B20146E02C50EF503C58F
:105520000FF504C510F505C511F5000E026E000E4D
:10553000036E000E046E000E056E000E156E000E5A
:10554000166E000E176E000E186E000E1A6EE1EF4A
:105550002AF01A50D8B4AFEF2AF0B1EF2AF0C8EF12
:105560002AF0D8900E360F3610361136D890023603
:1055700003360436053618AEC0EF2AF0C2EF2AF023
:10558000C3EF2AF00280D890153616361736183633
:1055900006500E5C07500F5808501058095011580B
:1055A000D8A0D5EF2AF0D7EF2AF0E0EF2AF0188C38
:1055B00006500E5E07500F5A0850105A0950115AE3
:1055C0001A2A190E1A64E7EF2AF0E9EF2AF0A9EF78
:1055D0002AF00E500F1010101110D8B4F2EF2AF06C
:1055E000F4EF2AF00CEF2BF015800CEF2BF0D89095
:1055F000023603360436053618AE01EF2BF003EF02
:105600002BF004EF2BF00280D890153616361736A3
:1056100018361306D8A0140604AE11EF2BF013EFC2
:105620002BF0F7EF2AF0000E1A6E18AE1AEF2BF0DF
:105630001CEF2BF040EF2BF0FF0E15140A6EFF0E3F
:1056400016140B6EFF0E17140C6E7F0E18140D6ED1
:105650000A500B100C100D10D8B431EF2BF033EFB3
:105660002BF037EF2BF0010E1A6E40EF2BF002A05B
:105670003CEF2BF03EEF2BF040EF2BF033EF2BF015
:105680001A50D8B446EF2BF048EF2BF06CEF2BF00C
:10569000010E0226000E03220422052205A053EF6C
:1056A0002BF055EF2BF06CEF2BF002C50AF503C57C
:1056B0000BF504C50CF505C50DF50D340D320C3296
:1056C0000B320A320AC502F50BC503F50CC504F509
:1056D0000DC505F5134A142A14BE77EF2BF01450AC
:1056E00008E11328D8A077EF2BF079EF2BF084EFA7
:1056F0002BF0000E146E1368000E026E000E036E87
:10570000000E046E000E056E14BE91EF2BF01450C7
:1057100006E11304D8B08FEF2BF091EF2BF09FEF41
:105720002BF0000E146E000E136E000E026E000EB3
:10573000036E000E046E000E056E000E126E13C591
:1057400019F519A0A6EF2BF0A8EF2BF0ABEF2BF07B
:10575000048EACEF2BF0049ED8901930056E62EFEA
:105760002AF012008AC52BF58BC52CF58CC52DF5BA
:105770008DC52EF51BC52BF51CC52CF51DC52DF5AE
:105780001EC52EF5810E1F6EFF0E206E2BC521F556
:105790002CC522F52DC523F52EC524F5180ED6EF00
:1057A0002BF0D8902432233222322132E82ED1EF4E
:1057B0002BF021501F24296E000E20202A6E2ABEB5
:1057C000EBEF2BF02A5009E1170E295CD8A0EBEF84
:1057D0002BF0EDEF2BF0F7EF2BF01BC51BF51CC5E5
:1057E0001CF51DC51DF51EC51EF5BAEF2CF02ABE11
:1057F000FCEF2BF0FEEF2BF06EEF2CF029C51FF520
:10580000FF0E206EFF0E216E7F0E226E000E236EA5
:105810001F660DEF2CF015EF2CF0233423322232CB
:10582000213220321F2E08EF2CF020C525F521C58E
:1058300026F522C527F523C528F525502B141F6E04
:1058400026502C14206E27502D14216E28502E1413
:10585000226E1F50201021102210D8A432EF2CF0FD
:1058600034EF2CF036EF2CF0EDEF2BF02BC51FF5BD
:105870002CC520F52DC521F52EC522F5200E46EFAD
:105880002CF0D8902232213220321F32E82E41EF04
:105890002CF01F50201021102210D8B452EF2CF001
:1058A00054EF2CF05CEF2CF025502B2626502C22A8
:1058B00027502D2228502E22251C1F6E261C206EBC
:1058C000271C216E281C226E1F502B1620502C16D0
:1058D00021502D1622502E16B2EF2CF02BC51FF59D
:1058E0002CC520F52DC521F52EC522F5200E7EEF05
:1058F0002CF0D8902232213220321F32E82E79EF5C
:105900002CF01F50201021102210D8A48AEF2CF068
:105910008CEF2CF096EF2CF0000E2B6E000E2C6E00
:10592000000E2D6E000E2E6EB2EF2CF0D8902B34A0
:105930001F6E2C34206E2D34216E2E34226E1F509B
:10594000201021102210D8B4A8EF2CF0AAEF2CF0D0
:10595000B2EF2CF0000E2B6E000E2C6E800E2D6E12
:10596000BF0E2E6E2BC51BF52CC51CF52DC51DF5C8
:105970002EC51EF51200000E176E000E166E000EDC
:10598000106E000E0F6EC7EF2CF0094A0A2A010EA6
:10599000156E610024F4F6F4610028F4F7F4000EAB
:1059A000F86E0800F550200AD8B4D9EF2CF0DBEFE0
:1059B0002CF0FCEF2CF0F70E0B6EFF0E0C6E61005E
:1059C00024F4F6F4610028F4F7F4000EF86E0800F1
:1059D000F5500D6E0E6A0B500D260C500E220E5017
:1059E00009E1050E0D5CD8A0F8EF2CF0FAEF2CF0D1
:1059F000FCEF2CF0000E156E15C511F5126A115052
:105A00001210D8A406EF2DF008EF2DF0C5EF2CF002
:105A100012EF2DF0000E106E010E0F6E094A0A2AC9
:105A20004FEF2DF0610024F4F6F4610028F4F7F450
:105A3000000EF86E0800F5500B6E0C6A0C50000A50
:105A4000D8B425EF2DF04FEF2DF00B502B0AD8B422
:105A50000EEF2DF0060AD8B40AEF2DF04FEF2DF01F
:105A600016C502F517C503F5000E056E0A0E046E85
:105A7000C4EC37F0610024F4F6F4610028F4F7F484
:105A8000000EF86E0800F550025E000E035A300E4C
:105A90000224166E000E0320176E0EEF2DF0D00EAE
:105AA0000B6EFF0E0C6E610024F4F6F4610028F416
:105AB000F7F4000EF86E0800F5500D6E0E6A0B50EC
:105AC0000D260C500E220E500AE10A0E0D5CD8A0D5
:105AD0006CEF2DF06FEF2DF0010E70EF2DF0000E3A
:105AE000136E146A13501410D8A479EF2DF07BEFC5
:105AF0002DF030EF2DF00F501010D8A482EF2DF0C4
:105B000084EF2DF092EF2DF016C50BF517C50CF5AF
:105B10000B1E0C1E0B4A0C2A0BC509F50CC50AF509
:105B200096EF2DF016C509F517C50AF512000A6E95
:105B30000A50D8B49EEF2DF0A0EF2DF0C2EF2DF05B
:105B400005BEA7EF2DF0A5EF2DF0C2EF2DF002C599
:105B500006F503C507F504C508F505C509F5061ED4
:105B6000071E081E091E062A000E07220822092207
:105B700006C50CF507C50DF508C50EF509C50FF5E9
:105B8000CAEF2DF002C50CF503C50DF504C50EF5E1
:105B900005C50FF50250031004100510D8A4D3EF6B
:105BA0002DF0D5EF2DF0DFEF2DF0000E026E000E80
:105BB000036E000E046E000E056E70EF2EF0960E52
:105BC0000B6EE9EF2DF00B2AD8900F320E320D320A
:105BD0000C32000E0C14066E000E0D14076E000E33
:105BE0000E14086EFE0E0F14096E065007100810F2
:105BF0000910D8A4FEEF2DF000EF2EF0E3EF2DF00A
:105C00000EEF2EF00B2A010E0C26000E0D220E2296
:105C10000F22D8900F320E320D320C32000E0C14BF
:105C2000066E000E0D14076E000E0E14086EFF0EA9
:105C30000F14096E0650071008100910D8A423EF9E
:105C40002EF025EF2EF002EF2EF02DEF2EF00B06AA
:105C5000D8900C360D360E360F360EBE32EF2EF0C3
:105C600034EF2EF03CEF2EF0020E0B603AEF2EF0E8
:105C70003CEF2EF027EF2EF00BB041EF2EF043EF6C
:105C80002EF044EF2EF00E9ED8900B320BC506F589
:105C9000076A086A096A06C509F5086A076A066A92
:105CA00006500C1207500D1208500E1209500F1218
:105CB0000A50D8B45EEF2EF060EF2EF068EF2EF0B1
:105CC00005BE67EF2EF065EF2EF068EF2EF00F8E19
:105CD0000CC502F50DC503F50EC504F50FC505F598
:105CE000120001EC38F0070E0601BE6F580EBD6FB2
:105CF000590EE82EFED7BD2FFCD7BE2FFAD700D005
:105D0000D68E000E036E410E026E66EC37F0050E65
:105D10007FEC37F002C5A2F503C5A3F5A2C502F5D5
:105D2000A3C503F5046A056A000E97EC2DF002C5C1
:105D300010F503C511F504C512F505C513F5670E79
:105D4000146E400E156E530E166E3A0E176EBEECA4
:105D500027F010C596F511C597F512C598F513C52E
:105D600099F596C502F597C503F598C504F599C54B
:105D700005F50A0E066ED70E076E230E086E3C0E52
:105D8000096EE5EC29F002C592F503C593F504C54B
:105D900094F505C595F5460E0501EC6F370EED6FD0
:105DA00092C5EEF593C5EFF594C5F0F595C5F1F5FF
:105DB000D9EC37F0C2B0DFEF2EF0E2EF2EF0010E9B
:105DC000E3EF2EF0000EFF0A0601BD6FC250BD19B1
:105DD000FE0BBD19C26EA40E0D6E060E0E6E3E0EAB
:105DE0000F6E370E106E25EC31F00D500E10D8B43A
:105DF000FCEF2EF0FEEF2EF0FFEF2EF0C386A40E88
:105E00000D6E060E0E6E4D0E0F6E370E106E25ECDB
:105E100031F00D500E10D8B410EF2FF012EF2FF01C
:105E200013EF2FF0C396070E0601BE6F580EBD6F1D
:105E3000590EE82EFED7BD2FFCD7BE2FFAD700D0C3
:105E400087EF2EF00DEF00F0043405340B6E0B508D
:105E5000D8A42DEF2FF02FEF2FF039EF2FF0000EF9
:105E6000026E000E036E000E046E000E056EA6EFAD
:105E70002FF002C506F503C507F504C508F505C5ED
:105E800009F5200E49EF2FF0D89009320832073279
:105E90000632E82E44EF2FF006500A6E048EFF0EF5
:105EA0000216FF0E0316FF0E0416000E0516960EC0
:105EB0000B5E0BBE60EF2FF05EEF2FF076EF2FF052
:105EC0000B50800A970FD8B068EF2FF06AEF2FF0D1
:105ED0006CEF2FF02FEF2FF0D89005320432033201
:105EE00002320B3E6CEF2FF08EEF2FF01F0E0B6483
:105EF0007CEF2FF07EEF2FF086EF2FF02FEF2FF0BB
:105F0000D89002360336043605360B060B50D8A45B
:105F10008CEF2FF08EEF2FF080EF2FF00A50D8B4D7
:105F200094EF2FF096EF2FF09EEF2FF0051E041E3A
:105F3000031E026C000E03220422052202C502F594
:105F400003C503F504C504F505C505F51200000EEB
:105F50002914316E000E2A14326E800E2B14336E0B
:105F60007F0E2C14346E3150321033103410D8A4FC
:105F7000BCEF2FF0BEEF2FF0C6EF2FF0000E296E12
:105F8000000E2A6E000E2B6E000E2C6E000E2D14CD
:105F9000316E000E2E14326E800E2F14336E7F0E73
:105FA0003014346E3150321033103410D8A4DBEF7B
:105FB0002FF0DDEF2FF0E5EF2FF0000E2D6E000E2D
:105FC0002E6E000E2F6E000E306E2CAEEAEF2FF00C
:105FD000ECEF2FF0F5EF2FF0296C2A1ED8B02A2A0B
:105FE0002B1ED8B02B2A800E2C5630AEFAEF2FF095
:105FF000FCEF2FF005EF30F02D6C2E1ED8B02E2ABE
:106000002F1ED8B02F2A800E3056000E291A000EEF
:106010002A1A000E2B1A800E2C1A000E2D1A000EB2
:106020002E1A000E2F1A800E301A2D50295C2E5079
:106030002A582F502B5830502C58D8B022EF30F01F
:1060400024EF30F027EF30F0D89028EF30F0D880F0
:1060500012008EC50CF58FC50DF590C50EF591C5D6
:106060000FF502C50CF503C50DF504C50EF505C504
:106070000FF50CC506F50DC507F50EC508F50FC5DE
:1060800009F5180E49EF30F0D8900932083207327E
:106090000632E82E44EF30F006500A6E0B6A0A50C2
:1060A0000B10D8A456EF30F058EF30F078EF30F006
:1060B000D8900C34066E0D34076E0E34086E0F3413
:1060C000096E0650071008100910D8A46AEF30F0C6
:1060D0006CEF30F072EF30F0000E036E020E026EC5
:1060E000A7EF30F0000E036E030E026EA7EF30F044
:1060F0000A280B10D8A47FEF30F081EF30F0A3EF27
:1061000030F00CC506F50DC507F50EC508F50FC531
:1061100009F5090ED8900636073608360936E82EF6
:106120008AEF30F00650071008100910D8B49BEF22
:1061300030F09EEF30F0010E9FEF30F0000E026E57
:10614000036AA7EF30F0000E036E040E026E120019
:1061500002C509F503C50AF504C50BF505C50CF51F
:106160000606D8A00706062806E10728D8A4BBEF34
:1061700030F0BDEF30F0CAEF30F0000E036E000ECD
:10618000026E24EF31F0094A0A2A0B4A0C2A06064D
:10619000D8A00706610024F4D9F4610028F4DAF4E9
:1061A000DF50D8B4D6EF30F0D8EF30F00DEF31F04B
:1061B00061002CF4F6F4610030F4F7F4000EF86E90
:1061C0000800F5500009D8B4E8EF30F0EAEF30F0FD
:1061D0000DEF31F006500710D8B4F1EF30F0F3EFC7
:1061E00030F00DEF31F0610024F4D9F4610028F4AF
:1061F000DAF4DF50086E61002CF4F6F4610030F43C
:10620000F7F4000EF86E0800F5500818D8B40BEF3C
:1062100031F00DEF31F0C3EF30F0610024F4D9F428
:10622000610028F4DAF4DF50086E61002CF4F6F413
:10623000610030F4F7F4000EF86E0800F550085CC9
:10624000026E036AD8A0030612000F501010D8B4D3
:106250002CEF31F02EEF31F086EF31F00FC502F563
:1062600010C503F507EC36F002C511F503C512F5AC
:106270006FEF31F00DC502F50EC503F50FC504F53E
:1062800010C505F511C506F512C507F5A8EC30F0E7
:1062900002500310D8A44FEF31F051EF31F057EF17
:1062A00031F00DC50DF50EC50EF58AEF31F0010E7A
:1062B0000D24026E000E0E20036E61003CF4F6F415
:1062C000610040F4F7F4000EF86E0800F550046E1B
:1062D000056ADDEC35F002C50DF503C50EF50D5070
:1062E0000E10D8B476EF31F078EF31F086EF31F060
:1062F000610034F4D9F4610038F4DAF4DF50D8A442
:1063000084EF31F086EF31F03AEF31F0000E0D6E90
:10631000000E0E6E12000501A0A191EF31F093EF77
:1063200031F09DEF31F016C50DF517C50EF514C50A
:106330000FF515C510F5F0EC36F019BEA2EF31F0EF
:10634000A4EF31F0AAEF31F018C51DF519C51EF5FF
:10635000AEEF31F0000E1E6E000E1D6E000E1C6EB4
:10636000000E1B6EC0EF31F0000E056E200E046EA5
:1063700014C506F515C507F5CCEC34F01B4A1C2AEC
:106380001D501B5C1C50800A1A6E1E50800A1A5841
:10639000D8A0CDEF31F0CFEF31F0B4EF31F00501FF
:1063A000A0B1D5EF31F0D7EF31F0E1EF31F016C504
:1063B0000DF517C50EF514C50FF515C510F5F0EC64
:1063C00036F016C502F517C503F507EC36F01D507B
:1063D0000224146E1E500320156E12003C0E5D2424
:1063E000D96EDA6A060EDA22000EDF6E0201B2A75B
:1063F000FCEF31F0FEEF31F013EF32F03C0E5D2494
:10640000D96EDA6A060EDA220601DF8202D813EFAD
:1064100032F00500FA6EB451FD6EB551FE6EB65104
:10642000FF6EFA5012000201B2A319EF32F01BEF17
:1064300032F030EF32F03C0E5D24D96EDA6A060E8F
:10644000DA220601DF8402D830EF32F00500FA6E5E
:10645000B151FD6EB251FE6EB351FF6EFA50120093
:106460003C0E5D24D96EDA6A060EDA22DF50D8B40B
:106470003CEF32F03EEF32F04EEF32F002D84CEF0C
:1064800032F00500FA6E0601AE51FD6EAF51FE6EA0
:10649000B051FF6EFA50120050EF32F0AEEC37F010
:1064A0001200000E076E05BE5AEF32F058EF32F0C0
:1064B00060EF32F0046C051ED8B0052A010E076E9D
:1064C00003BE67EF32F065EF32F06DEF32F0026C31
:1064D000031ED8B0032A010E071A000E096E000E23
:1064E000086E04500510D8B478EF32F07AEF32F02D
:1064F000A2EF32F0010E066E82EF32F0D890043631
:106500000536062A05AE87EF32F089EF32F07EEFCE
:1065100032F0D890083609360450025C0550035812
:10652000D8A095EF32F097EF32F09CEF32F00450A4
:10653000025E0550035A0880D89005320432062EB8
:1065400089EF32F00750D8B4A8EF32F0AAEF32F05A
:10655000AEEF32F0086C091ED8B0092A08C502F562
:1065600009C503F51200A2A2B8EF32F0BAEF32F07B
:10657000D1EF32F0B2A2BFEF32F0C1EF32F0D1EF83
:1065800032F002D8CFEF32F00500FA6E0601B751B3
:10659000FD6EB851FE6EB951FF6EFA50120010EF49
:1065A00033F0A2A0D6EF32F0D8EF32F010EF33F094
:1065B000B2A0DDEF32F0DFEF32F010EF33F002D8AF
:1065C000EDEF32F00500FA6E0601BA51FD6EBB51D7
:1065D000FE6EBC51FF6EFA50120078EC38F00501E7
:1065E000A86FA40EA725D96EDA6A060EDA2261001A
:1065F000A0F6DFF40A0EA819D8A401EF33F003EFD8
:1066000033F00FEF33F0A40EA725D96EDA6A060E29
:10661000DA22000EDF6E000EA76F10EF33F0A72B0B
:106620001100000E0301F96F000EFA6F000ED86F13
:10663000000EFB6F000ED96F000EDA6F000EDB6FDD
:10664000000EDC6F000EDF6F000EE06F000EE36FD8
:10665000000EE46F000EE56F000EE66F000EE76FB0
:10666000000EEA6F000EEB6F050EEC6F000EEE6F82
:10667000000EEF6F000EF06F000EF16F000EF26F64
:10668000000EF36F000EF46F100EF56F000EF66F34
:10669000000EF76F000EF86F000EFC6FAF94AF9610
:1066A000B090000E026E000E036E000E046E6CECD5
:1066B00038F0000E026E000E036E000E046E5EECEB
:1066C00038F0000E026E000E036E000E046E65ECD4
:1066D00038F0840E0301F36F1200A290DC0E026EFC
:1066E000630E036E000E046E42EC38F0A2929A0E16
:1066F000026E6D0E036E000E046E3BEC38F0000E61
:106700000201A56F000EA66F000EA76F000EA86F06
:10671000000EA96F000EAA6FB00EAB6F800EAC6FAB
:10672000000EAD6F030EAE6F010EAF6F000EB06FB7
:10673000000EB16F000EB26F000EB36F060E026E48
:10674000710E036E000E046E50EC38F0040E026EF3
:10675000710E036E000E046E49EC38F0F60E026EF8
:10676000700E036E000E046E57EC38F0000E05013B
:10677000A96F000EAD6F000EAC6F080EFB6F000E20
:106780005D6E000EAB6F000EAA6FA2801200000EAD
:10679000076E03BED0EF33F0CEEF33F0D6EF33F019
:1067A000026C031ED8B0032A010E076E05BEDDEF92
:1067B00033F0DBEF33F0E1EF33F0046C051ED8B0BB
:1067C000052A04500510D8B4E8EF33F0EAEF33F0AF
:1067D0000EEF34F0010E066EF2EF33F0D89004366F
:1067E0000536062A05AEF7EF33F0F9EF33F0EEEF9A
:1067F00033F00450025C05500358D8A002EF34F087
:1068000004EF34F008EF34F00450025E0550035AF0
:10681000D89005320432062EF9EF33F00750D8B481
:1068200014EF34F016EF34F01AEF34F0026C031E5C
:10683000D8B0032A02C502F503C503F51200000E05
:10684000C26E000EC16E000EBE6E000EC36E000E54
:10685000BF6E000EC06E040ECA6EC20ECB6EC6684E
:10686000F90EC76EC868C968040118691069E90E95
:10687000086F040E206FC00E286FF70E006F000E19
:10688000196F000E296F000E216F000E096F000EA8
:10689000016F000E116F000E226F000E2A6F000EA6
:1068A000026F060E0A6F180E126F000E1A6F036940
:1068B0000B6913691B69070E236F2B6904690C6947
:1068C00014691C690F0E246F2C690C0E0201696F8C
:1068D0000A0E706F370E0A6F380E0B6F200E296F7D
:1068E000290E726F150E2B6F090E716F1200000EBC
:1068F00002140A6E000E03140B6E800E04140C6E4C
:106900007F0E05140D6E0A500B100C100D10D8A43C
:106910008CEF34F08EEF34F096EF34F0000E026E10
:10692000000E036E000E046E000E056E000E0614BF
:106930000A6E000E07140B6E800E08140C6E7F0E8C
:1069400009140D6E0A500B100C100D10D8A4ABEFEB
:1069500034F0ADEF34F0B5EF34F0000E066E000EFB
:10696000076E000E086E000E096E065002180FE149
:10697000075003180CE10850041809E109500518E4
:10698000D8B4C5EF34F0C7EF34F0CAEF34F0D89084
:10699000CBEF34F0D880120006500710D8B4D3EFF4
:1069A00034F0D5EF34F0DEEF34F006500710D8A401
:1069B000DCEF34F0DEEF34F0E3EF34F0045073EC4E
:1069C00038F016EF35F020EE04F00650D9260750C7
:1069D000DA22DE50DE10D8B4F0EF34F0F2EF34F00B
:1069E0000DEF35F020EE04F00650D9260750DA22DC
:1069F00010EE02F00650E1260750E222DE50E65C7F
:106A0000E650800A0C6EDE50800A0C58D8B00BEFAE
:106A100035F00DEF35F016EF35F020EE02F00650B0
:106A2000D9260750DA22DE2A000EDD221200E8C540
:106A300059F5E9C55AF5000E05019B6F000E9A6FD6
:106A400035EF35F0E6C541F5E7C542F5590E436E21
:106A5000050E446EEAC545F5EBC546F509EC22F096
:106A6000415005019A2742509B23610064F5F6F4DA
:106A7000610068F5F7F4000EF86E0800F5500009A3
:106A8000D8A445EF35F047EF35F022EF35F09AC541
:106A9000E6F59BC5E7F5120004C508F505C509F53F
:106AA00002C50AF503C50BF50850066E0950076EBE
:106AB000084A092A610018F4F6F461001CF4F7F49E
:106AC000000EF86E610028F4D9F461002CF4DAF4B9
:106AD0000A4A0B2A360EF76403D00800F55005D099
:106AE000F6C4E9F4F7C4EAF4EF50DF6EDF50D8A43F
:106AF0007CEF35F07EEF35F054EF35F01200BF0E2D
:106B00000A6EFF0E0B6E08C50CF509C50DF50A508F
:106B10000C260B500D220D500AE11A0E0C5CD8A069
:106B200094EF35F097EF35F0010E98EF35F0000E49
:106B30000E6E0F6A0E500F10D8B4A1EF35F0A3EF10
:106B400035F0AAEF35F0200E0810086E0950096ED6
:106B5000AEEF35F008C508F509C509F51200026E5B
:106B60000501FB51D8B4B7EF35F0B9EF35F0B0EF10
:106B700035F0A2B2BEEF35F0C0EF35F0C5EF35F01D
:106B8000610008F4A3F2DBEF35F0A2924C0EAD25C4
:106B9000D96EDA6A060EDA22610008F4DFF4AD2B52
:106BA000070EAD65D6EF35F0D8EF35F0DAEF35F0FA
:106BB000000EAD6FFB07A2821200610008F4D9F449
:106BC00061000CF4DAF40450DE18D8A4EAEF35F0D2
:106BD000ECEF35F0F2EF35F002C502F503C503F531
:106BE00006EF36F0610008F4D9F461000CF4DAF431
:106BF000024A032ADF50D8A400EF36F002EF36F045
:106C0000DDEF35F0000E026E000E036E120002C5BD
:106C100004F503C505F50FEF36F0024A032A6100BB
:106C200008F4F6F461000CF4F7F4000EF86E360E7A
:106C3000F76403D00800F55005D0F6C4E9F4F7C4B2
:106C4000EAF4EF500009D8A428EF36F02AEF36F026
:106C50000DEF36F00450025C026E05500358036ECF
:106C60001200010E086E200E02180310D8B43BEF7C
:106C700036F03DEF36F056EF36F0F70E046EFF0EAD
:106C8000056E02C506F503C507F504500626055036
:106C90000722075009E1050E065CD8A052EF36F036
:106CA00054EF36F056EF36F0000E086E08C502F5C8
:106CB000036A12000501AA51D8B461EF36F063EF00
:106CC00036F05AEF36F03C0EAB25D96EDA6A060E76
:106CD000DA22DF50A96F440EAB25D96EDA6A060EB0
:106CE000DA22DF50016EAB2B070EAB657AEF36F080
:106CF0007CEF36F07EEF36F0000EAB6FA290AA0765
:106D0000A28001501200FC0EF66E700EF76E000E9F
:106D1000F86E01EEFCF110EE04F00900F5C4EEF49B
:106D2000E550E150FAE101EE00F2AE0EEE6AE8063F
:106D3000FDE101EE60F14E0EEE6AE806FDE15D6AEE
:106D40000401080E5D6F000E5E6F000E5F6F0001A4
:106D500071EF2EF0000E2D1A000E2E1A000E2F1AB3
:106D6000800E301A29C502F52AC503F52BC504F596
:106D70002CC505F52DC506F52EC507F52FC508F55B
:106D800030C509F55EEC25F002C529F503C52AF5E5
:106D900004C52BF505C52CF51200080E0501FB6195
:106DA000D4EF36F0D6EF36F0EEEF36F04C0EAC25E1
:106DB000D96EDA6A060EDA22DF500201A36F0501EE
:106DC000AC2B070EAC65E7EF36F0E9EF36F0EBEFF2
:106DD00036F0000EAC6FFB2BEFEF36F0A2921200F4
:106DE000000E136E000E126E01EF37F011C504F5A0
:106DF000056A0FC506F510C507F5CCEC34F0124A4C
:106E0000132A12500D24D96E13500E20DA6EDF5063
:106E1000116E1150D8A40FEF37F011EF37F0F6EFE5
:106E200036F01200BF0E046EFF0E056E02C506F5A9
:106E300003C507F5045006260550072207500AE14E
:106E40001A0E065CD8A027EF37F02AEF37F0010EB4
:106E50002BEF37F0000E026E036A1200025003108F
:106E600004100510D8B437EF37F039EF37F041EFA1
:106E700037F0000E021A000E031A000E041A800EDC
:106E8000051A02C502F503C503F504C504F505C5D9
:106E900005F51200D00E046EFF0E056E02C506F554
:106EA00003C507F5045006260550072207500AE1DE
:106EB0000A0E065CD8A05FEF37F062EF37F0010EE4
:106EC00063EF37F0000E026E036A1200FF0E021627
:106ED000030E0316030142A970EF37F072EF37F08B
:106EE00079EF37F0060ED89002360336E82E73EFAE
:106EF00037F00350416F610008F440F31200066E52
:106F0000610018F4ECF30301F38FF39DF381F3B107
:106F10008CEF37F08EEF37F087EF37F0EB51056EDF
:106F2000046AEA510424026E000E0520036E12006A
:106F3000040E0201946F800E956F180E966F030E6B
:106F40009E6F000E9A6F000E9B6F000E976F000EE3
:106F50008C6F000E8D6F000E9D6F1200440E5D242D
:106F6000D96EDA6A060EDA22A1C2DFF45D2A070EB4
:106F70005D64BDEF37F0BFEF37F0C1EF37F0000EC3
:106F80005D6E0501AA2B1200025004026100CCF3D1
:106F900006F56100D0F307F502500502F35007260D
:106FA00003500402F350072606C502F507C503F592
:106FB0001200EE0E5B6E050E5C6E000E0501E66FB4
:106FC000000EE76FECC5E8F5EDC5E9F55B0EEA6F7D
:106FD000050EEB6F17EC35F01200000E0001606F2C
:106FE000000E616F000E626F000E636F000E646F23
:106FF000000E656F000E666F000E676F000E686F03
:10700000120080EC38F0EDEC37F098EC37F011EC32
:1070100033F01FEC34F02FEC38F023EC38F014ECA4
:1070200038F06DEC33F01200010E0301266F000EF4
:10703000256F000E276F7C0E236F000E226FB19616
:10704000900E246F12008C0E0301426F000E416FF0
:10705000000E406F4C51FC0B01094C6F1200700E7A
:107060000001AD6F000EAF6F000EB36F020EB16F77
:10707000000EB06F120002C5B7F603C5B8F604C51E
:10708000B9F6120002C5BAF603C5BBF604C5BCF6D4
:10709000120002C5B1F603C5B2F604C5B3F612007C
:1070A00002C5B4F603C5B5F604C5B6F6120002C5AE
:1070B000AEF603C5AFF604C5B0F6120002C5F5F58D
:1070C00003C5F6F504C5F7F5120002C5F2F503C5D0
:1070D000F3F504C5F4F5120002C5F8F503C5F9F59A
:1070E00004C5FAF51200036E0350AFEC35F0120040
:1070F0005AEC36F01200AEEC37F012006740533A0B
:08710000D69A120012001200E1
:020000040020DA
:10000000FF0FFF0FFF0FFF0FFF0FFF0FFF0FFF0F80
:10001000FF0FFF0FFF0FFF0FFF0FFF0FFF0FFF0F70
:10002000FF0FFF0FFF0FFF0FFF0FFF0FFF0FFF0F60
:10003000FF0FFF0FFF0FFF0FFF0FFF0FFF0FFF0F50
:020000040030CA
:10000000FAEFF7FF9FFFFFFFFFFFFFFFFFFFFFFF7D
:10001000FFFFFFFFFFFFFFFFFFFFFFFFFFFFFFFFF0
:04002000FFFFFFFFE0
:00000001FF
