:040000000DEF00F010
:0400080051EF34F090
:06001800FF00A8EF35F027
:1037000000000000000000000000000000000000B9
:1037100000000000000000000000000000000000A9
:103720000000000000000000000000000000000099
:1037300000000000000000000000280C01062533F6
:103740002E33660A00494E46004E414E00696E66B1
:09375000006E616E006C66000061
:10375A00000E0501C86F000EC76F37C5D9F538C509
:10376A00DAF539C5DBF53AC5DCF5DCBFC1EF1BF08C
:10377A00BFEF1BF0D7EF1BF0000EC86F010EC76F2B
:10378A00D9C502F5DAC503F5DBC504F5DCC505F5CF
:10379A0070EC36F002C5D9F503C5DAF504C5DBF5D8
:1037AA0005C5DCF5000E0501E06F000EDF6F9CC554
:1037BA00CBF59DC5CCF5C751C811D8A4E7EF1BF0CE
:1037CA00E9EF1BF0F0EF1BF0A0A5EEEF1BF0F0EF16
:1037DA001BF00AEF1CF0C751C811D8A4F7EF1BF071
:1037EA00F9EF1BF0FFEF1BF0000EAE6F2B0EAD6F63
:1037FA0003EF1CF0000EAE6F2D0EAD6FADC554F683
:10380A00DF4BE02BCB07D8A0CC07D9C502F5DAC528
:10381A0003F5DBC504F5DCC505F527EC30F0020439
:10382A000310D8A41BEF1CF01DEF1CF074EF1CF062
:10383A00BF0E3C6EFF0E3D6E3B503E6E3F6A3C50E3
:10384A003E263D503F223F500AE11A0E3E5CD8A068
:10385A0031EF1CF034EF1CF0010E35EF1CF0000EB6
:10386A000501AF6FB06BAF51B011D8B43FEF1CF088
:10387A0041EF1CF04FEF1CF0540EDF25026E060ECE
:10388A00E021036E450E046E370E056EC5EC34F06A
:10389A005BEF1CF0540EDF25026E060EE021036E6C
:1038AA004D0E046E370E056EC5EC34F00501FD0EA3
:1038BA00CB27FF0ECC2335C514F536C515F5540EA6
:1038CA00166E060E176ECBC518F5CCC519F523EC86
:1038DA0031F014C535F515C536F501EF22F0D9C515
:1038EA0002F5DAC503F5DBC504F5DCC505F527ECF9
:1038FA0030F002500310D8A485EF1CF087EF1CF0BB
:10390A00DEEF1CF0BF0E3C6EFF0E3D6E3B503E6E6E
:10391A003F6A3C503E263D503F223F500AE11A0E74
:10392A003E5CD8A09BEF1CF09EEF1CF0010E9FEFAF
:10393A001CF0000E0501B16FB26BB151B211D8B4CF
:10394A00A9EF1CF0ABEF1CF0B9EF1CF0540EDF2509
:10395A00026E060EE021036E490E046E370E056EE6
:10396A00C5EC34F0C5EF1CF0540EDF25026E060ECE
:10397A00E021036E510E046E370E056EC5EC34F06D
:10398A000501FD0ECB27FF0ECC2335C514F536C530
:10399A0015F5540E166E060E176ECBC518F5CCC566
:1039AA0019F523EC31F014C535F515C536F501EFD7
:1039BA0022F0000E0501E16F000EE26F800EE36F48
:1039CA003F0EE46F000EDE6F000EDD6FD9C502F503
:1039DA00DAC503F5DBC504F5DCC505F5000E066E90
:1039EA00000E076E000E086E000E096EB1EC33F081
:1039FA00D8B002EF1DF004EF1DF087EF1DF023EFA2
:103A0A001DF0E1C510F5E2C511F5E3C512F5E4C5EF
:103A1A0013F5000E146E000E156E200E166E410E72
:103A2A00176EB7EC27F010C5E1F511C5E2F512C51E
:103A3A00E3F513C5E4F50501DD4BDE2BD9C529F500
:103A4A00DAC52AF5DBC52BF5DCC52CF5000E146E9C
:103A5A00000E156E200E166E410E176EE1C510F59A
:103A6A00E2C511F5E3C512F5E4C513F5B7EC27F085
:103A7A0010C52DF511C52EF512C52FF513C530F554
:103A8A00A5EC2FF0D8B04CEF1DF04EEF1DF006EF6D
:103A9A001DF06EEF1DF0E1C502F5E2C503F5E3C5C1
:103AAA0004F5E4C505F5000E066E000E076E200E3D
:103ABA00086E410E096EDEEC29F002C5E1F503C578
:103ACA00E2F504C5E3F505C5E4F50501DD07D8A06F
:103ADA00DE07D9C529F5DAC52AF5DBC52BF5DCC51C
:103AEA002CF5E1C52DF5E2C52EF5E3C52FF5E4C5A4
:103AFA0030F5A5EC2FF0D8A085EF1DF087EF1DF06B
:103B0A0050EF1DF03BC508F5096AF8EC34F008508F
:103B1A000501CE6FCEC5CDF5670ECE19D8A498EFA4
:103B2A001DF09AEF1DF0C0EF1DF09E519F11D8A411
:103B3A00A1EF1DF0A3EF1DF0A7EF1DF0000E9F6F80
:103B4A00010E9E6F9FBFB4EF1DF09F5106E19E05C7
:103B5A00D8B0B2EF1DF0B4EF1DF0BAEF1DF0000EB1
:103B6A00CA6F060EC96FC9EF1DF09EC5C9F59FC57C
:103B7A00CAF5C9EF1DF09FBFC5EF1DF0C7EF1DF0D5
:103B8A00B4EF1DF0BAEF1DF0670ECE19D8A4D0EF2E
:103B9A001DF0D2EF1DF001EF1EF0DEAFE0EF1DF0D9
:103BAA00FC0EDD5DFF0EDE59D8A0DEEF1DF0E0EF62
:103BBA001DF0FFEF1DF0FF0E3C6EFF0E3D6EC9C5F6
:103BCA003EF5CAC53FF53C503E263D503F22DD51E9
:103BDA003E5C3F50800A406EDE51800A4058D8A0B1
:103BEA00F9EF1DF0FBEF1DF0FFEF1DF0660ECD6F34
:103BFA0001EF1EF0650ECD6FC9C5BFF5CAC5C0F588
:103C0A00670ECE19D8A40CEF1EF00EEF1EF01EEFB1
:103C1A001EF0660ECD19D8A415EF1EF017EF1EF090
:103C2A0020EF1EF0DEBF1EEF1EF01CEF1EF020EF8D
:103C3A001EF0BF4BC02B660ECD19D8A427EF1EF07D
:103C4A0029EF1EF049EF1EF0DEBF30EF1EF02EEF17
:103C5A001EF03CEF1EF0000EE16F000EE26F800EC8
:103C6A00E36F3F0EE46F000EDE6F000EDD6F670E2E
:103C7A00CE19D8B443EF1EF045EF1EF049EF1EF0FF
:103C8A00DD51BF27DE51C023000ED86F000ED76F5B
:103C9A00D9C5CFF5DAC5D0F5DBC5D1F5DCC5D2F586
:103CAA00E1C5C1F5E2C5C2F5E3C5C3F5E4C5C4F58E
:103CBA00DAEF1EF0CFC502F5D0C503F5D1C504F57C
:103CCA00D2C505F5E1C506F5E2C507F5E3C508F570
:103CDA00E4C509F5DEEC29F002C51BF503C51CF5A0
:103CEA0004C51DF505C51EF5ABEC2BF01BC5D3F5B8
:103CFA001CC5D4F51DC5D5F51EC5D6F5D3C502F527
:103D0A00D4C503F5D5C504F5D6C505F522EC2FF0C3
:103D1A0002C5C5F503C5C6F5CFC529F5D0C52AF52F
:103D2A00D1C52BF5D2C52CF5E1C514F5E2C515F5BB
:103D3A00E3C516F5E4C517F5D3C510F5D4C511F5D5
:103D4A00D5C512F5D6C513F5B7EC27F010C52DF574
:103D5A0011C52EF512C52FF513C530F5CFEC35F088
:103D6A0029C5CFF52AC5D0F52BC5D1F52CC5D2F575
:103D7A00E1C502F5E2C503F5E3C504F5E4C505F5B9
:103D8A00000E066E000E076E200E086E410E096EBA
:103D9A00DEEC29F002C5E1F503C5E2F504C5E3F559
:103DAA0005C5E4F50501D74BD82BBF51D75DD851CE
:103DBA00800A3C6EC051800A3C58D8A0E7EF1EF03A
:103DCA00E9EF1EF05FEF1EF0E1C510F5E2C511F54F
:103DDA00E3C512F5E4C513F5000E146E000E156E58
:103DEA00A00E166E400E176EB7EC27F010C5D3F56D
:103DFA0011C5D4F512C5D5F513C5D6F5CFC529F524
:103E0A00D0C52AF5D1C52BF5D2C52CF5D3C52DF5CC
:103E1A00D4C52EF5D5C52FF5D6C530F5A5EC2FF0AE
:103E2A00D8B01AEF1FF01CEF1FF027EF1FF0000E9B
:103E3A000501D36F000ED46F000ED56F000ED66F3A
:103E4A0050EF1FF0CFC502F5D0C503F5D1C504F573
:103E5A00D2C505F5D3C506F5D4C507F5D5C508F508
:103E6A00D6C509F5B1EC33F0D8A03EEF1FF040EF0C
:103E7A001FF050EF1FF00501C5B146EF1FF048EFE4
:103E8A001FF050EF1FF0000ED36F000ED46F000E1C
:103E9A00D56F000ED66FD9C502F5DAC503F5DBC5B5
:103EAA0004F5DCC505F5D3C506F5D4C507F5D5C5B2
:103EBA0008F5D6C509F557EC25F002C5CFF503C5B7
:103ECA00D0F504C5D1F505C5D2F5CFC529F5D0C5BC
:103EDA002AF5D1C52BF5D2C52CF5000E146E000EAD
:103EEA00156E200E166E410E176EC1C510F5C2C5AD
:103EFA0011F5C3C512F5C4C513F5B7EC27F010C503
:103F0A002DF511C52EF512C52FF513C530F5A5EC03
:103F1A002FF0D8A093EF1FF095EF1FF0BEEF1FF020
:103F2A000501DD4BDE2BC1C510F5C2C511F5C3C5B0
:103F3A0012F5C4C513F5000E146E000E156E200E90
:103F4A00166E410E176EB7EC27F010C5C1F511C5F4
:103F5A00C2F512C5C3F513C5C4F5660E0501CD1920
:103F6A00D8A4BAEF1FF0BCEF1FF0BEEF1FF0BF4B93
:103F7A00C02BC1C5E1F5C2C5E2F5C3C5E3F5C4C5A9
:103F8A00E4F5650E0501CD19D8B4CEEF1FF0D0EFD8
:103F9A001FF0D6EF1FF0DDC5BDF5DEC5BEF5DAEFC1
:103FAA001FF0000EBE6F000EBD6F000EBC6F000E3C
:103FBA00BB6F000EBA6F000EB96F000ED86F000EFD
:103FCA00D76FD5EF20F0CFC502F5D0C503F5D1C51F
:103FDA0004F5D2C505F5E1C506F5E2C507F5E3C561
:103FEA0008F5E4C509F5DEEC29F002C51BF503C5A1
:103FFA001CF504C51DF505C51EF5ABEC2BF01BC55C
:10400A00D3F51CC5D4F51DC5D5F51EC5D6F5D3C542
:10401A0002F5D4C503F5D5C504F5D6C505F522ECD8
:10402A002FF002C5C5F503C5C6F50501A0B920EFF5
:10403A0020F022EF20F03FEF20F0C551C611D8A49E
:10404A0029EF20F02BEF20F03FEF20F0670ECE197A
:10405A00D8A432EF20F034EF20F03FEF20F0BEBFBB
:10406A003BEF20F039EF20F03FEF20F0B94BBA2BAD
:10407A0089EF20F0BB51BC11D8A446EF20F048EFDD
:10408A0020F072EF20F0BEBF4FEF20F04DEF20F08E
:10409A0072EF20F0540EDF25D96E060EE021DA6E9B
:1040AA002E0EDF6EDF4BE02BCB07D8A0CC07000E1D
:1040BA00BC6F010EBB6F72EF20F0540EDF25D96E74
:1040CA00060EE021DA6E300EDF6EDF4BE02BCB07F7
:1040DA00D8A0CC07B907D8A0BA07B951BA11D8A441
:1040EA0079EF20F07BEF20F062EF20F0540EDF250D
:1040FA00D96E060EE021DA6EC551300FDF6EDF4B46
:10410A00E02BCB07D8A0CC07CFC529F5D0C52AF517
:10411A00D1C52BF5D2C52CF5E1C514F5E2C515F5C7
:10412A00E3C516F5E4C517F5D3C510F5D4C511F5E1
:10413A00D5C512F5D6C513F5B7EC27F010C52DF580
:10414A0011C52EF512C52FF513C530F5CFEC35F094
:10415A0029C5CFF52AC5D0F52BC5D1F52CC5D2F581
:10416A00E1C502F5E2C503F5E3C504F5E4C505F5C5
:10417A00000E066E000E076E200E086E410E096EC6
:10418A00DEEC29F002C5E1F503C5E2F504C5E3F565
:10419A0005C5E4F50501BD07D8A0BE07D74BD82B46
:1041AA00BF51D75DD851800A3C6EC051800A3C5835
:1041BA00D8B0E2EF20F0E4EF20F0F2EF20F0E0BF19
:1041CA00F0EF20F0E05109E14B0EDF5DD8A0F0EFEF
:1041DA0020F0F2EF20F0E8EF1FF0BB51BC11D8A499
:1041EA00F9EF20F0FBEF20F00CEF21F0A0A900EF8F
:1041FA0021F002EF21F00CEF21F0540EDF25D96EE9
:10420A00060EE021DA6E2E0EDF6EDF4BE02B540E27
:10421A00DF25D96E060EE021DA6E000EDF6E650E1E
:10422A00CD19D8A41BEF21F01DEF21F0EFEF21F0FB
:10423A00000ED86F4F0ED76F540ED725D96E060EC3
:10424A00D821DA6E000EDF6E000EC86F000EC76F3F
:10425A00DEBF34EF21F032EF21F03CEF21F0000E07
:10426A00C86F010EC76FDD6DDE1FD8B0DE2B000EE2
:10427A00CA6F020EC96F6DEF21F0D707D8A0D80711
:10428A00540ED725D96E060ED821DA6EDDC502F591
:10429A00DEC503F5000E056E0A0E046E01EC33F05E
:1042AA000250300FDF6EDDC502F5DEC503F5000EE4
:1042BA00056E0A0E046EE9EC31F002C5DDF503C5A0
:1042CA00DEF50501C907D8A0CA07CB07D8A0CC07D5
:1042DA00DD51DE11D8A474EF21F076EF21F042EF20
:1042EA0021F0CABF83EF21F0CA5106E1C905D8B04F
:1042FA0081EF21F083EF21F042EF21F0D707D8A018
:10430A00D807C751C811D8A48DEF21F08FEF21F03B
:10431A0095EF21F0000EB46F2B0EB36F99EF21F0D9
:10432A00000EB46F2D0EB36F540ED725D96E060E3C
:10433A00D821DA6E6100CCF6DFF4CB07D8A0CC071F
:10434A00D707D8A0D807BF0E3C6EFF0E3D6E3B5074
:10435A003E6E3F6A3C503E263D503F223F500AE1A6
:10436A001A0E3E5CD8A0BCEF21F0BFEF21F0010E7F
:10437A00C0EF21F0000EB76FB86BB751B811D8A4CF
:10438A00C9EF21F0CBEF21F0D1EF21F0000EB66F8B
:10439A00650EB56FD5EF21F0000EB66F450EB56FFD
:1043AA00540ED725D96E060ED821DA6E6100D4F6DE
:1043BA00DFF4CB07D8A0CC07540EDF25026E060E19
:1043CA00E021036E540ED725046E060ED821056E21
:1043DA00C5EC34F035C514F536C515F5540E166E10
:1043EA00060E176ECBC518F5CCC519F523EC31F0BE
:1043FA0014C535F515C536F5120061000CF5D9F46A
:10440A00610010F5DAF4DEC4F6F4DDC4F7F4000E48
:10441A00F86E0800F550250AD8A416EF22F018EF16
:10442A0022F035EF25F061000CF5D9F4610010F5A2
:10443A00DAF4DE2A000EDD22000E05019D6F000E61
:10444A009C6F9CC5A0F59DC5A1F59E699F696100F9
:10445A000CF5D9F4610010F5DAF4DEC4F6F4DDC423
:10446A00F7F4000EF86E0800F5502A0AD8A440EFB7
:10447A0022F042EF22F075EF22F061000CF5D9F438
:10448A00610010F5DAF4DE2A000EDD22610014F56F
:10449A00D9F4610018F5DAF461007CF347F5020EED
:1044AA00DE2661007CF348F5000EDD2261001CF572
:1044BA00D9F4610020F5DAF4610078F39CF5610023
:1044CA0074F39DF59DBF6EEF22F06CEF22F0C2EF00
:1044DA0022F0A0819C6D9D1FD8B09D2BC2EF22F0C7
:1044EA0061000CF5D9F4610010F5DAF4610078F393
:1044FA0009F5610074F30AF5B4EC2CF009C59CF5D2
:10450A000AC59DF592EF22F061000CF5D9F461001D
:10451A0010F5DAF4DE2A000EDD22D00E476EFF0E09
:10452A00486E61000CF5D9F4610010F5DAF4DEC4C6
:10453A00F6F4DDC4F7F4000EF86E0800F550496E83
:10454A004A6A4750492648504A224A500AE10A0E06
:10455A00495CD8A0B3EF22F0B6EF22F0010EB7EF14
:10456A0022F0000E4B6E4C6A4B504C10D8A4C0EF90
:10457A0022F0C2EF22F089EF22F061000CF5D9F4A3
:10458A00610010F5DAF4DEC4F6F4DDC4F7F4000EC7
:10459A00F86E0800F5502E0AD8A4D6EF22F0D8EF0C
:1045AA0022F070EF23F0000E05019F6F000E9E6F40
:1045BA0061000CF5D9F4610010F5DAF4DE2A000E78
:1045CA00DD2261000CF5D9F4610010F5DAF4DEC4DD
:1045DA00F6F4DDC4F7F4000EF86E0800F5502A0A66
:1045EA00D8A4FAEF22F0FCEF22F023EF23F06100C7
:1045FA000CF5D9F4610010F5DAF4DE2A000EDD229A
:10460A00610014F5D9F4610018F5DAF461007CF35D
:10461A0047F5020EDE2661007CF348F5000EDD2226
:10462A0061001CF5D9F4610020F5DAF4610078F331
:10463A009EF5610074F39FF570EF23F061000CF5AD
:10464A00D9F4610010F5DAF4610078F309F5610034
:10465A0074F30AF5B4EC2CF009C59EF50AC59FF56A
:10466A0040EF23F061000CF5D9F4610010F5DAF49B
:10467A00DE2A000EDD22D00E476EFF0E486E610064
:10468A000CF5D9F4610010F5DAF4DEC4F6F4DDC4F1
:10469A00F7F4000EF86E0800F550496E4A6A475062
:1046AA00492648504A224A500AE10A0E495CD8A0D3
:1046BA0061EF23F064EF23F0010E65EF23F0000EA3
:1046CA004D6E4E6A4D504E10D8A46EEF23F070EF27
:1046DA0023F037EF23F061000CF5D9F4610010F5EF
:1046EA00DAF4DEC4F6F4DDC4F7F4000EF86E08005E
:1046FA00F550086E096AF8EC34F00850556E5550BA
:10470A00D8B48AEF23F08CEF23F0D4EF23F06100C2
:10471A000CF5D9F4610010F5DAF4610078F347F585
:10472A00610074F348F5010E4726000E4822610025
:10473A001CF5F6F4610020F5F7F4000EF86E080097
:10474A00F550086E096AF8EC34F00850566E565067
:10475A00D8B4B2EF23F0B4EF23F0D4EF23F0610022
:10476A000CF5D9F4610010F5DAF4610078F347F535
:10477A00610074F348F5020E4726000E48226100D4
:10478A001CF5F6F4610020F5F7F4000EF86E080047
:10479A00F550086E096AF8EC34F00850576E660E48
:1047AA005518D8A4DBEF23F0DDEF23F02EEF24F029
:1047BA0061000CF5D9F4610010F5DAF4DEC4F6F400
:1047CA00DDC4F7F4000EF86E08006100D4F358F562
:1047DA0061000CF5D9F4610010F5DAF4DE2A000E56
:1047EA00DD22610014F5D9F4610018F5DAF46100EC
:1047FA007CF347F5040EDE2661007CF348F5000ED3
:10480A00DD2261001CF5D9F4610020F5DAF46100BB
:10481A0078F351F5610078F352F5610078F353F5B6
:10482A00610078F354F541C535F542C536F551C5F1
:10483A0037F552C538F553C539F554C53AF558C553
:10484A003BF5ADEC1BF035C541F536C542F556EFE3
:10485A0025F0550E026E050E036E550E046E370EC8
:10486A00056E000E076E020E066EA6EC30F00250C0
:10487A000310D8A443EF24F045EF24F0F7EF24F017
:10488A0061000CF5D9F4610010F5DAF4610078F3EF
:10489A0047F5610074F348F5010E4726000E4822D9
:1048AA0061001CF5F6F4610020F5F7F4000EF86ECD
:1048BA0008006100D4F358F5BF0E476EFF0E486E2C
:1048CA0061000CF5D9F4610010F5DAF4DEC4F6F4EF
:1048DA00DDC4F7F4000EF86E0800F550496E4A6A16
:1048EA004750492648504A224A500AE11A0E495C62
:1048FA00D8A082EF24F085EF24F0010E86EF24F091
:10490A00000E4F6E506A4F505010D8B48FEF24F0FB
:10491A0091EF24F0B5EF24F0610014F5D9F46100A9
:10492A0018F5DAF461007CF347F5040EDE2661001F
:10493A007CF348F5000EDD2261001CF5D9F4610014
:10494A0020F5DAF4610078F351F5610078F352F555
:10495A00610078F353F5610078F354F5D7EF24F04A
:10496A00610014F5D9F4610018F5DAF461007CF3FA
:10497A0047F5040EDE2661007CF348F5000EDD22C1
:10498A0061001CF5D9F4610020F5DAF4610078F3CE
:10499A0051F5610078F352F5610078F353F561003F
:1049AA0078F354F5020E61000CF5D9F4610010F5A4
:1049BA00DAF4DE26000EDD2241C535F542C536F5AC
:1049CA0051C537F552C538F553C539F554C53AF5C9
:1049DA0058C53BF5ADEC1BF035C541F536C542F57A
:1049EA0056EF25F061000CF5D9F4610010F5DAF400
:1049FA00DEC4F6F4DDC4F7F4000EF86E0800F550D4
:104A0A00250AD8A40BEF25F00DEF25F026EF25F0A7
:104A1A0061000CF5D9F4610010F5DAF4DE2A000E13
:104A2A00DD22000E056E250E046E41C506F542C54F
:104A3A0007F506EC34F0000E426E010E416E56EF99
:104A4A0025F061000CF5D9F4610010F5DAF4DE2ADC
:104A5A00000EDD22000E426E000E416E56EF25F06A
:104A6A0061000CF5D9F4610010F5DAF4DEC4F6F44D
:104A7A00DDC4F7F4000EF86E0800F550046E056AFE
:104A8A0041C506F542C507F506EC34F061000CF5A0
:104A9A00D9F4610010F5DAF4DE2A000EDD2220EFE7
:104AAA0025F012000550800B0E6E05500524106E7D
:104ABA0004AE62EF25F064EF25F065EF25F0108073
:104ACA001050D8B46BEF25F06DEF25F082EF25F08A
:104ADA001028D8A473EF25F075EF25F07DEF25F0A7
:104AEA00000E026E000E036E000E046E000E056EBE
:104AFA00048E000E056E8AEF25F0000E026E000E7F
:104B0A00036E000E046E000E056E0950800B0F6EC8
:104B1A000E500F18D8B494EF25F096EF25F097EFC2
:104B2A0025F00E8C095009240F6E08AE9FEF25F070
:104B3A00A1EF25F0A2EF25F00F800F50D8B4A8EF0F
:104B4A0025F0AAEF25F0BFEF25F00F28D8A4B0EF83
:104B5A0025F0B2EF25F0BAEF25F0000E066E000E32
:104B6A00076E000E086E000E096E088E000E096EA2
:104B7A00C7EF25F0000E066E000E076E000E086ED7
:104B8A00000E096E10500F5CD8B0CEEF25F0D0EFB2
:104B9A0025F0F7EF25F00EACD5EF25F0D7EF25F08D
:104BAA00D9EF25F0800E0E1A10C511F50FC510F5B4
:104BBA0011C50FF502C511F506C502F511C506F5B1
:104BCA0003C511F507C503F511C507F504C511F5A8
:104BDA0008C504F511C508F505C511F509C505F59A
:104BEA0011C509F5000E116E10500FC50AF50B6AB2
:104BFA000A5E000E0B5A0BBE0CEF26F00B5009E1B1
:104C0A001A0E0A5CD8A00CEF26F00EEF26F045EF3C
:104C1A0026F00250031004100510D8A417EF26F04E
:104C2A001AEF26F0010E1BEF26F0000E116E000E91
:104C3A00026E000E036E000E046E000E056E0FC5A6
:104C4A0010F54EEF26F011A02DEF26F02FEF26F0EB
:104C5A0035EF26F0D89011300109116E37EF26F0A2
:104C6A00D890113202A03CEF26F03EEF26F03FEF3B
:104C7A0026F0118E05340532043203320232102A2C
:104C8A000F50105CD8A04CEF26F04EEF26F028EF1C
:104C9A0026F00EBC53EF26F055EF26F095EF26F0DE
:104CAA001050D8A45BEF26F05DEF26F067EF26F0F0
:104CBA00000E026E000E036E000E046E000E056EEC
:104CCA00B6EF27F0065002260750032208500422A6
:104CDA000950052205A074EF26F076EF26F022EFA0
:104CEA0027F011A07BEF26F07DEF26F083EF26F068
:104CFA00D89011300109116E85EF26F0D890113243
:104D0A0002A08AEF26F08CEF26F08DEF26F0118EA6
:104D1A0005340532043203320232102A22EF27F018
:104D2A000650025C07500358085004580550800A80
:104D3A000A6E0950800A0A58D8B0A6EF26F0A8EFE2
:104D4A0026F0D3EF26F00250065C0A6E035007588D
:104D5A000B6E045008580C6E055009580D6EFF0E64
:104D6A000A24026EFF0E0B20036EFF0E0C20046E47
:104D7A00FF0E0D20056E800E0E1A116C1150D8A46C
:104D8A00C9EF26F0CBEF26F0DBEF26F0010E022664
:104D9A00000E032204220522DBEF26F00650025EF3
:104DAA000750035A0850045A0950055A0250031072
:104DBA0004100510D8A4E4EF26F0E6EF26F01BEF66
:104DCA0027F01150D8A4ECEF26F0EEEF26F01BEFF7
:104DDA0027F0000E026E000E036E000E046E000E27
:104DEA00056EB6EF27F0D89002360336043605363C
:104DFA0011AE02EF27F004EF27F005EF27F002804B
:104E0A0011A00AEF27F00CEF27F010EF27F0D88057
:104E1A00113612EF27F0D89011361050D8B418EF87
:104E2A0027F01AEF27F01BEF27F0100604AE20EF49
:104E3A0027F022EF27F0F8EF26F0000E0F6E11AEE2
:104E4A0029EF27F02BEF27F043EF27F011C50AF5DA
:104E5A007F0E0A16D8B434EF27F036EF27F03AEF70
:104E6A0027F0010E0F6E43EF27F002A03FEF27F065
:104E7A0041EF27F043EF27F036EF27F00F50D8B471
:104E8A0049EF27F04BEF27F076EF27F0010E0226C5
:104E9A00000E03220422052205A056EF27F058EF40
:104EAA0027F076EF27F002C50AF503C50BF504C50E
:104EBA000CF505C50DF50D340D320C320B320A32E4
:104ECA000AC502F50BC503F50CC504F50DC505F5B4
:104EDA001028D8B473EF27F075EF27F076EF27F094
:104EEA00102A1028D8B47CEF27F07EEF27F086EF3F
:104EFA0027F01050D8A484EF27F086EF27F098EF18
:104F0A0027F0000E026E000E036E000E046E000EF5
:104F1A00056E1050D8A494EF27F096EF27F098EF7B
:104F2A0027F0000E0E6E10A09DEF27F09FEF27F0DE
:104F3A00A2EF27F0048EA3EF27F0049ED89010303A
:104F4A00056E0EAEABEF27F0ADEF27F0AEEF27F010
:104F5A00058E02C502F503C503F504C504F505C5AA
:104F6A0005F512001350800B1C6E13501324226E89
:104F7A0012AEC2EF27F0C4EF27F0C5EF27F0228068
:104F8A002250D8B4CBEF27F0CDEF27F0E0EF27F08F
:104F9A002228D8A4D3EF27F0D5EF27F0DDEF27F0AA
:104FAA00000E106E000E116E000E126E000E136EC1
:104FBA00128EE8EF27F0000E106E000E116E000E32
:104FCA00126E000E136E1750800B1C1A17501724FE
:104FDA001D6E16AEF3EF27F0F5EF27F0F6EF27F088
:104FEA001D801D50D8B4FCEF27F0FEEF27F011EF1B
:104FFA0028F01D28D8A404EF28F006EF28F00EEFB9
:10500A0028F0000E146E000E156E000E166E000EBD
:10501A00176E168E19EF28F0000E146E000E156E1C
:10502A00000E166E000E176E1D50D8B41FEF28F032
:10503A0021EF28F029EF28F02250D8A427EF28F0F2
:10504A0029EF28F033EF28F0000E106E000E116ED3
:10505A00000E126E000E136EDDEF29F016501002CC
:10506A006100CCF327F56100D0F328F527501E6EB6
:10507A001F6A206A216A2850236E246A256A266AD2
:10508A00155011026100CCF327F56100D0F328F521
:10509A0027501E26000E1F222022212228502326B6
:1050AA00000E242225222622145012026100CCF37B
:1050BA0027F56100D0F328F527501E26000E1F227F
:1050CA002022212228502326000E242225222622AD
:1050DA0020C521F51FC520F51EC51FF51E6A1450EF
:1050EA0011026100CCF327F56100D0F328F52750AF
:1050FA001E2628501F22000E2022000E21221550A3
:10510A0010026100CCF327F56100D0F328F527508F
:10511A001E2628501F22000E2022000E212220C502
:10512A0021F51FC520F51EC51FF51E6A1450100271
:10513A006100CCF327F56100D0F328F527501E262D
:10514A0028501F22000E2022000E21221650110282
:10515A006100CCF327F56100D0F328F52750232608
:10516A0028502422000E2522000E26221550120253
:10517A006100CCF327F56100D0F328F527502326E8
:10518A0028502422000E2522000E26221650120232
:10519A006100CCF327F56100D0F328F52750186E8B
:1051AA002850196E1A6A1B6A1AC51BF519C51AF511
:1051BA0018C519F5186A18502326195024221A50AE
:1051CA0025221B5026221EC518F51FC519F520C514
:1051DA001AF521C51BF5190EF8EF28F0D8901B32E5
:1051EA001A3219321832E82EF3EF28F01850232613
:1051FA00195024221A5025221B50262220C521F597
:10520A001FC520F51EC51FF51E6A1D5022C518F5BB
:10521A00196A1826000E1922820E1824276EFF0E0C
:10522A001920286E2EEF29F0D890233624362536F9
:10523A00263621AE23EF29F025EF29F026EF29F0B3
:10524A002380D8901E361F36203621362706D8A04E
:10525A00280625AE33EF29F035EF29F019EF29F0AA
:10526A00000E1D6E21AE3CEF29F03EEF29F062EFF1
:10527A0029F0FF0E1E14186EFF0E1F14196EFF0E72
:10528A0020141A6E7F0E21141B6E185019101A1052
:10529A001B10D8B453EF29F055EF29F059EF29F034
:1052AA00010E1D6E62EF29F023A05EEF29F060EF78
:1052BA0029F062EF29F055EF29F01D50D8B468EFB4
:1052CA0029F06AEF29F08EEF29F0010E2326000E4D
:1052DA0024222522262226A075EF29F077EF29F02D
:1052EA008EEF29F023C518F524C519F525C51AF539
:1052FA0026C51BF51B341B321A321932183218C54F
:10530A0023F519C524F51AC525F51BC526F5274A1F
:10531A00282A28BE99EF29F0285008E12728D8A082
:10532A0099EF29F09BEF29F0A5EF29F0000E236EE3
:10533A00000E246E800E256E7F0E266ED3EF29F0A6
:10534A0028BEB2EF29F0285006E12704D8B0B0EF02
:10535A0029F0B2EF29F0BEEF29F0000E236E000EFD
:10536A00246E000E256E000E266E000E1C6ED3EF04
:10537A0029F027C522F5FF0E2316FF0E24167F0EED
:10538A002516000E261622A0CDEF29F0CFEF29F020
:10539A00D0EF29F0258ED8902230266E1C50261286
:1053AA0023C510F524C511F525C512F526C513F533
:1053BA0012000550800B126E05500524196E04AEBA
:1053CA00E9EF29F0EBEF29F0ECEF29F019801950F9
:1053DA00D8B4F2EF29F0F4EF29F009EF2AF01928EE
:1053EA00D8A4FAEF29F0FCEF29F004EF2AF0000E16
:1053FA00026E000E036E000E046E000E056E048E21
:10540A00000E056E11EF2AF0000E026E000E036EFA
:10541A00000E046E000E056E0950800B121A095018
:10542A0009241A6E08AE1CEF2AF01EEF2AF01FEFAD
:10543A002AF01A801A50D8B425EF2AF027EF2AF05A
:10544A003CEF2AF01A28D8A42DEF2AF02FEF2AF0E1
:10545A0037EF2AF0000E066E000E076E000E086E79
:10546A00000E096E088E000E096E44EF2AF0000E37
:10547A00066E000E076E000E086E000E096E0650CC
:10548A00071008100910D8A44DEF2AF04FEF2AF0A0
:10549A0067EF2AF0000E026E000E036E000E046E15
:1054AA00000E056E800E04127F0E051212500512B0
:1054BA0002C502F503C503F504C504F505C505F5DE
:1054CA00AAEF2BF01950D8A46DEF2AF06FEF2AF04B
:1054DA0079EF2AF0000E026E000E036E000E046EC3
:1054EA00000E056EAAEF2BF01A5019C50AF50B6AC1
:1054FA000A5E000E0B5A7F0E0A24136E000E0B2052
:10550A00146E02C50EF503C50FF504C510F505C5E1
:10551A0011F5000E026E000E036E000E046E000EF0
:10552A00056E000E156E000E166E000E176E000E3A
:10553A00186E000E1A6EDAEF2AF01A50D8B4A8EFD5
:10554A002AF0AAEF2AF0C1EF2AF0D8900E360F36C9
:10555A0010361136D890023603360436053618AEA0
:10556A00B9EF2AF0BBEF2AF0BCEF2AF00280D890FC
:10557A00153616361736183606500E5C07500F5871
:10558A000850105809501158D8A0CEEF2AF0D0EF81
:10559A002AF0D9EF2AF0188C06500E5E07500F5ADF
:1055AA000850105A0950115A1A2A190E1A64E0EFB3
:1055BA002AF0E2EF2AF0A2EF2AF00E500F10101094
:1055CA001110D8B4EBEF2AF0EDEF2AF005EF2BF02B
:1055DA00158005EF2BF0D8900236033604360536CF
:1055EA0018AEFAEF2AF0FCEF2AF0FDEF2AF002805B
:1055FA00D89015361636173618361306D8A014065C
:10560A0004AE0AEF2BF00CEF2BF0F0EF2AF0000EAD
:10561A001A6E18AE13EF2BF015EF2BF039EF2BF0B3
:10562A00FF0E15140A6EFF0E16140B6EFF0E1714DA
:10563A000C6E7F0E18140D6E0A500B100C100D1004
:10564A00D8B42AEF2BF02CEF2BF030EF2BF0010E11
:10565A001A6E39EF2BF002A035EF2BF037EF2BF053
:10566A0039EF2BF02CEF2BF01A50D8B43FEF2BF078
:10567A0041EF2BF065EF2BF0010E0226000E0322FC
:10568A000422052205A04CEF2BF04EEF2BF065EF1C
:10569A002BF002C50AF503C50BF504C50CF505C5C3
:1056AA000DF50D340D320C320B320A320AC502F5F1
:1056BA000BC503F50CC504F50DC505F5134A142AE7
:1056CA0014BE70EF2BF0145008E11328D8A070EF25
:1056DA002BF072EF2BF07DEF2BF0000E146E136897
:1056EA00000E026E000E036E000E046E000E056EB2
:1056FA0014BE8AEF2BF0145006E11304D8B088EFD9
:10570A002BF08AEF2BF098EF2BF0000E146E000EA0
:10571A00136E000E026E000E036E000E046E000E73
:10572A00056E000E126E13C519F519A09FEF2BF026
:10573A00A1EF2BF0A4EF2BF0048EA5EF2BF0049E23
:10574A00D8901930056E5BEF2AF012008AC52BF546
:10575A008BC52CF58CC52DF58DC52EF51BC52BF5E6
:10576A001CC52CF51DC52DF51EC52EF5810E1F6E07
:10577A00FF0E206E2BC521F52CC522F52DC523F56C
:10578A002EC524F5180ECFEF2BF0D89024322332F1
:10579A0022322132E82ECAEF2BF021501F24296E23
:1057AA00000E20202A6E2ABEE4EF2BF02A5009E1CF
:1057BA00170E295CD8A0E4EF2BF0E6EF2BF0F0EF00
:1057CA002BF01BC51BF51CC51CF51DC51DF51EC5FB
:1057DA001EF5B3EF2CF02ABEF5EF2BF0F7EF2BF006
:1057EA0067EF2CF029C51FF5FF0E206EFF0E216E04
:1057FA007F0E226E000E236E1F6606EF2CF00EEF50
:10580A002CF0233423322232213220321F2E01EF90
:10581A002CF020C525F521C526F522C527F523C577
:10582A0028F525502B141F6E26502C14206E275055
:10583A002D14216E28502E14226E1F502010211074
:10584A002210D8A42BEF2CF02DEF2CF02FEF2CF0F8
:10585A00E6EF2BF02BC51FF52CC520F52DC521F53C
:10586A002EC522F5200E3FEF2CF0D890223221329D
:10587A0020321F32E82E3AEF2CF01F502010211050
:10588A002210D8B44BEF2CF04DEF2CF055EF2CF042
:10589A0025502B2626502C2227502D2228502E22E6
:1058AA00251C1F6E261C206E271C216E281C226EAA
:1058BA001F502B1620502C1621502D1622502E1612
:1058CA00ABEF2CF02BC51FF52CC520F52DC521F506
:1058DA002EC522F5200E77EF2CF0D89022322132F5
:1058EA0020321F32E82E72EF2CF01F5020102110A8
:1058FA002210D8A483EF2CF085EF2CF08FEF2CF038
:10590A00000E2B6E000E2C6E000E2D6E000E2E6EEB
:10591A00ABEF2CF0D8902B341F6E2C34206E2D3424
:10592A00216E2E34226E1F50201021102210D8B45E
:10593A00A1EF2CF0A3EF2CF0ABEF2CF0000E2B6EA6
:10594A00000E2C6E800E2D6EBF0E2E6E2BC51BF513
:10595A002CC51CF52DC51DF52EC51EF51200000E11
:10596A00176E000E166E000E106E000E0F6EC0EF50
:10597A002CF0094A0A2A010E156E610024F4F6F485
:10598A00610028F4F7F4000EF86E0800F550200ABA
:10599A00D8B4D2EF2CF0D4EF2CF0F5EF2CF0F70EB0
:1059AA000B6EFF0E0C6E610024F4F6F4610028F40D
:1059BA00F7F4000EF86E0800F5500D6E0E6A0B50E3
:1059CA000D260C500E220E5009E1050E0D5CD8A0D2
:1059DA00F1EF2CF0F3EF2CF0F5EF2CF0000E156E32
:1059EA0015C511F5126A11501210D8A4FFEF2CF048
:1059FA0001EF2DF0BEEF2CF00BEF2DF0000E106E24
:105A0A00010E0F6E094A0A2A48EF2DF0610024F4AC
:105A1A00F6F4610028F4F7F4000EF86E0800F55069
:105A2A000B6E0C6A0C50000AD8B41EEF2DF048EF2A
:105A3A002DF00B502B0AD8B407EF2DF0060AD8B474
:105A4A0003EF2DF048EF2DF016C502F517C503F543
:105A5A00000E056E0A0E046E06EC37F0610024F49F
:105A6A00F6F4610028F4F7F4000EF86E0800F55019
:105A7A00025E000E035A300E0224166E000E032038
:105A8A00176E07EF2DF0D00E0B6EFF0E0C6E610035
:105A9A0024F4F6F4610028F4F7F4000EF86E080016
:105AAA00F5500D6E0E6A0B500D260C500E220E503C
:105ABA000AE10A0E0D5CD8A065EF2DF068EF2DF013
:105ACA00010E69EF2DF0000E136E146A13501410B4
:105ADA00D8A472EF2DF074EF2DF029EF2DF00F50AE
:105AEA001010D8A47BEF2DF07DEF2DF08BEF2DF069
:105AFA0016C50BF517C50CF50B1E0C1E0B4A0C2A06
:105B0A000BC509F50CC50AF58FEF2DF016C509F579
:105B1A0017C50AF512000A6E0A50D8B497EF2DF08D
:105B2A0099EF2DF0BBEF2DF005BEA0EF2DF09EEF03
:105B3A002DF0BBEF2DF002C506F503C507F504C528
:105B4A0008F505C509F5061E071E081E091E062AC0
:105B5A00000E07220822092206C50CF507C50DF515
:105B6A0008C50EF509C50FF5C3EF2DF002C50CF5F2
:105B7A0003C50DF504C50EF505C50FF50250031052
:105B8A0004100510D8A4CCEF2DF0CEEF2DF0D8EFED
:105B9A002DF0000E026E000E036E000E046E000E53
:105BAA00056E69EF2EF0960E0B6EE2EF2DF00B2AC2
:105BBA00D8900F320E320D320C32000E0C14066ED3
:105BCA00000E0D14076E000E0E14086EFE0E0F1452
:105BDA00096E0650071008100910D8A4F7EF2DF027
:105BEA00F9EF2DF0DCEF2DF007EF2EF00B2A010E66
:105BFA000C26000E0D220E220F22D8900F320E32E2
:105C0A000D320C32000E0C14066E000E0D14076EC7
:105C1A00000E0E14086EFF0E0F14096E06500710C0
:105C2A0008100910D8A41CEF2EF01EEF2EF0FBEF7F
:105C3A002DF026EF2EF00B06D8900C360D360E36C8
:105C4A000F360EBE2BEF2EF02DEF2EF035EF2EF085
:105C5A00020E0B6033EF2EF035EF2EF020EF2EF010
:105C6A000BB03AEF2EF03CEF2EF03DEF2EF00E9EE9
:105C7A00D8900B320BC506F5076A086A096A06C589
:105C8A0009F5086A076A066A06500C1207500D12CF
:105C9A0008500E1209500F120A50D8B457EF2EF0BE
:105CAA0059EF2EF061EF2EF005BE60EF2EF05EEF99
:105CBA002EF061EF2EF00F8E0CC502F50DC503F51F
:105CCA000EC504F50FC505F5120043EC37F0070EB3
:105CDA000601B46F580EB36F590EE82EFED7B32FD4
:105CEA00FCD7B42FFAD700D0D68E000E036E410E21
:105CFA00026EA8EC36F0050EC1EC36F002C5A2F52C
:105D0A0003C5A3F5A2C502F5A3C503F5046A056A8E
:105D1A00000E90EC2DF002C510F503C511F504C56F
:105D2A0012F505C513F5670E146E400E156E530E67
:105D3A00166E3A0E176EB7EC27F010C596F511C518
:105D4A0097F512C598F513C599F596C502F597C545
:105D5A0003F598C504F599C505F50A0E066ED70E22
:105D6A00076E230E086E3C0E096EDEEC29F002C5A2
:105D7A0092F503C593F504C594F505C595F53E0E50
:105D8A000501EB6F370EEC6F92C5EDF593C5EEF595
:105D9A0094C5EFF595C5F0F51BEC37F0C2B0D8EF16
:105DAA002EF0DBEF2EF0010EDCEF2EF0000EFF0AD4
:105DBA000601B36FC250B319FE0BB319C26E4E0E71
:105DCA000501A719D8A4ECEF2EF0EEEF2EF0F1EFB3
:105DDA002EF0C38611EF2FF0620EA719D8A4F8EFA0
:105DEA002EF0FAEF2EF010EF2FF0C3B6FFEF2EF0E1
:105DFA0002EF2FF0010E03EF2FF0000EFF0A06014B
:105E0A00B36FB347B347B347C350B319F70BB319CB
:105E1A00C36E11EF2FF0C396070E0601B46F580E2A
:105E2A00B36F590EE82EFED7B32FFCD7B42FFAD78B
:105E3A0000D080EF2EF00DEF00F0043405340B6E25
:105E4A000B50D8A42BEF2FF02DEF2FF037EF2FF0B8
:105E5A00000E026E000E036E000E046E000E056E3A
:105E6A00A4EF2FF002C506F503C507F504C508F52A
:105E7A0005C509F5200E47EF2FF0D89009320832F0
:105E8A0007320632E82E42EF2FF006500A6E048ED1
:105E9A00FF0E0216FF0E0316FF0E0416000E05165D
:105EAA00960E0B5E0BBE5EEF2FF05CEF2FF074EFD9
:105EBA002FF00B50800A970FD8B066EF2FF068EFDB
:105ECA002FF06AEF2FF02DEF2FF0D8900532043221
:105EDA00033202320B3E6AEF2FF08CEF2FF01F0EC7
:105EEA000B647AEF2FF07CEF2FF084EF2FF02DEF79
:105EFA002FF0D89002360336043605360B060B50BF
:105F0A00D8A48AEF2FF08CEF2FF07EEF2FF00A50F3
:105F1A00D8B492EF2FF094EF2FF09CEF2FF0051EDC
:105F2A00041E031E026C000E03220422052202C56F
:105F3A0002F503C503F504C504F505C505F5120008
:105F4A00000E2914316E000E2A14326E800E2B14A4
:105F5A00336E7F0E2C14346E3150321033103410DD
:105F6A00D8A4BAEF2FF0BCEF2FF0C4EF2FF0000E39
:105F7A00296E000E2A6E000E2B6E000E2C6E000E7D
:105F8A002D14316E000E2E14326E800E2F14336EC5
:105F9A007F0E3014346E3150321033103410D8A4BE
:105FAA00D9EF2FF0DBEF2FF0E3EF2FF0000E2D6E7D
:105FBA00000E2E6E000E2F6E000E306E2CAEE8EF25
:105FCA002FF0EAEF2FF0F3EF2FF0296C2A1ED8B04A
:105FDA002A2A2B1ED8B02B2A800E2C5630AEF8EF68
:105FEA002FF0FAEF2FF003EF30F02D6C2E1ED8B001
:105FFA002E2A2F1ED8B02F2A800E3056000E291AAC
:10600A00000E2A1A000E2B1A800E2C1A000E2D1AB8
:10601A00000E2E1A000E2F1A800E301A2D50295CEF
:10602A002E502A582F502B5830502C58D8B020EFC9
:10603A0030F022EF30F025EF30F0D89026EF30F034
:10604A00D88012008EC50CF58FC50DF590C50EF5DA
:10605A0091C50FF502C50CF503C50DF504C50EF57E
:10606A0005C50FF50CC506F50DC507F50EC508F5EE
:10607A000FC509F5180E47EF30F0D89009320832EB
:10608A0007320632E82E42EF30F006500A6E0B6AEB
:10609A000A500B10D8A454EF30F056EF30F076EFD8
:1060AA0030F0D8900C34066E0D34076E0E34086E3C
:1060BA000F34096E0650071008100910D8A468EFAB
:1060CA0030F06AEF30F070EF30F0000E036E020E1F
:1060DA00026EA5EF30F0000E036E030E026EA5EFFE
:1060EA0030F00A280B10D8A47DEF30F07FEF30F0A3
:1060FA00A1EF30F00CC506F50DC507F50EC508F57C
:10610A000FC509F5090ED89006360736083609363E
:10611A00E82E88EF30F00650071008100910D8B49E
:10612A0099EF30F09CEF30F0010E9DEF30F0000E49
:10613A00026E036AA5EF30F0000E036E040E026EC3
:10614A00120002C509F503C50AF504C50BF505C514
:10615A000CF50606D8A00706062806E10728D8A4E3
:10616A00B9EF30F0BBEF30F0C8EF30F0000E036E3D
:10617A00000E026E22EF31F0094A0A2A0B4A0C2A53
:10618A000606D8A00706610024F4D9F4610028F4B1
:10619A00DAF4DF50D8B4D4EF30F0D6EF30F00BEFAA
:1061AA0031F061002CF4F6F4610030F4F7F4000EDB
:1061BA00F86E0800F5500009D8B4E6EF30F0E8EFC1
:1061CA0030F00BEF31F006500710D8B4EFEF30F093
:1061DA00F1EF30F00BEF31F0610024F4D9F46100F3
:1061EA0028F4DAF4DF50086E61002CF4F6F461004A
:1061FA0030F4F7F4000EF86E0800F5500818D8B419
:10620A0009EF31F00BEF31F0C1EF30F0610024F407
:10621A00D9F4610028F4DAF4DF50086E61002CF436
:10622A00F6F4610030F4F7F4000EF86E0800F55049
:10623A00085C026E036AD8A0030612000501A0A139
:10624A0029EF31F02BEF31F035EF31F016C50DF5AE
:10625A0017C50EF514C50FF515C510F515EC36F072
:10626A0019BE3AEF31F03CEF31F042EF31F018C588
:10627A001DF519C51EF546EF31F0000E1E6E000E13
:10628A001D6E000E1C6E000E1B6E58EF31F0000ED4
:10629A00056E200E046E14C506F515C507F506EC45
:1062AA0034F01B4A1C2A1D501B5C1C50800A1A6EB3
:1062BA001E50800A1A58D8A065EF31F067EF31F006
:1062CA004CEF31F00501A0B16DEF31F06FEF31F015
:1062DA0079EF31F016C50DF517C50EF514C50FF592
:1062EA0015C510F515EC36F016C502F517C503F5F8
:1062FA0037EC36F01D500224146E1E500320156E22
:10630A0012003C0E5D24D96EDA6A060EDA22000EFD
:10631A00DF6E0201B2A794EF31F096EF31F0ABEFE6
:10632A0031F03C0E5D24D96EDA6A060EDA220601D5
:10633A00DF8202D8ABEF31F00500FA6EAA51FD6E8A
:10634A00AB51FE6EAC51FF6EFA5012000201B2A3BD
:10635A00B1EF31F0B3EF31F0C8EF31F03C0E5D240C
:10636A00D96EDA6A060EDA220601DF8402D8C8EF8D
:10637A0031F00500FA6EA751FD6EA851FE6EA951C3
:10638A00FF6EFA5012003C0E5D24D96EDA6A060ED0
:10639A00DA22DF50D8B4D4EF31F0D6EF31F0E6EF9D
:1063AA0031F002D8E4EF31F00500FA6E0601A4518B
:1063BA00FD6EA551FE6EA651FF6EFA501200E8EF6F
:1063CA0031F0F0EC36F01200000E076E05BEF2EF67
:1063DA0031F0F0EF31F0F8EF31F0046C051ED8B06F
:1063EA00052A010E076E03BEFFEF31F0FDEF31F013
:1063FA0005EF32F0026C031ED8B0032A010E071A09
:10640A00000E096E000E086E04500510D8B410EF85
:10641A0032F012EF32F03AEF32F0010E066E1AEF56
:10642A0032F0D89004360536062A05AE1FEF32F050
:10643A0021EF32F016EF32F0D890083609360450C0
:10644A00025C05500358D8A02DEF32F02FEF32F03E
:10645A0034EF32F00450025E0550035A0880D89097
:10646A0005320432062E21EF32F00750D8B440EF3D
:10647A0032F042EF32F046EF32F0086C091ED8B023
:10648A00092A08C502F509C503F51200000E030121
:10649A00F96F000EFA6F000ED86F000EFB6F000E38
:1064AA00D96F000EDA6F000EDB6F000EDC6F000E84
:1064BA00DF6F000EE06F000EE36F000EE46F000E58
:1064CA00E56F000EE66F000EE76F000EEA6F000E32
:1064DA00EB6F050EEC6F000EEE6F000EEF6F000E05
:1064EA00F06F000EF16F000EF26F000EF36F000EE8
:1064FA00F46F100EF56F000EF66F000EF76F000EB8
:10650A00F86F000EFC6FAF94AF96B090000E026E5B
:10651A00000E036E000E046EAEEC37F0000E026E33
:10652A00000E036E000E046EA0EC37F0000E026E31
:10653A00000E036E000E046EA7EC37F0840E030102
:10654A00F36F1200A2900C0E026E630E036E000E21
:10655A00046E84EC37F0A292E40E026E6B0E036EA8
:10656A00000E046E7DEC37F0000E0201A56F000EDE
:10657A00A66F000EA76F000EA86F000EA96F000E7F
:10658A00AA6FB00EAB6F800EAC6F000EAD6F030E2C
:10659A00AE6F010EAF6F000EB06F000EB16F000E3E
:1065AA00B26F000EB36F8A0E026E6F0E036E000E8C
:1065BA00046E92EC37F0880E026E6F0E036E000EB8
:1065CA00046E8BEC37F07A0E026E6F0E036E000EBD
:1065DA00046E99EC37F0000E0501A86F000EAC6F3F
:1065EA00000EAB6F080EFA6F000E5D6E000EAA6FFA
:1065FA00000EA96FA2801200000E076E03BE0AEFFA
:10660A0033F008EF33F010EF33F0026C031ED8B00A
:10661A00032A010E076E05BE17EF33F015EF33F0AC
:10662A001BEF33F0046C051ED8B0052A0450051080
:10663A00D8B422EF33F024EF33F048EF33F0010EF1
:10664A00066E2CEF33F0D89004360536062A05AECE
:10665A0031EF33F033EF33F028EF33F00450025CBC
:10666A0005500358D8A03CEF33F03EEF33F042EF29
:10667A0033F00450025E0550035AD89005320432B2
:10668A00062E33EF33F00750D8B44EEF33F050EF05
:10669A0033F054EF33F0026C031ED8B0032A02C55C
:1066AA0002F503C503F51200000EC26E000EC16E9C
:1066BA00000EBE6E000EC36E000EBF6E000EC06EE0
:1066CA00040ECA6EC20ECB6EC668F90EC76EC868D3
:1066DA00C968040118691069E90E086F040E206F71
:1066EA00C00E286FF70E006F000E196F000E296F8B
:1066FA00000E216F000E096F000E016F000E116F60
:10670A00000E226F000E2A6F000E026F060E0A6F2D
:10671A00180E126F000E1A6F03690B6913691B6951
:10672A00070E236F2B6904690C6914691C690F0E23
:10673A00246F2C690C0E0201696F0A0E706F370EF6
:10674A000A6F380E0B6F200E296F290E726F150E05
:10675A002B6F090E716F1200000E02140A6E000EE2
:10676A0003140B6E800E04140C6E7F0E05140D6E4E
:10677A000A500B100C100D10D8A4C6EF33F0C8EF56
:10678A0033F0D0EF33F0000E026E000E036E000EEF
:10679A00046E000E056E000E06140A6E000E071433
:1067AA000B6E800E08140C6E7F0E09140D6E0A50C3
:1067BA000B100C100D10D8A4E5EF33F0E7EF33F00F
:1067CA00EFEF33F0000E066E000E076E000E086E35
:1067DA00000E096E065002180FE1075003180CE16B
:1067EA000850041809E109500518D8B4FFEF33F02E
:1067FA0001EF34F004EF34F0D89005EF34F0D8808C
:10680A00120006500710D8B40DEF34F00FEF34F031
:10681A0018EF34F006500710D8A416EF34F018EF2A
:10682A0034F01DEF34F00450B5EC37F050EF34F08B
:10683A0020EE04F00650D9260750DA22DE50DE1088
:10684A00D8B42AEF34F02CEF34F047EF34F020EECE
:10685A0004F00650D9260750DA2210EE02F006504C
:10686A00E1260750E222DE50E65CE650800A0C6E12
:10687A00DE50800A0C58D8B045EF34F047EF34F0B8
:10688A0050EF34F020EE02F00650D9260750DA22F3
:10689A00DE2A000EDD221200A2A256EF34F058EFD3
:1068AA0034F06FEF34F0B2A25DEF34F05FEF34F002
:1068BA006FEF34F002D86DEF34F00500FA6E06017E
:1068CA00AD51FD6EAE51FE6EAF51FF6EFA50120021
:1068DA008FEF34F0A2A074EF34F076EF34F08FEF3C
:1068EA0034F0B2A07BEF34F07DEF34F08FEF34F068
:1068FA0002D88BEF34F00500FA6E0601B051FD6E36
:10690A00B151FE6EB251FF6EFA501200BAEC37F076
:10691A000501A76F1100E7C559F5E8C55AF5000E3C
:10692A0005019B6F000E9A6FAEEF34F0E5C541F595
:10693A00E6C542F5590E436E050E446EE9C545F5A6
:10694A00EAC546F502EC22F0415005019A27425069
:10695A009B23610064F5F6F4610068F5F7F4000E14
:10696A00F86E0800F5500009D8A4BEEF34F0C0EF65
:10697A0034F09BEF34F09AC5E5F59BC5E6F51200B5
:10698A0004C508F505C509F502C50AF503C50BF5E1
:10699A000850066E0950076E084A092A610018F461
:1069AA00F6F461001CF4F7F4000EF86E610028F4A6
:1069BA00D9F461002CF4DAF40A4A0B2A360EF76489
:1069CA0003D00800F55005D0F6C4E9F4F7C4EAF498
:1069DA00EF50DF6EDF50D8A4F5EF34F0F7EF34F064
:1069EA00CDEF34F01200BF0E0A6EFF0E0B6E08C513
:1069FA000CF509C50DF50A500C260B500D220D5049
:106A0A000AE11A0E0C5CD8A00DEF35F010EF35F044
:106A1A00010E11EF35F0000E0E6E0F6A0E500F10B8
:106A2A00D8B41AEF35F01CEF35F023EF35F0200E0D
:106A3A000810086E0950096E27EF35F008C508F5E9
:106A4A0009C509F51200026E0501FA51D8B430EFF2
:106A5A0035F032EF35F029EF35F0A2B237EF35F0E5
:106A6A0039EF35F03EEF35F0610008F4A3F254EF48
:106A7A0035F0A2924C0EAC25D96EDA6A060EDA22ED
:106A8A00610008F4DFF4AC2B070EAC654FEF35F06C
:106A9A0051EF35F053EF35F0000EAC6FFA07A282D2
:106AAA001200010E086E200E02180310D8B460EF0F
:106ABA0035F062EF35F07BEF35F0F70E046EFF0E1E
:106ACA00056E02C506F503C507F5045006260550EE
:106ADA000722075009E1050E065CD8A077EF35F0CA
:106AEA0079EF35F07BEF35F0000E086E08C502F538
:106AFA00036A12000501A951D8B486EF35F088EF70
:106B0A0035F07FEF35F03C0EAA25D96EDA6A060E0B
:106B1A00DA22DF50A86F440EAA25D96EDA6A060E69
:106B2A00DA22DF50016EAA2B070EAA659FEF35F015
:106B3A00A1EF35F0A3EF35F0000EAA6FA290A907D6
:106B4A00A28001501200800EF66E6F0EF76E000ED4
:106B5A00F86E01EEFBF110EE04F00900F5C4EEF454
:106B6A00E550E150FAE101EE00F2A40EEE6AE80601
:106B7A00FDE101EE60F14D0EEE6AE806FDE15D6AA7
:106B8A000401080E5D6F000E5E6F000E5F6F00015C
:106B9A006AEF2EF0000E2D1A000E2E1A000E2F1A72
:106BAA00800E301A29C502F52AC503F52BC504F54E
:106BBA002CC505F52DC506F52EC507F52FC508F513
:106BCA0030C509F557EC25F002C529F503C52AF5A4
:106BDA0004C52BF505C52CF51200080E0501FA614E
:106BEA00F9EF35F0FBEF35F013EF36F04C0EAB252D
:106BFA00D96EDA6A060EDA22DF500201A36F0501A6
:106C0A00AB2B070EAB650CEF36F00EEF36F010EF3C
:106C1A0036F0000EAB6FFA2B14EF36F0A292120088
:106C2A00000E136E000E126E26EF36F011C504F533
:106C3A00056A0FC506F510C507F506EC34F0124AC9
:106C4A00132A12500D24D96E13500E20DA6EDF501B
:106C5A00116E1150D8A434EF36F036EF36F01BEF30
:106C6A0036F0120002C504F503C505F53FEF36F00C
:106C7A00024A032A610008F4D9F461000CF4DAF438
:106C8A00DF50D8A44BEF36F04DEF36F03DEF36F03B
:106C9A000450025C026E05500358036E1200BF0EC8
:106CAA00046EFF0E056E02C506F503C507F504500E
:106CBA0006260550072207500AE11A0E065CD8A0DC
:106CCA0069EF36F06CEF36F0010E6DEF36F0000E1C
:106CDA00026E036A12000250031004100510D8B4A1
:106CEA0079EF36F07BEF36F083EF36F0000E021ABA
:106CFA00000E031A000E041A800E051A02C502F5C8
:106D0A0003C503F504C504F505C505F51200D00E43
:106D1A00046EFF0E056E02C506F503C507F504509D
:106D2A0006260550072207500AE10A0E065CD8A07B
:106D3A00A1EF36F0A4EF36F0010EA5EF36F0000E03
:106D4A00026E036A1200FF0E0216030E03160301F7
:106D5A0042A9B2EF36F0B4EF36F0BBEF36F0060ECA
:106D6A00D89002360336E82EB5EF36F00350416F5D
:106D7A00610008F440F31200066E610018F4ECF3A7
:106D8A000301F38FF39DF381F3B1CEEF36F0D0EF29
:106D9A0036F0C9EF36F0EB51056E046AEA51042465
:106DAA00026E000E0520036E1200040E0201946F9B
:106DBA00800E956F180E966F030E9E6F000E9A6FD7
:106DCA00000E9B6F000E976F000E8C6F000E8D6F7A
:106DDA00000E9D6F1200440E5D24D96EDA6A060E0B
:106DEA00DA22A1C2DFF45D2A070E5D64FFEF36F0F6
:106DFA0001EF37F003EF37F0000E5D6E0501A92BA6
:106E0A001200025004026100CCF306F56100D0F3CF
:106E1A0007F502500502F350072603500402F35007
:106E2A00072606C502F507C503F51200ED0E5B6ECF
:106E3A00050E5C6E000E0501E56F000EE66FEBC5F0
:106E4A00E7F5ECC5E8F55B0EE96F050EEA6F90EC25
:106E5A0034F01200000E0001606F000E616F000E28
:106E6A00626F000E636F000E646F000E656F000E96
:106E7A00666F000E676F000E686F1200C2EC37F083
:106E8A002FEC37F0DAEC36F04BEC32F059EC33F009
:106E9A0071EC37F065EC37F056EC37F0A7EC32F0CE
:106EAA001200010E0301266F000E256F000E276FD8
:106EBA007C0E236F000E226FB196900E246F120083
:106ECA008C0E0301426F000E416F000E406F4C5151
:106EDA00FC0B01094C6F1200700E0001AD6F000E21
:106EEA00AF6F000EB36F020EB16F000EB06F1200DB
:106EFA0002C5ADF603C5AEF604C5AFF6120002C56B
:106F0A00B0F603C5B1F604C5B2F6120002C5A7F67B
:106F1A0003C5A8F604C5A9F6120002C5AAF603C558
:106F2A00ABF604C5ACF6120002C5A4F603C5A5F675
:106F3A0004C5A6F6120002C5F4F503C5F5F504C5A5
:106F4A00F6F5120002C5F1F503C5F2F504C5F3F52D
:106F5A00120002C5F7F503C5F8F504C5F9F51200E4
:106F6A00036E035028EC35F012007FEC35F0120066
:106F7A00F0EC36F012006740533AD69A120012002B
:026F8A001200F3
:020000040020DA
:10000000FF0FFF0FFF0FFF0FFF0FFF0FFF0FFF0F80
:10001000FF0FFF0FFF0FFF0FFF0FFF0FFF0FFF0F70
:10002000FF0FFF0FFF0FFF0FFF0FFF0FFF0FFF0F60
:10003000FF0FFF0FFF0FFF0FFF0FFF0FFF0FFF0F50
:020000040030CA
:10000000FAEFF7FF9FFFFFFFFFFFFFFFFFFFFFFF7D
:10001000FFFFFFFFFFFFFFFFFFFFFFFFFFFFFFFFF0
:04002000FFFFFFFFE0
:00000001FF
