:08000000803102288731F12F45
:100E22007D08F3007C08F20008007D08F7007C08CA
:100E3200F60008007D08F5007C08F40008007D0833
:100E4200F1007C08F0000800640080010131890B88
:100E5200262F003423008F010830900091014F307B
:100E62008D00901208002E000C100B140030FC00B4
:100E72000030FD00873120278731080060303100C3
:100E82008D0070308E008F01910106309300900129
:100E92009201080087315927873120008C1A522F7E
:100EA200532F552F96154E2F96114E2F8031022813
:100EB20087313F2787318731A927873187316C27CF
:100EC200873187318727873187312B2787318731D0
:100ED20034278731080022008E018F019001910191
:100EE200920193018D0121009E019B019C019401BD
:100EF2009501960197019A0199010F309800C5302A
:100F020093009D012E000D108D1008004830220024
:100F12009F0090309D0026309E002A309B000230B8
:100F22009C000030FC000030FD008731162787311D
:100F32000030FC000030FD0087311B278731003074
:100F4200FC000030FD00873111278731FA010800CB
:100F520020009601970118309800F0309100FF3080
:100F62009200FE309300D0303E00B800EF30C30054
:100F7200E430CE00B901C401CF01E501BA01C501D7
:100F8200D001FF30BB00FF30C600FF30D100FF3080
:100F9200BC00FF30C700FF30D2000830E80011303B
:100FA2003D00CB000C30C30010303E00A0001430D6
:100FB2003D00C50014303E00A40013303D00C600C1
:100FC20015303E00A300BD01BE01BF01C801C90129
:100FD200CA01D301D401D501E901EA01EB010800FC
:100FE200F801F901FA01FB0120308400003085008C
:100FF2001D30873125278731200087314B2F003460
:10100200003400340034003400340034003400343E
:10101200003400340034003400340034003400342E
:10102200003400340034003400340034003400341E
:101032000034003400340034003400340034873487
:1010420007340034003400340034003400340034F7
:10105200003411340734163407341B340734003497
:1010620000340034003400340034003400340034DE
:1010720000342B340734003400340034003400349C
:1010820000340034003400340034003400340034BE
:02109200003428
:020000040001F9
:0A000E00FF3FFF3F9F3FFF3FFF3F12
:00000001FF
