:080000008031022880316828DC
:10004800640080010131890B252800347008BF3E07
:10005800F200FF30713DF300003073021A300319CB
:1000680072020318392801303A280030F000F101F3
:10007800080070089F3EF200FF30713DF300003029
:1000880073021A300319720203184C2801304D28E4
:100098000030F000F101080020307004F20071080F
:1000A800F30072089F3EF400FF30733DF500003006
:1000B80075021A3003197402031864280130652880
:1000C8000030F000F101080021002830E2006E3015
:1000D800E3007530E4006C30E500E6002930E70005
:1000E8000030E800A0308400003085002A308031DC
:1000F800242080312000A828C330202780310730F1
:100108001021803171082000DB007208DC00DD015D
:10011800DE015E08FC005D08FB005C08FA005B0875
:10012800F9000030CE25803188278031DB218031ED
:10013800912788312C204608DA004508D900440860
:10014800D8004308D7000800D82600302000A300B4
:10015800A2002530A1008030A00097317C27803193
:10016800A9268031BE268031B22180315A0821006B
:10017800E100200059082100E00020005808210073
:10018800DF0020005708F62680310C2380311D300F
:100198002100CA009830CB00D630CC000021803135
:1001A800802080315A082100E100200059082100F0
:1001B800E000200058082100DF0020005708F6263C
:1001C80080310C2380312A302100CA009830CB00BE
:1001D800D630CC00002180314B21803115302000F1
:1001E800EF004B30EE00BE30890BF828EE0BF828F4
:1001F800EF0BF8280000B828CC302000ED002100D3
:100208004B082000E70021004A082000E6006D3076
:10021800E800003089317629F600A0218031B43019
:100228008F21803176088F2180319C218031B53033
:100238008F218031013039218031F7000130F801F8
:1002480039218031F300F401F400F30177087307D2
:10025800F7007808743DF800013039218031A52174
:100268007808F2007708F1000800F0002E000F105F
:10027800230091152E000F1C3E29700803194729E9
:10028800AA2180314829EE2623000C080800A02165
:10029800803170308F21803100308F2180319C2156
:1002A800803171308F218031003039218031210037
:1002B800A900A5218031A021803170308F218031A3
:1002C80002308F2180319C21803171308F21803123
:1002D8000030392180312100A800A521803121007A
:1002E8000330A80EA80CA80CA8050030CA00983046
:1002F800CB002908CC00CD01CC1BCD032808F00089
:100308001930F101F200F301EB2780317108CF00B9
:100318007008CE000029F0002E000F10700823008E
:100328008C002E000F1C95292300111F0134003466
:100338009114911C08009D2923001114111C080018
:10034800A22923001115111D0800A7290F10230049
:10035800911211162E000F180800AE29C330200084
:100368002027803106301021803171082000DB0001
:100378007208DC00DD01DE015E08FC005D08FB00A0
:100388005C08FA005B08F9000030CE258031882728
:100398008031DB218031912788312C204608DA0012
:1003A8004508D9004408D8004308D70008002D089C
:1003B800B6008030B6052D35BC00AC1B3C143C089B
:1003C8000319EC293C0FEA29DC278031AC17EE2908
:1003D800DC27803131088039B6063135B700B01BCB
:1003E800371437080319FE29370FFC29D72780311E
:1003F800B017002AD72780313708031D3C08031D92
:100408000A2AAA01AB01AC01AD0108002A08F000D4
:100418003008F52280317108C2007008C100B800A8
:10042800B901BA01BB014208BD00BE01BF01C0014C
:100438002B08F0002F08F522803171084027803101
:10044800BD0701300318BE070318BF070318C0070C
:100458002C08F0002E08F5228031710840278031E1
:10046800302780312B08F0002E08F522803115271F
:1004780080312A08F0002F08F522803115278031B5
:100488003A08BB003908BA003808B900B8012A0888
:10049800F0002E08F5228031152780312B08F00056
:1004A8003008F52280315C2780312F08F522803111
:1004B8005C2780313008F52280317108C20070084D
:1004C800C100B2004208B300B401B5013408B50058
:1004D8003308B4003208B300B2013208BD0733084C
:1004E800BE3D3408BF3D3508C03D3B08302780314C
:1004F8003C08C100C2013708C1070318C20A82308C
:10050800C107031CC203BF1B952ABD35BE0DBF0D15
:10051800C00DBB1B3D14FF30B835B90DBA0DBB0D6E
:10052800842AB701BB1FAA2A3808B2003908B300C9
:100538003A08B4007F303B05B50034043304320474
:1005480003193D18A82AAA2AB701B70A37080319B8
:10055800BC2A0130BD070030BE3DBF3DC03D401C38
:10056800BC2AC037BF0CBE0CBD0CC10A0319C20A95
:10057800C5278031031DC22AFF304102031CCC2A43
:100588007F302000C0008030BF00BE01BD01EA2AD4
:100598002000C5278031031DD32A013041020318EA
:1005A800DC2A2000BD01BE01BF01C001B601EA2A54
:1005B80020004108BC00FF30BD05BE057F30BF05E7
:1005C8000030C0013C18BF173C36C0003608C004D4
:1005D8004008AD003F08AC003E08AB003D08AA004B
:1005E8000800F600F201F3017008F400F501761C2A
:1005F800012B7408F2077508F33DF435F50DF6364E
:100608007608031DFB2A7308F1007208F000080041
:1006180064082100D000D101D00A0319D10AD201FF
:10062800D30120000C278031E627803175248031E2
:100638000318362B630886002D3087018100E30AF2
:100648006208F3006108F2006008F1005F08F0003A
:10065800382680317308E2007208E1007108E00072
:100668007008DF00F001F101F201F3016208F70000
:100678006108F6006008F5005F08F4007524803111
:10068800031C522B782B4D278031DB2180319A2790
:100698008031FF302100D207031CD30320000C2730
:1006A80080313F30F7008030F600F501F401752401
:1006B80080310318782B472BAA2780316208F7006E
:1006C8006108F6006008F5005F08F400CF24803167
:1006D8007308E2007208E1007108E0007008DF00AA
:1006E8002100D20A0319D30A20000C278031B82729
:1006F8008031752480310318602B21005208D007FF
:100708005308D13DD401D40AD5015408F90055083D
:10071800A3278031CE2580317E278031692780311B
:100728000318A92BAA27803174278031CF24803160
:1007380073082100CF007208CE007108CD00700840
:10074800CC00D40A0319D50A922B74278031403083
:10075800F300F201F101F001CF247308C60072081A
:10076800C5007108C4007008C3006208CA006108A7
:10077800C9006008C8005F08C70088312C20803194
:100788004608E2004508E1004408E0004308DF00AD
:100798000C278031B827803175248031031CDE2B6B
:1007A8003F30E2008030E100E001DF012100D20AA1
:1007B8000319D30A2100D31F082CB1278031E30A7B
:1007C800630886002E308100E30A2100D11FF02B38
:1007D8005008D2025108D33BFF30D400D50053084B
:1007E800803AFD005508803A7D02031DFD2B540810
:1007F80052020318082CB1278031FF30E30A210088
:10080800D407031CD503F32B2100D401D501692794
:10081800803103186F2C20006208F3006108F20091
:100828006008F1005F08F0005E2680317108210041
:10083800CB007008CA0020006308860087012100E9
:100848004A08303E81002000E30A2100530855067B
:10085800031D302C52085406031D392C2000630850
:1008680086002E3087018100E30A21004A08F9003A
:100878004B08A3278031CE2580317E2780314F0851
:100888002000DA0021004E082000D90021004D0880
:100898002000D80021004C082000D7006208DE00A4
:1008A8006108DD006008DC005F08DB00412680315C
:1008B8005A08E2005908E1005808E0005708DF002C
:1008C8004D278031DB2180319A2780312100D40ADD
:1008D8000319D50A0B2C20006308860087018101C3
:1008E80008008030F801F9017205FA007F307305BD
:1008F800FB007A0479047804031D862CF001F101C9
:10090800F201F3018030F801F9017605FA007F3031
:100918007705FB007A0479047804031D952CE627F3
:100928008031F31FA92CBF2780317008F8027108A5
:10093800F93B7208FA3B7308FB3B7B08F3007A0823
:10094800F2007908F1007808F000F71FBD2CBF27E6
:1009580080317408F8027508F93B7608FA3B770885
:10096800FB3B7B08F7007A08F6007908F500780861
:10097800F4008030F306F70677087302031D0800B9
:1009880076087202031D080075087102031D08002D
:1009980074087002080077082000A4008030A405BD
:1009A8007735AB00F61B2B142B080319E32C2B0F00
:1009B800E12CF401F501F601F701F617E62CF40134
:1009C800F501F601F70173088039A4067335AC0008
:1009D800F21B2C142C080319F92C2C0FF72CF001FE
:1009E800F101F201F301F217FC2CF001F101F2011F
:1009F800F3017308720471047004031D162D80300E
:100A0800F401F501F601F701F6047F30F704240834
:100A1800F7047708F3007608F2007508F100740807
:100A2800F00008002B08031D1E2DF001F101F20152
:100A3800F30108002B08A500A6012C08A502031C39
:100A4800A6037F30A5070318A60A7708A30076082F
:100A5800A2007508A1007408A000F401F501F601D0
:100A6800F701A701A801A901AA01AC011A302C02BB
:100A780003186A2D2C0803194F2DA035A10DA20DBE
:100A8800A30DF435F50DF60DF70DAA1B7414A73553
:100A9800A80DA90DAA0D73082302031D5D2D720868
:100AA8002202031D5D2D71082102031D5D2D7008B2
:100AB8002002031C682D2A177008A0027108A13BA8
:100AC8007208A23B7308A33BAC0A3A2D2308220400
:100AD80021042004031D2714F61B812DF435F50D80
:100AE800F60DF70DAA1B7414FF30A735A80DA90D34
:100AF800AA0DA507031CA603702DAC01AA1F962DED
:100B08002708F8002808F9002908FA007F302A0584
:100B1800FB007A047904780403197418942D962D2F
:100B2800AC01AC0A2C080319A82D0130F4070030D9
:100B3800F53DF63DF73D771CA82DF737F60CF50C7B
:100B4800F40CA50A0319A60AD1278031031DAE2D7E
:100B5800FF302502031CB52DFF302000A500CB2750
:100B680080312000D1278031031DBC2D01302502A2
:100B78000318C32D2000A501CB278031A401200034
:100B88002508AB002B1CCA2DF617CB2DF6132B36D8
:100B9800F7000B2D2000A4002408031DFC1FE42DE2
:100BA8007909A6007A09A7007B09A8007C09A90091
:100BB800A60A0319A70A0319A80A0319A90AEC2DFA
:100BC8007C08A9007B08A8007A08A7007908A60075
:100BD8007C087B047A047904031DF72DF901FA01D6
:100BE800FB01FC0108009630A500FE302905031919
:100BF8000A2EA50AE1278031F92D0130A50AA6079A
:100C08000030A73DA83DA93DE1278031FF302905E7
:100C18000319182E012E02302502031C1A2EA503D3
:100C2800A635A70DA80DA90DA81F0F2E251CA813C2
:100C3800A5362508A300A201A101A0012008A60449
:100C48002108A7042208A8042308A9042408031DCE
:100C5800FC1F2F2EA9172908FC002808FB002708CD
:100C6800FA002608F9000800730872047104700479
:100C7800031908008030F30608008030DA065E08A1
:100C8800C6005D08C5005C08C4005B08C3005A08BC
:100C9800CA005908C9005808C8005708C700883151
:100CA8002C204608DA004508D9004408D800430833
:100CB800D70008000310720D730DF9007908031DA1
:100CC8006A2EF001F101F201F30108007008F40046
:100CD8007108F5007208F6007308F7001F30F73640
:100CE800F60CF50CF40C890B732E7408F80096308A
:100CF800F217F301F902F91F8D2E7908803A973E11
:100D0800031C652EF336F20CF10CF00CF90F862E4D
:100D18009A2E203079020318652E790803199A2E25
:100D2800F035F10DF20DF30DF903912E7808031942
:100D38000800F009F109F209F309F00A0319F10AA8
:100D48000319F20A0319F30A08006F30210093050A
:100D5800130804389300140880389400F830950577
:100D68001808103898001A12FC309A0504309E00B2
:100D78009B0108002000931513163E00CE114E1259
:100D880014303D00C50015303E00A3001430A40007
:100D980013303D00C600803023008F0028309000BB
:100DA80092014F308D0008003E00B80120009601E6
:100DB8008C01F03091003E0038081038B80020004F
:100DC80097018D011108013892003E00430801384F
:100DD800C30008000F102300911611162E000F18DB
:100DE8000800F22E2100DE0061082000E200210048
:100DF80060082000E10021005F082000E0002100D9
:100E08005E082000DF00D630E3000230E40008006E
:100E18006208F3006108F2006008F1005F08F00062
:100E280008007108C2007008C100B8074208B93D3F
:100E38000030BA3DBB3D0800C6008830C50093307D
:100E4800C4003330C3003C30AD00A330AC00D73011
:100E5800AB000A30AA000800BD0701300318BE071E
:100E68000318BF070318C0073A08BB003908BA00BF
:100E78003808B900B8010800C2007008C100B807F6
:100E880001300318B9070318BA070318BB0742084B
:100E980008004130AD002030AC00AB01AA01620867
:100EA800B1006108B0006008AF005F08AE0008003C
:100EB8007108C2007008C100BD074208BE3D00307D
:100EC800BF3DC03D2C08F00008005508803AFD00E1
:100ED8005108803A7D02031D08005008540208009A
:100EE80021004F08F7004E08F6004D08F5004C08A1
:100EF800F40008007C082100CF007B08CE007A08A7
:100F0800CD007908CC0008007C08B1007B08B0004F
:100F18007A08AF007908AE0008002D08CA002C082E
:100F2800C9002B08C8002A08C70008002D08E200DD
:100F38002C08E1002B08E0002A08DF000800FA006E
:100F4800890D893B8909FB00FC0001344130F3001D
:100F58002030F200F101F00108002000630886004B
:100F680030308701810008004130F7002030F6005A
:100F7800F501F40108008030F801F901FA01FB00DD
:100F880008004208803AB200803032020800A60108
:100F9800F401F501F601F70108002608803AF80087
:100FA800803078020800AE01AF01B001B10108003D
:100FB800AA01AB01AC01AD010800A936A80CA70C29
:100FC800A60C0800F401F501F601F7010800F40188
:100FD800F501701CF32F7208F4077308F53DF2351C
:100FE800F30DF136F00C70087104031DED2F750830
:080FF800F1007408F00008008C
:101058004608D3008030D3054635D500C51B551446
:10106800550803193F28550F3D28C301C401C50180
:10107800C601C5174228C301C401C501C6014A08F3
:10108800D4008030D40554085306031D53174A353D
:10109800D400C91B5414540803195A28540F58284B
:1010A800C701C801C901CA01C9175D28C701C8011C
:1010B800C901CA015508540203188428531F662819
:1010C8008030D3065508D6005408D5005608D400F9
:1010D8004308D6004708C3005608C7004408D6008E
:1010E8004808C4005608C8004508D6004908C50085
:1010F8005608C9004608D6004A08C6005608CA005D
:10110800D6015408CB00CC014C08CE0055084B0240
:10111800CD00031CCE034E08803ACF0080304F022A
:10112800031D98281A304D02031CB52820004608D4
:101138004504440443040319A3280130A4280030BB
:10114800D600C301C401C501C6015408D500BA2898
:10115800561CB22856360138D600B328D636622136
:101168008831200054085502031CAC28531BD4288E
:101178005508031DC02871294708C3074808C43DFE
:101188004908C53D4A08C63D461C3429561CD02886
:1011980056360138D600D128D6366221883134290E
:1011A8004608803ACB004A08803A4B02031DE628DD
:1011B80049084502031DE62848084402031DE6289D
:1011C8004708430203181129FF30CB00CC00CD009B
:1011D800CE0043084702CF004408483BD0004508EA
:1011E800493BD10046084A3BD2004F08CB0750087C
:1011F800CC3D5108CD3D5208CE3D4E08C6004D08A5
:10120800C5004C08C4004B08C3008030D306D6097B
:10121800D60F19296A21883119294708C3024808B5
:10122800C43B4908C53B4A08C63B46084504440434
:101238004304031D32295608031D32297129C33579
:10124800C40DC50DC60DD61B4314561C2E290314F8
:10125800D60D2F29D6355508031DD503C51F2329BB
:10126800D401D61F3F2956087F39031943183D2951
:101278003F29D401D40A540803194C296A2188311A
:10128800461C4C29C637C50CC40CC30C550FD50ACF
:10129800550A031D5508031D5829C301C401C5017A
:1012A800C60155080319D301551C5C29C5175D29CA
:1012B800C5135536C600D31BC61708004318D617E2
:1012C800C637C50CC40CC30CD50A08000130C307C7
:1012D8000030C43DC53DC63D0800C301C401C50179
:1012E800C6010800EA006708EC006608EB00210068
:1012F800A001A10120006B0884006C088500120081
:10130800031995296B30CE006808CF006A08F621CA
:1013180089314E082100A00720004F082100A13D77
:101328007E29210021082000E70021002008200054
:10133800E6000800AB002100261CA629FB278931FE
:10134800DE2189312000A61BAE292608AA0025081F
:10135800A900B029A901AA01A701A8012808803A73
:10136800FD002A08803A7D02031DBC2929082702AE
:101378000318CB292030F300F40120002B08F500D6
:10138800432389312000A70A0319A80AB22921009A
:101398002618D229FB278931DE218931200024082B
:1013A80074237108A5007008A4002908A4072A0856
:1013B800A53D0800A300A101A20121082307FC0004
:1013C800860087010108A000200803190800F3001F
:1013D800F4017B08F500432389312000A10A031991
:1013E800A20AE129E500A2278931253A031DAB2A83
:1013F800BB2789310318810A2100FF30A201A3010C
:10140800A601A701A400A5002000A2278931643AFB
:101418000319132AA2278931693A031D402ABB27D9
:1014280089310318810ACE278931D000013FD100C4
:101438005008D3005108D400890D893B8909D5008B
:10144800D600D700D800D900DA005308B0005408F5
:10145800B1005508B2005608B3005708B400580840
:10146800B5005908B6005A08B7006508AD24310818
:10147800CF003008CE000800A2278931733A031D37
:101488005A2ABB2789310318810A4F088600870129
:10149800403F84008501810A0008E400FB006508DC
:1014A800B8227C08CF007B08CE000800A22789312B
:1014B800783A0319642AA2278931583A031D932AD6
:1014C8004E08AF278931E3004E08860001308107B6
:1014D80041310318810ACE278931DB00013FDC0046
:1014E800DD01DE01DF01E001E101E2015B08AC00A2
:1014F8005C08AD005D08AE005E08AF005F08B00094
:101508006008B1006108B2006208B3006308B40063
:10151800650895232D08CF002C08CE000800A227C7
:101528008931253A031DA52ABB2789310318810A69
:101538002530F627893143232000CE01CE0ACF017A
:101548000800BB270318810ACE01CF0108004E0806
:10155800AF278931F6278931432389312000BB27FA
:1015680089310318810AA02AAB00E23086000030D6
:10157800870020308400003085000730FD00160009
:101588001A00FD0BC32A7B08AC002C08031DCE2AC9
:101598002030AC002C08742389317108B000700821
:1015A800AF00210025082000AE00210024082000FB
:1015B800AD00AE1BF02A2E08803AFD003008803AB4
:1015C8007D02031DE92A2F082D020318F02A2000A6
:1015D8002E08B0002D08AF0020003008AE002F08FC
:1015E800AD00210023082000AA00210022082000C5
:1015F800A9002100261C092B0D2BE1278931432343
:1016080089312000AF0A0319B00AC2278931031CA7
:10161800012B2000A701A8012808803AFD002E0808
:10162800803A7D02031D1A2B2D08270203182D2B43
:1016380020002C08860087010108F300F4012B081C
:10164800F500432389312000AC0AA70A0319A80A28
:10165800102B21002618392B3D2BE12789314323F4
:1016680089312000AF0A0319B00AC2278931031C47
:10167800312B20003008FC002F08FB0008007508FB
:10168800031D7508031D4A2B7308852B7508033E37
:10169800860087011600010403196B2B7508033EA9
:1016A80086008701403FF600413FF700750A860033
:1016B800403FF800413FF900803AFA007708803A45
:1016C8007A02031D692B7608780203180800750A48
:1016D800860001308701810741310318810A08001B
:1016E800F300F200730886008701010803197E2BB6
:1016F800F30A762B72087302F000F101F01BF10374
:101708000800F200872BF1002E000F08F0000430CB
:10171800F036890B8C2B701C882B710822009A00DC
:101728000800BF00E8278931B50080303502031D65
:10173800A02B0130210024020318A72B2000BD0193
:10174800BD0ABE01AF2B210025082000BE002100E4
:1017580024082000BD00210023082000C900210022
:1017680022082000C8002100261EBF2BFE302000C2
:10177800C807031CC90320002C08C0002D08C1009D
:101788002E08C2002F08C3003008C4003108C50065
:101798003208C6003308C7001F30CC00CD01210035
:1017A800C901432CFF302000CC07031CCD030F30A8
:1017B8004005CA00CB014B08803AB500803035029D
:1017C800031DE82B0A304A02031CEC2B5730ED2B83
:1017D80030302000CA070318CB0A3408BF3EB500D2
:1017E800FF3003180030B600003036021A300319F3
:1017F80035020318012C0130022C0030B900BA015F
:101808003A0403192B2C20304A04B5004B08B600C3
:1018180035089F3EB700FF30363DB800003038022B
:101828001A300319370203181B2C01301C2C003006
:10183800BB00BC013C0403192B2C4B08F5004A08DB
:10184800F400922489317508CB007408CA004C084A
:10185800AA3E860087014A088100FF30BD07031CA5
:10186800BE03C807031CC9030430C736C60CC50C21
:10187800C40CC30CC20CC10CC00C890B392C200041
:101888004D08803AB50080303502031D4D2C0230DA
:101898004C02031C742C20004008410442044304F9
:1018A8004404450446044704031DD62B3E08803AE9
:1018B800B50080303502031D632C01303D0203184A
:1018C800D62B20004908803AB50080303502031D28
:1018D8006F2C01304802031C742C2100A618D62B4B
:1018E8002100261E832CFF302000EF278931870135
:1018F80034088100FF30EF27893130308100200023
:101908004C08AA3EA4004908A6004808A5003F08BC
:101918009E212508AD002408AC00080074089F3EED
:10192800F600FF30753DF700003077021A300319D2
:1019380076020318A12C0130A22C0030F800F9011E
:101948007904031908005F307405F4000030F501CC
:101958000800BD003008C2003108C3003208C400C6
:101968003308C5003408C6003508C7003608C80063
:101978003708C9004230860000308700473FB8006A
:10198800B81FC82C0130C92C00302000C000C1018C
:1019980041040319EA2CC209C309C409C509C609C7
:1019A800C709C809C909C20FEA2CC30A031DEA2CD2
:1019B800C40A031DEA2CC50A031DEA2CC60A031D26
:1019C800EA2CC70A0319C80A0319C90AE827893182
:1019D800B80080303802031DF42C013021002402A5
:1019E8000318FB2C2000BB01BB0ABC01032D2100FE
:1019F80025082000BC00210024082000BB0021008D
:101A080023082000BF00210022082000BE00400853
:101A18004104031D122D2100261D172DFF30200023
:101A2800BE07031CBF031F302000CA00CB012100E2
:101A3800C901A52D20004208430444044504460476
:101A4800470448044904031D432D3C08803AB80064
:101A580080303802031D322D01303B020318432D1C
:101A680020003F08803AB80080303802031D3E2D20
:101A780001303E02031CB12D2100A61CB12DFF3000
:101A88002000CA07031CCB030A30A000A101A20151
:101A9800A301A401A501A601A7014208A8004308C3
:101AA800A9004408AA004508AB004608AC0047084E
:101AB800AD004808AE004908AF00C42689312108A6
:101AC800F4002008F3008B2789317308303E20008A
:101AD800B8004A08AA3E8600870138088100FF300E
:101AE800BB07031CBC03BE07031CBF030A30A000CE
:101AF800A101A201A301A401A501A601A701420811
:101B0800A8004308A9004408AA004508AB004608F5
:101B1800AC004708AD004808AE004908AF00DC2516
:101B280089312008C2002108C3002208C400230804
:101B3800C5002408C6002508C7002608C8002708CD
:101B4800C90020004B08803AB80080303802031DD5
:101B5800AF2D01304A0203181E2D20004008410411
:101B6800031DB92D2100261DCD2DFF302000CA07E9
:101B7800031CCB0340084104031DC42D2B30C52D85
:101B88002D30B900BA014A08AA3E860087013908F3
:101B9800810020004A08AA3EA4003F08A6003E088B
:101BA800A5003D089E212508B1002408B0000800C2
:101BB8002030F201860000308700473FF000F01F18
:101BC800052E2000A009A109A209A309A409A509B5
:101BD800A609A709A00F032EA10A031D032EA20A16
:101BE800031D032EA30A031D032EA40A031D032E9F
:101BF800A50A031D032EA60A031D032EA70AF20138
:101C0800F20A2830860000308700473FF000F01FB6
:101C18002D2E2000A809A909AA09AB09AC09AD090C
:101C2800AE09AF09A80F2B2EA90A031D2B2EAA0A4D
:101C3800031D2B2EAB0A031D2B2EAC0A031D2B2EC6
:101C4800AD0A031D2B2EAE0A031D2B2EAF0A013041
:101C5800F20673308600003087000830F00000304C
:101C68001E00F00B342E2000200821042204230437
:101C780024042504260427040319922EF101F10AED
:101C8800A71B4F2EA035A10DA20DA30DA40DA50DC8
:101C9800A60DA70D432EF335F40DF50DF60DF70D32
:101CA800F80DF90DFA0D27082F02031D752E2608C9
:101CB8002E02031D752E25082D02031D752E2408DE
:101CC8002C02031D752E23082B02031D752E2208D6
:101CD8002A02031D752E21082902031D752E2008CE
:101CE8002802031C882E2008A8022108A93B2208E4
:101CF800AA3B2308AB3B2408AC3B2508AD3B260890
:101D0800AE3B2708AF3B7314A736A60CA50CA40C52
:101D1800A30CA20CA10CA00CF10B4F2E72080319F6
:101D2800B22EF309F409F509F609F709F809F909D2
:101D3800FA09F30FB22EF40A031DB22EF50A031D99
:101D4800B22EF60A031DB22EF70A031DB22EF80AA8
:101D5800031DB22EF90A031DB22EFA0A73082000D9
:101D6800A0007408A1007508A2007608A3007708EF
:101D7800A4007808A5007908A6007A08A70008003A
:101D88002830F201860000308700473FF000F01F3E
:101D9800E72E2000D8278931A80FE52EA90A031DB0
:101DA800E52EAA0A031DE52EAB0A031DE52EAC0A93
:101DB800031DE52EAD0A031DE52EAE0A031DE52E13
:101DC800AF0AF201F20A2030860000308700473F50
:101DD800F000F01F0D2F2000A009A109A209A309F6
:101DE800A409A509A609A709A00F0D2FA10A031D7B
:101DF8000D2FA20A031D0D2FA30A031D0D2FA40AE0
:101E0800031D0D2FA50A031D0D2FA60A031D0D2F57
:101E1800A70A2000200821042204230424042504FE
:101E28002604270403195F2FF101F10AA71B252FA8
:101E3800A035A10DA20DA30DA40DA50DA60DA70DEE
:101E4800192F27082F02031D432F26082E02031DD2
:101E5800432F25082D02031D432F24082C02031DA0
:101E6800432F23082B02031D432F22082A02031D98
:101E7800432F21082902031D432F20082802031C91
:101E8800552F2008A8022108A93B2208AA3B2308AD
:101E9800AB3B2408AC3B2508AD3B2608AE3B2708E6
:101EA800AF3BA736A60CA50CA40CA30CA20CA10C46
:101EB800A00CF10B252F72080319792FD827893127
:101EC800A80F792FA90A031D792FAA0A031D792FB4
:101ED800AB0A031D792FAC0A031D792FAD0A031D28
:101EE800792FAE0A031D792FAF0A20002808A00019
:101EF8002908A1002A08A2002B08A3002C08A40086
:101F08002D08A5002E08A6002F08A70008007408B1
:101F1800803AF50080307502031D942F013073025A
:101F2800031808007309F5007409F600F50A031987
:101F3800F60A7508F3007608F40008004E088600D3
:101F48008701403FD000413FD1005008840051082C
:101F580085001200080086008701403FD000413FFD
:101F6800D1005008840051088500000808004E0878
:101F780086000130870181074131080020003008C0
:101F8800803AFD002A08803A7D02031D08002908CE
:101F98002F0208004F0886008701010884000230DC
:101FA80085018107003F0800A809A909AA09AB090A
:101FB800AC09AD09AE09AF0908002030F300F401FF
:101FC80020002B08F50008002100A51FA6102508F1
:101FD800803A20000800CC07031CCD034C08AA3E19
:101FE80086000800F300F4016508F50008002000E9
:081FF8002B08FB00240808007F
:102EF800083022009F0090309D0024309E00200062
:102F08002308F3002208F2002108F1002008F0004D
:102F18000130F700E830F6004830F500F401C12729
:102F280097317008A4007108A5007208A6007308FC
:102F3800A7000230A736A60CA50CA40C890B9E2F5F
:102F48002508A9002408A800FF30A807A93D2808DB
:102F580022009B002000290822009C00200013105A
:102F68001308023893003E00CE134E1111303D0075
:102F7800CB0010303E00A0000800F801F901FA016A
:102F8800FB0173087204710470040319F72FFC0124
:102F9800FC0AF31BD42FF035F10DF20DF30DCC2FF5
:102FA800F835F90DFA0DFB0D73087702031DE62FAE
:102FB80072087602031DE62F71087502031DE62FBD
:102FC80070087402031CF12F7008F4027108F53BB5
:102FD8007208F63B7308F73B7814F336F20CF10CE1
:102FE800F00CFC0BD42F7B08F3007A08F200790868
:102FF800F1007808F00008004C346134203474344F
:1030080065346D34703465347234613474347534B5
:10301800723461342034653473343A3420342534BE
:1030280064342E34253464342A3443340A340A345C
:103038000034743465346D34703441346D34623422
:103048003A342034253473340A34003454346F3419
:1030580062346A343A342034253473340A34003400
:0C30680030347834253478340A340034D5
:020000040001F9
:08000000FF3FFF3FFF3FFF3F00
:0A000E008C3FFF3F9F3FFF3FFF3F85
:00000001FF
