:10000000803102288731EA2FCF004B08D1004A08FF
:10001000D000A001A1015008840051088500120001
:1000200003192A28D030CD004D082000D50021002A
:100030004C08CE004E082000D60021004F088E311B
:10004000A026803155082100A00720005608210075
:10005000A13D0B282108CB002008CA000800770822
:100060008039F80078082000A4007735F800780877
:10007000AB00F61B2B142B0803194C282B0A031D6D
:1000800049280030F7000030F6000030F50000305D
:10009000F400F617F70154280030F7000030F6009E
:1000A0000030F5000030F40073088039F80078085B
:1000B000A4067335F8007808AC00F21B2C142C0849
:1000C000031970282C0A031D6D280030F30000303E
:1000D000F2000030F1000030F000F217F301782850
:1000E0000030F3000030F2000030F1000030F0008A
:1000F0007308720471047004031D97280030F70020
:100100000030F6000030F5000030F4008030F604D6
:100110007F30F7042408F8007808F7047708F30024
:100120007608F2007508F1007408F00008002B084A
:10013000031DA3280030F3000030F2000030F1006E
:100140000030F00008002B08F800F9017908FB00E6
:100150002C087802FA00031CFB037A087F3EA500F6
:1001600000307B3DA6007708A3007608A200750842
:10017000A1007408A0000030F7000030F600003045
:10018000F5000030F4000030AA000030A900003073
:10019000A8000030A700AC011A302C02031808296F
:1001A0002C080319EA280130A035A10DA20DA30DDA
:1001B000890BD4280130F435F50DF60DF70D890BB8
:1001C000DB28AA1B74140130A735A80DA90DAA0DB0
:1001D000890BE42873082302031DF8287208220201
:1001E000031DF82871082102031DF8287008200259
:1001F000031C03292A177008A0027108A13B72088A
:10020000A23B7308A33B0130F8007808AC07CC2868
:100210002308220421042004031D2714F61B25298A
:100220000130F435F50DF60DF70D890B1129AA1BD8
:1002300074140130A735A80DA90DAA0D890B1A2930
:10024000FF30A507FF30A63D0E29AC01AA1F3E29AD
:10025000FF302705F800FF302805F900FF30290599
:10026000FA007F302A05FB007B087A0479047804C1
:10027000031974183C293E29AC01AC0A2C08031957
:1002800067290130F4070030F53D0030F63D0030BD
:10029000F73D771C67297408F8007508F90076089F
:1002A000FA007708FB000130FC00FB37FA0CF90C70
:1002B000F80CFC0B55297B08F7007A08F600790842
:1002C000F5007808F4000130A5070030A63D2608A7
:1002D000803AF80080307802031D7029FF30250233
:1002E000031C7F29FF302000A5000030A60000304D
:1002F000F7000030F6000030F5000030F400200078
:100300002608803AF80080307802031D89290130E0
:100310002502031897292000A501A6010030F70047
:100320000030F6000030F5000030F400A401200099
:100330002508F8007808AB002B1CA029F617A42983
:100340007F30F8007808F6052B36F8007808F700BB
:100350008A2847088039CC004C08D4004735CC00A7
:100360004C08D600C61B561456080319C529560A50
:10037000031DC2290030C7000030C6000030C50090
:100380000030C400C617C701CD290030C7000030B7
:10039000C6000030C5000030C4004B088039CC00D6
:1003A0004C08D50055085406031D54174B35CC0096
:1003B0004C08D500CA1B551455080319ED29550AD8
:1003C000031DEA290030CB000030CA000030C9000C
:1003D0000030C800CA17CB01F5290030CB0000302F
:1003E000CA000030C9000030C80056085502031882
:1003F0003B2A541FFF298030CC004C08D4065608F5
:10040000CC004C08D7005508CC004C08D600570843
:10041000CC004C08D5004408CC004C08D700480854
:10042000CC004C08C4005708CC004C08C800450854
:10043000CC004C08D7004908CC004C08C500570830
:10044000CC004C08C9004608CC004C08D7004A082C
:10045000CC004C08C6005708CC004C08CA0047081E
:10046000CC004C08D7004B08CC004C08C7005708FC
:10047000CC004C08CB00D7015508CC00CD014D086D
:10048000CF0056084C02CE00031CCF034F08803A21
:10049000D00080305002031D4F2A1A304E02031C38
:1004A000832A2000470846044504440403195A2AB5
:1004B00001305B2A0030CC004C08D7000030C70068
:1004C0000030C6000030C5000030C4005508CC0024
:1004D0004C08D600882A571C732A57360138CC009E
:1004E0004C08D700752A0310D70C4418D7170130D1
:1004F000CC00C737C60CC50CC40CCC0B792A013014
:10050000CC004C08D607200055085602031C6B2A65
:10051000541BB92A5608031D962A0030C700003024
:10052000C6000030C5000030C40008004808C407F9
:100530004908C53D4A08C63D4B08C73D471C332BFB
:10054000571CA82A57360138CC004C08D700AA2AD5
:100550000310D70C4418D7170130CC00C737C60C8E
:10056000C50CC40CCC0BAE2A0130CC004C08D6070D
:10057000332B4708803ACC004B08803A4C02031DCD
:10058000CB2A4A084602031DCB2A49084502031D0F
:10059000CB2A480844020318032BFF30CC00FF305D
:1005A000CD00FF30CE00FF30CF0044084802D0001D
:1005B0004508493BD10046084A3BD20047084B3B1F
:1005C000D3005008CC075108CD3D5208CE3D53080A
:1005D000CF3D4F08C7004E08C6004D08C5004C0867
:1005E000C4008030CC004C08D406D709D70A57087D
:1005F000031D0B2B0130C4070030C53D0030C63D44
:100600000030C73D0B2B4808C4024908C53B4A08C7
:10061000C63B4B08C73B4708460445044404031D3A
:10062000312B5708031D312B0030C7000030C600A6
:100630000030C5000030C40008000130C435C50DCD
:10064000C60DC70D890B1E2BD71B4414571C2A2B14
:1006500003142B2B0310D70D56080319312B01302F
:10066000D602C61F1D2BD501D71F3E2B57087F3939
:10067000031944183C2B3E2BD501D50A5508031904
:100680006A2B0130C4070030C53D0030C63D003044
:10069000C73D471C6A2B4408CC004508CD004608DE
:1006A000CE004708CF000130D000CF37CE0CCD0CA4
:1006B000CC0CD00B552B4F08C7004E08C6004D0878
:1006C000C5004C08C400560A03196A2B0130CC003F
:1006D0004C08D607560A031D5608031D7A2B003016
:1006E000C7000030C6000030C5000030C400560806
:1006F0000319D401561C7E2BC617822B7F30CC00E9
:100700004C08C6055636CC004C08C700D41F08005C
:10071000C71708002D088039B2003208B7002D3500
:10072000B2003208BD00AC1B3D143D080319A52BD7
:100730003D0A031DA32B0030AD000030AC0000309B
:10074000AB000030AA00AC17AD2B0030AD0000307C
:10075000AC000030AB000030AA0031088039B20094
:100760003208B7063135B2003208B800B01B381471
:1007700038080319C82B380A031DC62B0030B100F6
:100780000030B0000030AF000030AE00B017D02B0A
:100790000030B1000030B0000030AF000030AE00DB
:1007A0003808031D3D08031DDE2B0030AD0000306E
:1007B000AC000030AB000030AA0008002A08B200EC
:1007C0003208F00030089431AC2483317108C30042
:1007D0007008C2004208B200B301B401B501350887
:1007E000BC003408BB003308BA003208B900430823
:1007F000B200B301B401B5013508C1003408C0002E
:100800003308BF003208BE002B08B2003208F000E7
:100810002F089431AC2483317108C3007008C200E2
:100820004208B200B301B401B5013208B907330878
:10083000BA3D3408BB3D3508BC3D4308B200B301A6
:10084000B401B5013208BE073308BF3D3408C03DCE
:100850003508C13D2C08B2003208F0002E08943152
:10086000AC2483317108C3007008C2004208B20092
:10087000B301B401B5013208B9073308BA3D3408F1
:10088000BB3D3508BC3D4308B200B301B401B5011E
:100890003208BE073308BF3D3408C03D3508C13DAE
:1008A0000830B935BA0DBB0DBC0D890B512C2B0886
:1008B000B2003208F0002E089431AC248331710864
:1008C000C3007008C2004208B9074308BA3D0030AF
:1008D000BB3DBC3D2A08B2003208F0002F0894311D
:1008E000AC2483317108C3007008C2004208B90704
:1008F0004308BA3D0030BB3DBC3D0830B935BA0DA8
:10090000BB0DBC0D890B7E2C2A08B2003208F0000A
:100910002E089431AC2483317108C3007008C200E2
:100920004208B9074308BA3D0030BB3DBC3D2B0827
:10093000B2003208F00030089431AC2483317108E1
:10094000C3007008C2004208BE074308BF3D003024
:10095000C03DC13D2C08B2003208F0002F08943190
:10096000AC2483317108C3007008C2004208BE077E
:100970004308BF3D0030C03DC13D2C08B2003208E5
:10098000F00030089431AC2483317108C300700842
:10099000C2004208B2004308B300B401B5010830F8
:1009A000B235B30DB40DB50D890BD02C3208BE078E
:1009B0003308BF3D3408C03D3508C13D3C08B20096
:1009C000B301B401B5013208BE073308BF3D340896
:1009D000C03D3508C13D0830B935BA0DBB0DBC0D61
:1009E000890BEC2C3D083807B200B301B30D320877
:1009F000823EC200FF30333DC300C01B142D0130C6
:100A0000BE35BF0DC00DC10D890B002DBC1B3E14A2
:100A10000130B935BA0DBB0DBC0D890B092DFF3066
:100A2000C207FF30C33DFD2CB801BC1F2D2DFF3088
:100A30003905B200FF303A05B300FF303B05B40082
:100A40007F303C05B5003508340433043204031903
:100A50003E182B2D2D2DB801B80A38080319562D34
:100A60000130BE070030BF3D0030C03D0030C13D09
:100A7000411C562D3E08B2003F08B3004008B400A8
:100A80004108B5000130B600B537B40CB30CB20C58
:100A9000B60B442D3508C1003408C0003308BF0030
:100AA0003208BE000130C2070030C33D4308803A1F
:100AB000B20080303202031D5F2DFF304202031C62
:100AC0006B2D7F302000C1008030C0000030BF009F
:100AD0000030BE00952D20004308803AB2008030DF
:100AE0003202031D752D013042020318822D0030A1
:100AF0002000C1000030C0000030BF000030BE0048
:100B0000B701952D20004208B2003208BD00FF3029
:100B1000BE05FF30BF057F30C0050030C1053D1860
:100B2000C0173D36B2003208C1003708B2003208A3
:100B3000C1044108AD004008AC003F08AB003E08CE
:100B4000AA0008006508013E2100D000003003180B
:100B50000130D100D401D50120006308F300620800
:100B6000F2006108F1006008F0000030F70000308A
:100B7000F6000030F5000030F4009731852785310C
:100B80000318E02D2D30FD006408860087017D08E4
:100B900081000130FD007D08E4076308F30062086E
:100BA000F2006108F1006008F00088310220853110
:100BB0007308E3007208E2007108E1007008E000C9
:100BC0000030F3000030F2000030F1000030F0009F
:100BD0006308F7006208F6006108F5006008F40099
:100BE000973185278531031C162E4D2E4130AD00DF
:100BF0002030AC000030AB000030AA006308B10028
:100C00006208B0006108AF006008AE0083318A233B
:100C100085312D08E3002C08E2002B08E1002A08AA
:100C2000E000FF302100D407FF30D53D20006308ED
:100C3000F3006208F2006108F1006008F0003F3044
:100C4000F7008030F6000030F5000030F4009731F6
:100C50008527853103184D2EF62D4130F3002030C5
:100C6000F2000030F1000030F0006308F700620885
:100C7000F6006108F5006008F40080312F2085310E
:100C80007308E3007208E2007108E1007008E000F8
:100C900001302100D4070030D53D20006308F30067
:100CA0006208F2006108F1006008F0004130F700CE
:100CB0002030F6000030F5000030F4009731852731
:100CC000853103182D2E210054085007D0005508F7
:100CD000513DD1000130D2000030D3005208F9005C
:100CE0005308FA00890D893B8909FB00FC0001309B
:100CF0008831422085317C082100CF007B08CE005E
:100D00007A08CD007908CC005308803AFD005108DC
:100D1000803A7D02031D8E2E500852020318B22E17
:100D20004130F3002030F2000030F1000030F000DC
:100D300021004F08F7004E08F6004D08F5004C085A
:100D4000F40080312F20853173082100CF00720814
:100D5000CE007108CD007008CC000130D207003001
:100D6000D33D842E21004F08F7004E08F6004D08B1
:100D7000F5004C08F4004030F3000030F200003081
:100D8000F1000030F00080312F2085317308C7005A
:100D90007208C6007108C5007008C4006308CB0063
:100DA0006208CA006108C9006008C8008131A92131
:100DB00085314708E3004608E2004508E1004408A1
:100DC000E0006308F3006208F2006108F1006008C7
:100DD000F0004130F7002030F6000030F500003020
:100DE000F400973185278531031C032F3F30E30042
:100DF0008030E2000030E1000030E00001302100EE
:100E0000D4070030D53D2100D51F482F3030FD00DC
:100E100020006408860087017D0881000130FD0004
:100E20007D08E4072E30FD006408860087017D08F8
:100E300081000130FD007D08E4072100D11F262F2D
:100E400050085402D4005108553BD500FF30D20061
:100E5000FF30D3005508803AFD005308803A7D02E8
:100E6000031D342F520854020318482F3030FD0060
:100E700020006408860087017D0881000130FD00A4
:100E80007D08E407FF302100D207FF30D33D2A2F31
:100E90002100D201D3015308803AFD005108803A65
:100EA0007D02031D552F500852020318E42F200025
:100EB0006308F3006208F2006108F1006008F000C6
:100EC00097312027853171082100CB007008CA00B6
:100ED0004A08303EFD0020006408860087017D0836
:100EE00081000130FD007D08E4072100550853060C
:100EF000031D7C2F54085206031D8A2F2E30FD003F
:100F000020006408860087017D0881000130FD0013
:100F10007D08E40721004A08F9004B08FA00890D12
:100F2000893B8909FB00FC00013088314220853172
:100F30007C082100CF007B08CE007A08CD0079081C
:100F4000CC004F082000DB0021004E082000DA0012
:100F500021004D082000D90021004C082000D800B5
:100F60006308DF006208DE006108DD006008DC0065
:100F70009431722485315B08E3005A08E200590875
:100F8000E1005808E0004130AD002030AC000030F6
:100F9000AB000030AA006308B1006208B00061082D
:100FA000AF006008AE0083318A2385312D08E3004D
:100FB0002C08E2002B08E1002A08E00001302100A3
:100FC000D2070030D33D4B2F2000640886008701F4
:100FD000810108005430840093308500E930860098
:100FE00000308700073093314E238731A0308400D2
:100FF000003085002A309331482320008831D828DA
:101004007308720471047004031908008030F30635
:101014000800F600933139238831B43093317923B1
:101024008831760893317923883193313523883197
:10103400B530933179238831013093318923883154
:10104400F300F4017308F7007408F80001309331D9
:1010540089238831F300F4017308F400F30177085D
:101064007307F7007808743DF80001309331892341
:10107400883193313E237808F2007708F1000800A4
:101084002000A4002408031DFC1F58287909A60089
:101094007A09A7007B09A8007C09A900A60A0319FC
:1010A400A70A0319A80A0319A90A60287C08A90039
:1010B4007B08A8007A08A7007908A6007C087B04AE
:1010C4007A047904031D6F280030FC000030FB0013
:1010D4000030FA000030F90008009630A000200823
:1010E400A500FE302905031996280130A000200828
:1010F400A5070130A936A80CA70CA60C890B7C28DF
:1011040073280130A0002008A5070130A60700308D
:10111400A73D0030A83D0030A93D0130A936A80CF8
:10112400A70CA60C890B9028FF3029050319A828C1
:10113400832802302502031CAA280130A5020130AD
:10114400A635A70DA80DA90D890BA228A81F9B28B9
:101154002518B428FF30A605FF30A7057F30A80561
:10116400FF30A9050310A50C2508A000A101A201C8
:10117400A3011830A035A10DA20DA30D890BBC2825
:101184002008A6042108A7042208A8042308A90407
:101194002408031DFC1FCF28A9172908FC002808D0
:1011A400FB002708FA002608F90008009331B12350
:1011B400883100302000A3000030A2002530A100B7
:1011C4008030A0009531D125883194312324883191
:1011D40094313D2488319531452588315B082100BF
:1011E400E80020005A082100E700200059082100E7
:1011F400E600200058082100E50068082000E3000C
:10120400210067082000E200210066082000E100B8
:10121400210065082000E000DD302100DB005B08D0
:101224002000E40002302100DC005C082000E5001E
:101234008531A225883100302100D2009830D300B6
:10124400DD30DB005B08D40093319D238831953178
:101254008B2588315B082100E80020005A08210012
:10126400E700200059082100E6002000580821006A
:10127400E50068082000E300210067082000E20080
:10128400210066082000E100210065082000E0003C
:10129400DD302100DB005B082000E4000230210087
:1012A400DC005C082000E5008531A2258831163079
:1012B4002100D2009830D300DD30DB005B08D4007D
:1012C40093319D2388319631BD2688312930210000
:1012D400DC009630DB007F30890B6E29DB0B6E2936
:1012E400DC0B6E29ED28AE00E93086000030870063
:1012F40023308400003085000730A00016001A0057
:10130400A00B80297B08A0002008AF002F08031D34
:101314008F292330A0002008AF002F089331DE234B
:1013240089317108B3007008B2002100250820003B
:10133400B100210024082000B000B11BB2293108FB
:10134400803AA0003308803A2002031DAB293208FA
:1013540030020318B22920003108B3003008B2006B
:1013640020003308B1003208B00021002308200017
:10137400AD00210022082000AC002100261CD42945
:10138400E1292030F3000030F40020002E08A000F2
:101394002008F50095311025893101302000B2076D
:1013A4000030B33D20003308803AA0002D08803A75
:1013B4002002031DDF292C083202031CC32920004C
:1013C400AA01AB012B08803AA0003108803A200220
:1013D400031DEE2930082A0203180C2A20002F08C6
:1013E400860087010108A000A1012008F30021085C
:1013F400F4002E08A2002208F50095311025893149
:1014040001302000A0002008AF070130AA070030F7
:10141400AB3DE42921002618212A2E2A2030F3008E
:101424000030F40020002E08A0002008F5009531BB
:101434001025893101302000B2070030B33D20006F
:101444003308803AA0002D08803A2002031D2C2A7C
:101454002C083202031C102A20003308FC00320836
:10146400FB000800F2012830860000308700473F67
:10147400F000F01F5E2A2000A809A909AA09AB09F7
:10148400AC09AD09AE09AF09A80A031D5C2AA90A73
:10149400031D5C2AAA0A031D5C2AAB0A031D5C2AED
:1014A400AC0A031D5C2AAD0A031D5C2AAE0A031DA7
:1014B4005C2AAF0AF201F20A20308600003087006D
:1014C400473FF000F01F852A2000A009A109A209C6
:1014D400A309A409A509A609A709A00A031D852A29
:1014E400A10A031D852AA20A031D852AA30A031D36
:1014F400852AA40A031D852AA50A031D852AA60A8E
:10150400031D852AA70A200020082104220423049D
:1015140024042504260427040319DD2AF101F10A11
:10152400A71BA12AA035A10DA20DA30DA40DA50DE5
:10153400A60DA70D0130F0007008F107922A2708C4
:101544002F02031DBF2A26082E02031DBF2A2508C9
:101554002D02031DBF2A24082C02031DBF2A2308C1
:101564002B02031DBF2A22082A02031DBF2A2108B9
:101574002902031DBF2A20082802031CD12A20089F
:10158400A8022108A93B2208AA3B2308AB3B240854
:10159400AC3B2508AD3B2608AE3B2708AF3BA7363E
:1015A400A60CA50CA40CA30CA20CA10CA00C01303D
:1015B400F102031DA12A72080319FE2AA809A90928
:1015C400AA09AB09AC09AD09AE09AF09A80A031D04
:1015D400FE2AA90A031DFE2AAA0A031DFE2AAB0A33
:1015E400031DFE2AAC0A031DFE2AAD0A031DFE2AB2
:1015F400AE0A031DFE2AAF0A20002808A00029080D
:10160400A1002A08A2002B08A3002C08A4002D087E
:10161400A5002E08A6002F08A7000800F20120301C
:10162400860000308700473FF000F01F3A2B20006F
:10163400A009A109A209A309A409A509A609A70942
:10164400A00A031D382BA10A031D382BA20A031D6F
:10165400382BA30A031D382BA40A031D382BA50A13
:10166400031D382BA60A031D382BA70AF201F20A20
:101674002830860000308700473FF000F01F652BBC
:101684002000A809A909AA09AB09AC09AD09AE094A
:10169400AF09A80A031D612BA90A031D612BAA0A1D
:1016A400031D612BAB0A031D612BAC0A031D612BC7
:1016B400AD0A031D612BAE0A031D612BAF0A013075
:1016C400F0007008F206733086000030870008309E
:1016D400F00000301E00F00B6C2B200020082104C9
:1016E4002204230424042504260427040319D02BEC
:1016F400F101F10AA71B8B2BA035A10DA20DA30D9F
:10170400A40DA50DA60DA70D0130F0007008F1077A
:101714007C2BF335F40DF50DF60DF70DF80DF90DE1
:10172400FA0D27082F02031DB12B26082E02031DD4
:10173400B12B25082D02031DB12B24082C02031DF7
:10174400B12B23082B02031DB12B22082A02031DEF
:10175400B12B21082902031DB12B20082802031CE8
:10176400C42B2008A8022108A93B2208AA3B23086D
:10177400AB3B2408AC3B2508AD3B2608AE3B270811
:10178400AF3B7314A736A60CA50CA40CA30CA20C97
:10179400A10CA00C0130F102031D8B2B720803195C
:1017A400F12BF309F409F509F609F709F809F90920
:1017B400FA09F30A031DF12BF40A031DF12BF50AB0
:1017C400031DF12BF60A031DF12BF70A031DF12B60
:1017D400F80A031DF12BF90A031DF12BFA0A730809
:1017E4002000A0007408A1007508A2007608A300D8
:1017F4007708A4007808A5007908A6007A08A7004D
:101804000800BF003008C4003108C5003208C60013
:101814003308C7003408C8003508C9003608CA00B0
:101824003708CB004430860000308700473FB800BB
:10183400B81F1E2C01301F2C00302000B900BA0143
:101844003908C2003A08C300420843040319482C6B
:10185400C409C509C609C709C809C909CA09CB0900
:10186400C40A031D482CC50A031D482CC60A031DBF
:10187400482CC70A031D482CC80A031D482CC90A52
:10188400031D482CCA0A031D482CCB0A2100A51BA2
:101894004F2CFD30A605FF30A7052508803A20000F
:1018A400B80080303802031D5A2C01302100240274
:1018B4000318622C01302000BD000030BE006A2CE9
:1018C400210025082000BE00210024082000BD00BE
:1018D400210023082000C100210022082000C000AC
:1018E40042084304031D792C2100261D7E2CFF3061
:1018F4002000C007FF30C13D1F302000CC00003065
:10190400CD002100C901112D2000440845044604DE
:101914004704480449044A044B04031DAB2C3E0805
:10192400803AB80080303802031D9A2C01303D0201
:101934000318AB2C20004108803AB80080303802EC
:10194400031DA62C01304002031C1D2D2100A61CE2
:101954001D2DFF302000CC07FF30CD3D0A30A00004
:10196400A101A201A301A401A501A601A7014408A4
:10197400A8004508A9004608AA004708AB00480883
:10198400AC004908AD004A08AE004B08AF008A31EC
:1019940034228C312108F4002008F3009331C7234A
:1019A4008C317308303E2000B8004C08AA3E8600F3
:1019B400870138088100FF30BD07FF30BE3DFF308E
:1019C400C007FF30C13D0A30A000A101A201A3015C
:1019D400A401A501A601A7014408A8004508A9007F
:1019E4004608AA004708AB004808AC004908AD0007
:1019F4004A08AE004B08AF008B3110238C3120080D
:101A0400C4002108C5002208C6002308C700240812
:101A1400C8002508C9002608CA002708CB002000F2
:101A24004D08803AB80080303802031D1B2D013068
:101A34004C020318862C200042084304031D252D64
:101A44002100261D3C2DFF302000CC07FF30CD3D6A
:101A540042084304031D302D2B30312D2D30BB00A3
:101A64000030BC003B08B8004C08AA3E8600870141
:101A74003808810020004C08AA3EB8003808A700A6
:101A84004108A9004008A8003F0896311D262808EF
:101A9400B1002708B0000800C6002100A51B562D80
:101AA400FD30A605FF30A7052508803A2000B800C0
:101AB40080303802031D612D0130210024020318F7
:101AC400692D01302000C4000030C500712D2100B3
:101AD40025082000C500210024082000C40021009E
:101AE40023082000C800210022082000C70021008C
:101AF400261E812DFE302000C707FF30C83D200080
:101B04002F08C9003008CA003108CB003208CC00C5
:101B14003308CD003408CE003508CF003608D00095
:101B24001F30D1000030D2002100C901412EFF3006
:101B34002000D107FF30D23D0F304905D3000030DB
:101B44004A05D4005408803AB80080303802031D96
:101B5400AD2D0A305302031CB32D20005308573E09
:101B6400B62D20005308303ED3000030543DD4003D
:101B74003708BF3EB800FF3003180030B90000300A
:101B840039021A30031938020318CA2D0130CB2D3B
:101B94000030BA00BB013A08C0003B08C10040084D
:101BA40041040319002E20305304B80000305404BB
:101BB400B90038089F3EBA00FF30393DBB00003001
:101BC4003B021A3003193A020318EA2D0130EB2DB7
:101BD4000030BC00BD013C08C2003D08C3004208FF
:101BE40043040319002E5408F7005308F6009431F7
:101BF400CB248D317708D4007608D3005308B8007D
:101C04005108AA3E8600870138088100FF30C407C6
:101C1400FF30C53DFF30C707FF30C83D493086005F
:101C240000308700403FB800413FB900423FBA004E
:101C3400433FBB00443FBC00453FBD00463FBE00A0
:101C4400473FBF0004302000BF36BE0CBD0CBC0CA7
:101C5400BB0CBA0CB90CB80C890B252E20003F081C
:101C6400D0003E08CF003D08CE003C08CD003B0824
:101C7400CC003A08CB003908CA003808C900200053
:101C84005208803AB80080303802031D4B2E0230CF
:101C94005102031C722E200049084A044B044C04D0
:101CA4004D044E044F045004031D992D4508803AF9
:101CB400B80080303802031D612E0130440203183D
:101CC400992D20004808803AB80080303802031D5E
:101CD4006D2E01304702031C722E2100A618992D87
:101CE4002100261E8E2EFF302000D107FF30D23D6A
:101CF4003708B8005108AA3E8600870138088100D9
:101D0400FF30D107FF30D23D3030B8005108AA3E31
:101D1400860087013808810020005108AA3EB800D7
:101D24003808A7004808A9004708A80046089631C3
:101D34001D262808B0002708AF0008002000EE0088
:101D4400550886008701403FD700413FD800570817
:101D54008400580885001200253A031DDD2F55081C
:101D6400860087010130810741310318810A21006F
:101D7400A201A301A601A701FF30A400FF30A50022
:101D84002000550886008701403FD700413FD80016
:101D940057088400580885001200643A0319E12E9C
:101DA400550886008701403FD700413FD8005708B7
:101DB4008400580885001200693A031D1A2F55083B
:101DC400860087010130810741310318810A5608D2
:101DD4008600870101088400850102308107003FE5
:101DE400D700013FD8005708DC005808DD00890DF2
:101DF400893B8909DE00DF00E000E100E200E30046
:101E04005C08B0005D08B1005E08B2005F08B30072
:101E14006008B4006108B5006208B6006308B70042
:101E24006E088C3103243108D6003008D500080030
:101E3400550886008701403FD700413FD800570826
:101E44008400580885001200733A031D482F550872
:101E5400860087010130810741310318810A560841
:101E640086008701403F84008501810A0008D7006D
:101E74005708ED006D08D7005708FB006E0889313C
:101E840075217C08D6007B08D5000800550886001B
:101E94008701403FD700413FD800570884005808C5
:101EA40085001200783A0319662F550886008701C9
:101EB400403FD700413FD8005708840058088500A8
:101EC4001200583A031DAB2F550886008701403F86
:101ED400D700413FD80057088400580885000008FF
:101EE400D9005908EC0055088600870101308107A4
:101EF40041310318810A56088600870101088400CD
:101F0400850102308107003FE400013FE500E6015E
:101F1400E701E801E901EA01EB016408AF006508A3
:101F2400B0006608B1006708B2006808B300690829
:101F3400B4006A08B5006B08B6006C08D7005708EF
:101F4400B7006E088D314E253008D6002F08D50015
:101F54000800550886008701403FD700413FD8005C
:101F640057088400580885001200253A031DD22F13
:101F74005508860087010130810741310318810A21
:101F84002530F3000030F4006E08D7005708F50040
:101F94009531102501302000D5000030D60008000E
:101FA4005508860087010130810741310318810AF1
:101FB400D501D6010800550886008701403FD700A7
:101FC400413FD80057088400580885000008D9000C
:101FD400DA015908F3005A08F4006E08DB005B08C4
:101FE400F500953110258E312000550886008701B3
:0C1FF4000130810741310318810ACC2F15
:10266A009114911C0800362B23001114111C080028
:10267A003B2B23001115111D0800402BF200720894
:10268A0093316B230800640080010131890B492BC7
:10269A000034FE0012001E00FE0B4F2B00342834BB
:1026AA006E3475346C346C34293400340F102300C2
:1026BA00911211162E000F1808005F2B0F1023001D
:1026CA00911611162E000F180800672BF1002E0024
:1026DA000F08F0000430F036890B702B701C6C2B3D
:1026EA00710822009A000800F0002E000F107008EE
:1026FA0023008C002E000F1C7F2B2300111B872B1D
:10270A000130080000300800F0002E000F102300EE
:10271A0091152E000F1C8E2B70080319982B9331DC
:10272A005B2393319A2B9331632323000C0808000F
:10273A00D4302000EF006F082100D8005308CB00E6
:10274A005208CA00D8302000EF006F082100CC00E0
:10275A0000308031042008003E00B80120009601B4
:10276A008C01F03091003E0038081038B800200083
:10277A0097018D011108013892003E004308013883
:10278A00C30008007408803AF50080307502031D02
:10279A00D02B01307302031808007309F50074097D
:1027AA00F600F50A0319F60A7508F3007608F4002C
:1027BA000800F4007408F2007208F3007408860036
:1027CA00870101080319EE2B0130F2007208F407A1
:1027DA00E32B73087402F000F101F01BF103080007
:1027EA007008BF3EF200FF30713DF3000030730203
:1027FA001A30031972020318042C0130052C003018
:10280A00F400F5017408F0007508F100080070087A
:10281A009F3EF200FF30713DF300003073021A3020
:10282A000319720203181B2C01301C2C0030F4000F
:10283A00F5017408F0007508F1000800210013087A
:10284A006F399300130804389300140880389400F1
:10285A001508F83995001808103898001A08EF3941
:10286A009A001A08FC399A0004309E009B0108005D
:10287A002000931513163E00CE114E1214303D005F
:10288A00C50015303E00A3001430A40013303D00EB
:10289A00C600803023008F002830900092014F300C
:1028AA008D000800F401F501701C5F2C7208F40712
:1028BA007308F53D0130F235F30D890B602C0130B8
:1028CA00F136F00C890B652C70087104031D592C24
:1028DA007508F1007408F00008008030DB065F0814
:1028EA00C7005E08C6005D08C5005C08C4005B0836
:1028FA00CB005A08CA005908C9005808C8008131D3
:10290A00A9214708DB004608DA004508D90044082F
:10291A00D800080020307004F20000307104F3007F
:10292A0072089F3EF400FF30733DF50000307502D7
:10293A001A30031974020318A42C0130A52C003094
:10294A00F600F7017608F0007708F1000800F800B1
:10295A00F401F5017008F200F3017208F600730839
:10296A00F700781CBC2C7608F4077708F53D01308F
:10297A00F635F70D890BBD2C0310F80C7808031DEA
:10298A00B62C7508F1007408F000080076089F3E1E
:10299A00F800FF30773DF900003079021A30031948
:1029AA0078020318DA2C0130DB2C0030FA00FB0124
:1029BA007A08FC007B08FD007C087D0403190800E6
:1029CA005F307605F60000307705F7000800A600AC
:1029DA00A401A50124082607A00020088600870173
:1029EA000108A1002108A3002308031908002308ED
:1029FA00A000A1012008F3002108F4007B08A2002E
:102A0A002208F50095311025943101302000A407E1
:102A1A000030A53DEF2C7508031D7508031D192DFF
:102A2A0073089331432308007508033E8600870123
:102A3A001600010403193C2D7508033E8600870120
:102A4A00403FF600413FF700750A86008701403F84
:102A5A00F800413FF9007908803AFA007708803A8D
:102A6A007A02031D3A2D7608780203180800750ABF
:102A7A00860087010130810741310318810A080065
:102A8A00C3302000C7008830C6009330C5003330F9
:102A9A00C4003C30AD00A330AC00D730AB000A30E4
:102AAA00AA00063088310B20953171082000DC001D
:102ABA007208DD00DE01DF015F08FC005E08FB0032
:102ACA005D08FA005C08F90000308831422095312F
:102ADA007C08B1007B08B0007A08AF007908AE0024
:102AEA0083318A2395312D08CB002C08CA002B0884
:102AFA00C9002A08C8008131A9214708DB00460815
:102B0A00DA004508D9004408D8000800C33020007C
:102B1A00C7008830C6009330C5003330C4003C304B
:102B2A00AD00A330AC00D730AB000A30AA000730A2
:102B3A0088310B20953171082000DC007208DD0015
:102B4A00DE01DF015F08FC005E08FB005D08FA0099
:102B5A005C08F90000308831422095317C08B100C8
:102B6A007B08B0007A08AF007908AE0083318A2367
:102B7A0095312D08CB002C08CA002B08C9002A0859
:102B8A00C8008131A9214708DB004608DA00450858
:102B9A00D9004408D8000800083022009F0090306D
:102BAA009D0024309E0020002308F3002208F20032
:102BBA002108F1002008F0000130F700E830F600A3
:102BCA004830F5000030F40096316B2695317008D4
:102BDA00A4007108A5007208A6007308A7000230B5
:102BEA00A736A60CA50CA40C890BF52D2408FF3ECC
:102BFA00A800FF30253DA900280822009B002000DC
:102C0A00290822009C0020001308FE3993001308AB
:102C1A00023893003E004E087F39CE004E08FB3939
:102C2A00CE0011303D00CB0010303E00A00008005D
:102C3A00AE002100261C2A2E20002E08FC007C084B
:102C4A00FB0027089431EC2496312000A91B322E70
:102C5A002908AD002808AC00342EAC01AD01AA0148
:102C6A00AB012B08803AFC002D08803A7C02031D38
:102C7A00402E2C082A020318542E2030F30000306C
:102C8A00F40020002E08FC007C08F5009531102580
:102C9A00963101302000AA070030AB3D362E2100C4
:102CAA002618602E20002E08FC007C08FB0027084E
:102CBA009431EC249631200027089331DE232C0826
:102CCA007007A7002D08713DA80008000030FC001D
:102CDA000030FB000030FA000030F900730872047B
:102CEA00710470040319B42EFD01FD0AF31B892E29
:102CFA000130F035F10DF20DF30D890B7E2E013006
:102D0A00F8007808FD077B2E0130F935FA0DFB0D26
:102D1A00FC0D890B8A2E73087702031D9E2E7208FA
:102D2A007602031D9E2E71087502031D9E2E7008E1
:102D3A007402031CA92E7008F4027108F53B72088C
:102D4A00F63B7308F73B79140130F336F20CF10CB9
:102D5A00F00C890BAA2E0130FD02031D892E7C0876
:102D6A00F3007B08F2007A08F1007908F000080005
:102D7A00933139239631703093317923963100306B
:102D8A0093317923963193313523963171309331CA
:102D9A007923963100309331892396312100D90065
:102DAA005908A90093313E2396319331392396313C
:102DBA0070309331792396310230933179239631E9
:102DCA00933135239631713093317923963100301E
:102DDA009331892396312100D9005908A8009331EB
:102DEA003E23963121002808D9000630D936890BAE
:102DFA00FB2E5908DA005A08A8002530D20098306C
:102E0A00D3002908D400D501D41BD5032808D9003A
:102E1A00DA015908F0005A08F1001930F2000030BE
:102E2A00F3009431572496317108D7007008D60000
:102E3A0093319D2308000310720D730DF40074087A
:102E4A00FA007A08031D322F0030F3000030F20036
:102E5A000030F1000030F00008007008F40071083A
:102E6A00F5007208F6007308F7001F30F736F60C03
:102E7A00F50CF40C890B3B2F7408F8007808F9005C
:102E8A00F217FF30F005FF30F105FF30F205003090
:102E9A00F3059630FA02FA1F652F7A08803A973EB0
:102EAA00031C292F0130F336F20CF10CF00C890BBC
:102EBA00582F0130F4007408FA070319762F572F98
:102ECA0020307A020318292F7A080319762F013045
:102EDA00F035F10DF20DF30D890B6D2F0130FA0269
:102EEA00692F790803190800F009F109F209F309B1
:102EFA00F00A0319F10A0319F20A0319F30A08007E
:102F0A0000307005F80000307105F9008030720554
:102F1A00FA007F307305FB007B087A047904780491
:102F2A00031D9F2F0030F3000030F2000030F10043
:102F3A000030F00000307405F80000307505F90023
:102F4A0080307605FA007F307705FB007B087A042B
:102F5A0079047804031DB92F0030F7000030F60019
:102F6A000030F5000030F400F31FD32F0030F800D2
:102F7A000030F9000030FA008030FB007008F802D7
:102F8A007108F93B7208FA3B7308FB3B7B08F300B4
:102F9A007A08F2007908F1007808F000F71FED2F9F
:102FAA000030F8000030F9000030FA008030FB00F1
:102FBA007408F8027508F93B7608FA3B7708FB3B78
:102FCA007B08F7007A08F6007908F5007808F4001B
:102FDA008030F3068030F70677087302031D080075
:102FEA0076087202031D080075087102031D0800A5
:102FFA007408700208007B342234743441346D340E
:10300A00623422343A3422342534733422342C3450
:10301A00223474346F3462346A3422343A342234B7
:10302A0000342534733422342C342234743470340A
:10303A006C3461346334613422343A3422340034D7
:10304A00253464342E342534643422347D340034F7
:0C305A0030347834253478340A340034E3
:020000040001F9
:08000000FF3FFF3FFF3FFF3F00
:0A000E008C3FFF3F9F3FFF3FFF3F85
:00000001FF
