:1000000080319F28043402347E1480312E00961EE5
:100010000A280B285B288C1E0E280F285B2804302A
:100020009731DC27803171082100D9007008D80091
:1000300058082000AE00210059082000AF00B00190
:10004000B1010030B5000030B4000030B300003022
:10005000B2000030B9000030B8000330B700FF3004
:10006000B6000030BD000030BC000030BB000030E6
:10007000BA000030C1000030C0000030BF00643062
:10008000BE0087312D27803120002E08EB006B0841
:10009000EF002030E6009830E7006F08EB00EC013D
:1000A0006B08E8006C08E9009731EE278031873152
:1000B000F02780319D280B1F5E285F289D28191E80
:1000C000622863286E280F1E662867286E28210084
:1000D0006B088A006A080A0080319D28991E7128E1
:1000E00072289D288F1E752876289D2822005C087E
:1000F0008A005B080A0080319631D02680312000CA
:10010000EB006B08EF000D306F0603198828892873
:100110009A286F08EB0021005B08B43E860001308E
:10012000870020006B0881000130EB006B08210084
:10013000DB079D282100DB019D287E10090080310E
:10014000A1282100803102208031ED008031032080
:100150008031EE002000ED01EE01EF01CB30840094
:10016000003085001D3097313227803120308400E7
:10017000013085003530973132278031A03084003E
:100180000130850050309731322780312030840093
:100190000230850020309731322780317E102000D8
:1001A0008431292C2000BF003008C4003108C5006C
:1001B0003208C6003308C7003408C8003508C90033
:1001C0003608CA003708CB0044308600003087006C
:1001D000473FB800B81BED28EF280130F028003069
:1001E0002000B900BA013908C2003A08C300420829
:1001F00043040319FC28FD281B29C409C509C609A5
:10020000C709C809C909CA09CB09C40A031D1B29A2
:10021000C50A031D1B29C60A031D1B29C70A031D86
:100220001B29C80A031D1B29C90A031D1B29CA0A49
:10023000031D1B29CB0A2100D51B1F292029252995
:10024000FD302000ED05FF30EE0521005508803A15
:100250002000B80080303802031D31290130210010
:1002600054020318342935293B2901302000BD00F0
:100270000030BE004329210055082000BE002100A7
:1002800054082000BD00210053082000C1002100B7
:1002900052082000C00042084304031D5029512980
:1002A00055296D1D542955295929FF30C007FF30A4
:1002B000C13D1F30CC000030CD002400BF01C92952
:1002C000FF302000CC07FF30CD3D0A30A000A10157
:1002D000A201A301A401A501A601A7014408A80049
:1002E0004508A9004608AA004708AB004808AC002A
:1002F0004908AD004A08AE004B08AF0083313F23E8
:10030000803120002108F4002008F3008831E92022
:1003100080317308303E2000B8004C08203E860033
:100320000230870038088100FF30BD07FF30BE3D36
:10033000FF30C007FF30C13D0A30A000A101A2017B
:10034000A301A401A501A601A7014408A80045082E
:10035000A9004608AA004708AB004808AC004908B5
:10036000AD004A08AE004B08AF0082313E2280311A
:1003700020002008C4002108C5002208C600230868
:10038000C7002408C8002508C9002608CA00270895
:10039000CB0020004D08803AB80080303802031DA1
:1003A000D32901304C02031CD629D729042A200066
:1003B0004408450446044704480449044A044B04DD
:1003C000031DE329E42960293E08803AB800803003
:1003D0003802031DED2901303D020318F029F129EF
:1003E000602920004108803AB80080303802031D9F
:1003F000FB2901304002031CFE29FF29042A2000AA
:10040000ED18032A042A6029200042084304031D32
:100410000A2A0B2A0F2A6D1D0E2A0F2A2B2AFF30BB
:10042000CC07FF30CD3D42084304031D182A192A8A
:100430001E2A2B30BB000030BC00222A2D30BB000E
:100440000030BC003B08B8004C08203E860002305B
:100450008700380881004C08203EB8003808A70003
:100460004108A9004008A8003F088E319426803139
:1004700020002808B1002708B0000800F201203051
:10048000860000308700473FF000F01F482A492AC5
:100490006A2A2000A009A109A209A309A409A509A3
:1004A000A609A709A00A031D682AA10A031D682A34
:1004B000A20A031D682AA30A031D682AA40A031DB1
:1004C000682AA50A031D682AA60A031D682AA70A26
:1004D000F201F20A2830860000308700473FF00022
:1004E000F01F732A742A972A2000A809A909AA09CB
:1004F000AB09AC09AD09AE09AF09A80A031D932ADF
:10050000A90A031D932AAA0A031D932AAB0A031DF5
:10051000932AAC0A031D932AAD0A031D932AAE0A3F
:10052000031D932AAF0A0130F0007008F206733001
:100530008600003087000830F00000301E00F00B0D
:100540009E2A2000200821042204230424042504D8
:10055000260427040319AD2AAE2A0A2BF101F10A59
:10056000BD2AA035A10DA20DA30DA40DA50DA60DAC
:10057000A70D0130F0007008F107A71FC02AC12A9B
:10058000B12AF335F40DF50DF60DF70DF80DF90D53
:10059000FA0D27082F02031DE72A26082E02031D45
:1005A000E72A25082D02031DE72A24082C02031D33
:1005B000E72A23082B02031DE72A22082A02031D2B
:1005C000E72A21082902031DE72A20082802031C24
:1005D000EA2AEB2AFC2A2008A8022108A93B2208C3
:1005E000AA3B2308AB3B2408AC3B2508AD3B2608BF
:1005F000AE3B2708AF3B7314A736A60CA50CA40C82
:10060000A30CA20CA10CA00C0130F102031D092BBC
:100610000A2BC12A720803190E2B0F2B2D2BF3095D
:10062000F409F509F609F709F809F909FA09F30ACD
:10063000031D2D2BF40A031D2D2BF50A031D2D2B55
:10064000F60A031D2D2BF70A031D2D2BF80A031D97
:100650002D2BF90A031D2D2BFA0A73082000A00088
:100660007408A1007508A2007608A3007708A4000A
:100670007808A5007908A6007A08A7000800F2010A
:100680002830860000308700473FF000F01F492BDC
:100690004A2B6B2B2000A809A909AA09AB09AC09B0
:1006A000AD09AE09AF09A80A031D692BA90A031DEC
:1006B000692BAA0A031D692BAB0A031D692BAC0A1F
:1006C000031D692BAD0A031D692BAE0A031D692B9F
:1006D000AF0AF201F20A2030860000308700473F5F
:1006E000F000F01F742B752B942B2000A009A1099A
:1006F000A209A309A409A509A609A709A00A031D1F
:10070000942BA10A031D942BA20A031D942BA30A68
:10071000031D942BA40A031D942BA50A031D942BDF
:10072000A60A031D942BA70A2000200821042204F6
:10073000230424042504260427040319A02BA12B39
:10074000F42BF101F10AB02BA035A10DA20DA30DE0
:10075000A40DA50DA60DA70D0130F0007008F1073E
:10076000A71FB32BB42BA42B27082F02031DD22BBA
:1007700026082E02031DD22B25082D02031DD22B85
:1007800024082C02031DD22B23082B02031DD22B7D
:1007900022082A02031DD22B21082902031DD22B75
:1007A00020082802031CD52BD62BE62B2008A802F4
:1007B0002108A93B2208AA3B2308AB3B2408AC3BF9
:1007C0002508AD3B2608AE3B2708AF3BA736A60C55
:1007D000A50CA40CA30CA20CA10CA00C0130F102DE
:1007E000031DF32BF42BB42B72080319F82BF92BF0
:1007F000172CA809A909AA09AB09AC09AD09AE09CA
:10080000AF09A80A031D172CA90A031D172CAA0A51
:10081000031D172CAB0A031D172CAC0A031D172C44
:10082000AD0A031D172CAE0A031D172CAF0A2000BA
:100830002808A0002908A1002A08A2002B08A3006C
:100840002C08A4002D08A5002E08A6002F08A7003C
:1008500008008931872184318B170B178F31A2272C
:10086000843102302100CA004A08C10001308D31B4
:100870005E25843143302100C6009830C7008E3198
:100880003C26843127302100A9009830AA00B430DA
:100890008D31EE258431003A03194F2C502C532C06
:1008A00020001614CA2C00302100A9009830AA009C
:1008B000B4308D31EE258431003A0319602C612C5F
:1008C000642C20001610CA2C2E302100A90098306C
:1008D000AA00B4308D31EE258431003A0319712C11
:1008E000722C752C20009614CA2C08302100A90007
:1008F0009830AA00B4308D31EE258431003A0319C6
:10090000822C832C862C20009610CA2C3530210096
:10091000A9009830AA00B4308D31EE258431003A18
:100920000319932C942C972C20001615CA2C1030E8
:100930002100A9009830AA00B4308D31EE25843111
:10094000003A0319A42CA52CA82C20001611CA2C9F
:100950003C302100A9009830AA00B4308D31EE253A
:100960008431003A0319B52CB62CB92C2000961509
:10097000CA2C18302100A9009830AA00B4308D315B
:10098000EE258431003A0319C62CC72CCA2C20004E
:100990009611CA2C4C302100A9009830AA00B4301E
:1009A0008D31EE258431003A0319D72CD82C422CF6
:1009B00021006E08B43E8600013087000108CA009D
:1009C0006E08DA3E8600013087004A088100013057
:1009D000CA004A08EE076E08B43E86000130870060
:1009E0000108031DF42CF52CD82C6E08DC3E860083
:1009F0000130870081010230CA004A08EE00DC3075
:100A00008531EF25843121002708D7002608D6003C
:100A10005708A1005608A0008831B7208431422C25
:100A200080319F282000DD004E0886008701403F6E
:100A3000D000413FD10050088400510885001200C9
:100A4000253A031D242D252DCB2D4E088600870128
:100A50000130810741310318810A2100D201D301FD
:100A60002000ED01EE01FF302100D400FF30D50061
:100A700020004E0886008701403FD000413FD10052
:100A800050088400510885001200643A0319492D6A
:100A90004A2D5B2D4E0886008701403FD000413F24
:100AA000D10050088400510885001200693A031DE6
:100AB0005A2D5B2D962D4E08860087010130810747
:100AC00041310318810A4F0886008701010884001C
:100AD000850102308107003FD000013FD10050085E
:100AE000D5005108D600890D893B8909D700D80067
:100AF000D900DA00DB00DC005508B0005608B10070
:100B00005708B2005808B3005908B4005A08B50095
:100B10005B08B6005C08B7005D088031D2208531E3
:100B200020003108CF003008CE00EE2D4E088600A0
:100B30008701403FD000413FD10050088400510858
:100B400085001200253A031DA62DA72DC02D4E08A5
:100B5000860087010130810741310318810A253061
:100B6000F3000030F4005D08D0005008F5008C312F
:100B70005924853101302000CE000030CF00EE2D09
:100B80004E08860087010130810741310318810A30
:100B9000CE01CF01EE2D4E0886008701403FD000E8
:100BA000413FD10050088400510885000008D20060
:100BB000D3015208F3005308F4005D08D400540830
:100BC000F5008C315924853120004E0886008701BC
:100BD0000130810741310318810ABA2D0800210034
:100BE000B500B301B401AC01AD01FA2D0130A8008C
:100BF0002808B507B201B20A35088600013087001F
:100C0000203001060319052E062E1B2E35088600FE
:100C1000013087000108F73EA800FF3003180030BC
:100C2000A90000302902053003192802031C192EDF
:100C30001A2E1B2EB2013208A800A9012808AE0006
:100C40002908AF002E082F04031D272E282EF62D6D
:100C5000322E0130AC000030AD000130A800280871
:100C6000B507642E35088600013087000108A8000A
:100C7000A9012908003A03193E2E642E28082B3AB0
:100C800003192D2E063A0319292E642E35088600E5
:100C9000013087003408A1003308A0000A30A20008
:100CA0000030A3008931A321853121002108A9004A
:100CB00001082002A800031CA9032808303EB30045
:100CC0000030293DB4002D2E350886000130870004
:100CD0000108D03EA800FF3003180030A900003002
:100CE00029020A3003192802031C772E792E0130BD
:100CF0007A2E0030AA00AB012A08B0002B08B10000
:100D000030083104031D852E862E462E2C082D0416
:100D1000031D8B2E8C2E982E3309A8003409A900B0
:100D2000A80A0319A90A2808A6002908A7009C2ECA
:100D30003408A7003308A60008002000A901A31F5B
:100D4000A22EA32EB02EA009A109A209A309A00AD0
:100D50000319A10A0319A20A0319A30AA901A90ADE
:100D6000A71FB32EB42EC32EA409A509A609A7094F
:100D7000A40A0319A50A0319A60A0319A70A013030
:100D8000FC007C08A9060030AD000030AC0000304B
:100D9000AB000030AA002308220421042004031918
:100DA000D22ED32E142FA801A80AE12E0130A0358F
:100DB000A10DA20DA30D890BD72E0130FC007C08DC
:100DC000A807A31FE42EE52ED62E0130AA35AB0DC1
:100DD000AC0DAD0D890BE62E23082702031DFA2E5C
:100DE00022082602031DFA2E21082502031DFA2ED1
:100DF00020082402031CFD2EFE2E072F2008A4022B
:100E00002108A53B2208A63B2308A73B2A14013052
:100E1000A336A20CA10CA00C890B082F0130A8024C
:100E2000031D132F142FE52E29080319182F192F2E
:100E3000242FAA09AB09AC09AD09AA0A0319AB0A08
:100E40000319AC0A0319AD0A2D08A3002C08A2004F
:100E50002B08A1002A08A000080020003208360252
:100E6000C2003308373BC3003408383BC4003508A0
:100E7000393BC5004508A3004408A2004308A1006F
:100E80004208A00032082E02C60033082F3BC700DC
:100E90003408303BC8003508313BC9004908F3002D
:100EA0004808F2004708F1004608F0003A083E0200
:100EB000CA003B083F3BCB003C08403BCC003D0810
:100EC000413BCD004D08F7004C08F6004B08F500FB
:100ED0004A08F4008B31B923873173082000A7003A
:100EE0007208A6007108A5007008A40086319D262E
:100EF0008731200020083A07CE0021083B3DCF0073
:100F000022083C3DD00023083D3DD1005108B100EE
:100F10005008B0004F08AF004E08AE000800210096
:100F2000BB00BC01391C952F962F9C2F3C08103814
:100F3000BA003A08BC00A12F3C08EF39BA003A08C1
:100F4000BC00B91CA42FA52FAB2F3C082038BA0039
:100F50003A08BC00B02F3C08DF39BA003A08BC00A0
:100F6000391DB32FB42FBA2F3C084038BA003A08C5
:100F7000BC00BF2F3C08BF39BA003A08BC00B91DFD
:100F8000C22FC32FC92F3C088038BA003A08BC00D2
:100F9000CE2F3C087F39BA003A08BC002830890BB4
:100FA000CF2F21003B080319D62FD72FDD2F3C0868
:100FB0000138BA003A08BC00E22F3C08FE39BA00FA
:100FC0003A08BC003C0804389731B3278731003217
:100FD000003221003C08FB399731B32787310800E4
:100FE0002E008C122100680869040319F82FF92FCC
:100FF000FE2F69088A0068080A0087310800080087
:1010000021002608A1002508A0002708A80028081C
:10101000A20002308A31A02288310800023021006B
:10102000A0000030A100290888316F2088310030ED
:101030002100A500A600A7019731CE2788310430F2
:10104000080001302100A0000030A10029088831EB
:101050006F20883100302100A500A600A70197313C
:10106000CE2788310230080002302100A000003075
:10107000A100290888316F20883100302100A500A7
:10108000A600A7019731CE27883102300800013031
:101090002100A0000030A100290888316F2088318C
:1010A00000302100A500A600A7019731CE27883186
:1010B000043008006F3020009F0030309D009C01FC
:1010C0002E008C129616FF302100A0000730A100E0
:1010D00097311A278831803020009E0008002100B7
:1010E000A3002200BC1D752876288528210023082E
:1010F000A20022082200B700210021082200B90026
:10110000210020082200B800BC11080022008E0136
:101110008F0190019101920193018D0121009E01A7
:101120009B019C0194019501960197019A019901F7
:1011300003309800843093009D0108007108F4008A
:101140007008F300A7280130F0070030F13D700867
:101150008400710885001200031DAF28B028A32861
:1011600073087002F0007408713BF1000800FF3052
:101170002100A0050330A10526001E1EC028C1289D
:10118000C72806302100A035A10D890BC3282100F6
:10119000210826009D002100200826009C00080050
:1011A00021002008D03EA200FF30213DA3000030E6
:1011B00023020A3003192202031CDF28E128013030
:1011C000E2280030A400A5012408A0002508A10001
:1011D00008007408803AF50080307502031DF2287B
:1011E000013073020318F528F62802297309F50067
:1011F0007409F600F50A0319F60A7508F300760873
:10120000F400022908002100290886008701403FD8
:10121000A000413FA1002908023E86008701010885
:1012200088316F20893100302100A500A600A70178
:101230009731CE278931023008002100A200220810
:1012400086000130870001082006031D282929296E
:101250002B29220836292208860001308700A20A9D
:101260000108031D342935291F29003008002100F9
:101270002108A4002008A30041290130A007003064
:10128000A13D20088400210885001200031D492982
:101290004A293D2923082002A0002408213BA1005F
:1012A000080022001908F00021006508453E86006C
:1012B00001308700700881000130F0007008E507F8
:1012C00008306502031C652966296729E50101309C
:1012D000F0007008E30708002100C0003D08BE00D0
:1012E0000430BE36890B71293E08BF003F08B900A3
:1012F000400887318F27893121003D080F39BE0012
:101300003E08B900400887318F278931080097319E
:101310003F2789319731732789318C3121248931D5
:1013200097317C2789318831862089319731C027D0
:10133000893197318E27893188315A2089318D3111
:101340001A25893108002100A401A501201CA92922
:10135000AA29AE292208A4072308A53D0130A235F9
:10136000A30D890BAF290130A136A00C890BB4293C
:1013700020082104031DBD29BE29A6292508A10096
:101380002408A00008002100A101A10A2200BC1825
:10139000CA29CB29E1293C11FF302100A0002008F7
:1013A0002200B6009631AD2689319631B3268931B7
:1013B0009631B026893122003B082100A000200888
:1013C000A1002100210808002100A401A40A203066
:1013D000200621040319ED29EE29FE292008F73EF5
:1013E000A200FF30213DA300003023020530031985
:1013F0002202031CFC29FD29FE29A4012408A200C5
:10140000A3012208A0002308A10008000830210041
:101410006C0203180C2A0D2A262A66084D3E860007
:1014200001308700010822009A000130F0007008A6
:101430002100E60708306602031C1F2A202A212A01
:10144000E6010130F0007008EC07282A2E0019127E
:1014500008002100B100B201B20A2200BC18312AF2
:10146000322A492ABC142100B20131080319392A51
:101470003A2A3E2A2200BA01BA0A432A0230B000B0
:1014800030082200BA009631B6268A319731992762
:101490008A312100320808002000A600A401A5011D
:1014A000642A2308A000A1012008F3002108F40009
:1014B0007B08A2002208F5008C3159248A310130C2
:1014C0002000A4070030A53D24082607A00020081E
:1014D0008600023087000108A1002108A30023082C
:1014E000031D732A742A512A0800F10021006C0898
:1014F00003197B2A7C2A762A2E00191A802A812A2F
:10150000852A710822009A009D2A19127108F0009C
:10151000210067084D3E8600013087007008810079
:101520000130F0007008E70708306702031C992AB1
:101530009A2A9B2AE7010130EC022E0019160800B6
:101540002100A400200821040319A72AA82ABB2AE5
:101550002435203E8600013087002008C03F210846
:10156000C13F2208A30024082C3E860001308700DA
:1015700023088100CA2A2435203E860001308700D6
:10158000A930C03F1630C13F24082C3E86000130F0
:10159000870081010800210063080319D02AD12A9D
:1015A000CB2A64083D3E8600013087000108F00028
:1015B0007008E2006408453E86000130870001089B
:1015C000F0007008F1000130F0007008E407083006
:1015D0006402031CEC2AED2AEE2AE4012E00991283
:1015E00001302100E3022E0099167108080096319F
:1015F000AD268A3122003C1CFE2AFF2A0D2B973192
:1016000026278A31003A0319062B072B0D2B0F30A2
:101610002100AD002D082200BA0022003A08210066
:10162000AD00AE01AD35AE0D00302D078400903019
:101630002E3D8500013F8A00003F0A008B312100CA
:10164000AF002F082200BA0008002000E3005F0866
:10165000E5005E08E4002100D001D101432B643095
:10166000E1006108CE006008E2006208CF00630874
:10167000853112258B3120004E082100D007200033
:101680004F082100D13D20006408840065088500D2
:101690001200031D4C2B4D2B2F2B21005108200035
:1016A000DF00210050082000DE00080022003C106E
:1016B00002302100AA002A082200BB00672B9631C5
:1016C000EB268B31862B9631F0268B31862B2E081C
:1016D0002100AA002A08A9000430203E860001301B
:1016E0008700413F8A00403F0A008B312100AB0058
:1016F000AC012C08003A03197E2B632B2B08023A0D
:1017000003195F2B013A03195F2B632B080022009A
:10171000BC15972B9631EB268B31B82B9631C5260D
:101720008B310330B82B9631F0268B31B82B2C0837
:101730002100AA002A08A900220021088A00200806
:101740000A008B312100AB00AC012C08003A0319D0
:10175000AA2B932B2B08013A0319932B033A031955
:101760008A2B013A03198A2B073A03198E2B932BE4
:1017700008000030FB000030FA000030F9000030B3
:10178000F800701CC42BC52BCD2B7408F807750806
:10179000F93D7608FA3D7708FB3D0130F435F50D4B
:1017A000F60DF70D890BCE2B0130F336F20CF10C50
:1017B000F00C890BD52B7308720471047004031D9F
:1017C000E22BE32BC12B7B08F3007A08F2007908A7
:1017D000F1007808F00008002100B600210036086A
:1017E0008C31D9248B31003A0319F72BF82BEE2BCF
:1017F00047302100A5000830A600B430B5003508F8
:10180000A7009731CE278B3101302100A000003096
:10181000A100B33088316F208B3100302100A5004A
:10182000A600A701883100208B31973109278B3121
:101830008931C3218B31013A03191F2C202C182C1C
:1018400008002000960197019801F0309100FF30C8
:1018500092007E309300A5303E00CE00FF30C300E2
:10186000D030B800E501C401B901CF01BA01C5010A
:10187000D001FF30BB00FF30C600FF30D100FF3089
:10188000BC00FF30C700FF30D2000830E800103045
:10189000A00011303D00CB001430C50015303E00D3
:1018A000A3001430A4000D30A70013303D00C60083
:1018B0000800750803195D2C5E2C632C7508031D48
:1018C000622C632C682C730897310E278C31972C6F
:1018D0007508033E86008701160001040319712C68
:1018E000722C8F2C7508033E86008701403FF6005E
:1018F000413FF700750A86008701403FF800413FED
:10190000F9007908803AFA007708803A7A02031DD4
:101910008B2C7608780203188E2C8F2C972C750A46
:10192000860087010130810741310318810A0800D0
:10193000210065083D3E86000130870081012200BC
:101940001D1DA32CA42CB12C210065083D3E860052
:1019500001308700811422005A088A0059080A00C1
:101960008C3122009D1CB52CB62CC32C210065089F
:101970003D3E8600013087000115220058088A008C
:1019800057080A008C31210065083D3E8600013071
:10199000870001080319CD2CCE2CD52C2200560827
:1019A0008A0055080A008C31D82C893151218C319C
:1019B00008002100A100A201A20A22003C19E12C8A
:1019C000E22C172D21002108A00020082200B600DB
:1019D000BC103C153C100E302100A0002008220055
:1019E000BA00F430B4000130B500BC15A930A00035
:1019F0001630A100AC01A930A2001630A300AD0141
:101A0000A930A4001630A500AE01A930A6001630FA
:101A1000A700AF01AB30A8001630A900B001963185
:101A2000AD268C319731A6278C312100A2012100EF
:101A3000220808002E00991298302100A0000C30D6
:101A4000A10097316A278D312E001912063021002E
:101A5000A0000A30A100973114278D3108302200F0
:101A60009F0090309D0024309E00CF309B009C0151
:101A7000A8302100A0001630A100973158278D31E1
:101A8000CC302100A0001630A100973161278D31A4
:101A9000C8302100A0001630A10097314F278D31AA
:101AA0002100E201E701E6010830A2002208EC0073
:101AB000E501E401E3012E00991608002100C400AD
:101AC000722DC501882D4030C2004208C500882D06
:101AD0001430C2004208C500882D5430C2004208AC
:101AE000C500882D4108C200C3014308003A03190C
:101AF0007A2D612D4208013A0319612D033A031929
:101B0000632D013A0319682D073A03196D2D612DD4
:101B10004408FF3EC2004208C50745088038C2009D
:101B20004208BD00003089316C218D31210044080C
:101B3000FF3EC2004208E1004108FF3EC2004208E9
:101B4000E00008009631C2268D312100AA00220053
:101B500037088600870121002A0881000130AA0089
:101B60002A082200B7070130B8020030B93B380814
:101B700039040319BC2DBD2DC22D9631D8268D31C7
:101B80000530ED2DBC15CC2D9631FF268D31ED2D78
:101B90009631FA268D31ED2D2C082100AA002A0855
:101BA000A900220021088A0020080A008D312100A6
:101BB000AB00AC012C08003A0319DF2DC82D2B080F
:101BC000013A0319C82D033A0319C42D013A031928
:101BD000C42D073A0319C82DC82D08002100B000F4
:101BE00029082A040319F52DF62D3A2E2A08A100FA
:101BF0002908A000893137218D3121002108AF004B
:101C00002008AE002C2E2A08A1002908A0002F08C9
:101C1000A3002E08A20030088F3146278D31210005
:101C200020082104031D152E162E182E30083B2ED9
:101C3000290884002A0885000008AB00AC012B08A5
:101C4000A0002C08A1003008013E89311D218D31F2
:101C50002100AD002D08B00030080319302E312EC0
:101C60003A2E30088600013087000108031D392E06
:101C70003A2E032E00300800892EBD01BD0A003027
:101C800089316C218E3106302100C8003030890B3B
:101C9000472EC80B472E00002100E101E00106306D
:101CA0002100C8003030890B532EC80B532E000082
:101CB000842E6008023EC8004808C10001308D3102
:101CC0005E258E31842E4608840047088500000872
:101CD000C8004808BD00013089316C218E31842E46
:101CE00046088400470885000008C800C901490863
:101CF000003A03197C2E632E48080A3A0319592E1C
:101D0000063A03193D2E632E01302100C60700302C
:101D1000C73D210046088400470885001200031DC6
:101D2000922E932E702E08002000AE006D1C992E6E
:101D30009A2EA22E2E08FC007C08FB0027088A3170
:101D40004C228E312000A91BA62EA72EAC2E2908CE
:101D5000AD002808AC00AE2EAC01AD01AA01AB016C
:101D6000C22E2030F3000030F40020002E08FC00CA
:101D70007C08F5008C3159248E3101302000AA07EF
:101D80000030AB3D2B08803AFC002D08803A7C02E5
:101D9000031DCC2E2C082A02031CCF2ED02EB12ED0
:101DA00020006D18D42ED52EDD2E2E08FC007C08C8
:101DB000FB0027088A314C228E3120002708F000D2
:101DC0000230F10088319E208E3120002C087007EF
:101DD000A7002D08713DA8000800973126278E31F5
:101DE000003A0319F42EF52E282F022F9631E12602
:101DF0008E31452F9631E6268E31452F9631F026CD
:101E00008E31452F22002F082100AA002A08A900A0
:101E10000630203E860001308700413F8A00403F67
:101E20000A008F312100AB00AC012C08003A0319E5
:101E30001A2FFE2E2B08013A0319FE2E033A03191E
:101E4000F62E013A0319FA2E073A0319FE2EFE2E3A
:101E500022003C101730203E860001308700403FB2
:101E600084008501810A0008973120278E310130D6
:101E70002200B8020030B93B38083904031D412F55
:101E8000422F442F0630452F033008002100A500C3
:101E90002508A4002408A8002108A7002008A600FF
:101EA0000130A2020030A33B220A031D5B2F230A4C
:101EB000031D5B2F5C2F6B2FA001A101A12F01300F
:101EC000A4002408A8070130A6070030A73D013070
:101ED000A2020030A33B28088600013087000108D9
:101EE0000319732F742F932F260884002708850069
:101EF000120003197C2F7D2F932F2208230403192E
:101F0000822F832F932F260884002708850000083E
:101F1000A400280886000130870001082406031960
:101F2000922F932F5F2F2808860001308700260804
:101F300084002708850000080102A000A101031CFD
:101F4000A10308002100B301B4013F308B31EC2321
:101F50008F315B302100C100E730890BAD2FC10B01
:101F6000AD2F00322100C2010330C1004108B90089
:101F7000003087318F278F310D302100C100FB30B9
:101F8000890BC02FC10BC02F003201302100C100CE
:101F90004108C20703304202031CCF2FD02FB42FB9
:101FA0000230C1004108B900003087318F278F31DE
:101FB0002100C2014208483E840098300318013EC7
:101FC00085000008C1004108BD00003089316C2146
:101FD0008F310D302100C100FB30890BED2FC10B7B
:101FE000ED2F003201302100C1004108C20704304A
:101FF0004202031CFC2FFD2FDA2FE101E001080053
:10200000DC3416348534173447341734ED340E3449
:10201000A2340D343834173487340B34E134163499
:10202000E6341634EB341634F0341634F534163402
:10203000FA341634FF3416340434173456340B345F
:102D5000080001300800053008002E000F100800A0
:102D60002300901208002E001910080023001114EF
:102D70000800230091140800230011150800230007
:102D80009115080023000C0808002E000F140800FD
:102D9000893151219631080022001D121D160800AC
:102DA0008A31CB22963108002300911611160800B3
:102DB00023009112111608002200BC10BB010E3036
:102DC00008009631B9269631013008009631B926AF
:102DD0009631023008009631B9269631013008004C
:102DE0009631BC269631003008009631D8269631AF
:102DF000053008009631D42696310A300800963105
:102E0000D4269631093008002200BC10BB010E30D8
:102E1000080000308A31292297310800F200720838
:102E20008A3175229731080021002108EB00200823
:102E3000EA00080021002108E9002008E800080055
:102E40002100A000200823008C0008002300110EA0
:102E5000890C890C013908002E000F1C302F312FEE
:102E60002C2F0800640080010131890B332F0034BE
:102E700022003C109631BF269731043008002F0005
:102E800096019701980199019A019B01080022007F
:102E90003C14363597312027973103300800210044
:102EA00021082200D600210020082200D5000800B9
:102EB000210021082200DA00210020082200D90088
:102EC0000800210021082200D8002100200822004B
:102ED000D7000800210021082200DC002100200882
:102EE0002200DB00080023008F01083090009101D0
:102EF00004308D0090120800603031008D008F0189
:102F00009101033093009201080022003C14031445
:102F1000360D973120279731053008008F30260075
:102F20009E009D019C0124001F08FC3901389F0070
:102F30000800A02F97312C2797318A31F72297313B
:102F40002200BC18A42FA52F9A2F08002300901A46
:102F5000AA2FAB2FB22F8F010830900091010430BF
:102F60008D00901608002100B800B3013808083819
:102F7000B7003708B4003F308B31EC23973108009D
:102F80000130250090008F0191010F308D008C01E0
:102F90002E009010F03025008E0008002100260839
:102FA000A1002508A0002708A8002808A2000030DA
:102FB0008A31A02297310800F200720821009E0099
:102FC000931713131314000021001318E82FE92F8F
:102FD000E42F0D08F1000C08F00008006830FD0037
:102FE0007D082000EA006708DF006608DE006A301E
:102FF000FD007D08E00000308B312523973108006B
:1030000024346C34643431346F34663466340034C0
:1030100024346C34643432346F34663466340034AF
:1030200024346C34643433346F346634663400349E
:1030300024346C34643434346F346634663400348D
:1030400023344134253469340A340D3400342434B3
:103050006C34643431346F346E34003424346C3462
:10306000643432346F346E34003424346C34643459
:1030700033346F346E34003424346C346434343478
:103080006F346E34003448346F346C34613400343F
:0E30900028340C340134063424345034003417
:020000040001F9
:0A000E00EC3FFF3F9F3FFF3FFF3F25
:00000001FF
