:020000040000FA
:08000000803102288731FD2F39
:100F3C0020008C0196013E00B801F0302000910099
:100F4C00080087319E2787310130200096000D3034
:100F5C00F1002D30F000D830890BB22FF00BB22FEE
:100F6C00F10BB22FF201F30103102000960D0D309E
:100F7C00F1002D30F000D830890BC22FF00BC22FAE
:100F8C00F10BC22F0130F2070030F33D7308803AA9
:100F9C00F00080307002031DD52F03307202031C49
:100FAC00D82FD92FBA2FF401F50103102000960C7D
:100FBC000D30F1002D30F000D830890BE32FF00B01
:100FCC00E32FF10BE32F0130F4070030F53D7508EA
:100FDC00803AF00080307002031DF62F023074024C
:100FEC00031CF92FFA2FDB2FAA2F803102282000A7
:040FFC008731A72F63
:020000040001F9
:0A000E008C3FFF3F9F3FFF3FFF3F85
:00000001FF
