:08000000803102288731E72F4F
:10000C002300901208002000AC0021006C1C0F286B
:10001C001028192820002C08A7002708FA0024080B
:10002C0090318B2080312000A61B1D281E282328F0
:10003C002608AB002508AA002528AA01AB01A801B7
:10004C00A90139282030F2000030F30020002C08E0
:10005C00A7002708F40088310B20803101302000E4
:10006C00A8070030A93D2908803AA7002B08803A40
:10007C002702031D43282A082802031C4628472868
:10008C00282821006C184B284C28552820002C08B7
:10009C00A7002708FA00240890318B20803120001B
:1000AC0024089F318527803120002A087007A4007E
:1000BC002B08713DA50008002100BE00BA01BB0150
:1000CC00200051082100D000200050082100CF0052
:1000DC0020004F082100CE0020004E082100CD004A
:1000EC0050082000B80021004F082000B700210064
:1000FC004E082000B60021004D082000B50000304D
:10010C00BC000030BB000030BA000030B9009331A5
:10011C00BD238031031893289428AD280130210089
:10012C00BA000030BB005008F3004F08F2004E0834
:10013C00F1004D08F0008831002080317308210057
:10014C00D0007208CF007108CE007008CD002100DD
:10015C00D301D40122002B082100C00022002A0860
:10016C002100BF003A083B04031DBD28BE28C2284D
:10017C006C1DC128C228E0283A083B04031DC7287F
:10018C00C828CD282B30A0000030A100D1282D305C
:10019C00A0000030A10020082000D3005308230049
:1001AC00A00001302100D3070030D43DFF30BF0741
:1001BC00FF30C03D5008F3004F08F2004E08F1002C
:1001CC004D08F00093313E23803170037104031D00
:1001DC00F028F128432920005208BF3ED300FF30FD
:1001EC0003180030D400003054021A3003195302A3
:1001FC00031C01290329013004290030D500D60144
:10020C0055082100A200200056082100A300220856
:10021C0023040319122913291D291630F0009830D4
:10022C00F1005308A03E9F31DF27803126291E3074
:10023C00F0009830F1005308A03E9F31DF27803149
:10024C00FD302100BF07FF30C03DA0302000D3009F
:10025C005308A400210040082000A60021003F08FC
:10026C002000A50021003E088031092080312000AB
:10027C002508CF002408CE00E62F21005008F300FB
:10028C004F08F2004E08F1004D08F00093313E2368
:10029C00803170087104031D54295529A7292000A9
:1002AC005208BF3ED300FF3003180030D40000309A
:1002BC0054021A3003195302031C652967290130B3
:1002CC0068290030D500D60155082100A400200073
:1002DC0056082100A500240825040319762977293E
:1002EC0081291A30F0009830F1005308A03E9F315C
:1002FC00DF2780318A292230F0009830F100530832
:10030C00A03E9F31DF278031FD302100BF07FF3039
:10031C00C03DA0302000D3005308A40021004008A9
:10032C002000A60021003F082000A50021003E0867
:10033C0080310920803120002508CF002408CE0010
:10034C00E62F3F302100D8008030D7000030D60097
:10035C000030D500D101D2015008F3004F08F20053
:10036C004E08F1004D08F0000030F7000030F600A8
:10037C000030F5000030F400913123218031031856
:10038C00C829C9298D2AFA2941302000A300203020
:10039C00A2000030A1000030A0002100580820006D
:1003AC00A700210057082000A600210056082000B5
:1003BC00A500210055082000A4008D31A92580310D
:1003CC00200023082100D800200022082100D7009B
:1003DC00200021082100D600200020082100D50093
:1003EC000130D1070030D23D210050082000B80068
:1003FC0021004F082000B70021004E082000B60055
:10040C0021004D082000B5004130A3002030A2008F
:10041C000030A1000030A000210058082000A700E7
:10042C00210057082000A600210056082000A50036
:10043C00210055082000A4008D31A9258031200011
:10044C002308BC002208BB002108BA002008B90010
:10045C009331BD2380310318342A352ACA29662AE0
:10046C0041302000A3002030A2000030A100003059
:10047C00A000210058082000A700210057082000E8
:10048C00A600210056082000A500210055082000D8
:10049C00A40096314C268031200023082100D8007E
:1004AC00200022082100D700200021082100D600BE
:1004BC00200020082100D500FF30D107FF30D23DAD
:1004CC00210050082000B80021004F082000B70080
:1004DC0021004E082000B60021004D082000B50078
:1004EC00210058082000BC00210057082000BB0048
:1004FC00210056082000BA00210055082000B90040
:10050C009331BD238031031C8C2A8D2A362A20007E
:10051C005208D300D4015308F6005408F700903168
:10052C006620803176082000D50055082100C200D5
:10053C0042082000D30053082100C1006730420656
:10054C00031DA92AAA2ACF2A6A086B04031DAF2A05
:10055C00B02AB42A0130EA000030EB006B08803A74
:10056C002000D30080305302031DBF2A013021002C
:10057C006A020318C22AC32AC92A06302100BC0009
:10058C000030BD00D42A21006B08BD006A08BC00F5
:10059C00D42AEB1BD22AD32AC32AC92A6730420693
:1005AC00031DD92ADA2A122B5208803A2000D300D4
:1005BC007F305302031DE52AFC3021005102031C3D
:1005CC00E82AE92A0C2B21003C08FF3E2000D3002E
:1005DC00FF3021003D3D2000D4005408803AD50066
:1005EC0021005208803A20005502031D012B2100E6
:1005FC00510820005302031C042B052B0C2B6630D6
:10060C002000D30053082100C100122B65302000BC
:10061C00D30053082100C1003D08B3003C08B200D0
:10062C0067304206031D1B2B1C2B262B6630410604
:10063C00031D212B222B2A2BD21F252B262B2A2BB9
:10064C000130B2070030B33D66304106031D2F2B3D
:10065C00302B482BD21F332B342B3E2B3F30D80062
:10066C008030D7000030D6000030D500D101D20147
:10067C00673042060319432B442B482B5108B20711
:10068C005208B33DCB01CC015008C6004F08C50041
:10069C004E08C4004D08C3005808B7005708B600F0
:1006AC005608B5005508B400282C21005808200025
:1006BC00A300210057082000A200210056082000AA
:1006CC00A100210055082000A000210046082000B0
:1006DC00A700210045082000A600210044082000A6
:1006EC00A500210043082000A40096314C2680313F
:1006FC0020002308BD002208BC002108BB002008F4
:10070C00BA0088314A20803120003D082100CA00FF
:10071C0020003C082100C90020003B082100C80033
:10072C0020003A082100C7004A08F3004908F200EB
:10073C004808F1004708F0009231CA228031710854
:10074C002100B9007008B8004A082000A700210059
:10075C0049082000A600210048082000A50021001F
:10076C0047082000A400210058082000A300210005
:10077C0057082000A200210056082000A1002100EB
:10078C0055082000A0008D31A925803120002308B8
:10079C00B8002208B7002108B6002008B5002100D7
:1007AC0046082000BC00210045082000BB002100A9
:1007BC0044082000BA00210043082000B900903101
:1007CC0000208031200038082100C60020003708A6
:1007DC002100C500200036082100C4002000350887
:1007EC002100C30041302000A3002030A2000030C3
:1007FC00A1000030A000210058082000A700210013
:10080C0057082000A600210056082000A500210052
:10081C0055082000A40096314C2680312000230876
:10082C002100D800200022082100D7002000210838
:10083C002100D600200020082100D5000130CB0774
:10084C000030CC3D4C08803A2000D3002100330806
:10085C00803A20005302031D362C210032084B0233
:10086C00031C392C3A2C5B2B40302000A300A03009
:10087C00A2000030A1000030A00021005808200088
:10088C00A700210057082000A600210056082000D0
:10089C00A500210055082000A4008D31A925803128
:1008AC00200023082100CA00200022082100C900D2
:1008BC00200021082100C800200020082100C700CA
:1008CC0046082000B800210045082000B700210090
:1008DC0044082000B600210043082000B500210088
:1008EC004A082000BC00210049082000BB00210060
:1008FC0048082000BA00210047082000B9009331B5
:10090C00BD23803103188B2C8C2C962C00302100AD
:10091C00CA000030C9000030C8000030C700BB2C32
:10092C0021004608F3004508F2004408F100430892
:10093C00F0004A08F7004908F6004808F500470897
:10094C00F400913123218031031CAD2CAE2CBB2C37
:10095C0021003818B22CB32CBB2C0030CA0000304C
:10096C00C9000030C8000030C70021004A08F3005D
:10097C004908F2004808F1004708F0005008F70059
:10098C004F08F6004E08F5004D08F4008B316A2331
:10099C00803173082100C6007208C5007108C400BC
:1009AC007008C30046082000B8002100450820004C
:1009BC00B700210044082000B600210043082000A5
:1009CC00B5004130A3002030A2000030A10000305F
:1009DC00A000210037082000A700210036082000C5
:1009EC00A600210035082000A500210034082000B5
:1009FC00A4008D31A925803120002308BC002208D9
:100A0C00BB002108BA002008B9009331BD23803106
:100A1C00031C112D122D4D2D01302100D10700305A
:100A2C00D23D41302000A3002030A2000030A100B4
:100A3C000030A000210037082000A7002100360854
:100A4C002000A600210035082000A5002100340854
:100A5C002000A4008D31A92580312000230821001D
:100A6C00B700200022082100B60020002108210038
:100A7C00B500200020082100B40066304106031D9B
:100A8C00482D492D4D2D0130B2070030B33D2100CA
:100A9C003708D8003608D7003508D6003408D500FA
:100AAC006530410603195B2D5C2D612D5208B10098
:100ABC005108B000632DB001B101AE01AF01AC0122
:100ACC00AD01CB01CC01AD2E210058082000A300B4
:100ADC00210057082000A200210056082000A10088
:100AEC00210055082000A000210046082000A70086
:100AFC00210045082000A600210044082000A50084
:100B0C00210043082000A40096314C26803120009F
:100B1C002308BD002208BC002108BB002008BA0035
:100B2C0088314A20803120003D082100CA00200075
:100B3C003C082100C90020003B082100C80020000F
:100B4C003A082100C7004A08F3004908F200480897
:100B5C00F1004708F0009231CA228031710821005F
:100B6C00B9007008B8006C1ABC2DBD2DD22D3808F8
:100B7C003904031DC22DC32DD22D67304206031D2F
:100B8C00C82DC92DD22DB11FCC2DCD2DD22D01307C
:100B9C00AC070030AD3D2B2E2E082F04031DD72D96
:100BAC00D82D0F2EB11FDB2DDC2D0F2E2E3020005B
:100BBC00D30021005308A03E86000130870020009E
:100BCC005308810001302100D3070030D43DFF30A1
:100BDC00BF07FF30C03D0130AE000030AF000F2E1C
:100BEC0030302000D30021005308A03E8600013095
:100BFC00870020005308810001302100D30700300A
:100C0C00D43DFF30BF07FF30C03DFF30AC07FF3095
:100C1C00AD3D2C082D04031D142E152EF62D380871
:100C2C00303E2000D30021005308A03E8600013046
:100C3C00870020005308810001302100D3070030C9
:100C4C00D43DFF30BF07FF30C03D4A082000A7004D
:100C5C00210049082000A600210048082000A5001A
:100C6C00210047082000A400210058082000A30000
:100C7C00210057082000A200210056082000A100E6
:100C8C00210055082000A0008D31A92580312000BD
:100C9C002308B8002208B7002108B6002008B500C8
:100CAC00210046082000BC00210045082000BB00A4
:100CBC00210044082000BA00210043082000B9009C
:100CCC00903100208031200038082100C60020001F
:100CDC0037082100C500200036082100C400200080
:100CEC0035082100C30041302000A3002030A200B1
:100CFC000030A1000030A000210058082000A700FF
:100D0C00210057082000A600210056082000A5004D
:100D1C00210055082000A40096314C26803120007B
:100D2C0023082100D800200022082100D700200031
:100D3C0021082100D600200020082100D500FF301A
:100D4C00B007FF30B13D0130CB070030CC3D4C0833
:100D5C00803A2000D30021003308803A200053024F
:100D6C00031DBB2E210032084B020318BE2EBF2ED2
:100D7C00CF2E21005408803A2000D300803053023B
:100D8C00031DCB2E4B3021005302031CCE2ECF2E35
:100D9C006A2D21002E082F04031DD52ED62EEB2EE6
:100DAC006C1ED92EDA2EEB2E2E302000D300210013
:100DBC005308A03E860001308700200053088100B4
:100DCC0001302100D3070030D43D5308A03E8600EB
:100DDC0001308700810165304106031DF62EF72E88
:100DEC00CF2F4F30CB000030CC004B08A03E8600FC
:100DFC00013087008101BA01BB01D21F062F072FDA
:100E0C00102F0130BA000030BB00D109D209D10A31
:100E1C000319D20A0230BC000030BD004B2FFF304A
:100E2C002100CB07FF30CC3D0A30F0000030F10040
:100E3C005208F3005108F2009131C0218031700842
:100E4C00303E2000D30021004B08A03E860001302C
:100E5C0087002000530881000A30F0000030F100B8
:100E6C0021005208F3005108F20092316B228031BC
:100E7C0071082100D2007008D100FF30BC07FF3090
:100E8C00BD3DFF30BF07FF30C03D51085204031D6C
:100E9C00502F512F152F3D08803A2000D300803061
:100EAC005302031D5C2F013021003C0203185F2FFD
:100EBC00602F152FFF302100CB07FF30CC3D3A08B7
:100ECC003B04031D6A2F6B2F702F2B30A6000030B4
:100EDC00A700742F2D30A6000030A7002608200094
:100EEC00D30021004B08A03E860001308700200073
:100EFC0053088100FF302100BF07FF30C03DFF3099
:100F0C00CB07FF30CC3D20005208BF3ED300FF3052
:100F1C0003180030D400003054021A300319530265
:100F2C00031C992F9B2F01309C2F0030D500D6012C
:100F3C0055082100AA00200056082100AB002A0801
:100F4C002B04031DAA2FAB2FB02F6530A800003047
:100F5C00A900B42F4530A8000030A90028082000B3
:100F6C00D30021004B08A03E8600013087002000F2
:100F7C0053088100FF302100BF07FF30C03D4B08F4
:100F8C00A03EF0000130F1005308A03E9F31DF2756
:100F9C008031A0302000D3005308A4002100400869
:100FAC002000A60021003F082000A50021003E08DB
:100FBC0080310920803120002508CF002408CE0084
:100FCC0008002100EA01EB01EC01ED01EE012030FB
:100FDC008400013085000C309E31EB268731A03027
:100FEC0084000130850050309E31EB268731200083
:100FFC009431482C73087204710470040319072887
:10100C0008280A288030F3060800740803190F28F2
:10101C00102815287408031D142815281A2872087E
:10102C009E31E526883149287408033E86008701E5
:10103C001600010403192328242841287408033EB0
:10104C0086008701403FF500413FF600740A860098
:10105C008701403FF700413FF8007808803AF900DB
:10106C007608803A7902031D3D287508770203182B
:10107C00402841284928740A8600870101308107DD
:10108C0041310318810A0800220023082000CD00FA
:10109C00220022082000CC00220021082000CB00D6
:1010AC00220020082000CA003D08CD003C08CC00DE
:1010BC003B08CB003A08CA004A08BE004B08BF00E8
:1010CC004C08C0004D08C1001730C136C00CBF0C15
:1010DC00BE0C890B6B28FF303E05C20000303F056B
:1010EC00C3004208813EC800FF30433DC900490897
:1010FC00803ABE0080303E02031D8628173048021D
:10110C00031C89288A288B2834292000C91B8F2886
:10111C009028ED28FF30BE00FF30BF007F30C000AC
:10112C000030C100480A9E28C137C00CBF0CBE0C51
:10113C00890B9A284108C7004008C6003F08C50023
:10114C003E08C4004A084405BE004B084505BF00D4
:10115C004C084605C0004D084705C1004108400435
:10116C003F043E04031DBB28BC28BD288A284A081E
:10117C00BE004B08BF004C08C0004D08C1001F301A
:10118C00C136C00CBF0CBE0C890BC62841084004EC
:10119C003F043E040319D328D428DC284408CA078A
:1011AC004508CB3D4608CC3D4708CD3D4409BE0023
:1011BC004509BF004609C0004709C1003E08CA05E1
:1011CC003F08CB054008CC054108CD052C294A0821
:1011DC00BE004B08BF004C08C0004D08C1001F30BA
:1011EC00C136C00CBF0CBE0C890BF628410840045C
:1011FC003F043E04031D032904290D290030CD00B2
:10120C000030CC000030CB000030CA002C294A083A
:10121C00BE004B08BF004C08C0004D08C100013097
:10122C00BE35BF0DC00DC10D890B162941084004F8
:10123C003F043E040319232924292C29BF30CD0057
:10124C008030CC000030CB000030CA004D08BD000F
:10125C004C08BC004B08BB004A08BA000800200030
:10126C00EB00570886008701403FD900413FDA0068
:10127C00590884005A0885001200253A031D472995
:10128C004829462B570886008701013081074131D8
:10129C000318810A2200AA01AB012100EC01ED0127
:1012AC00FF30EA00FF30EB00200057088600870172
:1012BC00403FD900413FDA00590884005A088500A4
:1012CC0012002E3A031D6B296C29E1292100EA0139
:1012DC00EB0120005708860087010130810741315E
:1012EC000318810A570886008701403FD900413F07
:1012FC00DA00590884005A08850012002A3A031DA6
:10130C00882989299F295708860087010130810780
:10131C0041310318810A58088600870101088400AE
:10132C00850102308107003F2100EA00013FEB00FC
:10133C00E129570886008701403FF600413FF7003E
:10134C0095319D25893177082100EB007608EA005C
:10135C00B7295708860087010130810741310318EE
:10136C00810A2000570886008701403FD900413F81
:10137C00DA00590884005A0885000008D03EDB00CA
:10138C00FF3003180030DC0000305C020A30031917
:10139C005B02031CD229D4290130D5290030DD0091
:1013AC00DE015D08DF005E08E0005F086004031DDD
:1013BC00E029E129AF292000570886008701403F2A
:1013CC00D900413FDA00590884005A08850000080A
:1013DC00DB00DC015B08F6005C08F700903166204E
:1013EC00893176082000DD005D08E70067080319E5
:1013FC00002A012A402A570886008701403FD9005D
:10140C00413FDA000130590784005A0803185A0A80
:10141C0085000008DB00DC015B08F6005C08F700C7
:10142C0090316620893176082000DD005D08E800E7
:10143C0068080319222A232A402A570886008701A4
:10144C00403FD900413FDA000230590784005A0866
:10145C0003185A0A85000008DB00DC015B08F60063
:10146C005C08F70090316620893176082000DD0099
:10147C005D08E90066306706031D452A462A832A63
:10148C00570886008701403FD900413FDA005908D0
:10149C0084005A0885000008DB005B08EA00570846
:1014AC00860087010130810741310318810A5808F1
:1014BC008600870101088400850104308107003F04
:1014CC00E300013FE400023FE500033FE60066084D
:1014DC00D1006508D0006408CF006308CE006A080C
:1014EC00D9005908D2006B08803162208931200064
:1014FC004F08D8004E08D700692B2630F0009830E2
:10150C00F1000230F2000030F30067309231132208
:10151C00893170087104031D942A952A102B200020
:10152C00570886008701403FD900413FDA0001305F
:10153C00590784005A0803185A0A85000008DB0072
:10154C005B08EA00570886008701403FD900413FFD
:10155C00DA00590884005A0885000008BF3EDB00F9
:10156C00FF3003180030DC0000305C021A30031925
:10157C005B02031CC22AC42A0130C52A0030DD00DC
:10158C00DE015D08E1005E08E200610862040319F7
:10159C00D02AD12AE22A5808860087010108840043
:1015AC00850104308107003FE300013FE400023F66
:1015BC00E500033FE600F22A58088600870101087F
:1015CC008400850104308107003FE300013FE40003
:1015DC00023FE500033FE600570886008701023012
:1015EC00810741310318810A6608D1006508D000D3
:1015FC006408CF006308CE006A08D9005908D200ED
:10160C006B0880316220893120004F08D8004E08C9
:10161C00D700692B2000570886008701403FD9006E
:10162C00413FDA00590884005A0885001200253A17
:10163C00031D212B222B3B2B5708860087010130E1
:10164C00810741310318810A2530F2000030F30084
:10165C006B08D9005908F40088310B20893101300E
:10166C002000D7000030D800692B5708860087016E
:10167C000130810741310318810AD701D801692B48
:10168C00570886008701403FD900413FDA005908CE
:10169C0084005A0885000008DB00DC015B08F200BE
:1016AC005C08F3006B08DD005D08F40088310B204A
:1016BC0089312000570886008701013081074131AC
:1016CC000318810A352B0800730880392000A0000C
:1016DC002008F8007335A0002008FA00F21F772BC1
:1016EC00782B792B7A147A0803197D2B7E2B8E2B71
:1016FC007A0A031D822B832B8B2B0030F3000030D6
:10170C00F2000030F1000030F000F217F301962BDC
:10171C000030F3000030F2000030F1000030F00037
:10172C0077088039A0002008F90079087806031999
:10173C00A02BA12BA22B78177735A0002008F9003D
:10174C00F61FA92BAA2BAB2B791479080319AF2BF5
:10175C00B02BC02B790A031DB42BB52BBD2B00303D
:10176C00F7000030F6000030F5000030F400F617FA
:10177C00F701C82B0030F7000030F6000030F50000
:10178C000030F4007A0879020318CD2BCE2B122CE2
:10179C00781FD12BD22BD62B8030A0002008F80636
:1017AC007A08A0002008FB007908A0002008FA00A5
:1017BC007B08A0002008F9007008A0002008FB009E
:1017CC007408A0002008F0007B08A0002008F4009A
:1017DC007108A0002008FB007508A0002008F1008B
:1017EC007B08A0002008F5007208A0002008FB0070
:1017FC007608A0002008F2007B08A0002008F60064
:10180C007308A0002008FB007708A0002008F30054
:10181C007B08A0002008F700FB017908A000A101BB
:10182C002108A3007A082002A200031CA3032308AA
:10183C00803AA40080302402031D262C1A30220288
:10184C00031C292C2A2C642C730872047104700458
:10185C00031D312C332C0130342C00302000A0001F
:10186C002008FB000030F3000030F2000030F100E3
:10187C000030F0007908A0002008FA006A2C7B1CCC
:10188C00482C492C502C7B3601382000A000200815
:10189C00FB00522C0310FB0C701C552C562C572C97
:1018AC00FB1701302000A000F337F20CF10CF00C08
:1018BC00A00B5A2C0130A0002008FA0779087A02F4
:1018CC00031C692C6A2C452C781B6D2C6E2CA82CB7
:1018DC007A08031D722C732C7C2C0030F300003022
:1018EC00F2000030F1000030F000A82D7408F00771
:1018FC007508F13D7608F23D7708F33D731C872C93
:10190C00882C352D7B1C8B2C8C2C932C7B36013806
:10191C002000A0002008FB00952C0310FB0C701C71
:10192C00982C992C9A2CFB1701302000A000F3372F
:10193C00F20CF10CF00CA00B9D2C0130A000200837
:10194C00FA07352D7308803A2000A0007708803AFA
:10195C002002031DBB2C76087202031DBB2C7508DC
:10196C007102031DBB2C740870020318BE2CBF2C13
:10197C00F72CFF30A000FF30A100FF30A200FF3099
:10198C00A30070087402A4007108753BA5007208CE
:10199C00763BA6007308773BA7002408A007250810
:1019AC00A13D2608A23D2708A33D2308F3002208E9
:1019BC00F2002108F1002008F0008030A00020087F
:1019CC00F806FB09FB0A7B08031DED2CEE2CFF2C03
:1019DC000130F0070030F13D0030F23D0030F33DB6
:1019EC00FF2C7408F0027508F13B7608F23B77087F
:1019FC00F33B7308720471047004031D062D072D4C
:101A0C00312D7B08031D0B2D0C2D312D0030F300D7
:101A1C000030F2000030F1000030F000A82D013051
:101A2C00F035F10DF20DF30D890B162DFB1F1F2D4B
:101A3C00202D212D70147B1C242D252D282D0314D5
:101A4C00FB0D2A2D0310FB0D7A0803192E2D2F2DBB
:101A5C00312D0130FA02F21F342D352D152DF901DF
:101A6C00FB1F392D3A2D482D7B087F3903193F2D4B
:101A7C00402D432DF901F90A482D701C462D472D98
:101A8C00482D402D790803194C2D4D2D7B2D0130FF
:101A9C00F0070030F13D0030F23D0030F33D731C97
:101AAC00582D592D7B2D70082000A0007108A10025
:101ABC007208A2007308A3000130A400A337A20C83
:101ACC00A10CA00CA40B642D2308F3002208F20037
:101ADC002108F1002008F0007A0A0319762D772DE1
:101AEC007B2D0130A0002008FA077A0A03197F2DFC
:101AFC00802D852D7A08031D842D852D932D003086
:101B0C00F3000030F2000030F1000030F0007A08F1
:101B1C00031D912D922D932DF8017A1C962D972D46
:101B2C00992DF2179E2D7F302000A0002008F20581
:101B3C007A362000A0002008F300F81FA62DA72D50
:101B4C00A82DF3170800200023088039F900790824
:101B5C00A8002335F9007908AE00A21FB62DB72DC9
:101B6C00B82D2E142E080319BC2DBD2DCC2D2E0AEC
:101B7C00031DC12DC22DCA2D0030A3000030A200C0
:101B8C000030A1000030A000A217D42D0030A3001B
:101B9C000030A2000030A1000030A00027088039DE
:101BAC00F9007908A8062735F9007908AD00A61FB9
:101BBC00E02DE12DE22D2D142D080319E62DE72D36
:101BCC00F62D2D0A031DEB2DEC2DF42D0030A70066
:101BDC000030A6000030A5000030A400A617FE2D92
:101BEC000030A7000030A6000030A5000030A40093
:101BFC002D080319022E032E082E2E08031D072E66
:101C0C00082E112E0030A3000030A2000030A100DD
:101C1C000030A000FF2F2008F9007908F0002608FA
:101C2C00903143208D3171082000B4007008B3004E
:101C3C003308F900FA01FB01FC017C08AC007B08BD
:101C4C00AB007A08AA007908A9003408F900FA0157
:101C5C00FB01FC017C08B2007B08B1007A08B000E3
:101C6C007908AF002108F9007908F00025089031B7
:101C7C0043208D3171082000B4007008B300330884
:101C8C00F900FA01FB01FC017908A9077A08AA3DC1
:101C9C007B08AB3D7C08AC3D3408F900FA01FB0134
:101CAC00FC017908AF077A08B03D7B08B13D7C0890
:101CBC00B23D2208F9007908F00024089031432045
:101CCC008D3171082000B4007008B3003308F9009E
:101CDC00FA01FB01FC017908A9077A08AA3D7B08E7
:101CEC00AB3D7C08AC3D3408F900FA01FB01FC016A
:101CFC007908AF077A08B03D7B08B13D7C08B23D4E
:101D0C000830A935AA0DAB0DAC0D890B872E210817
:101D1C00F9007908F0002408903143208D317108C6
:101D2C002000B4007008B3003308A9073408AA3D9A
:101D3C000030AB3DAC3D2008F9007908F0002508D7
:101D4C00903143208D3171082000B4007008B3002D
:101D5C003308A9073408AA3D0030AB3DAC3D083030
:101D6C00A935AA0DAB0DAC0D890BB62E2008F900C8
:101D7C007908F0002408903143208D31710820003F
:101D8C00B4007008B3003308A9073408AA3D00302A
:101D9C00AB3DAC3D2108F9007908F00026089031E4
:101DAC0043208D3171082000B4007008B300330853
:101DBC00AF073408B03D0030B13DB23D2208F90008
:101DCC007908F0002508903143208D3171082000EE
:101DDC00B4007008B3003308AF073408B03D0030CE
:101DEC00B13DB23D2208F9007908F0002608903187
:101DFC0043208D3171082000B4007008B300330803
:101E0C00F9003408FA00FB01FC010830F935FA0D31
:101E1C00FB0DFC0D890B0C2F7908AF077A08B03D30
:101E2C007B08B13D7C08B23D2908F9002A08FA006C
:101E3C002B08FB002C08FC001830FC36FB0CFA0CB1
:101E4C00F90C890B232F7908AF077A08B03D7B0872
:101E5C00B13D7C08B23D0830A935AA0DAB0DAC0DD7
:101E6C00890B322F2E082D07F900FA01FA0D79088B
:101E7C00823EB300FF307A3DB4005B2F0130AF35AA
:101E8C00B00DB10DB20D890B452FAC1F4E2F4F2F3E
:101E9C00502F2F140130A935AA0DAB0DAC0D890BA9
:101EAC00512FFF30B307FF30B43DB11F5E2F5F2FB2
:101EBC00442FAD01AC1F632F642F802FFF302905F9
:101ECC00F900FF302A05FA00FF302B05FB007F30AC
:101EDC002C05FC007C087B047A0479040319772F09
:101EEC00782F7B2FAD01AD0A802F2F1C7E2F7F2FDB
:101EFC00802F782F2D080319842F852FAD2F0130BB
:101F0C00AF070030B03D0030B13D0030B23D321C67
:101F1C00902F912FAD2F2F08F9003008FA003108BF
:101F2C00FB003208FC000130FD00FC37FB0CFA0C06
:101F3C00F90CFD0B9B2F7C08B2007B08B1007A08D2
:101F4C00B0007908AF000130B3070030B43D34085D
:101F5C00803AF90080307902031DB62FFF3033022E
:101F6C00031CB92FBA2FC42F7F302000B200803051
:101F7C00B1000030B0000030AF00F32F2000340867
:101F8C00803AF90080307902031DCE2F01303302E4
:101F9C000318D12FD22FDD2F00302000B2000030DB
:101FAC00B1000030B0000030AF00A801F32F2000CA
:101FBC003308F9007908AE00FF30AF05FF30B005EB
:101FCC007F30B1050030B2052E1CED2FEE2FEF2F18
:101FDC00B1172E36F9007908B2002808F9007908F3
:101FEC00B2043208A3003108A2003008A1002F0867
:101FFC00A000080080302000B8063C08F3003B0825
:10200C00F2003A08F1003908F0003808F7003708F8
:10201C00F6003608F5003508F4008B316A23903150
:10202C0073082000B8007208B7007108B600700879
:10203C00B5000800083022009F0090309D0024302D
:10204C009E0040309B0003309C000030F0000030BC
:10205C00F1009E31D92690310030F0000030F100B3
:10206C009E31DF2690310030F0000030F1009E31BF
:10207C00D32690312100EE010800F800F401F5019F
:10208C007008F200F3017208F6007308F700781C70
:10209C005028512855287608F4077708F53D01306B
:1020AC00F635F70D890B56280310F80C7808031D2C
:1020BC00602861284D287508F1007408F0000800AC
:1020CC007608BF3EF800FF30773DF900003079020A
:1020DC001A3003197802031C7428762801307728EB
:1020EC000030FA00FB017A08FC007B08FD007C083C
:1020FC007D040319822883288A2820307604F60070
:10210C0000307704F7008A2808002000A300A10102
:10211C00A201A3282008FB00FC017B08F2007C082C
:10212C00F3007A08FD007D08F40088310B20903113
:10213C0001302000A1070030A23D21082307FB003D
:10214C007B088600013087000108FC007C08A00099
:10215C002008031DB228B3289028080020009601FF
:10216C0097019801F0309100E3309200FE3093001B
:10217C00FC303E00CE00C330C300D030B800E501C7
:10218C00C401B901CF01BA01C501D001FF30BB00B8
:10219C00FF30C600FF30D100FF30BC00FF30C7005D
:1021AC00FF30D2000830E8001030A00011303D00A4
:1021BC00CB000B30C50014303E009B0015309C004A
:1021CC000D303D00C60008002100DB0020006D082A
:1021DC002100DD0020006C082100DC002200A80199
:1021EC00A9011029DC30D90059082000D7006E084D
:1021FC002100DA005A082000D80021005B08893140
:10220C0035219031200057082200A80720005808DB
:10221C002200A93D21005C0884005D0885001200A5
:10222C00031D19291A29F828220029082000ED007D
:10223C00220028082000EC00080000307005F8008F
:10224C0000307105F90080307205FA007F3073059B
:10225C00FB007B087A0479047804031D362937299E
:10226C003F290030F3000030F2000030F100003064
:10227C00F00000307405F80000307505F90080306E
:10228C007605FA007F307705FB007B087A04790429
:10229C007804031D522953295B290030F7000030C4
:1022AC00F6000030F5000030F40077087306031DCB
:1022BC00692976087206031D692975087106031DC4
:1022CC0069297408700603196C296D296F2903108C
:1022DC00702903140800F3002300901A762977293B
:1022EC00BF297308F000F101F035F10DF035F10D57
:1022FC001330700784009830713D850000088F0002
:10230C007308F000F101F035F10DF035F10D1230DC
:10231C00700784009830713D850000089000910191
:10232C007308F000F101F035F10DF035F10D1430BA
:10233C00700784009830713D850000088D0073088B
:10234C00F000F101F035F10DF035F10D153070079D
:10235C0084009830713D85000008F200F20DF20DFA
:10236C00F20D200012087206F73972069200230053
:10237C0090160800F601F31FC429C529CC29F209CF
:10238C00F309F20A0319F30AF601F60AF11FCF2931
:10239C00D029D529F009F109F00A0319F10A7008BE
:1023AC0071040319DA29DB29042AF501F50AE72956
:1023BC000130F035F10D890BDF290130F400740880
:1023CC00F507F11FEA29EB29DE2971087302031DB9
:1023DC00F12970087202031CF429F529F9297008F7
:1023EC00F2027108F33B0130F136F00C890BFA293B
:1023FC000130F502031D032A042AEB297608031980
:10240C00082A092A0E2AF209F309F20A0319F30A17
:10241C007308F1007208F0000800F5007508F4006C
:10242C007408F8007108F7007008F6000130F20229
:10243C000030F33B720A031D272A730A031D272A57
:10244C00282A372AF001F1016A2A0130F4007408B5
:10245C00F8070130F6070030F73D0130F20200308A
:10246C00F33B780886008701010803193E2A3F2AAE
:10247C005D2A760884007708850012000319472A24
:10248C00482A5D2A7208730403194D2A4E2A5D2AC4
:10249C0076088400770885000008F4007808860028
:1024AC0087010108740603195C2A5D2A2B2A780817
:1024BC0086008701760884007708850000080102F1
:1024CC00F000F101031CF1030800F601F11F6F2A63
:1024DC00702A772AF009F109F00A0319F10AF601BA
:1024EC00F60AF31F7A2A7B2A842AF209F309F20AE4
:1024FC000319F30A0130F4007408F606F701F80129
:10250C007008710403198B2A8C2ABB2AF501F50A71
:10251C00982A0130F035F10D890B902A0130F40026
:10252C007408F507F11F9B2A9C2A8F2A0130F73576
:10253C00F80D890B9D2A71087302031DA72A7008D8
:10254C007202031CAA2AAB2AB02A7008F202710884
:10255C00F33B77140130F136F00C890BB12A0130C2
:10256C00F502031DBA2ABB2A9C2A76080319BF2A36
:10257C00C02AC52AF709F809F70A0319F80A7808D6
:10258C00F1007708F00008000310720D730DF400D1
:10259C007408FA007A08031DD42AD52ADE2A0030E2
:1025AC00F3000030F2000030F1000030F0003D2B61
:1025BC007008F4007108F5007208F6007308F70053
:1025CC001F30F736F60CF50CF40C890BE72A74085F
:1025DC00F8007808F900F217FF30F005FF30F1052C
:1025EC00FF30F2050030F3059630FA02FA1FFF2A8D
:1025FC00002B182B7A08803A973E0318062B072BD2
:10260C00082BD52A0130F336F20CF10CF00C890BA7
:10261C00092B0130F4007408FA07031D162B172B35
:10262C00082B2D2B20307A02031C1D2B1E2B282B44
:10263C00D52A0130F035F10DF20DF30D890B202B5D
:10264C000130FA027A08031D2C2B2D2B1F2B790835
:10265C000319312B322B3D2BF009F109F209F30947
:10266C00F00A0319F10A0319F20A0319F30A080014
:10267C00220027082000A500220026082000A40024
:10268C00220025082000A300220024082000A2001C
:10269C007308A5007208A4007108A3007008A200BA
:1026AC002208F4002308F5002408F6002508F7009A
:1026BC001730F736F60CF50CF40C890B5F2BFF304A
:1026CC007405A00000307505A10020082104031D2D
:1026DC00702B712B922B2208F4002308F500240890
:1026EC00F6002508F7000130F435F50DF60DF70D61
:1026FC00890B7A2B7708760475047404031D872BD9
:10270C00882B8D2B0230F0000030F100BC2B0330F5
:10271C00F0000030F100BC2B200A2104031D972B84
:10272C00982BB82B2208F4002308F5002408F60097
:10273C002508F7000930F435F50DF60DF70D890B6A
:10274C00A12B77087604750474040319AE2BB02BF7
:10275C000130B12B0030F800F9017808F00079084D
:10276C00F100BC2B0430F0000030F1000800003008
:10277C0020003505BD0000303605BE008030370521
:10278C00BF007F303805C00040083F043E043D04C4
:10279C00031DD12BD22BDA2B0030B8000030B70040
:1027AC000030B6000030B50000303905BD000030F7
:1027BC003A05BE0080303B05BF007F303C05C000B1
:1027CC0040083F043E043D04031DED2BEE2BF62B7D
:1027DC000030BC000030BB000030BA000030B90043
:1027EC00B81FF92BFA2B122C0030BD000030BE00A4
:1027FC000030BF008030C0003508BD023608BE3B3B
:10280C003708BF3B3808C03B4008B8003F08B7004A
:10281C003E08B6003D08B500BC1F152C162C2E2CFE
:10282C000030BD000030BE000030BF008030C00062
:10283C003908BD023A08BE3B3B08BF3B3C08C03BD5
:10284C004008BC003F08BB003E08BA003D08B90078
:10285C008030B8068030BC063C083802031D402C82
:10286C003B083702031D402C3A083602031D402C4E
:10287C00390835020318432C442C462C0310472CE2
:10288C00031408009F311927943100302100DE0019
:10289C009830DF009F313F279431200017152930E5
:1028AC002100E6009630E5007F30890B5B2CE50BB0
:1028BC005B2CE60B5B2C2000171100309131712141
:1028CC00943100309F310C2794312100E5006508CC
:1028DC002200B00000309F310C2794312100E5001C
:1028EC0065082200B10080310620943120001715B4
:1028FC00220031082100E500E60122003008210009
:10290C00E700E8016708E800E701650867042200B2
:10291C00B2002100660868042200B3000430B3360C
:10292C00B20C890B952C40302000A3008030A20003
:10293C000030A1000030A00022003208F000330863
:10294C00F100F201F30100309431F1249431730859
:10295C002000A7007208A6007108A5007008A4004A
:10296C0096314C269431200023082200AF00200021
:10297C0022082200AE00200021082200AD00200019
:10298C0020082200AC000C302100DE009830DF0063
:10299C0022002F082100E30022002E082100E20073
:1029AC0022002D082100E10022002C082100E0006B
:1029BC009F313F27943115302100E6004B30E50064
:1029CC00BE30890BE72CE50BE72CE60BE72C00005F
:1029DC00612C80310228F80078080319F62CF72CAA
:1029EC000B2DF31FFA2CFB2C0B2D7009FA0071091F
:1029FC00FB007209FC007309FD00FA0A0319FB0ABB
:102A0C000319FC0A0319FD0A132D7308FD00720843
:102A1C00FC007108FB007008FA0073087204710462
:102A2C007004031D1A2D1B2D242D0030F3000030D3
:102A3C00F2000030F1000030F0009C2D9630F400D4
:102A4C007408F900342D0130F4007408F9070130D2
:102A5C00FD36FC0CFB0CFA0C890B2E2DFE307D0583
:102A6C00031D392D3A2D292D4E2D0130F4007408FB
:102A7C00F9070130FA070030FB3D0030FC3D003017
:102A8C00FD3D0130FD36FC0CFB0CFA0C890B482D7E
:102A9C00FF307D05031D532D542D3B2D5E2D013034
:102AAC00F9020130FA35FB0DFC0DFD0D890B582D8B
:102ABC00FC1B612D622D682D023079020318672DE5
:102ACC00682D552D79186B2D6C2D742DFF30FA0552
:102ADC00FF30FB057F30FC05FF30FD050310F90CC2
:102AEC007908F400F501F601F7011830F435F50D0D
:102AFC00F60DF70D890B7C2D7408FA047508FB0490
:102B0C007608FC047708FD04780803198E2D8F2DA8
:102B1C00942DF31F922D932D942DFD177D08F3000A
:102B2C007C08F2007B08F1007A08F0000800200015
:102B3C00A701A801A001A101A72D0130F6070030C3
:102B4C00F73DA601A60A76088400770885001200D6
:102B5C00203A0319B22DB32DC82D760884007708BE
:102B6C0085000008F73EF800FF3003180030F9002C
:102B7C0000307902053003197802031CC62DC72DCD
:102B8C00C82DA6012608F800F9017808A2007908DA
:102B9C00A30022082304031DD42DD52DA32DDF2D36
:102BAC000130A0000030A1000130F6070030F73DE5
:102BBC00132E76088400770885000008F800F901C8
:102BCC007908003A0319EB2D132E78082B3A0319C8
:102BDC00DA2D063A0319D62D132E760884007708C1
:102BEC0085000008F8002808F1002708F0000A30DA
:102BFC00F2000030F3009F319F2795317108FA00E5
:102C0C0078087002F900031CFA037908303E2000A2
:102C1C00A70000307A3DA800DA2D760884007708EA
:102C2C0085000008D03EF800FF3003180030F90092
:102C3C00003079020A3003197802031C262E282E44
:102C4C000130292E0030FA00FB017A08A4007B0821
:102C5C00A50024082504031D342E352EF32D200841
:102C6C002104031D3A2E3B2E472E2709F800280974
:102C7C00F900F80A0319F90A7808F6007908F70040
:102C8C004B2E2808F7002708F6000800200027081C
:102C9C008039A8002808B1002735A8002808B800FA
:102CAC00A61F592E5A2E5B2E3814380803195F2E86
:102CBC00602E702E380A031D642E652E6D2E00308A
:102CCC00A7000030A6000030A5000030A400A61715
:102CDC00A701782E0030A7000030A6000030A50018
:102CEC000030A40023088039A8002808B106233539
:102CFC00A8002808B900A21F842E852E862E391410
:102D0C00390803198A2E8B2E9B2E390A031D8F2E00
:102D1C00902E982E0030A3000030A2000030A100AD
:102D2C000030A000A217A301A32E0030A300003096
:102D3C00A2000030A1000030A000230822042104CE
:102D4C002004031DAA2EAB2EC42E0030A700003089
:102D5C00A6000030A5000030A4008030A6047F300F
:102D6C00A7043108A8002808A7042708A3002608F0
:102D7C00A2002508A1002408A000FF2F3808031D7D
:102D8C00C82EC92ED22E0030A3000030A200003075
:102D9C00A1000030A000FF2F3808A800A9012908C5
:102DAC00AB0039082802AA00031CAB032A087F3E9B
:102DBC00B20000302B3DB3002708B0002608AF004E
:102DCC002508AE002408AD000030A7000030A60096
:102DDC000030A5000030A4000030B7000030B60071
:102DEC000030B5000030B400B9013A2F390803198E
:102DFC00002F012F1B2F0130AD35AE0DAF0DB00DD7
:102E0C00890B022F0130A435A50DA60DA70D890B3A
:102E1C00092FB71F122F132F142F24140130B43580
:102E2C00B50DB60DB70D890B152F23083002031DF8
:102E3C00292F22082F02031D292F21082E02031DE2
:102E4C00292F20082D02031C2C2F2D2F362F37173E
:102E5C002008AD022108AE3B2208AF3B2308B03B53
:102E6C000130A8002808B9071A303902031C3F2F7B
:102E7C00402FFC2E30082F042E042D040319472F4D
:102E8C00482F612F3414612F0130A435A50DA60DE8
:102E9C00A70D890B4B2FB71F542F552F562F2414CA
:102EAC000130B435B50DB60DB70D890B572FFF306A
:102EBC00B207FF30B33DA61F642F652F4A2FB9010F
:102ECC00B71F692F6A2F862FFF303405A800FF30FB
:102EDC003505A900FF303605AA007F303705AB0059
:102EEC002B082A042904280403197D2F7E2F812FF7
:102EFC00B901B90A862F241C842F852F862F7E2F8B
:102F0C00390803198A2F8B2FB32F0130A4070030F7
:102F1C00A53D0030A63D0030A73D271C962F972FCE
:102F2C00B32F2408A8002508A9002608AA00270802
:102F3C00AB000130AC00AB37AA0CA90CA80CAC0B45
:102F4C00A12F2B08A7002A08A6002908A5002808ED
:102F5C00A4000130B2070030B33D3308803AA8001A
:102F6C0080302802031DBC2FFF303202031CBF2F00
:102F7C00C02FCD2FFF302000B2000030B300003046
:102F8C00A7000030A6000030A5000030A4002000EF
:102F9C003308803AA80080302802031DD72F013057
:102FAC0032020318DA2FDB2FE72F2000B201B30116
:102FBC000030A7000030A6000030A5000030A400AF
:102FCC00B10120003208A8002808B800381CEF2FE7
:102FDC00F02FF22FA617F62F7F30A8002808A60591
:102FEC003836A8002808A7003108A8002808A7042C
:102FFC00BB2E080048346F346C34613420346D348B
:10300C0075346E3464346F340A34003425342E3401
:10301C00323466340A3400341234C0344F34003441
:10302C0049344E34463400344E3441344E3400343A
:10303C0069346E34663400346E3461346E3400346A
:06304C006C346634003410
:103DA60071082200B5007008B400080071082200EE
:103DB600B9007008B800080071082200B700700842
:103DC600B6000800F10071089F3102279E310800F5
:103DD600640080010131890BEC2E00342F0096011E
:103DE6009701980199019A019B0108006030310002
:103DF6008D008F0191010630930092010800F000BA
:103E06002E000F1E072F082F032F700822009A007E
:103E16000800F000700823008C002E000F1C142FE1
:103E2600152F102F0F1023000C0808009E31F126C5
:103E36009F319F3129279F319031B4209F319E3188
:103E4600F9269F31903120209F3108000B303D002C
:103E5600C5000D30C60014303E009B0015309C0096
:103E6600C03023008F00123090004F308D002000AC
:103E76009211230090120800E0302000EF006F0836
:103E86002100E4005F082000ED0021005E0820000C
:103E9600EC00E430EF006F08EE0000309031EA20CD
:103EA6009F3108007008D03EF200FF30713DF300EC
:103EB600003073020A3003197202031C632F652F48
:103EC6000130662F0030F400F5017408F000750823
:103ED600F10008007008BF3EF200FF30713DF300AC
:103EE600003073021A3003197202031C7B2F7D2FD8
:103EF60001307E2F0030F400F5017408F0007508DB
:103F0600F1000800F4007408F2007208F3008F2F25
:103F16000130F2007208F407740886000130870049
:103F26000108031D972F982F8B2F73087402F0003A
:103F3600F101F01BF1030800F401F501701CA42F38
:103F4600A52FA92F7208F4077308F53D0130F23545
:103F5600F30D890BAA2F0130F136F00C890BAF2F28
:103F660070087104031DB82FB92FA12F7508F10031
:103F76007408F0000800F401F40A20307006710499
:103F86000319C62FC72FD72F7008F73EF200FF3050
:103F9600713DF30000307302053003197202031CF1
:103FA600D52FD62FD72FF4017408F200F30172082B
:103FB600F0007308F1000800F7007108F5007008BA
:103FC600F4007708F2007208F600760886000130E1
:103FD6008700F60A7508F3007408F200F40A03195C
:103FE600F50A72088400730885000008C03F890836
:0A3FF600031DFE2FFF2FE82F080027
:020000040001F9
:0A000E00EC3FFF3F9F3FFF3FFF3F25
:00000001FF
