:08000000803102288731F52F41
:100C2E00863161268631080071082000DF007008C9
:100C3E00DE00080071082000E3007008E2000800E2
:100C4E0071082000E1007008E0000800F100710852
:100C5E0086314A2686310800640080010131890BF5
:100C6E00342E00342F0096019701980199019A01B4
:100C7E009B010800603031008D008F01910103301F
:100C8E00930092010800F0002E000F1E4F2E502EE2
:100C9E004B2E700822009A000800863139268631C4
:100CAE008631CD26863186314126863186318326A0
:100CBE00863108002E008F1E652E662E612E2000B6
:100CCE00C80122009D1C6C2E6D2E6F2E1D121D163E
:100CDE00190808005830FD007D082000DA0057087A
:100CEE00CF005608CE005A30FD007D08D0000030EF
:100CFE008631A52686310800083022009F009030EC
:100D0E009D0024309E00CF309B009C010030F000EF
:100D1E000030F1008631212686310030F00000309F
:100D2E00F1008631272686310030F0000030F100C8
:100D3E0086311B2686312000C80108002000D30012
:100D4E004F08D5004E08D400C001C101BF2E54304B
:100D5E00D1005108FA005008D2005208FB00530887
:100D6E0087317B2786317A082000C0077B08C13D7A
:100D7E0054088400550885001200031DC72EC82E86
:100D8E00AE2E4108CF004008CE000800200096018C
:100D9E0097019801F0309100FF309200FE309300E1
:100DAE00FD303E00CE00FF30C300CF30B800E5016D
:100DBE00C401B901CF01BA01C501D001FF30BB009A
:100DCE00FF30C600FF30D100FF30BC00FF30C7003F
:100DDE00FF30D200E8011030A00011303D00CB00F2
:100DEE00080074080319FC2EFD2E022F7408031D33
:100DFE00012F022F072F720886312D268631362FAE
:100E0E007408033E86008701160001040319102F93
:100E1E00112F2E2F7408033E86008701403FF500E8
:100E2E00413FF600740A86008701403FF700413FBC
:100E3E00F8007808803AF9007608803A7902031DA6
:100E4E002A2F7508770203182D2F2E2F362F740A8E
:100E5E00860087010130810741310318810A08009D
:100E6E008631542687312000161406302000DC000F
:100E7E001330DB00AD30890B422FDB0B422FDC0B26
:100E8E00422F00324D302000D6008830D7008631F8
:100E9E007126873100302000D6008830D700863189
:100EAE00712687312000161006302000DC0013302A
:100EBE00DB00AD30890B612FDB0B612FDC0B612F5B
:100ECE0000328631172687312000DB005B08DD00FB
:100EDE0061305D06031D742F752F772F1614682F42
:100EEE001610682F80310228FC007A0886008701D0
:100EFE00403F2000C900413FCA00490884004A080B
:100F0E0085001200253A031D8D2F8E2FD22F7A08C1
:100F1E00860087010130810741310318810AC20121
:100F2E00C301C601C701FF30C400FF30C5007A08F7
:100F3E0086008701403FC900413FCA00490884002E
:100F4E004A0885001200253A031DAE2FAF2FC72F7A
:100F5E007A08860087010130810741310318810A22
:100F6E002530F2000030F3007C08C9004908F40077
:100F7E008631F82687310130FA000030FB00F42F5D
:100F8E007A08860087010130810741310318810AF2
:100F9E00FA01FB01F42F7A0886008701403FC90051
:100FAE00413FCA00490884004A0885000008CB006A
:100FBE00CC014B08F2004C08F3007C08CD004D0824
:100FCE00F4008631F82687317A08860087010130D1
:100FDE00810741310318810AC22F08002030840096
:100FEE000030850029308631332687312000873145
:100FFE00372F6D3461346E3464346134203475347B
:10100E006E34613420342734613427342034703404
:10101E00613472346134203465346E346334653433
:10102E006E34643465347234203475346E34203446
:10103E006C34653464340A3420346334753461346A
:10104E006C347134753469346534723420346F34D1
:10105E0074347234613420346C34653474347234C4
:10106E00613420347034613472346134203461342C
:10107E0070346134673461347234203465346C34C6
:10108E0020346C34653464340A3400340A345034F9
:10109E0072347534653462346134203450347534AE
:1010AE006534723474346F3420347334653472346E
:1010BE00693461346C3420347434613472346A347B
:1010CE0065347434613420344D3470346C3461348E
:1010DE00623420345834703472346534733473345B
:1010EE00203462346F346134723464340A34003420
:020000040001F9
:08000000FF3FFF3FFF3FFF3F00
:0A000E00EC3FFF3F9F3FFF3FFF3F25
:00000001FF
