:1000000018EF00F0EA6A080EE96EEF50D8B417EF67
:1000100000F0010E016E006A002EFED7012EFBD704
:100020004A0E006E002EFED700D0EF2EF2D712003F
:10003000F86AD09EC150C00B0F09C16E070EB46E96
:10004000C150C00B0F09C16EC050C00B1609C06E65
:10005000C08EC280070EB46E9250926E030E006E78
:10006000002EFED7B450A19CFF0E926E000E966E2D
:10007000936E8D809690040E076EFA0E086EC2DFA6
:10008000072EFBD78D909690040E076EFA0E086E21
:10009000B9DF072EFBD7010E056E936A05C08AFFF4
:1000A000640E086EAFDF066A065008080AE3D890AF
:1000B0000536936A05C08AFF640E086EA3DF062A20
:0600C000F3D7E9D70300AD
:020000040030CA
:0E00000027C0201E0087A1000FC00FE00F4098
:00000001FF
;PIC18F4550
;CRC=7565  CREATED="08-dic.-20 12:52"
