:020000040000FA
:08000000803102288731F52F41
:1002A2002000121092141710080071082100E700B4
:1002B2007008E600080071082100EB007008EA00EF
:1002C200080071082100E9007008E8000800F10048
:1002D200710881318E218131080064008001013171
:1002E200890B6F2900342F0096019701980199011B
:1002F2009A019B01080023008F01083090009101B0
:1003020004308D0090120800603031008D008F01A2
:1003120091010330930092010800F0002E000F1E9D
:10032200932994298F29700822009A0008006830C6
:100332002000EA006A08EB006708DF006608DE00BA
:100342006B30EA006A08E0000030823177228131A6
:10035200080081317421813181317C2181318231E6
:10036200A82281318131852181318131BD218131C3
:10037200823108228131080022008E018F01900112
:100382009101920193018D0121009E019B019C012B
:1003920094019501960197019A0199010330980001
:1003A200843093009D010800F4007408F200720882
:1003B200F300DF290130F2007208F40774088600A6
:1003C20087010108031DE629E729DB297308740266
:1003D200F000F101F01BF10308007408803AF50007
:1003E20080307502031DF729013073020318FA29C0
:1003F200FB29072A7309F5007409F600F50A0319A7
:10040200F60A7508F3007608F400072A0800083097
:1004120022009F0090309D0024309E00CF309B0030
:100422009C010030F0000030F10081315C2182310A
:100432000030F0000030F100813162218231003061
:10044200F0000030F1008131562182312100C501D6
:100452000800F301F401200017142130890B2F2A20
:100462000000200017108D1C372A382A342A3E2A11
:100472000130F3070030F43D003220008D18422A8B
:10048200432A392A8230F200DE30890B462AF20BE7
:10049200462A7408F1007308F00008002000A30047
:1004A200A101A201672A2008FB00FC017B08F200DF
:1004B2007C08F3007A08FD007D08F4008231DE2218
:1004C200823101302000A1070030A23D210823071C
:1004D200FB007B08860087010108FC007C08A00065
:1004E2002008031D752A762A542A08002000E300FA
:1004F2005F08E5005E08E4002100BD01BE01952A07
:100502006430E1006108CE006008E2006208CF00BA
:1005120063088331C123823120004E082100BD07C8
:1005220020004F082100BE3D2000640884006508B9
:1005320085001200031D9E2A9F2A812A21003E085F
:100542002000DF0021003D082000DE00080020001E
:10055200960197019801F0309100FE309200FE3032
:100562009300A5303E00CE00FC30C300D030B8006E
:10057200E501C401B901CF01BA01C501D001FF30C3
:10058200BB00FF30C600FF30D100FF30BC00FF309F
:10059200C700FF30D2000830E8001030A000113050
:1005A2003D00CB001430C50015303E00A3001430CE
:1005B200A40013303D00C600080074080319E22AA3
:1005C200E32AE82A7408031DE72AE82AED2A7208BA
:1005D2008131682182311C2B7408033E8600870119
:1005E200160001040319F62AF72A142B7408033E95
:1005F20086008701403FF500413FF600740A8600FD
:100602008701403FF700413FF8007808803AF9003F
:100612007608803A7902031D102B750877020318B9
:10062200132B142B1C2B740A8600870101308107BF
:1006320041310318810A08008131AA2183318131B5
:100642005121833106302000ED001330EC00AD3033
:10065200890B292BEC0B292BED0B292B0032433074
:100662002000E6008830E700813198218331103084
:100672002000ED003930EC000D30890B3E2BEC0BE5
:100682003E2BED0B3E2B003282312A228331710840
:100692002000EF007008EE000030E6008830E7002E
:1006A2006F08E9006E08E8008131982183310B3030
:1006B2002000ED002630EC005D30890B5E2BEC0B48
:1006C2005E2BED0B5E2B0032452B80310228200081
:1006D200AC002100431C6E2B6F2B782B20002C08C2
:1006E200A7002708FA00240882314F228331200014
:1006F200A61B7C2B7D2B822B2608AB002508AA008B
:10070200842BAA01AB01A801A901982B2030F20089
:100712000030F30020002C08A7002708F4008231E3
:10072200DE22833101302000A8070030A93D2908CC
:10073200803AA7002B08803A2702031DA22B2A0821
:100742002802031CA52BA62B872B21004318AA2BBA
:10075200AB2BB42B20002C08A7002708FA00240892
:1007620082314F228331200024088131D521833107
:1007720020002A087007A4002B08713DA50008007C
:100782002000DD004E0886008701403FD000413F37
:10079200D10050088400510885001200253A031D3B
:1007A200D32BD42B782C4E08860087010130810789
:1007B20041310318810A2100BF01C001C301C401F4
:1007C200FF30C100FF30C20020004E0886008701C2
:1007D200403FD000413FD1005008840051088500BD
:1007E2001200643A0319F62BF72B082C4E088600E8
:1007F2008701403FD000413FD1005008840051089A
:1008020085001200693A031D072C082C432C4E0860
:10081200860087010130810741310318810A4F08A0
:100822008600870101088400850102308107003FAC
:10083200D000013FD1005008D5005108D600890DE3
:10084200893B8909D700D800D900DA00DB00DC0037
:100852005508B0005608B1005708B2005808B30056
:100862005908B4005A08B5005B08B6005C08B70026
:100872005D0886318726833120003108CF00300899
:10088200CE009B2C4E0886008701403FD000413F9E
:10089200D10050088400510885001200253A031D3A
:1008A200532C542C6D2C4E08860087010130810791
:1008B20041310318810A2530F2000030F3005D084F
:1008C200D0005008F4008231DE2283310130200052
:1008D200CE000030CF009B2C4E08860087010130ED
:1008E200810741310318810ACE01CF019B2C4E08AA
:1008F20086008701403FD000413FD100500884006C
:10090200510885000008D200D3015208F2005308B2
:10091200F3005D08D4005408F4008231DE228331F2
:1009220020004E08860087010130810741310318FB
:10093200810A672C0800F201283086000030870007
:10094200473FF000F01FA62CA72CC82C2000A809B6
:10095200A909AA09AB09AC09AD09AE09AF09A80AF0
:10096200031DC62CA90A031DC62CAA0A031DC62CE8
:10097200AB0A031DC62CAC0A031DC62CAD0A031D0F
:10098200C62CAE0A031DC62CAF0AF201F20A2030B1
:10099200860000308700473FF000F01FD12CD22C98
:1009A200F12C2000A009A109A209A309A409A50903
:1009B200A609A709A00A031DF12CA10A031DF12C07
:1009C200A20A031DF12CA30A031DF12CA40A031D84
:1009D200F12CA50A031DF12CA60A031DF12CA70A6E
:1009E20020002008210422042304240425042604D0
:1009F20027040319FD2CFE2C512DF101F10A0D2DB6
:100A0200A035A10DA20DA30DA40DA50DA60DA70D38
:100A12000130F0007008F107A71F102D112D012DD4
:100A220027082F02031D2F2D26082E02031D2F2D0E
:100A320025082D02031D2F2D24082C02031D2F2D06
:100A420023082B02031D2F2D22082A02031D2F2DFE
:100A520021082902031D2F2D20082802031C322DF4
:100A6200332D432D2008A8022108A93B2208AA3BC6
:100A72002308AB3B2408AC3B2508AD3B2608AE3B24
:100A82002708AF3BA736A60CA50CA40CA30CA20CFE
:100A9200A10CA00C0130F102031D502D512D112D7E
:100AA20072080319552D562D742DA809A909AA09F2
:100AB200AB09AC09AD09AE09AF09A80A031D742D33
:100AC200A90A031D742DAA0A031D742DAB0A031D66
:100AD200742DAC0A031D742DAD0A031D742DAE0ACC
:100AE200031D742DAF0A20002808A0002908A100C8
:100AF2002A08A2002B08A3002C08A4002D08A50098
:100B02002E08A6002F08A7000800F2012030860058
:100B120000308700473FF000F01F902D912DB22D3D
:100B22002000A009A109A209A309A409A509A609EF
:100B3200A709A00A031DB02DA10A031DB02DA20A08
:100B4200031DB02DA30A031DB02DA40A031DB02D51
:100B5200A50A031DB02DA60A031DB02DA70AF20196
:100B6200F20A2830860000308700473FF000F01F6D
:100B7200BB2DBC2DDF2D2000A809A909AA09AB09AC
:100B8200AC09AD09AE09AF09A80A031DDB2DA90AFC
:100B9200031DDB2DAA0A031DDB2DAB0A031DDB2D72
:100BA200AC0A031DDB2DAD0A031DDB2DAE0A031DAE
:100BB200DB2DAF0A0130F0007008F20673308600B8
:100BC200003087000830F00000301E00F00BE62DE8
:100BD20020002008210422042304240425042604DE
:100BE20027040319F52DF62D522EF101F10A052ED7
:100BF200A035A10DA20DA30DA40DA50DA60DA70D47
:100C02000130F0007008F107A71F082E092EF92DF8
:100C1200F335F40DF50DF60DF70DF80DF90DFA0D8E
:100C220027082F02031D2F2E26082E02031D2F2E0A
:100C320025082D02031D2F2E24082C02031D2F2E02
:100C420023082B02031D2F2E22082A02031D2F2EFA
:100C520021082902031D2F2E20082802031C322EF0
:100C6200332E442E2008A8022108A93B2208AA3BC1
:100C72002308AB3B2408AC3B2508AD3B2608AE3B22
:100C82002708AF3B7314A736A60CA50CA40CA30C23
:100C9200A20CA10CA00C0130F102031D512E522E08
:100CA200092E72080319562E572E752EF309F409D0
:100CB200F509F609F709F809F909FA09F30A031D12
:100CC200752EF40A031D752EF50A031D752EF60AFC
:100CD200031D752EF70A031D752EF80A031D752EC6
:100CE200F90A031D752EFA0A73082000A000740881
:100CF200A1007508A2007608A3007708A40078086E
:100D0200A5007908A6007A08A70008002000BF0005
:100D12003008C4003108C5003208C6003308C700D5
:100D22003408C8003508C9003608CA003708CB00A5
:100D32004430860000308700473FB800B81BA22E1F
:100D4200A42E0130A52E00302000B900BA013908C6
:100D5200C2003A08C300420843040319B12EB22E5E
:100D6200D02EC409C509C609C709C809C909CA09D3
:100D7200CB09C40A031DD02EC50A031DD02EC60AF4
:100D8200031DD02EC70A031DD02EC80A031DD02E64
:100D9200C90A031DD02ECA0A031DD02ECB0A210078
:100DA200C21BD42ED52ED92EFD30C305FF30C4056B
:100DB2004208803A2000B80080303802031DE42E39
:100DC2000130210041020318E72EE82EEE2E0130F9
:100DD2002000BD000030BE00F62E21004208200097
:100DE200BE00210041082000BD0021004008200073
:100DF200C10021003F082000C00042084304031D37
:100E0200032F042F092F2100431D082F092F0E2F16
:100E1200FF302000C007FF30C13D1F302000CC0052
:100E22000030CD002100E5017E2FFF302000CC07ED
:100E3200FF30CD3D0A30A000A101A201A301A4010F
:100E4200A501A601A7014408A8004508A900460873
:100E5200AA004708AB004808AC004908AD004A08A0
:100E6200AE004B08AF0084319C248631200021085B
:100E7200F4002008F3008131EE2186317308303E00
:100E82002000B8004C08C63E860087013808810061
:100E9200FF30BD07FF30BE3DFF30C007FF30C13D10
:100EA2000A30A000A101A201A301A401A501A6018B
:100EB200A7014408A8004508A9004608AA00470857
:100EC200AB004808AC004908AD004A08AE004B0828
:100ED200AF0085318625863120002008C400210814
:100EE200C5002208C6002308C7002408C800250838
:100EF200C9002608CA002708CB0020004D08803A06
:100F0200B80080303802031D882F01304C02031CC8
:100F12008B2F8C2FB92F2000440845044604470428
:100F2200480449044A044B04031D982F992F162F95
:100F32003E08803AB80080303802031DA22F0130EB
:100F42003D020318A52FA62F162F20004108803A34
:100F5200B80080303802031DB02F01304002031C5C
:100F6200B32FB42FB92F2100C318B82FB92F162FC2
:100F7200200042084304031DBF2FC02FC52F2100AC
:100F8200431DC42FC52FE12FFF302000CC07FF30B7
:100F9200CD3D42084304031DCF2FD02FD52F2B3038
:100FA200BB000030BC00D92F2D30BB000030BC008C
:100FB2003B08B8004C08C63E86008701380881000D
:100FC20020004C08C63EB8003808A4004108A6001C
:100FD2004008A5003F088331682386312000250898
:100FE200B1002408B0000800A03084000030850061
:100FF200463081316E218731200083311D2B6C34C4
:1010020061342034643469347334743461346E343A
:101012006334693461342034643465346C3420348C
:101022006F3462346A34653474346F342034653416
:1010320073343A3420342534693420346D346D34B9
:101042000A340034003400340034003400340034F4
:1010520000340034003400340034003400340034EE
:1010620000340034003400340034003400340034DE
:1010720000340034003400340034003400340034CE
:1010820000340034533465346E3473346F34723444
:10109200203475346C3474347234613473346F3484
:1010A2006E34693463346F340A344D3450346C34E2
:1010B20061346234783420344D3443344334003460
:020000040001F9
:0A000E00EC3FFF3F9F3FFF3FFF3F25
:00000001FF
