:040000008031102813
:100008007E1480312E0016180C1C0E2885314425CC
:100018002000ED0A7E100900803112286830840023
:10002800003085000730853151258031A0308400AB
:10003800003085003D308531512580317E1020000B
:1000480025287A208031D320803115302000E70020
:100058004B30E600BE30890B2F28E60B2F28E70B24
:100068002F2800008B170B171E302000E100853069
:10007800E2006D08E300E401702080316D086C0631
:10008800031951281E30E1008530E2006D08E300B5
:10009800E401702080316D08EC008C1A422805308C
:1000A8006D02031C42283130E1008530E2007020E7
:1000B8008031FB30ED0715302000E7004B30E600BB
:1000C800BE30890B6528E60B6528E70B652800001C
:1000D80020008C1A42286C286330E5006208DB0097
:1000E8006108DA006530DC0000300429CB2080315B
:1000F80085208031972080318E208031F220803118
:10010800D42823008F010830900091014F308D00D2
:1001180090120800603031008D008F019101063087
:100128009300920108002000960197019801FE3083
:100138009100FF309200FE309300A5303E00CE00C3
:10014800FE30C300DE30B800E501C401B901CF01BB
:10015800BA01C501D001FF30BB00C600D100BC0008
:10016800C700D2000830E8003D00900010303E0083
:10017800A00011303D00CB001430C50015303E0002
:10018800A3001430A40013303D00C60008002F005F
:1001980096019701980199019A019B0108000800AE
:1001A800083022009F0090309D0024309E0040308F
:1001B8009B0003309C000030F001F101F0208031F9
:1001C8000030F001F101F12080310030F001F1013F
:1001D800FD202000EE010800080008002E000C1089
:1001E8000B145730F0000530F100FE202E001614D5
:1001F8000800080071082100DE007008DD00080012
:10020800DE005B08E0005A08DF005F088400600831
:10021800850012000319F22A5F30CA005C08CB007F
:100228005E08D7004A0886008701403FCC00413F5E
:10023800CD004C0884004D0885001200253A031DA6
:10024800DE2A2729DE2A4A0886000130870181072D
:1002580041310318810AE801E901FF30EA00EB00A7
:100268004A0886008701403FD800413FD900580816
:100278008400590885001200643A03194F2945295A
:100288004F2958088400590885001200693A031D4F
:10029800D42A4F29D42A4B088600870101088400F4
:1002A800023085018107003FCC00013FCD004C089A
:1002B800CF004D08D000890D893B8909D100D200B3
:1002C800D300D400D500D6005808013ECC00003039
:1002D800593DCD004A08860087014C08C03F4D08AB
:1002E800C13F4F08B0005008B1005108B200520891
:1002F800B3005308B4005408B5005508B6005608B2
:10030800B7005708BE003008BF003108C0003208E7
:10031800C1003308C2003408C3003508C4003608D9
:10032800C5003708C6003F30860000308700473FC9
:10033800FD00FD1BA029A2290130A32900302000BF
:10034800C90049080319C729AA29C729BF09C0092B
:10035800C109C209C309C409C509C609BF0FC7290C
:10036800C00A031DC729C10A031DC729C20A031DE4
:10037800C729C30A031DC729C40A031DC729C50AFB
:10038800031DC729C60A20006B08803AFD0080308B
:100398007D02031DD12901306A020318DA29D52903
:1003A800DA292000BA01BA0ABB01DF2920006B084C
:1003B800BB006A08BA006908BD006808BC004908A3
:1003C8000319FA29E829FA29FF30BC07031CBD03E1
:1003D8004908031DF529F129F5292B30B800B90181
:1003E800F8292D30B800B9013808C9001F30C700F6
:1003F800C8012100DC01632AFF302000C707031C65
:10040800C8030A30A000A101A201A301A401A5010B
:10041800A601A7013F08A8004008A9004108AA00B2
:100428004208AB004308AC004408AD004508AE00E4
:100438004608AF0028232108F4002008F30085317E
:10044800072580317308303EFD0020004708BD3E77
:10045800860087017D088100FF30BA07031CBB03B3
:10046800BC07031CBD030A30A000A101A201A3011F
:10047800A401A501A601A7013F08A8004008A900FA
:100488004108AA004208AB004308AC004408AD008C
:100498004508AE004608AF008431062480312008A4
:1004A800BF002108C0002208C1002308C200240898
:1004B800C3002508C4002608C5002708C600200078
:1004C8004808803AFD0080307D02031D6D2A013006
:1004D8004702031C8B2A712A8B2A20003F084004FC
:1004E800410442044304440445044604031D002A0D
:1004F8007E2A002A3B08803AFD0080307D02031DD9
:10050800872A01303A020318002A8B2A002A200081
:10051800490803199B2A912A9B2AFF30C707031C05
:10052800C8034708BD3E860087014908810047087F
:10053800BD3EA4003D08A6003C08A5003E08AB004F
:10054800A61BAD2AA82AAD2A2608AA002508A900B4
:10055800AF2AA901AA01A701A801BE2A2030F200EA
:10056800F30120002B08F400F52280312000A70AAF
:100578000319A80A2808803AFC002A08803A7C0255
:10058800031DC82A29082702031CB22ACC2AB22A2A
:1005980020002B08FA0024088431EE248031092930
:1005A80020004A088600013087018107413103187D
:1005B800810A09294A0886008701403FCC00413F4B
:1005C800CD004C0884004D0885000008F200F301B6
:1005D8005708F400F5228031D42A0929DA01DB0111
:1005E80008007408031D7408031DFC2A7208FB2BFD
:1005F8007408083E860087011600010403191E2BA3
:100608007408083E86008701403FF500413FF60028
:100618007408023E8600403FF700413FF800803AE8
:10062800F9007608803A7902031D1C2B75087702B9
:10063800031808007408023E86000130870181070C
:1006480041310318810A08002830F2018600003081
:100658008700473FF000F01F512B2000A809A90987
:10066800AA09AB09AC09AD09AE09AF09A80F4F2B10
:10067800A90A031D4F2BAA0A031D4F2BAB0A031D02
:100688004F2BAC0A031D4F2BAD0A031D4F2BAE0A8F
:10069800031D4F2BAF0AF201F20A2030860000300A
:1006A8008700473FF000F01F772B2000A009A10921
:1006B800A209A309A409A509A609A709A00F772BD0
:1006C800A10A031D772BA20A031D772BA30A031D7A
:1006D800772BA40A031D772BA50A031D772BA60ADF
:1006E800031D772BA70A20002008210422042304D5
:1006F80024042504260427040319C92BF101F10A4F
:10070800A71B8F2BA035A10DA20DA30DA40DA50D20
:10071800A60DA70D832B27082F02031DAD2B260836
:100728002E02031DAD2B25082D02031DAD2B240819
:100738002C02031DAD2B23082B02031DAD2B220811
:100748002A02031DAD2B21082902031DAD2B200809
:100758002802031CBF2B2008A8022108A93B220855
:10076800AA3B2308AB3B2408AC3B2508AD3B260835
:10077800AE3B2708AF3BA736A60CA50CA40CA30CD0
:10078800A20CA10CA00CF10B8F2B72080319E92BFA
:10079800A809A909AA09AB09AC09AD09AE09AF09AD
:1007A800A80FE92BA90A031DE92BAA0A031DE92BA7
:1007B800AB0A031DE92BAC0A031DE92BAD0A031D87
:1007C800E92BAE0A031DE92BAF0A20002808A00078
:1007D8002908A1002A08A2002B08A3002C08A400BD
:1007E8002D08A5002E08A6002F08A7000800F10074
:1007F8007108FE2BF0002E000F1EFF2B7008220040
:100808009A0008002030F201860000308700473F38
:10081800F000F01F2F2C2000A009A109A209A309AC
:10082800A409A509A609A709A00F2D2CA10A031D33
:100838002D2CA20A031D2D2CA30A031D2D2CA40A5E
:10084800031D2D2CA50A031D2D2CA60A031D2D2CD6
:10085800A70AF201F20A2830860000308700473FD5
:10086800F000F01F572C2000A809A909AA09AB0914
:10087800AC09AD09AE09AF09A80F552CA90A031D8B
:10088800552CAA0A031D552CAB0A031D552CAC0A7E
:10089800031D552CAD0A031D552CAE0A031D552CFE
:1008A800AF0A0130F2067330860000308700083046
:1008B800F00000301E00F00B5E2C20002008210400
:1008C8002204230424042504260427040319BC2C29
:1008D800F101F10AA71B792CA035A10DA20DA30DDA
:1008E800A40DA50DA60DA70D6D2CF335F40DF50D72
:1008F800F60DF70DF80DF90DFA0D27082F02031D57
:100908009F2C26082E02031D9F2C25082D02031D4F
:100918009F2C24082C02031D9F2C23082B02031D47
:100928009F2C22082A02031D9F2C21082902031D3F
:100938009F2C20082802031CB22C2008A80221089A
:10094800A93B2208AA3B2308AB3B2408AC3B25085B
:10095800AD3B2608AE3B2708AF3B7314A736A60C61
:10096800A50CA40CA30CA20CA10CA00CF10B792CC7
:1009780072080319DC2CF309F409F509F609F709DB
:10098800F809F909FA09F30FDC2CF40A031DDC2C29
:10099800F50A031DDC2CF60A031DDC2CF70A031DDF
:1009A800DC2CF80A031DDC2CF90A031DDC2CFA0ADE
:1009B80073082000A0007408A1007508A20076083A
:1009C800A3007708A4007808A5007908A6007A088B
:1009D800A7000800A300A101A20121082307FB002A
:1009E800860087010108A000200803190800F2000A
:1009F800F3017A08F4008231F52284312000A10A3B
:100A08000319A20AF12C7408803AF50080307502A7
:100A1800031D102D01307302031808007309F50037
:100A28007409F600F50A0319F60A7508F300760842
:100A3800F4000800633472346534643469347434FF
:100A48006F343A34203425346934203470346534B2
:100A58006A346F3473340A3400346434653470345F
:100A680061346334683461346E3464346F342034F0
:100A78006C346934743472346F3473340A34003427
:100A88000C10462D21005D085E04031908005E085D
:100A98008A005D080A008531080064008001013180
:080AA800890B522D00340800F7
:020000040001F9
:08000000FF3FFF3FFF3FFF3F00
:0A000E00EC3FFF3F9F3FFF3FFF3F25
:00000001FF
