:1000000080314E28053008007E1480310B1F0928EE
:100010000A284C282E001A1E0E280F284C28101EC5
:10002000122813284C288D31C62580317A03031DF0
:100030001A281B2821282100570820008D00013094
:100040008C0002307A06031D262827282D2821003F
:10005000560820008D0002308C0003307A06031D04
:10006000322833283A282100590820008D00043016
:100070008C00981704307A06031D3F284028482832
:10008000FA012100580820008D0008308C009813D8
:100090000130F2007208FA077E1009008031502802
:1000A000F801F901FA01A0308400003085002A30FF
:1000B0008C31B9248031203084000130850020301B
:1000C0008C31B92480317E1020008431992C20009D
:1000D000C7003A08CE003B08CF003C08D0003D08DE
:1000E000D1003E08D2003F08D3004008D4004108A8
:1000F000D5004E30860000308700473FC200C21B4B
:10010000822884280130852800302000C300C401E3
:100110004308CC004408CD004C084D040319912835
:100120009228B028CE09CF09D009D109D209D30924
:10013000D409D509CE0A031DB028CF0A031DB02863
:10014000D00A031DB028D10A031DB028D20A031D0E
:10015000B028D30A031DB028D40A031DB028D50A3D
:100160002100C21BB428B528B928FD30F805FF309E
:10017000F9054208803A2000C20080304202031D87
:10018000C4280130210041020318C728C828CE28FE
:1001900001302000C8000030C900D62821004208E4
:1001A0002000C900210041082000C80021004008AB
:1001B0002000CB0021003F082000CA004C084D045D
:1001C000031DE328E428E828781DE728E828EC2820
:1001D000FF30CA07FF30CB3D1F30D6000030D700BC
:1001E0002200BF015C29FF302000D607FF30D73D39
:1001F0000A30A000A101A201A301A401A501A6014A
:10020000A7014E08A8004F08A9005008AA005108ED
:10021000AB005208AC005308AD005408AE005508BE
:10022000AF008231D422803120002108F70020085D
:10023000F6008E31442680317608303E2000C20020
:100240005608203E86000130870042088100FF30BA
:10025000C807FF30C93DFF30CA07FF30CB3D0A3029
:10026000A000A101A201A301A401A501A601A7016B
:100270004E08A8004F08A9005008AA005108AB007A
:100280005208AC005308AD005408AE005508AF004A
:100290008131D021803120002008CE002108CF00FC
:1002A0002208D0002308D1002408D2002508D3005A
:1002B0002608D4002708D50020005708803AC2003D
:1002C00080304202031D662901305602031C692951
:1002D0006A29962920004E084F0450045104520404
:1002E000530454045504031D76297729F32849083B
:1002F000803AC20080304202031D8029013048024A
:10030000031883298429F32820004B08803AC2006F
:1003100080304202031D8E2901304A02031C9129BC
:1003200092299629F81895299629F32820004C0837
:100330004D04031D9C299D29A129781DA029A129CF
:10034000BD29FF30D607FF30D73D4C084D04031DB3
:10035000AA29AB29B0292B30C5000030C600B4292A
:100360002D30C5000030C6004508C2005608203EAA
:10037000860001308700420881005608203EC200F6
:100380004208AD004B08AF004A08AE00470885316F
:10039000E025803120002E08BB002D08BA0008009F
:1003A0002000B1012030860000308700473FF30075
:1003B000F31FDB29DC29FE292000A009A109A209DD
:1003C000A309A409A509A609A709A00A031DFB29D9
:1003D000A10A031DFB29A20A031DFB29A30A031D71
:1003E000FB29A40A031DFB29A50A031DFB29A60A54
:1003F000031DFB29A70A2000B101B10A283086009D
:1004000000308700473FF300F31F072A082A2C2AF1
:100410002000A809A909AA09AB09AC09AD09AE09D0
:10042000AF09A80A031D272AA90A031D272AAA0A19
:10043000031D272AAB0A031D272AAC0A031D272AFE
:10044000AD0A031D272AAE0A031D272AAF0A013071
:10045000F30073082000B1063230860000308700B8
:100460000830F30000301E00F30B332A2000200870
:100470002104220423042404250426042704031948
:10048000422A432A9F2AB001B00A522AA035A10D60
:10049000A20DA30DA40DA50DA60DA70D0130F3000F
:1004A0007308B007A71F552A562A462AB235B30D3E
:1004B000B40DB50DB60DB70DB80DB90D27082F0247
:1004C000031D7C2A26082E02031D7C2A25082D02E6
:1004D000031D7C2A24082C02031D7C2A23082B02DE
:1004E000031D7C2A22082A02031D7C2A21082902D6
:1004F000031D7C2A20082802031C7F2A802A912AB7
:100500002008A8022108A93B2208AA3B2308AB3BEC
:100510002408AC3B2508AD3B2608AE3B2708AF3B83
:100520003214A736A60CA50CA40CA30CA20CA10C8B
:10053000A00C0130B002031D9E2A9F2A562A3108C2
:100540000319A32AA42AC22AB209B309B409B50916
:10055000B609B709B809B909B20A031DC22AB30A14
:10056000031DC22AB40A031DC22AB50A031DC22AEA
:10057000B60A031DC22AB70A031DC22AB80A031D00
:10058000C22AB90A20003208A0003308A1003408AA
:10059000A2003508A3003608A4003708A5003808D3
:1005A000A6003908A7000800F501283086000030B1
:1005B0008700473FF300F31FDE2ADF2A002B2000CD
:1005C000A809A909AA09AB09AC09AD09AE09AF0987
:1005D000A80A031DFE2AA90A031DFE2AAA0A031D52
:1005E000FE2AAB0A031DFE2AAC0A031DFE2AAD0A31
:1005F000031DFE2AAE0A031DFE2AAF0AF501F50A05
:100600002030860000308700473FF300F31F092B9E
:100610000A2B292B2000A009A109A209A309A409DA
:10062000A509A609A709A00A031D292BA10A031DD4
:10063000292BA20A031D292BA30A031D292BA40A77
:10064000031D292BA50A031D292BA60A031D292BEF
:10065000A70A2000200821042204230424042504DE
:10066000260427040319352B362B892BF401F40AB1
:10067000452BA035A10DA20DA30DA40DA50DA60D12
:10068000A70D0130F3007308F407A71F482B492B6F
:10069000392B27082F02031D672B26082E02031D66
:1006A000672B25082D02031D672B24082C02031D30
:1006B000672B23082B02031D672B22082A02031D28
:1006C000672B21082902031D672B20082802031C21
:1006D0006A2B6B2B7B2B2008A8022108A93B220840
:1006E000AA3B2308AB3B2408AC3B2508AD3B2608BE
:1006F000AE3B2708AF3BA736A60CA50CA40CA30C59
:10070000A20CA10CA00C0130F402031D882B892B34
:10071000492B750803198D2B8E2BAC2BA809A90921
:10072000AA09AB09AC09AD09AE09AF09A80A031DB6
:10073000AC2BA90A031DAC2BAA0A031DAC2BAB0AD8
:10074000031DAC2BAC0A031DAC2BAD0A031DAC2B57
:10075000AE0A031DAC2BAF0A20002808A000290810
:10076000A1002A08A2002B08A3002C08A4002D0831
:10077000A5002E08A6002F08A70008002000E7000B
:10078000580886008701403FDA00413FDB005A08E5
:1007900084005B0885001200253A031DD02BD12B65
:1007A000752C5808860087010130810741310318F4
:1007B000810A2100BF01C001F801F901FF30C10029
:1007C000FF30C2002000580886008701403FDA0051
:1007D000413FDB005A0884005B0885001200643A40
:1007E0000319F32BF42B052C580886008701403F92
:1007F000DA00413FDB005A0884005B0885001200E4
:10080000693A031D042C052C402C580886008701EA
:100810000130810741310318810A59088600870198
:1008200001088400850102308107003FDA00013FA2
:10083000DB005A08DF005B08E000890D893B89096D
:10084000E100E200E300E400E500E6005F08BA0032
:100850006008BB006108BC006208BD006308BE0000
:100860006408BF006508C0006608C10067088031E1
:100870006720833120003B08D9003A08D800982C23
:10088000580886008701403FDA00413FDB005A08E4
:1008900084005B0885001200253A031D502C512C62
:1008A0006A2C5808860087010130810741310318FE
:1008B000810A2530F5000030F6006708DA005A0892
:1008C000F70087312027833101302000D800003025
:1008D000D900982C580886008701013081074131E2
:1008E0000318810AD801D901982C5808860087017D
:1008F000403FDA00413FDB005A0884005B08850076
:100900000008DC00DD015C08F5005D08F600670802
:10091000DE005E08F7008731202783312000580869
:10092000860087010130810741310318810A642C58
:1009300008008D319E2584318B170B1720009813EA
:100940008631D62684310A302000A4000030A5006C
:1009500021005408E700E80167082000A6002100F4
:1009600068082000A700863136268431200024083C
:100970002100E9006908D7000A302000A4000030F7
:10098000A5000A30F3000030F40021005408E7000D
:10099000E8016708F5006808F600853129258431EB
:1009A00074082000A7007308A6008631362684311B
:1009B000200024082100E9006908D6000A30200040
:1009C000A4000030A50021005508E700E8016708F1
:1009D0002000A600210068082000A70086313626E6
:1009E0008431200024082100E9006908D9000A3078
:1009F0002000A4000030A5000A30F3000030F4000D
:100A000021005508E700E8016708F5006808F600CE
:100A100085312925843174082000A7007308A600B9
:100A2000863136268431200024082100E900690837
:100A3000D800CB302100E800EC30E7008430890B8F
:100A40001F2DE70B1F2DE80B1F2D0000A02C803160
:100A50004E282000A101F41F2E2D2F2D362DF30935
:100A6000F409F30A0319F40AA101A10AF61F392DAA
:100A70003A2D432DF509F609F50A0319F60A013056
:100A8000F7007708A106A201A301730874040319F3
:100A90004A2D4B2D7A2DA001A00A572D0130F33598
:100AA000F40D890B4F2D0130F7007708A007F41FD4
:100AB0005A2D5B2D4E2D0130A235A30D890B5C2DD7
:100AC00074087602031D662D73087502031C692DD8
:100AD0006A2D6F2D7308F5027408F63B221401305D
:100AE000F436F30C890B702D0130A002031D792D13
:100AF0007A2D5B2D210803197E2D7F2D842DA209CF
:100B0000A309A20A0319A30A2308F4002208F30088
:100B100008008C318F248531003A0319902D912DD6
:100B2000C32D9E2D8C3162248531DF2D8C316724BD
:100B30008531DF2D8C3171248531DF2D21002F0887
:100B40002000A5002508A4000630A03E86008701ED
:100B5000413F8A00403F0A0085312000A600A701DE
:100B60002708003A0319B52D9A2D2608013A0319D2
:100B70009A2D033A0319922D013A0319962D073A3B
:100B800003199A2D9A2D21003C101730A03E8600A3
:100B90008701403F84008501810A00088C31582478
:100BA000853101302100B8020030B93B38083904E2
:100BB000031DDB2DDC2DDE2D0630DF2D033008007C
:100BC0002000B500781CE52DE62DEE2D3508B0008F
:100BD0003008A5002D088F310E2785312000AF1B6E
:100BE000F22DF32DF82D2F08B4002E08B300FA2DA6
:100BF000B301B401B101B2010E2E2030F500003076
:100C0000F60020003508B0003008F70087312027B3
:100C1000853101302000B1070030B23D3208803A02
:100C2000B0003408803A3002031D182E3308310218
:100C3000031C1B2E1C2EFD2D78181F2E202E292E56
:100C400020003508B0003008A5002D088F310E2790
:100C5000853120002D088E310E2685312000330885
:100C60007307AD003408743DAE0008002000AA01EF
:100C7000A71F3B2E3C2E432EA609A709A60A03193F
:100C8000A70AAA01AA0AA51F462E472E4C2EA40980
:100C9000A509A40A0319A50A240825040319512E3D
:100CA000522E7B2EA901A90A5E2E0130A435A50D76
:100CB000890B562E0130A8002808A907A51F612E10
:100CC000622E552E25082702031D682E24082602B1
:100CD000031C6B2E6C2E702E2408A6022508A73B41
:100CE0000130A536A40C890B712E0130A902031D19
:100CF0007A2E7B2E622E2A0803197F2E802E852EB7
:100D0000A609A709A60A0319A70A2708A500260805
:100D1000A40008008C314A2486312000A50021005F
:100D20003708860087012000250881000130A500D2
:100D300025082100B7070130B8020030B93B380858
:100D400039040319A42EA52EAA2E8C3154248631E1
:100D50000530D52EBC15B42E8C3180248631D52E8D
:100D60008C317B248631D52E2C082000A500250847
:100D7000A400210021088A0020080A0086312000F2
:100D8000A600A7012708003A0319C72EB02E26088F
:100D9000013A0319B02E033A0319AC2E013A031994
:100DA000AC2E073A0319B02EB02E08002000AE0179
:100DB000383087319A2786312100E2006208D50059
:100DC0000230E20062082000AE00383087319A27F6
:100DD00086312100E3006308E600E60EE60CE60C2F
:100DE0000330E6051930E2006208F30066088D3131
:100DF000B12586312100E3006308D4000030DA0019
:100E00009030DB005508E200E3016208DC00630873
:100E1000DD006608E400E5016408F3006508F400FD
:100E20001930F5000030F6008E31802686317408C6
:100E30002100DF007308DE008D31DD2586310800DA
:100E400077080319242F252F2A2F7708031D292F10
:100E50002A2F2F2F75088C319B2487315F2F77081D
:100E6000033E86008701160001040319382F392F2D
:100E7000572F7708033E86008701403F2000A000DF
:100E8000413FA100770A86008701403FA200413F11
:100E9000A3002308803AA4002108803A2402031DFD
:100EA000532F200822020318562F572F5F2F770A3F
:100EB000860087010130810741310318810A08004B
:100EC000F400F501F50A21003C19672F682F982FCF
:100ED0007408F3007308B600BC103C153C100E30CB
:100EE000F3007308BA00F430B4000130B500BC154B
:100EF0003330A0000C30A100AC013330A2000C3024
:100F0000A300AD013330A4000C30A500AE01333096
:100F1000A6000C30A700AF010230A8000030A900E5
:100F2000B0018C31352487318D3108258731F501A9
:100F3000750808002000B000B1012000300887319A
:100F400060278731003A0319A62FA72F9D2F653000
:100F50002000A0000D30A1003130AF002F08A2000A
:100F60008D31152587310130F3000030F4002E302B
:100F70008D313125873100302000A000A100A20171
:100F80008D31232587318C318A2487318E31282673
:100F90008731013A0319CD2FCE2FC62F20003108FB
:100FA00008008C313524873121003C1CD82FD92FE3
:100FB000E72F8C318F248731003A0319E02FE12F7E
:100FC000E72F0F302000A80028082100BA002100D8
:100FD0003A082000A800A901A835A90D2330280748
:100FE00084009030293D8500013F8A00003F0A00BF
:100FF00087312000AA002A082100BA000800080052
:10186600013008002E000F10080023009012080017
:101876002E001910080023001114080023009114EB
:101886000800230011150800230091150800230005
:101896000C0808002E000F140800230091161116DC
:1018A60008002300911211160800F30073082300A4
:1018B6008C0008002100BC10BB010E3008008C31E2
:1018C60041248C31013008008C3141248C310230A6
:1018D60008008C3141248C31013008008C314424BD
:1018E6008C31003008008C3154248C3105300800CE
:1018F6008C3150248C310A3008008C3150248C31C4
:10190600093008002100BC10BB010E300800003071
:101916008E31A2268C3108002300110E890C890C09
:10192600013908002E000F1C992C9A2C952C0800C2
:10193600F40074088C31F1248C31080074082100FD
:10194600CF007308CE00080074082100D300730886
:10195600D200080074082100D1007308D0000800E6
:1019660074082100CB007308CA00080064008001D7
:101976000131890BBA2C003421003C108C314724EC
:101986008C310430080021003C1436358C31582443
:101996008C31033008002F009601970198019901B8
:1019A6009A019B01080021003C140314360D8C316A
:1019B60058248C310530080023008F010830900030
:1019C60091014F308D0090120800603031008D007B
:1019D6008F0191010630930092010800F3002E005A
:1019E6000F1EF62CF72CF22C730822009A00080022
:1019F600022D8C3195248C318731D1278C312100F1
:101A0600BC18062D072DFC2C08002300901A0C2D5F
:101A16000D2D142D8F010830900091014F308D004F
:101A26009016080020002108F4002008F300220880
:101A3600A3002308F50000308E31E8268D3108001A
:101A460020002108F4002008F3002208A300230840
:101A5600F50002308E31E8268D310800F6002100AF
:101A6600BC1D362D372D402D7608F5007508B700BC
:101A76007408B9007308B800BC11080024001A1DC8
:101A8600452D462D4D2D1A107108990070089800A5
:101A96001A14512D71089900700898000800023038
:101AA600F3000030F400200024088D3131258D31FB
:101AB60000302000A000A100A2018D3115258D3136
:101AC600043008000130F3000030F4002000240840
:101AD6008D3131258D3100302000A000A100A201FA
:101AE6008D3115258D31023008000230F3000030AB
:101AF600F400200024088D3131258D31003020007E
:101B0600A000A100A2018D3115258D3102300800FB
:101B16000130F3000030F400200024088D31312517
:101B26008D3100302000A000A100A2018D311525C5
:101B36008D31043008008C31CE248D318C31DF2478
:101B46008D318F31CA278D318C31E8248D318E311C
:101B560060268D318E31C5268D310800F600F501DF
:101B6600761CB62DB72DBB2D7308F4007408F50747
:101B76000310F30D0310F60C7608031DC32DC42DB8
:101B8600B32D750808002E00101221004D08F10033
:101B96004C08F0008D3141258D3121004A084B0457
:101BA6000319D62DD72DDC2D4B088A004A080A00CA
:101BB6008D310800DC302100E0006008E1005B08A0
:101BC6002000E90021005A082000E800E130210049
:101BD600E00060082000EA0000308F3167278D3171
:101BE60008002000240886008701403FF300413F9B
:101BF600F4002408023E8600870101088D31312554
:101C06008D3100302000A000A100A2018D311525E4
:101C16008D3102300800F7007708F5007508F600E8
:101C2600182E0130F5007508F70777088600013091
:101C360087000108031D202E212E142E7608770218
:101C4600F300F401F31BF4030800F401F40A210085
:101C5600BC182E2E2F2E422E3C11FF30F300730897
:101C6600B6008C3135248E318C313B248E318C314B
:101C760038248E3121003B08F3007308F400740801
:101C860008007708803A2000B00080303002031D3B
:101C96004E2E013076020318512E522E5F2E7609F3
:101CA6002000B0007709B100B00A0319B10A300864
:101CB600F6003108F7005F2E080024009B019C0106
:101CC60005309D00FE3099000C3098002E00101251
:101CD600240019082100CD00240018082100CC009A
:101CE6002E001A16FF30F3000730F4008C31B324AF
:101CF6008E31013024009A0008002000A001A101C5
:101D0600731C862E872E8C2E75082000A007760859
:101D1600A13D0130F535F60D890B8D2E0130F436D7
:101D2600F30C890B922E73087404031D9B2E9C2EB4
:101D3600832E20002108F4002008F300080020006C
:101D4600AC00AD01AD0A2100BC18AA2EAB2EC22EE6
:101D5600BC142000AD012C080319B22EB32EB72EE9
:101D66002100BA01BA0ABC2E0230AB002B082100B2
:101D7600BA008C313E248E318C31FB248E3120000A
:101D86002D080800083022009F0090309D00243066
:101D96009E0040309B0003309C000030F300003072
:101DA600F4008C31A7248E310030F3000030F400AB
:101DB6008C31AD248E310030F3000030F4008C31CC
:101DC600A1248E312100C9010800F70073087404AC
:101DD6000319EE2EEF2E002F7735A03E86008701E1
:101DE6007308C03F7408C13F7508F6007708AC3E1B
:101DF60086008701760881000D2F7735A03E860084
:101E060087013330C03F0C30C13F7708AC3E8600B7
:101E16008701810108002000AC00AA01AB01262F32
:101E26002908A600A7012608F5002708F6002508B8
:101E3600A8002808F700873120278F3101302000BD
:101E4600AA070030AB3D2A082C07A6002608860004
:101E5600013087000108A7002708A9002908031DEB
:101E6600352F362F132F080021003C10023020009A
:101E7600A50025082100BB00482F8C316C248F312A
:101E8600662F8C3171248F31662F2E082000A50015
:101E96002508A4000430A03E86008701413F8A0041
:101EA600403F0A008F312000A600A7012708003A0C
:101EB60003195E2F442F2608023A0319402F013AD0
:101EC6000319402F442F08002000ED006908EF0099
:101ED6006808EE002100BD01BE01852F6E30EB00C3
:101EE6006B08D8006A08EC006C08D9006D088331CD
:101EF600BE238F31200058082100BD072000590855
:101F06002100BE3D20006E0884006F088500120087
:101F1600031D8E2F8F2F712F21003E082000E90010
:101F260021003D082000E80008002100BC15A82F6C
:101F36008C316C248F31C92F8C314D248F31033075
:101F4600C92F8C3171248F31C92F2C082000A50090
:101F56002508A400210021088A0020080A008F31E4
:101F66002000A600A7012708003A0319BB2FA42FBB
:101F76002608013A0319A42F033A03199B2F013AA5
:101F860003199B2F073A03199F2FA42F080020003F
:101F9600960197019801F0309100F03092007E3062
:101FA600930064303E00CE00F030C300D030B8005D
:101FB600E501C401B901CF01BA01C501D001FF3065
:101FC600BB00FF30C600FF30D100FF30BC00FF3041
:101FD600C700FF30D2000830E8001030A0001130F2
:101FE6003D00CB001430C50015303E00A300143070
:101FF600A40013303D00C6000800533465346E3427
:1020060073346F3472342034643465342034743459
:1020160065346D34703465347234613474347534B7
:102026007234613420344D34433443340A3420341A
:10203600253464342E34253464340A340A340034A6
:102046005D340C34D6340C34C6340C34893405343F
:102056008A340634BF340C3498340F3462340C346A
:1020660067340C346C340C3471340C3476340C34E0
:102076007B340C3480340C3485340C3437340F34D0
:020000040001F9
:0A000E00EC3FFF3F9F3FFF3FFF3F25
:00000001FF
