:04000000FEEFFFF020
:1037000000000000000000000000000000000000B9
:1037100000000000000000000000000000000000A9
:103720000000000000000000000000000000000099
:0F37300000000000000000000000280C0106004F
:10374000000E0301F96F000EFA6F000ED86F000E25
:10375000FB6F000ED96F000EDA6F000EDB6F000EEC
:10376000DC6F000EDF6F000EE06F000EE36F000EE7
:10377000E46F000EE56F000EE66F000EE76F000EBF
:10378000EA6F000EEB6F050EEC6F000EEE6F000E91
:10379000EF6F000EF06F000EF16F000EF26F000E73
:1037A000F36F000EF46F100EF56F000EF66F000E43
:1037B000F76F000EF86F000EFC6FAF94AF96B090ED
:1037C000000E4F6E000E506E000E516E74EC1DF028
:1037D000000E4F6E000E506E000E516E66EC1DF026
:1037E000000E4F6E000E506E000E516E6DEC1DF00F
:1037F000840E0301F36F1200000EC26E000EC16E44
:10380000000EBE6E000EC36E000EBF6E000EC06EC8
:10381000070ECA6EF60ECB6EC668F90EC76EC86884
:10382000C968040118691069E90E086F070E206F56
:10383000FC0E286FF70E006F000E196F000E296F37
:10384000000E216F000E096F000E016F000E116F48
:10385000000E226F000E2A6F000E026F060E0A6F16
:10386000180E126F000E1A6F03690B6913691B693A
:10387000070E236F2B6904690C6914691C690F0E0C
:10388000246F2C690C0E0201696F0A0E706F370EDF
:103890000A6F380E0B6F200E296F290E726F090EFA
:1038A000716F1200B2A057EF1CF059EF1CF052EFED
:1038B0001CF0000E386E0201B2A761EF1CF063EF3E
:1038C0001CF071EF1CF0388202D871EF1CF005007B
:1038D000FA6E4850FD6E4950FE6E4A50FF6EFA5027
:1038E00012000201B2A377EF1CF079EF1CF087EF12
:1038F0001CF0388402D887EF1CF00500FA6E4550A2
:10390000FD6E4650FE6E4750FF6EFA501200385062
:10391000D8B48DEF1CF08FEF1CF09CEF1CF002D898
:103920009CEF1CF00500FA6E4250FD6E4350FE6E97
:103930004450FF6EFA5012000201A1511200000E15
:103940000201A56F000EA66F000EA76F000EA86FF4
:10395000000EA96F000EAA6FB00EAB6F800EAC6F99
:10396000000EAD6F030EAE6F010EAF6F000EB06FA5
:10397000000EB16F000EB26F000EB36F020E4F6EED
:103980003B0E506E000E516E58EC1DF0000E4F6E47
:103990003B0E506E000E516E51EC1DF0040E4F6E3A
:1039A0003B0E506E000E516E5FEC1DF0000E386E37
:1039B0001200FC0EF66E3A0EF76E000EF86E01EE77
:1039C0004BF110EE04F00900F5C4EEF4E550E150BF
:1039D000FAE101EE60F13C0EEE6AE806FDE101EE6F
:1039E00001F1380EEE6AE806FDE10001F8EF1CF087
:1039F00038EC1DF07BEC1DF0526E4E0E5218D8A420
:103A000004EF1DF006EF1DF009EF1DF0C386FAEF7D
:103A10001CF0C396FAEF1CF0FEEFFFF0040E02015B
:103A2000946F800E956F180E966F030E9E6F000EAA
:103A30009A6F000E9B6F000E976F000E8C6F000E3A
:103A40008D6F000E9D6F1200000E0001606F000E62
:103A5000616F000E626F000E636F000E646F000EE8
:103A6000656F000E666F000E676F000E686F1200C4
:103A700024EC1DF00EEC1DF0FCEC1BF0A0EC1BF098
:103A800045EC1DF09FEC1CF01200700E0001AD6FB4
:103A9000000EAF6F000EB36F020EB16F000EB06F6D
:103AA00012004FC545F550C546F551C547F5120002
:103AB0004FC548F550C549F551C54AF512004FC5E7
:103AC00042F550C543F551C544F512004FC53CF5CC
:103AD00050C53DF551C53EF512004FC539F550C5ED
:103AE0003AF551C53BF512004FC53FF550C540F5BD
:103AF00051C541F5120052EC1CF012006740533AD8
:063B000012001200120089
:020000040001F9
:04FFFC00D9EF1CF02D
:020000040020DA
:10000000FF0FFF0FFF0FFF0FFF0FFF0FFF0FFF0F80
:10001000FF0FFF0FFF0FFF0FFF0FFF0FFF0FFF0F70
:10002000FF0FFF0FFF0FFF0FFF0FFF0FFF0FFF0F60
:10003000FF0FFF0FFF0FFF0FFF0FFF0FFF0FFF0F50
:020000040030CA
:10000000FAEFF7FF9FFFFFFFFFFFFFFFFFFFFFFF7D
:10001000FFFFFFFFFFFFFFFFFFFFFFFFFFFFFFFFF0
:04002000FFFFFFFFE0
:00000001FF
