:08000000803102288731ED2F49
:10000A007008BF3EF200FF30713DF300003073020A
:10001A001A3003197202031C1328152801301628F6
:10002A000030F400F5017408F0007508F1000800CA
:10003A00003020003A05C20000303B05C300803082
:10004A003C05C4007F303D05C5004508440443040F
:10005A004204031D312832283A280030BD000030FE
:10006A00BC000030BB000030BA0000303E05C200C0
:10007A0000303F05C30080304005C4007F30410591
:10008A00C5004508440443044204031D4D284E2874
:10009A0056280030C1000030C0000030BF000030D8
:1000AA00BE00BD1F59285A2872280030C2000030ED
:1000BA00C3000030C4008030C5003A08C2023B08C1
:1000CA00C33B3C08C43B3D08C53B4508BD0044084A
:1000DA00BC004308BB004208BA00C11F7528762835
:1000EA008E280030C2000030C3000030C4008030C7
:1000FA00C5003E08C2023F08C33B4008C43B410852
:10010A00C53B4508C1004408C0004308BF00420877
:10011A00BE008030BD068030C10641083D02031D85
:10012A00A02840083C02031DA0283F083B02031DEB
:10013A00A0283E083A020318A328A428A6280310D8
:10014A00A728031408002100BC00BA01BB01200043
:10015A0049082100D000200048082100CF002000D3
:10016A0047082100CE00200046082100CD00500893
:10017A002000BD0021004F082000BC0021004E08CD
:10018A002000BB0021004D082000BA000030C10049
:10019A000030C0000030BF000030BE0080311D209A
:1001AA0080310318D928DA28F32801302100BA004F
:1001BA000030BB005008F3004F08F2004E08F1006F
:1001CA004D08F0009B31F423803173082100D000E0
:1001DA007208CF007108CE007008CD002100D3014B
:1001EA00D401220059082100C00022005808210029
:1001FA00BF003A083B04031D0329042909292200E8
:10020A005C1D08290929282921003A083B04031DF5
:10021A000F29102915292B30A0000030A100192917
:10022A002D30A0000030A10020082000CB004B0890
:10023A002300A00001302100D3070030D43DFF3055
:10024A00BF07FF30C03D21005008F3004F08F200FD
:10025A004E08F1004D08F0009031DB208031700328
:10026A007104031D39293A298C2920004A08BF3E06
:10027A00CB00FF3003180030CC0000304C021A309B
:10028A0003194B02031C4A294C2901304D2900301D
:10029A00CD00CE014D082100A20020004E08210009
:1002AA00A3002208230403195B295C2966293C3030
:1002BA00F0009830F1005308A03E9C31D4248031DC
:1002CA006F294430F0009830F1005308A03E9C3169
:1002DA00D4248031FD302100BF07FF30C03DA0305B
:1002EA002000CB004B08A700210040082000A900ED
:1002FA0021003F082000A80021003C089F314D271B
:10030A00803120002808C7002708C600EC2F2100EA
:10031A005008F3004F08F2004E08F1004D08F000B3
:10032A009031DB20803170087104031D9D299E29BC
:10033A00F02920004A08BF3ECB00FF3003180030E6
:10034A00CC0000304C021A3003194B02031CAE29B0
:10035A00B0290130B1290030CD00CE014D0821006D
:10036A00A40020004E082100A50024082504031932
:10037A00BF29C029CA294030F0009830F10053083B
:10038A00A03E9C31D4248031D3294830F0009830E3
:10039A00F1005308A03E9C31D4248031FD30210065
:1003AA00BF07FF30C03DA0302000CB004B08A7009C
:1003BA00210040082000A90021003F082000A800D1
:1003CA0021003C089F314D27803120002808C700B2
:1003DA002708C600EC2F3F302100D8008030D70014
:1003EA000030D6000030D500D101D2015008F30008
:1003FA004F08F2004E08F1004D08F0000030F700F7
:10040A000030F6000030F5000030F4009E3104267A
:10041A0080310318112A122AC72A432A41302000A0
:10042A00A3002030A2000030A1000030A00021006B
:10043A0058082000A700210057082000A600210024
:10044A0056082000A500210055082000A4008D317F
:10045A00A9258031200023082100D8002000220885
:10046A002100D700200021082100D6002000200802
:10047A002100D5000130D1070030D23D21005008BB
:10048A002000BD0021004F082000BC0021004E08BA
:10049A002000BB0021004D082000BA004130A30013
:1004AA002030A2000030A1000030A000210058082E
:1004BA002000A700210057082000A60021005608A6
:1004CA002000A500210055082000A4008D31A9258F
:1004DA00803120002308C1002208C0002108BF0083
:1004EA002008BE0080311D20803103187D2A7E2A13
:1004FA00132AA02A4130F3002030F2000030F10024
:10050A000030F00021005808F7005708F600560896
:10051A00F5005508F40096314C2680317308210005
:10052A00D8007208D7007108D6007008D500FF30CD
:10053A00D107FF30D23D210050082000BD00210024
:10054A004F082000BC0021004E082000BB002100FB
:10055A004D082000BA00210058082000C1002100DF
:10056A0057082000C000210056082000BF002100C3
:10057A0055082000BE0080311D208031031CC62A88
:10058A00C72A7F2A20004A08CB00CC014B08F60074
:10059A004C08F7009D311825803176082000CD00DF
:1005AA004D082100C20042082000CB004B08210060
:1005BA00C10067304206031DE32AE42A0D2B2200FC
:1005CA005A085B04031DEA2AEB2AEF2A0130DA00F3
:1005DA000030DB005B08803A2000CB0080304B0201
:1005EA00031DFA2A013022005A020318FD2AFE2AA4
:1005FA00042B06302100BD000030BE00132B220060
:10060A005B082100BE0022005A082100BD00132BFE
:10061A002200DB1B112B122BFE2A042B6730420609
:10062A00031D182B192B512B5208803A2000CB009E
:10063A007F304B02031D242BFC3021005102031C86
:10064A00272B282B4B2B21003D08FF3E2000CB00F7
:10065A00FF3021003E3D2000CC004C08803ACD00FE
:10066A0021005208803A20004D02031D402B210030
:10067A00510820004B02031C432B442B4B2B6630A2
:10068A002000CB004B082100C100512B653020000F
:10069A00CB004B082100C1003E08B3003D08B20060
:1006AA0067304206031D5A2B5B2B652B66304106C9
:1006BA00031D602B612B692BD21F642B652B692BC1
:1006CA000130B2070030B33D66304106031D6E2B80
:1006DA006F2B872BD21F722B732B7D2B3F30D800A9
:1006EA008030D7000030D6000030D500D101D201C9
:1006FA00673042060319822B832B872B5108B207D6
:10070A005208B33DCB01CC015008C6004F08C500C2
:10071A004E08C4004D08C3005808B7005708B60071
:10072A005608B5005508B400482C21005808F300B3
:10073A005708F2005608F1005508F0004608F7007D
:10074A004508F6004408F5004308F40096314C26A3
:10075A00803173082000B0007208AF007108AE0043
:10076A007008AD009231F02280312000300821005B
:10077A00CA0020002F082100C90020002E082100ED
:10078A00C80020002D082100C7004A08F3004908C4
:10079A00F2004808F1004708F000903167208031E4
:1007AA0071082100B9007008B8004A082000A700A3
:1007BA00210049082000A600210048082000A500C1
:1007CA00210047082000A400210058082000A300A7
:1007DA00210057082000A200210056082000A1008D
:1007EA00210055082000A0008D31A9258031200064
:1007FA002308BD002208BC002108BB002008BA005B
:10080A00210046082000C100210045082000C00040
:10081A00210044082000BF00210043082000BE0038
:10082A009C31B424803120003D082100C6002000FC
:10083A003C082100C50020003B082100C40020001C
:10084A003A082100C3004130F3002030F2000030A2
:10085A00F1000030F0005808F7005708F600560873
:10086A00F5005508F40096314C26803173082100B2
:10087A00D8007208D7007108D6007008D500013078
:10088A00CB070030CC3D4C08803A2000CB00210039
:10089A003308803A20004B02031D562C21003208EF
:1008AA004B02031C592C5A2C9A2B40302000A300CF
:1008BA00A030A2000030A1000030A000210058089A
:1008CA002000A700210057082000A6002100560892
:1008DA002000A500210055082000A4008D31A9257B
:1008EA008031200023082100CA00200022082100AC
:1008FA00C900200021082100C8002000200821008A
:10090A00C70046082000BD00210045082000BC00A1
:10091A00210044082000BB00210043082000BA003F
:10092A0021004A082000C100210049082000C00017
:10093A00210048082000BF00210047082000BE000F
:10094A0080311D2080310318AB2CAC2CB62C003022
:10095A002100CA000030C9000030C8000030C700BA
:10096A00DB2C21004608F3004508F2004408F10098
:10097A004308F0004A08F7004908F6004808F5005D
:10098A004708F4009E3104268031031CCD2CCE2C5E
:10099A00DB2C21003818D22CD32CDB2C0030CA00D7
:1009AA000030C9000030C8000030C70021004A08E2
:1009BA00F3004908F2004808F1004708F00050081F
:1009CA00F7004F08F6004E08F5004D08F4008B3189
:1009DA006A23803173082100C6007208C5007108B5
:1009EA00C4007008C30046082000BD002100450865
:1009FA002000BC00210044082000BB00210043085D
:100A0A002000BA004130A3002030A2000030A1002B
:100A1A000030A000210037082000A7002100360876
:100A2A002000A600210035082000A5002100340876
:100A3A002000A4008D31A925803120002308C1009F
:100A4A002208C0002108BF002008BE0080311D20F6
:100A5A008031031C312D322D6D2D01302100D1073B
:100A6A000030D23D41302000A3002030A2000030E7
:100A7A00A1000030A000210037082000A7002100B3
:100A8A0036082000A600210035082000A500210014
:100A9A0034082000A4008D31A925803120002308C4
:100AAA002100B700200022082100B60020002108FA
:100ABA002100B500200020082100B400663041065C
:100ACA00031D682D692D6D2D0130B2070030B33D2D
:100ADA0021003708D8003608D7003508D600340870
:100AEA00D5006530410603197B2D7C2D812D5208D6
:100AFA00B1005108B000832DB001B101AE01AF01C0
:100B0A00AC01AD01CB01CC01B12E21005808F30094
:100B1A005708F2005608F1005508F0004608F70099
:100B2A004508F6004408F5004308F40096314C26BF
:100B3A00803173082000B0007208AF007108AE005F
:100B4A007008AD009231F022803120003008210077
:100B5A00CA0020002F082100C90020002E08210009
:100B6A00C80020002D082100C7004A08F3004908E0
:100B7A00F2004808F1004708F00090316720803100
:100B8A0071082100B9007008B80022005C1ACE2D45
:100B9A00CF2DE52D210038083904031DD52DD62D7A
:100BAA00E52D67304206031DDB2DDC2DE52DB11F37
:100BBA00DF2DE02DE52D0130AC070030AD3D3F2E95
:100BCA0021002E082F04031DEB2DEC2D232EB11F1F
:100BDA00EF2DF02D232E2E302000CB0021005308BC
:100BEA00A03E86000130870020004B0881000130BA
:100BFA002100D3070030D43DFF30BF07FF30C03D8E
:100C0A000130AE000030AF00232E30302000CB0080
:100C1A0021005308A03E86000130870020004B08BF
:100C2A00810001302100D3070030D43DFF30BF07D7
:100C3A00FF30C03DFF30AC07FF30AD3D2C082D041E
:100C4A00031D282E292E0A2E3808303E2000CB00FC
:100C5A0021005308A03E86000130870020004B087F
:100C6A00810001302100D3070030D43DFF30BF0797
:100C7A00FF30C03D4A082000A70021004908200093
:100C8A00A600210048082000A500210047082000EE
:100C9A00A400210058082000A300210057082000C2
:100CAA00A200210056082000A100210055082000BA
:100CBA00A0008D31A925803120002308BD0022081B
:100CCA00BC002108BB002008BA0021004608200009
:100CDA00C100210045082000C0002100440820006E
:100CEA00BF00210043082000BE009C31B42480319B
:100CFA0020003D082100C60020003C082100C50054
:100D0A0020003B082100C40020003A082100C3004B
:100D1A004130F3002030F2000030F1000030F000E2
:100D2A005808F7005708F6005608F5005508F40069
:100D3A0096314C26803173082100D8007208D700FA
:100D4A007108D6007008D500FF30B007FF30B13DFA
:100D5A000130CB070030CC3D4C08803A2000CB0054
:100D6A0021003308803A20004B02031DBF2E2100C8
:100D7A0032084B020318C22EC32ED32E2100540868
:100D8A00803A2000CB0080304B02031DCF2E4B301F
:100D9A0021005302031CD22ED32E8A2D21002E08A5
:100DAA002F04031DD92EDA2EF02E22005C1EDE2E11
:100DBA00DF2EF02E2E302000CB0021005308A03E5B
:100DCA0086000130870020004B0881000130210095
:100DDA00D3070030D43D21005308A03E86000130DD
:100DEA008700810165304106031DFC2EFD2ED52F9B
:100DFA004F30CB000030CC004B08A03E86000130BB
:100E0A0087008101BA01BB01D21F0C2F0D2F162FAB
:100E1A000130BA000030BB00D109D209D10A031946
:100E2A00D20A0230BD000030BE00512FFF3021002F
:100E3A00CB07FF30CC3D0A30F0000030F1005208F9
:100E4A00F3005108F2009E31A22680317008303E2C
:100E5A002000CB0021004B08A03E8600013087000D
:100E6A0020004B0881000A30F0000030F100210018
:100E7A005208F3005108F2009031082080317108BD
:100E8A002100D2007008D100FF30BD07FF30BE3DFF
:100E9A00FF30BF07FF30C03D51085204031D562FD3
:100EAA00572F1B2F3E08803A2000CB0080304B0280
:100EBA00031D622F013021003D020318652F662FA2
:100ECA001B2FFF302100CB07FF30CC3D3A083B04F3
:100EDA00031D702F712F762F2B30A6000030A7002C
:100EEA007A2F2D30A6000030A70026082000CB005C
:100EFA0021004B08A03E86000130870020004B08E5
:100F0A008100FF302100BF07FF30C03DFF30CB0713
:100F1A00FF30CC3D20004A08BF3ECB00FF3003180B
:100F2A000030CC0000304C021A3003194B02031C6B
:100F3A009F2FA12F0130A22F0030CD00CE014D08E6
:100F4A002100AA0020004E082100AB002A082B0429
:100F5A00031DB02FB12FB62F6530A8000030A900AD
:100F6A00BA2F4530A8000030A90028082000CB007D
:100F7A0021004B08A03E86000130870020004B0864
:100F8A008100FF302100BF07FF30C03D4B08A03E63
:100F9A00F0000130F1005308A03E9C31D424803186
:100FAA00A0302000CB004B08A700210040082000F9
:100FBA00A90021003F082000A80021003C089F3119
:100FCA004D27803120002808C7002708C6000800DE
:100FDA004630840001308500183090310220873174
:100FEA00A0308400013085005030903102208731D2
:060FFA00200088311228DE
:10100400F1002E000F08F0000430F036890B072899
:10101400701C0D280E280328710822009A0008006D
:101024002200C3019C317B24883100302000A300BE
:101034000030A2002530A1008030A0009D31C625DB
:1010440088319C312D2488312000160808389600F8
:1010540015302200A1004B30A000BE30890B30288F
:10106400A00B3028A10B3028000020001608F73907
:10107400960015302200A1004B30A000BE30890B31
:101084004128A00B4128A10B412800002030210059
:10109400DC009830DD0022004308A000A1012008F4
:1010A4002100DE00220021082100DF0022309D31D2
:1010B4006625883101302200A0002008C3072230B1
:1010C4009B31FF23883104309C3115248831710809
:1010D4002200C5007008C4003B302000A300533038
:1010E400A2006830A1000D30A00022004408F000E6
:1010F4004508F100F201F301003091315A218831A1
:1011040073082000A7007208A6007108A5007008E3
:10111400A4008D31A9258831200023082200D500A0
:10112400200022082200D400200021082200D3003D
:10113400200020082200D2003C30F3002330F200CB
:10114400D730F1000A30F0005508F7005408F600D3
:101154005308F5005208F40096314C268831730880
:101164002200D1007208D0007108CF007008CE00B0
:1011740004302100DC009830DD0022004508210005
:10118400DF00220044082100DE002200550821006F
:10119400E300220054082100E20022005308210049
:1011A400E100220052082100E00022005108210041
:1011B400E700220050082100E60022004F08210029
:1011C400E50022004E082100E40022309D3166250E
:1011D400883122309B31FF23883108309C3115241B
:1011E400883171082200C5007008C4002F30210026
:1011F400DC009830DD00220045082100DF002200D9
:1012040044082100DE0022309D31662588312230D9
:101214009B31FF2388312E000F082200A0000530E7
:10122400A036890B1229201C1829192920299C3140
:10123400962488312200A0002008C20062304206B1
:10124400031D252926292B2920001608013896007C
:10125400262820001608FE39960026288031022808
:101264002000EA004F0886008701403FD100413F3B
:10127400D20051088400520885001200253A031D4B
:1012840044294529462B4F088600870101308107F0
:1012940041310318810A2200D801D901DC01DD01A2
:1012A400FF30DA00FF30DB0020004F0886008701A2
:1012B400403FD100413FD2005108840052088500CC
:1012C4000008D300D4015308F6005408F7009D31F8
:1012D4001825893176082000D5005508E6006608EF
:1012E400031975297629B5294F0886008701403FDF
:1012F400D100413FD2000130510784005208031845
:10130400520A85000008D300D4015308F60054089B
:10131400F7009D311825893176082000D50055083D
:10132400E7006708031997299829B5294F0886000B
:101334008701403FD100413FD20002305107840071
:1013440052080318520A85000008D300D401530838
:10135400F6005408F7009D311825893176082000DD
:10136400D5005508E8004F0886008701403FD100AA
:10137400413FD20051088400520885001200643AAB
:101384000319C529C629D7294F0886008701403F7C
:10139400D100413FD2005108840052088500120058
:1013A400693A031DD629D729122A4F0886008701D6
:1013B4000130810741310318810A500886008701F2
:1013C40001088400850102308107003FD100013FFC
:1013D400D2005108D7005208D800890D893B8909E9
:1013E400D900DA00DB00DC00DD00DE005708B000C5
:1013F4005808B1005908B2005A08B3005B08B40099
:101404005C08B5005D08B6005E08B7006A08943150
:10141400DC24893120003108D0003008CF00692B4A
:1014240066306606031D172A182A552A4F088600B7
:101434008701403FD100413FD20051088400520847
:1014440085000008D3005308E9004F08860087018F
:101454000130810741310318810A50088600870151
:1014640001088400850104308107003FE200013F48
:10147400E300023FE400033FE5006508C900640897
:10148400C8006308C7006208C6006908D100510893
:10149400CA006A088031A820893120004708D0009A
:1014A4004608CF00692B4C30F0009830F100023030
:1014B400F2000030F30066309E31F5268931700861
:1014C4007104031D662A672AE22A20004F08860059
:1014D4008701403FD100413FD200013051078400D1
:1014E40052080318520A85000008D3005308E90083
:1014F4004F0886008701403FD100413FD200510888
:101504008400520885000008BF3ED300FF30031852
:101514000030D400003054021A3003195302031C63
:10152400942A962A0130972A0030D500D60155080E
:10153400DF005608E0005F0860040319A22AA32A0A
:10154400B42A50088600870101088400850104300C
:101554008107003FE200013FE300023FE400033F54
:10156400E500C42A5008860087010108840085012B
:1015740004308107003FE200013FE300023FE40042
:10158400033FE5004F08860087010230810741319F
:101594000318810A6508C9006408C8006308C70005
:1015A4006208C6006908D1005108CA006A0880317F
:1015B400A820893120004708D0004608CF00692BB5
:1015C40020004F0886008701403FD100413FD200F0
:1015D400510884005208850012006E3A031DF32A54
:1015E400F42A132B4F08860087010130810741310B
:1015F4000318810A500886008701403F8400850152
:10160400810A0008D1005108E100610886008701C1
:1016140022005608C03F5708C13F2000CF01D00127
:10162400692B4F0886008701403FD100413FD2001B
:1016340051088400520885001200253A031D232B0B
:10164400242B3D2B4F08860087010130810741314F
:101654000318810A2530F3000030F4006A08D10031
:101664005108F5009E315226893101302000CF0007
:101674000030D000692B4F088600870101308107B4
:1016840041310318810A0F2B4F0886008701403F20
:10169400D100413FD200510884005208850000085F
:1016A400D300D4015308F3005408F4006A08D500A9
:1016B4005508F5009E315226893120004F088600D6
:1016C40087010130810741310318810A372B080053
:1016D400730880392000A0002008F8007335A000AA
:1016E4002008FA00F21F772B782B792B7A147A08CA
:1016F40003197D2B7E2B8E2B7A0A031D822B832BC1
:101704008B2B0030F3000030F2000030F100003089
:10171400F000F217F301962B0030F3000030F200D2
:101724000030F1000030F00077088039A000200874
:10173400F900790878060319A02BA12BA22B78179E
:101744007735A0002008F900F61FA92BAA2BAB2B94
:10175400791479080319AF2BB02BC02B790A031D18
:10176400B42BB52BBD2B0030F7000030F600003051
:10177400F5000030F400F617F701C82B0030F7002D
:101784000030F6000030F5000030F4007A087902E9
:101794000318CD2BCE2B122C781FD12BD22BD62B6A
:1017A4008030A0002008F8067A08A0002008FB007A
:1017B4007908A0002008FA007B08A0002008F9009E
:1017C4007008A0002008FB007408A0002008F000A6
:1017D4007B08A0002008F4007108A0002008FB008A
:1017E4007508A0002008F1007B08A0002008F5007F
:1017F4007208A0002008FB007608A0002008F20070
:101804007B08A0002008F6007308A0002008FB0055
:101814007708A0002008F3007B08A0002008F70048
:10182400FB017908A000A1012108A3007A08200285
:10183400A200031CA3032308803AA40080302402DE
:10184400031D262C1A302202031C292C2A2C642C5A
:101854007308720471047004031D312C332C01309D
:10186400342C00302000A0002008FB000030F300DE
:101874000030F2000030F1000030F0007908A000E0
:101884002008FA006A2C7B1C482C492C502C7B36EF
:1018940001382000A0002008FB00522C0310FB0C90
:1018A400701C552C562C572CFB1701302000A0001F
:1018B400F337F20CF10CF00CA00B5A2C0130A00001
:1018C4002008FA0779087A02031C692C6A2C452C33
:1018D400781B6D2C6E2CA82C7A08031D722C732C8B
:1018E4007C2C0030F3000030F2000030F1000030B6
:1018F400F000A82D7408F0077508F13D7608F23D54
:101904007708F33D731C872C882C352D7B1C8B2C7E
:101914008C2C932C7B3601382000A0002008FB007F
:10192400952C0310FB0C701C982C992C9A2CFB17EB
:1019340001302000A000F337F20CF10CF00CA00BE6
:101944009D2C0130A0002008FA07352D7308803A39
:101954002000A0007708803A2002031DBB2C7608E3
:101964007202031DBB2C75087102031DBB2C740885
:1019740070020318BE2CBF2CF72CFF30A000FF30E0
:10198400A100FF30A200FF30A30070087402A4007D
:101994007108753BA5007208763BA6007308773B77
:1019A400A7002408A0072508A13D2608A23D270872
:1019B400A33D2308F3002208F2002108F1002008C7
:1019C400F0008030A0002008F806FB09FB0A7B0821
:1019D400031DED2CEE2CFF2C0130F0070030F13DFF
:1019E4000030F23D0030F33DFF2C7408F00275081E
:1019F400F13B7608F23B7708F33B730872047104F9
:101A04007004031D062D072D312D7B08031D0B2D9E
:101A14000C2D312D0030F3000030F2000030F100C5
:101A24000030F000A82D0130F035F10DF20DF30D6A
:101A3400890B162DFB1F1F2D202D212D70147B1CAF
:101A4400242D252D282D0314FB0D2A2D0310FB0D09
:101A54007A0803192E2D2F2D312D0130FA02F21F91
:101A6400342D352D152DF901FB1F392D3A2D482D17
:101A74007B087F3903193F2D402D432DF901F90AC5
:101A8400482D701C462D472D482D402D79080319EB
:101A94004C2D4D2D7B2D0130F0070030F13D0030F1
:101AA400F23D0030F33D731C582D592D7B2D7008E9
:101AB4002000A0007108A1007208A2007308A3000E
:101AC4000130A400A337A20CA10CA00CA40B642D1C
:101AD4002308F3002208F2002108F1002008F00096
:101AE4007A0A0319762D772D7B2D0130A00020086A
:101AF400FA077A0A03197F2D802D852D7A08031D94
:101B0400842D852D932D0030F3000030F200003039
:101B1400F1000030F0007A08031D912D922D932DD1
:101B2400F8017A1C962D972D992DF2179E2D7F3052
:101B34002000A0002008F2057A362000A00020082A
:101B4400F300F81FA62DA72DA82DF31708002000D9
:101B540023088039A8002808AD002335A8002808E8
:101B6400B300A21FB62DB72DB82D331433080319B3
:101B7400BC2DBD2DCC2D330A031DC12DC22DCA2D64
:101B84000030A3000030A2000030A1000030A0000B
:101B9400A217D42D0030A3000030A2000030A10011
:101BA4000030A00027088039A8002808AD06273592
:101BB400A8002808B200A61FE02DE12DE22D321462
:101BC40032080319E62DE72DF62D320A031DEB2DFD
:101BD400EC2DF42D0030A7000030A6000030A50045
:101BE4000030A400A617FE2D0030A7000030A60088
:101BF4000030A5000030A40032080319022E032E81
:101C0400082E3308031D072E082E112E0030A300C2
:101C14000030A2000030A1000030A000FF2F2008F7
:101C2400A8002808F00026089C31F5248D3171089D
:101C34002000B9007008B8003808A800A901AA015A
:101C4400AB012B08B1002A08B0002908AF0028080E
:101C5400AE003908A800A901AA01AB012B08B700FE
:101C64002A08B6002908B5002808B4002108A800ED
:101C74002808F00025089C31F5248D3171082000D6
:101C8400B9007008B8003808A800A901AA01AB017E
:101C94002808AE072908AF3D2A08B03D2B08B13DFE
:101CA4003908A800A901AA01AB012808B40729082A
:101CB400B53D2A08B63D2B08B73D2208A8002808E0
:101CC400F00024089C31F5248D3171082000B900FE
:101CD4007008B8003808A800A901AA01AB012808B7
:101CE400AE072908AF3D2A08B03D2B08B13D39089D
:101CF400A800A901AA01AB012808B4072908B53D29
:101D04002A08B63D2B08B73D0830AE35AF0DB00DEF
:101D1400B10D890B872E2108A8002808F00024089B
:101D24009C31F5248D3171082000B9007008B80089
:101D34003808AE073908AF3D0030B03DB13D20084A
:101D4400A8002808F00025089C31F5248D3171087D
:101D54002000B9007008B8003808AE073908AF3D54
:101D64000030B03DB13D0830AE35AF0DB00DB10D12
:101D7400890BB62E2008A8002808F00024089C31FE
:101D8400F5248D3171082000B9007008B8003808B6
:101D9400AE073908AF3D0030B03DB13D2108A80081
:101DA4002808F00026089C31F5248D3171082000A4
:101DB400B9007008B8003808B4073908B53D0030D8
:101DC400B63DB73D2208A8002808F00025089C313C
:101DD400F5248D3171082000B9007008B800380866
:101DE400B4073908B53D0030B63DB73D2208A80018
:101DF4002808F00026089C31F5248D317108200054
:101E0400B9007008B8003808A8003908A900AA0168
:101E1400AB010830A835A90DAA0DAB0D890B0C2F09
:101E24002808B4072908B53D2A08B63D2B08B73D54
:101E34002E08A8002F08A9003008AA003108AB001A
:101E44001830AB36AA0CA90CA80C890B232F280830
:101E5400B4072908B53D2A08B63D2B08B73D08301C
:101E6400AE35AF0DB00DB10D890B322F33083207EB
:101E7400A800A901A90D2808823EB800FF30293D19
:101E8400B9005B2F0130B435B50DB60DB70D890B14
:101E9400452FB11F4E2F4F2F502F34140130AE3524
:101EA400AF0DB00DB10D890B512FFF30B807FF30C6
:101EB400B93DB61F5E2F5F2F442FB201B11F632FB0
:101EC400642F802FFF302E05A800FF302F05A900B6
:101ED400FF303005AA007F303105AB002B082A04FF
:101EE400290428040319772F782F7B2FB201B20A13
:101EF400802F341C7E2F7F2F802F782F32080319D8
:101F0400842F852FAD2F0130B4070030B53D00304C
:101F1400B63D0030B73D371C902F912FAD2F3408BC
:101F2400A8003508A9003608AA003708AB0001301C
:101F3400AC00AB37AA0CA90CA80CAC0B9B2F2B083C
:101F4400B7002A08B6002908B5002808B4000130F3
:101F5400B8070030B93D3908803AA800803028021B
:101F6400031DB62FFF303802031CB92FBA2FC42F1C
:101F74007F302000B7008030B6000030B50000305C
:101F8400B400F32F20003908803AA80080302802DA
:101F9400031DCE2F013038020318D12FD22FDD2F8D
:101FA40000302000B7000030B6000030B50000302B
:101FB400B400AD01F32F20003808A8002808B300AE
:101FC400FF30B405FF30B5057F30B6050030B705E6
:101FD400331CED2FEE2FEF2FB6173336A800280849
:101FE400B7002D08A8002808B7043708A30036084E
:0C1FF400A2003508A1003408A00008007D
:10200400640080010131890B03280034F601F11FBB
:102014000C280D281428F009F109F00A0319F10A13
:10202400F601F60AF31F172818282128F209F309E4
:10203400F20A0319F30A0130F4007408F606F701F2
:10204400F801700871040319282829285828F50173
:10205400F50A35280130F035F10D890B2D280130B2
:10206400F4007408F507F11F382839282C280130AA
:10207400F735F80D890B3A2871087302031D4428BB
:1020840070087202031C472848284D287008F20281
:102094007108F33B77140130F136F00C890B4E28AC
:1020A4000130F502031D57285828392876080319EA
:1020B4005C285D286228F709F809F70A0319F80A69
:1020C4007808F1007708F00008000310720D730D12
:1020D400F4007408FA007A08031D712872287B281A
:1020E4000030F3000030F2000030F1000030F00066
:1020F400DA287008F4007108F5007208F600730815
:10210400F7001F30F736F60CF50CF40C890B842815
:102114007408F8007808F900F217FF30F005FF3072
:10212400F105FF30F2050030F3059630FA02FA1F8C
:102134009C289D28B5287A08803A973E0318A3283E
:10214400A428A52872280130F336F20CF10CF00C07
:10215400890BA6280130F4007408FA07031DB3287C
:10216400B428A528CA2820307A02031CBA28BB2820
:10217400C52872280130F035F10DF20DF30D890BED
:10218400BD280130FA027A08031DC928CA28BC28D0
:1021940079080319CE28CF28DA28F009F109F209C1
:1021A400F309F00A0319F10A0319F20A0319F30AED
:1021B400080022004D082000A50022004C08200041
:1021C400A40022004B082000A30022004A0820009B
:1021D400A2007308A5007208A4007108A300700887
:1021E400A2002208F4002308F5002408F6002508BC
:1021F400F7001730F736F60CF50CF40C890BFC28B5
:10220400FF307405A00000307505A10020082104EA
:10221400031D0D290E292F292208F4002308F50097
:102224002408F6002508F7000130F435F50DF60D05
:10223400F70D890B17297708760475047404031DB8
:10224400242925292A290230F0000030F1005929D7
:102254000330F0000030F1005929200A2104031D45
:102264003429352955292208F4002308F5002408C7
:10227400F6002508F7000930F435F50DF60DF70DD5
:10228400890B3E29770876047504740403194B29D5
:102294004D2901304E290030F800F9017808F0008A
:1022A4007908F10059290430F0000030F1000800E9
:1022B400F800780803195F2960297429F31F63293A
:1022C400642974297009FA007109FB007209FC0081
:1022D4007309FD00FA0A0319FB0A0319FC0A03191E
:1022E400FD0A7C297308FD007208FC007108FB00DC
:1022F4007008FA007308720471047004031D8329C2
:1023040084298D290030F3000030F2000030F10000
:102314000030F000052A9630F4007408F9009D2975
:102324000130F4007408F9070130FD36FC0CFB0C95
:10233400FA0C890B9729FE307D05031DA229A329D8
:102344009229B7290130F4007408F9070130FA071B
:102354000030FB3D0030FC3D0030FD3D0130FD36DA
:10236400FC0CFB0CFA0C890BB129FF307D05031D15
:10237400BC29BD29A429C7290130F9020130FA3545
:10238400FB0DFC0DFD0D890BC129FC1BCA29CB29B2
:10239400D129023079020318D029D129BE2979180C
:1023A400D429D529DD29FF30FA05FF30FB057F301C
:1023B400FC05FF30FD050310F90C7908F400F50164
:1023C400F601F7011830F435F50DF60DF70D890B0C
:1023D400E5297408FA047508FB047608FC047708F8
:1023E400FD0478080319F729F829FD29F31FFB29AF
:1023F400FC29FD29FD177D08F3007C08F2007B0809
:10240400F1007A08F0000800F2012830860000305C
:102414008700473FF000F01F102A112A322A2000BB
:10242400A809A909AA09AB09AC09AD09AE09AF0904
:10243400A80A031D302AA90A031D302AAA0A031D6B
:10244400302AAB0A031D302AAC0A031D302AAD0A18
:10245400031D302AAE0A031D302AAF0AF201F20A24
:102464002030860000308700473FF000F01F3B2AF1
:102474003C2A5B2A2000A009A109A209A309A409F6
:10248400A509A609A709A00A031D5B2AA10A031D21
:102494005B2AA20A031D5B2AA30A031D5B2AA40A62
:1024A400031D5B2AA50A031D5B2AA60A031D5B2ADA
:1024B400A70A20002008210422042304240425045C
:1024C400260427040319672A682ABB2AF101F10AA2
:1024D400772AA035A10DA20DA30DA40DA50DA60D5F
:1024E400A70D0130F0007008F107A71F7A2A7B2A94
:1024F4006B2A27082F02031D992A26082E02031D82
:10250400992A25082D02031D992A24082C02031D4B
:10251400992A23082B02031D992A22082A02031D43
:10252400992A21082902031D992A20082802031C3C
:102534009C2A9D2AAD2A2008A8022108A93B22082A
:10254400AA3B2308AB3B2408AC3B2508AD3B26083B
:10255400AE3B2708AF3BA736A60CA50CA40CA30CD6
:10256400A20CA10CA00C0130F102031DBA2ABB2A53
:102574007B2A72080319BF2AC02ADE2AA809A909DE
:10258400AA09AB09AC09AD09AE09AF09A80A031D34
:10259400DE2AA90A031DDE2AAA0A031DDE2AAB0AC3
:1025A400031DDE2AAC0A031DDE2AAD0A031DDE2A42
:1025B400AE0A031DDE2AAF0A20002808A00029085D
:1025C400A1002A08A2002B08A3002C08A4002D08AF
:1025D400A5002E08A6002F08A7000800220049081D
:1025E4002000C000220048082000BF002200470845
:1025F4002000BE00220046082000BD003008C000B4
:102604002F08BF002E08BE002D08BD003D08B100F4
:102614003E08B2003F08B3004008B4001730B43697
:10262400B30CB20CB10C890B112BFF303105B50082
:1026340000303205B6003508813EBB00FF30363D20
:10264400BC003C08803AB10080303102031D2C2BC1
:1026540017303B02031C2F2B302B312BDA2B20009D
:10266400BC1B352B362B932BFF30B100FF30B2004F
:102674007F30B3000030B4003B0A442BB437B30CB2
:10268400B20CB10C890B402B3408BA003308B900E2
:102694003208B8003108B7003D083705B1003E08DC
:1026A4003805B2003F083905B30040083A05B400C4
:1026B4003408330432043104031D612B622B632B71
:1026C400302B3D08B1003E08B2003F08B30040087B
:1026D400B4001F30B436B30CB20CB10C890B6C2BA4
:1026E40034083304320431040319792B7A2B822BF6
:1026F4003708BD073808BE3D3908BF3D3A08C03D1C
:102704003709B1003809B2003909B3003A09B400F5
:102714003108BD053208BE053308BF053408C005BD
:10272400D22B3D08B1003E08B2003F08B300400878
:10273400B4001F30B436B30CB20CB10C890B9C2B13
:102744003408330432043104031DA92BAA2BB32B00
:102754000030C0000030BF000030BE000030BD00BB
:10276400D22B3D08B1003E08B2003F08B300400838
:10277400B4000130B135B20DB30DB40D890BBC2BCF
:1027840034083304320431040319C92BCA2BD22B65
:10279400BF30C0008030BF000030BE000030BD003C
:1027A4004008B0003F08AF003E08AE003D08AD0051
:1027B4000800F2012030860000308700473FF00017
:1027C400F01FE52BE62B072C2000A009A109A20984
:1027D400A309A409A509A609A709A00A031D052C94
:1027E400A10A031D052CA20A031D052CA30A031D1F
:1027F400052CA40A031D052CA50A031D052CA60AF5
:10280400031D052CA70AF201F20A283086000030C5
:102814008700473FF000F01F102C112C342C2000AF
:10282400A809A909AA09AB09AC09AD09AE09AF0900
:10283400A80A031D302CA90A031D302CAA0A031D63
:10284400302CAB0A031D302CAC0A031D302CAD0A0E
:10285400031D302CAE0A031D302CAF0A0130F000EA
:102864007008F20673308600003087000830F000EC
:1028740000301E00F00B3B2C200020082104220411
:102884002304240425042604270403194A2C4B2C6E
:10289400A72CF101F10A5A2CA035A10DA20DA30D0C
:1028A400A40DA50DA60DA70D0130F0007008F107C9
:1028B400A71F5D2C5E2C4E2CF335F40DF50DF60D93
:1028C400F70DF80DF90DFA0D27082F02031D842CBE
:1028D40026082E02031D842C25082D02031D842C9A
:1028E40024082C02031D842C23082B02031D842C92
:1028F40022082A02031D842C21082902031D842C8A
:1029040020082802031C872C882C992C2008A80254
:102914002108A93B2208AA3B2308AB3B2408AC3B73
:102924002508AD3B2608AE3B2708AF3B7314A736FA
:10293400A60CA50CA40CA30CA20CA10CA00C013099
:10294400F102031DA62CA72C5E2C72080319AB2CD4
:10295400AC2CCA2CF309F409F509F609F709F809AE
:10296400F909FA09F30A031DCA2CF40A031DCA2C37
:10297400F50A031DCA2CF60A031DCA2CF70A031D07
:10298400CA2CF80A031DCA2CF90A031DCA2CFA0A18
:1029940073082000A0007408A1007508A20076083E
:1029A400A3007708A4007808A5007908A6007A088F
:1029B400A70008002000BD003008C4003108C5008D
:1029C4003208C6003308C7003408C8003508C900F7
:1029D4003608CA003708CB00443086000030870030
:1029E400473FB800B81BF72CF92C0130FA2C003003
:1029F4002000B900BA013908C2003A08C3004208ED
:102A040043040319062D072D252DC409C509C6093C
:102A1400C709C809C909CA09CB09C40A031D252D58
:102A2400C50A031D252DC60A031D252DC70A031D2E
:102A3400252DC80A031D252DC90A031D252DCA0AE3
:102A4400031D252DCB0A2200DB1B292D2A2D2E2D1B
:102A5400FD30DC05FF30DD055B08803A2000B8005E
:102A640080303802031D392D013022005A02031828
:102A74003C2D3D2D432D01302000BE000030BF0011
:102A84004B2D22005B082000BF0022005A082000C2
:102A9400BE00220059082000C1002200580820006E
:102AA400C00042084304031D582D592D5E2D2200F9
:102AB4005C1D5D2D5E2D632DFF302000C007FF30AF
:102AC400C13D4F302000CC000030CD002300EF0189
:102AD400D42DFF302000CC07FF30CD3D0A30A000BC
:102AE400A101A201A301A401A501A601A701440813
:102AF400A8004508A9004608AA004708AB004808F2
:102B0400AC004908AD004A08AE004B08AF00923152
:102B14000622943120002108F4002008F3009C319F
:102B2400472494317308303E2000B8004C08A03E7E
:102B340086000130870038088100FF30BE07FF306F
:102B4400BF3DFF30C007FF30C13D0A30A000A101E6
:102B5400A201A301A401A501A601A7014408A8009C
:102B64004508A9004608AA004708AB004808AC007D
:102B74004908AD004A08AE004B08AF009331DB238F
:102B8400943120002008C4002108C5002208C60092
:102B94002308C7002408C8002508C9002608CA005D
:102BA4002708CB0020004D08803AB8008030380256
:102BB400031DDE2D01304C02031CE12DE22D0F2EEE
:102BC40020004408450446044704480449044A04D0
:102BD4004B04031DEE2DEF2D6B2D3F08803AB800FA
:102BE40080303802031DF82D01303E020318FB2DFE
:102BF400FC2D6B2D20004108803AB800803038024B
:102C0400031D062E01304002031C092E0A2E0F2E2E
:102C14002200DC180E2E0F2E6B2D200042084304D8
:102C2400031D152E162E1B2E22005C1D1A2E1B2E84
:102C3400382EFF302000CC07FF30CD3D420843043E
:102C4400031D252E262E2B2E2B30BB000030BC005E
:102C54002F2E2D30BB000030BC003B08B8004C08C0
:102C6400A03E8600013087003808810020004C080F
:102C7400A03EB8003808A7004108A9004008A800F1
:102C84003D089F314D27943120002808B1002708C2
:102C9400B000080077088039F80078082000A40004
:102CA4007735F8007808AB00F61F592E5A2E5B2EA4
:102CB4002B142B0803195F2E602E702E2B0A031D74
:102CC400642E652E6D2E0030F7000030F6000030C3
:102CD400F5000030F400F617F701782E0030F70005
:102CE4000030F6000030F5000030F400730880393D
:102CF400F8007808A4067335F8007808AC00F21FD1
:102D0400842E852E862E2C142C0803198A2E8B2EA5
:102D14009B2E2C0A031D8F2E902E982E0030F3002C
:102D24000030F2000030F1000030F000F217F3013F
:102D3400A32E0030F3000030F2000030F100003028
:102D4400F0007308720471047004031DAA2EAB2EE4
:102D5400C42E0030F7000030F6000030F5000030DB
:102D6400F4008030F6047F30F7042408F800780873
:102D7400F7047708F3007608F2007508F100740888
:102D8400F000FF2F2B08031DC82EC92ED22E0030B1
:102D9400F3000030F2000030F1000030F000FF2FAB
:102DA4002B08F800F9017908FB002C087802FA00D6
:102DB400031CFB037A087F3EA50000307B3DA60080
:102DC4007708A3007608A2007508A1007408A00083
:102DD4000030F7000030F6000030F5000030F40059
:102DE4000030AA000030A9000030A8000030A7007D
:102DF400AC013A2F2C080319002F012F1B2F01308F
:102E0400A035A10DA20DA30D890B022F0130F435BD
:102E1400F50DF60DF70D890B092FAA1F122F132F8D
:102E2400142F74140130A735A80DA90DAA0D890B10
:102E3400152F73082302031D292F72082202031D74
:102E4400292F71082102031D292F70082002031C59
:102E54002C2F2D2F362F2A177008A0027108A13BA2
:102E64007208A23B7308A33B0130F8007808AC0752
:102E74001A302C02031C3F2F402FFC2E230822045F
:102E8400210420040319472F482F612F2714612F91
:102E94000130F435F50DF60DF70D890B4B2FAA1FF4
:102EA400542F552F562F74140130A735A80DA90D92
:102EB400AA0D890B572FFF30A507FF30A63DF61F3B
:102EC400642F652F4A2FAC01AA1F692F6A2F862F02
:102ED400FF302705F800FF302805F900FF302905E9
:102EE400FA007F302A05FB007B087A047904780411
:102EF40003197D2F7E2F812FAC01AC0A862F741C01
:102F0400842F852F862F7E2F2C0803198A2F8B2F31
:102F1400B32F0130F4070030F53D0030F63D0030AA
:102F2400F73D771C962F972FB32F7408F800750878
:102F3400F9007608FA007708FB000130FC00FB3743
:102F4400FA0CF90CF80CFC0BA12F7B08F7007A089B
:102F5400F6007908F5007808F4000130A507003080
:102F6400A63D2608803AF80080307802031DBC2F65
:102F7400FF302502031CBF2FC02FCD2FFF302000B0
:102F8400A5000030A6000030F7000030F600003045
:102F9400F5000030F40020002608803AF800803064
:102FA4007802031DD72F013025020318DA2FDB2FF7
:102FB400E72F2000A501A6010030F7000030F6003D
:102FC4000030F5000030F400A40120002508F800CA
:102FD4007808AB002B1CEF2FF02FF22FF617F62FEB
:102FE4007F30F8007808F6052B36F8007808F700EB
:102FF4002408F8007808F704BB2E08000D34683460
:1030040053343B3461346434633420343D342034E9
:10301400253469342C34203476346F346C3474346D
:103024002034253466342C342034743465346D34BF
:1030340070343D34253466340A34003468346F34D3
:103044006C34613420346D3475346E3464346F34CC
:103054002034253469340A34003441344E34423443
:10306400303420343D3420342534693420340A3457
:103074000A34003449344E34463400344E34413436
:103084004E34003469346E34663400346E34613442
:0A3094006E3400346C3466340034EE
:1037DC00F2007208883102209B31080073087204D1
:1037EC00710470040319FB2BFC2BFE2B8030F306A9
:1037FC0008002100DD007030DC005C08DE005D0894
:10380C002000EB000130EC00DE302100DC005C0815
:10381C002000ED0000309D318F259B310800F20017
:10382C00720821009E001308803893001308BF39DA
:10383C009300130801389300000021001318272C63
:10384C00282C232C0D08F1000C08F0000800210096
:10385C0013086F3993001308043893001408803848
:10386C0094001508F83995001808103898001A08B3
:10387C00EF399A001A08FC399A0004309E009B011B
:10388C0008007408803AF50080307502031D502C36
:10389C00013073020318532C542C602C7309F5005F
:1038AC007409F600F50A0319F60A7508F300760890
:1038BC00F400602C0800F4007408F2007208F300A5
:1038CC006B2C0130F2007208F4077408860001308A
:1038DC0087000108031D732C742C672C7308740269
:1038EC00F000F101F01BF10308003E00B8012000CC
:1038FC0096018C01F03091003E0038081038B80069
:10390C00200097018D011108013892003E004308F8
:10391C000138C3000230200093003E00CE010800A5
:10392C002E000F08F0000530F036890B9A2C701C15
:10393C00A02CA12C962C22001D08F0000130F03692
:10394C00890BA52C701CAB2CAC2CB22C1D08EF39A0
:10395C009D001D0810389D001908080080302000BB
:10396C00BD064108F3004008F2003F08F1003E0894
:10397C00F0003D08F7003C08F6003B08F5003A085B
:10398C00F4008B316A239C3173082000BD0072084F
:10399C00BC007108BB007008BA000800F700710881
:1039AC00F5007008F4007708F2007208F60076084B
:1039BC00860001308700F60A7508F3007408F200DF
:1039CC00F40A0319F50A72088400730885000008CC
:1039DC00C03F8908031DF32CF42CDD2C0800F800E3
:1039EC00F401F5017008F200F3017208F600730897
:1039FC00F700781C022D032D072D7608F4077708A5
:103A0C00F53D0130F635F70D890B082D0310F80C38
:103A1C007808031D122D132DFF2C7508F100740866
:103A2C00F00008007608BF3EF800FF30773DF90043
:103A3C00003079021A3003197802031C262D282D28
:103A4C000130292D0030FA00FB017A08FC007B08BC
:103A5C00FD007C087D040319342D352D3C2D2030C0
:103A6C007604F60000307704F7003C2D08002000A7
:103A7C00A600A401A501552D2308A000A101200832
:103A8C00F3002108F4007B08A2002208F5009E3107
:103A9C0052269D3101302000A4070030A53D24089A
:103AAC002607A00020088600013087000108A1002D
:103ABC002108A3002308031D642D652D422D080049
:103ACC002100E900DE30E8006808EA006908E80037
:103ADC006808EB00EC01ED01EE01EF015D08200040
:103AEC00EC0021005C082000EB00EA302100E8002B
:103AFC0068082000ED00EB309D318F259D312100B1
:103B0C006C086907E80068088600013087008101AD
:103B1C0008002100D90020006C082100DB002000E7
:103B2C006B082100DA002200D601D701B32DDA3060
:103B3C002000EE006E08CF006D08EF006F08D0007B
:103B4C0021005908893132219D3120004F08220073
:103B5C00D607200050082200D73D21005A088400C7
:103B6C005B0885001200031DBC2DBD2D9D2D220070
:103B7C0057082000EC00220056082000EB0008003B
:103B8C0022009F1190309D0020309E0020002308C1
:103B9C00F3002208F2002108F1002008F0000130A7
:103BAC00F700E830F6004830F5000030F4009F31A3
:103BBC00A6279D3170082000A4007108A50072088A
:103BCC00A6007308A7000630A736A60CA50CA40CFB
:103BDC00890BEA2D2408FF3EA800FF30253DA900E3
:103BEC00280822009B002000290822009C0010308D
:103BFC003E00A00011303D00CB00080000307005E5
:103C0C00F80000307105F90080307205FA007F3041
:103C1C007305FB007B087A0479047804031D172EC6
:103C2C00182E202E0030F3000030F2000030F1008E
:103C3C000030F00000307405F80000307505F90014
:103C4C0080307605FA007F307705FB007B087A041C
:103C5C0079047804031D332E342E3C2E0030F700EB
:103C6C000030F6000030F5000030F40077087306E1
:103C7C00031D4A2E76087206031D4A2E750871061E
:103C8C00031D4A2E7408700603194D2E4E2E502E0D
:103C9C000310512E0314080075080319562E572EC5
:103CAC005C2E7508031D5B2E5C2E612E73089B31F8
:103CBC00EE239E31A12E7508033E86008701160067
:103CCC00010403196A2E6B2E882E7508033E86009C
:103CDC008701403FF600413FF700750A86008701D7
:103CEC00403FF800413FF9007908803AFA00770824
:103CFC00803A7A02031D842E760878020318872EE8
:103D0C00882EA12E7308F600750886008701750AA7
:103D1C008400850100080107F70077088600013050
:103D2C00870076088100750A8600870101308107BB
:103D3C0041310318810A0800F601F31FA62EA72EA5
:103D4C00AE2EF209F309F20A0319F30AF601F60A88
:103D5C00F11FB12EB22EB72EF009F109F00A03199A
:103D6C00F10A700871040319BC2EBD2EE62EF50164
:103D7C00F50AC92E0130F035F10D890BC12E013039
:103D8C00F4007408F507F11FCC2ECD2EC02E71084F
:103D9C007302031DD32E70087202031CD62ED72E6D
:103DAC00DB2E7008F2027108F33B0130F136F00C97
:103DBC00890BDC2E0130F502031DE52EE62ECD2EEF
:103DCC0076080319EA2EEB2EF02EF209F309F20A0B
:103DDC000319F30A7308F1007208F0000800F500EB
:103DEC007508F4007408F8007108F7007008F60004
:103DFC000130F2020030F33B720A031D092F730AE3
:103E0C00031D092F0A2F192FF001F1014C2F01303E
:103E1C00F4007408F8070130F6070030F73D013064
:103E2C00F2020030F33B7808860087010108031981
:103E3C00202F212F3F2F7608840077088500120051
:103E4C000319292F2A2F3F2F7208730403192F2FC0
:103E5C00302F3F2F76088400770885000008F40087
:103E6C007808860087010108740603193E2F3F2F3E
:103E7C000D2F780886008701760884007708850066
:103E8C0000080102F000F101031CF10308002000FE
:103E9C00AE0022005C1C532F542F5D2F20002E08E7
:103EAC00FC007C08FB0027089D313D259F3120003C
:103EBC00A91B612F622F672F2908AD002808AC00C1
:103ECC00692FAC01AD01AA01AB017D2F2030F300AD
:103EDC000030F40020002E08FC007C08F5009E3118
:103EEC0052269F3101302000AA070030AB3D2B0831
:103EFC00803AFC002D08803A7C02031D872F2C0889
:103F0C002A02031C8A2F8B2F6C2F22005C188F2FF8
:103F1C00902F992F20002E08FC007C08FB0027080E
:103F2C009D313D259F31200027089C3161249F3114
:103F3C0020002C087007A7002D08713DA800080070
:103F4C000030FC000030FB000030FA000030F900BB
:103F5C0073087204710470040319B52FB62FF72F70
:103F6C00FD01FD0AC42F0130F035F10DF20DF30DFA
:103F7C00890BBA2F0130F8007808FD07F31FC72F03
:103F8C00C82FB92F0130F935FA0DFB0DFC0D890B3B
:103F9C00C92F73087702031DDD2F72087602031DEB
:103FAC00DD2F71087502031DDD2F70087402031CD0
:103FBC00E02FE12FEA2F7008F4027108F53B72082C
:103FCC00F63B7308F73B79140130F336F20CF10C25
:103FDC00F00C890BEB2F0130FD02031DF62FF72F90
:103FEC00C82F7C08F3007B08F2007A08F1007908EE
:043FFC00F0000800C9
:020000040001F9
:08000000FF3FFF3FFF3FFF3F00
:0A000E008C3FFF3F9F3FFF3FFF3F85
:00000001FF
