:08000000803102288731F22F44
:1001AC00F20072088031EE2080310800640080017A
:1001BC000131890BDD2800343E00B8012000960186
:1001CC008C01F0309100023093003E00CE0108000B
:1001DC00F1002E000F08F0000430F036890BF328E4
:1001EC00701CF928FA28EF28710822009A000800E0
:1001FC002000E7007030FD007D08E8006708DF0094
:10020C000030E0006830FD007D08E10000308131F5
:10021C00AE2180310800F4007408F2007208F3007B
:10022C001B290130F2007208F4077408860087015C
:10023C000108031D22292329172973087402F000D1
:10024C00F101F01BF10308007408803AF5008030CE
:10025C007502031D3329013073020318362937291F
:10026C0043297309F5007409F600F50A0319F60A17
:10027C007508F3007608F400432908002E000F08D7
:10028C00F0000530F036890B4829701C4E294F2997
:10029C00442922001D08F0000130F036890B532947
:1002AC00701C59295A2960291D08EF399D001D0819
:1002BC0010389D00190808002100A1006930FD00CC
:1002CC007D08A0002108FD007D08A200A301A40167
:1002DC00A501A60120006808E0006708DF00A03037
:1002EC00FD007D08E100A2308131AE218131210079
:1002FC0023082107FD007D08860087018101080085
:10030C002000A600A401A5019E292308A000A1019C
:10031C002008F3002108F4007B08A2002208F50055
:10032C0082311D22813101302000A4070030A53D0F
:10033C0024082607A0002008860087010108A100D8
:10034C002108A3002308031DAC29AD298B29080023
:10035C002000E4006008E6005F08E5002100C90108
:10036C00CA01CC296530E2006208CE006108E300C6
:10037C006308CF00640885317D25813120004E084B
:10038C002100C90720004F082100CA3D2000650844
:10039C008400660885001200031DD529D629B829CA
:1003AC0021004A082000E000210049082000DF005D
:1003BC00080022009F1190309D0020309E002000EC
:1003CC002308F3002208F2002108F1002008F000B5
:1003DC000130F700E830F6004830F5000030F4004A
:1003EC008231C222813170082000A4007108A5005E
:1003FC007208A6007308A7000630A736A60CA50C39
:10040C00A40C890B032A2408FF3EA800FF30253DCD
:10041C00A900280822009B002000290822009C002B
:10042C0010303E00A00011303D00CB0008007508D4
:10043C000319212A222A272A7508031D262A272A6E
:10044C002C2A73088031D62082316B2A7508033E22
:10045C0086008701160001040319352A362A532A0F
:10046C007508033E86008701403FF600413FF700C8
:10047C00750A86008701403FF800413FF900790872
:10048C00803AFA007708803A7A02031D4F2A7608E0
:10049C0078020318522A532A6B2A7308F60075083F
:1004AC0086008701750A8400850100080107F700A2
:1004BC0077088600870176088100750A8600870117
:1004CC000130810741310318810A08002000AE0079
:1004DC006D1C712A722A7A2A2E08FC007C08FB00FB
:1004EC0027088131862182312000A91B7E2A7F2A90
:1004FC00842A2908AD002808AC00862AAC01AD017D
:10050C00AA01AB019A2A2030F3000030F40020003D
:10051C002E08FC007C08F50082311D22823101304E
:10052C002000AA070030AB3D2B08803AFC002D08B8
:10053C00803A7C02031DA42A2C082A02031CA72A39
:10054C00A82A892A20006D18AC2AAD2AB52A2E08B3
:10055C00FC007C08FB0027088131862182312000B9
:10056C00270881311121823120002C087007A70047
:10057C002D08713DA80008000030FC000030FB0085
:10058C000030FA000030F900730872047104700432
:10059C000319D12AD22A132BFD01FD0AE02A0130BE
:1005AC00F035F10DF20DF30D890BD62A0130F80060
:1005BC007808FD07F31FE32AE42AD52A0130F93520
:1005CC00FA0DFB0DFC0D890BE52A73087702031D50
:1005DC00F92A72087602031DF92A71087502031DA7
:1005EC00F92A70087402031CFC2AFD2A062B7008D9
:1005FC00F4027108F53B7208F63B7308F73B79146B
:10060C000130F336F20CF10CF00C890B072B013096
:10061C00FD02031D122B132BE42A7C08F3007B082C
:10062C00F2007A08F1007908F00008002100C801F6
:10063C008031E220833100302000A3000030A20082
:10064C002530A1008030A0008131DF2183312000D2
:10065C0016080838960015302000EC004B30EB00E3
:10066C00BE30890B372BEB0B372BEC0B372B0000E9
:10067C0020001608F739960015302000EC004B309E
:10068C00EB00BE30890B482BEB0B482BEC0B482BAB
:10069C00000000302000E7008830E8002100480806
:1006AC002000EB00EC016B08E9006C08EA00A730B5
:1006BC0081316221833101302000EB006B08210075
:1006CC00C807A7308031FE2083312E000F08200090
:1006DC00EB000530EB36890B702B6B1C762B772BD4
:1006EC007F2B8131442183312000EB006B082100EA
:1006FC00C700623021004706031D852B862B8B2BF0
:10070C0020001608013896002D2B20001608FE3903
:10071C0096002D2B80310228F20128308600003003
:10072C008700473FF000F01F9C2B9D2BBE2B200019
:10073C00A809A909AA09AB09AC09AD09AE09AF0909
:10074C00A80A031DBC2BA90A031DBC2BAA0A031D56
:10075C00BC2BAB0A031DBC2BAC0A031DBC2BAD0A76
:10076C00031DBC2BAE0A031DBC2BAF0AF201F20A0F
:10077C002030860000308700473FF000F01FC72B69
:10078C00C82BE72B2000A009A109A209A309A409E1
:10079C00A509A609A709A00A031DE72BA10A031D99
:1007AC00E72BA20A031DE72BA30A031DE72BA40AC0
:1007BC00031DE72BA50A031DE72BA60A031DE72B38
:1007CC00A70A200020082104220423042404250461
:1007DC00260427040319F32BF42B472CF101F10AFF
:1007EC00032CA035A10DA20DA30DA40DA50DA60DD6
:1007FC00A70D0130F0007008F107A71F062C072C7D
:10080C00F72B27082F02031D252C26082E02031D6B
:10081C00252C25082D02031D252C24082C02031D34
:10082C00252C23082B02031D252C22082A02031D2C
:10083C00252C21082902031D252C20082802031C25
:10084C00282C292C392C2008A8022108A93B220885
:10085C00AA3B2308AB3B2408AC3B2508AD3B260840
:10086C00AE3B2708AF3BA736A60CA50CA40CA30CDB
:10087C00A20CA10CA00C0130F102031D462C472C3C
:10088C00072C720803194B2C4C2C6A2CA809A909AB
:10089C00AA09AB09AC09AD09AE09AF09A80A031D39
:1008AC006A2CA90A031D6A2CAA0A031D6A2CAB0A1E
:1008BC00031D6A2CAC0A031D6A2CAD0A031D6A2C9D
:1008CC00AE0A031D6A2CAF0A20002808A0002908D4
:1008DC00A1002A08A2002B08A3002C08A4002D08B4
:1008EC00A5002E08A6002F08A7000800F201203052
:1008FC00860000308700473FF000F01F862C872CC5
:10090C00A82C2000A009A109A209A309A409A509E2
:10091C00A609A709A00A031DA62CA10A031DA62C33
:10092C00A20A031DA62CA30A031DA62CA40A031DB0
:10093C00A62CA50A031DA62CA60A031DA62CA70AE5
:10094C00F201F20A2830860000308700473FF000A1
:10095C00F01FB12CB22CD52C2000A809A909AA098A
:10096C00AB09AC09AD09AE09AF09A80A031DD12C1E
:10097C00A90A031DD12CAA0A031DD12CAB0A031DF5
:10098C00D12CAC0A031DD12CAD0A031DD12CAE0AFF
:10099C00031DD12CAF0A0130F0007008F206733041
:1009AC008600003087000830F00000301E00F00B8D
:1009BC00DC2C200020082104220423042404250418
:1009CC00260427040319EB2CEC2C482DF101F10A19
:1009DC00FB2CA035A10DA20DA30DA40DA50DA60DEC
:1009EC00A70D0130F0007008F107A71FFE2CFF2C9B
:1009FC00EF2CF335F40DF50DF60DF70DF80DF90D93
:100A0C00FA0D27082F02031D252D26082E02031D83
:100A1C00252D25082D02031D252D24082C02031D30
:100A2C00252D23082B02031D252D22082A02031D28
:100A3C00252D21082902031D252D20082802031C21
:100A4C00282D292D3A2D2008A8022108A93B22087F
:100A5C00AA3B2308AB3B2408AC3B2508AD3B26083E
:100A6C00AE3B2708AF3B7314A736A60CA50CA40C01
:100A7C00A30CA20CA10CA00C0130F102031D472DFC
:100A8C00482DFF2C720803194C2D4D2D6B2DF3099D
:100A9C00F409F509F609F709F809F909FA09F30A4D
:100AAC00031D6B2DF40A031D6B2DF50A031D6B2D15
:100ABC00F60A031D6B2DF70A031D6B2DF80A031D97
:100ACC006B2DF90A031D6B2DFA0A73082000A00088
:100ADC007408A1007508A2007608A3007708A4008A
:100AEC007808A5007908A6007A08A700080020005D
:100AFC00DE004E0886008701403FD000413FD10008
:100B0C0050088400510885001200253A031D8F2DD2
:100B1C00902D642E4E0886008701013081074131EB
:100B2C000318810A2100CB01CC012000ED01EE015C
:100B3C00FF302100CD00FF30CE0020004E08860093
:100B4C008701403FD000413FD1005008840051083C
:100B5C0085001200643A0319B42DB52DC62D4E082C
:100B6C0086008701403FD000413FD10050088400EF
:100B7C00510885001200693A031DC52DC62D012EA2
:100B8C004E08860087010130810741310318810A24
:100B9C004F08860087010108840085010230810717
:100BAC00003FD000013FD1005008D5005108D600BD
:100BBC00890D893B8909D700D800D900DA00DB0000
:100BCC00DC005508B0005608B1005708B2005808B0
:100BDC00B3005908B4005A08B5005B08B6005C08AD
:100BEC00B7005E0886318826853120003108CF0099
:100BFC003008CE00872E4E0886008701403FD0007B
:100C0C00413FD100500884005108850012006E3A13
:100C1C00031D112E122E312E4E0886008701013035
:100C2C00810741310318810A4F0886008701403F34
:100C3C0084008501810A0008D0005008DD005D08A1
:100C4C008600870121004908C03F4A08C13F2000A7
:100C5C00CE01CF01872E4E0886008701403FD00081
:100C6C00413FD10050088400510885001200253AFC
:100C7C00031D412E422E5B2E4E088600870101304B
:100C8C00810741310318810A2530F3000030F4004C
:100C9C005E08D0005008F50082311D2285310130EC
:100CAC002000CE000030CF00872E4E088600870132
:100CBC000130810741310318810A2D2E4E08860020
:100CCC008701403FD000413FD100500884005108BB
:100CDC0085000008D200D3015208F3005308F40039
:100CEC005E08D4005408F50082311D2285312000A5
:100CFC004E08860087010130810741310318810AB3
:100D0C00552E08002000BD003008C4003108C50075
:100D1C003208C6003308C7003408C8003508C900BB
:100D2C003608CA003708CB004430860000308700F4
:100D3C00473FB800B81BA32EA52E0130A62E0030BD
:100D4C002000B900BA013908C2003A08C3004208B1
:100D5C0043040319B22EB32ED12EC409C509C609FA
:100D6C00C709C809C909CA09CB09C40A031DD12E70
:100D7C00C50A031DD12EC60A031DD12EC70A031D99
:100D8C00D12EC80A031DD12EC90A031DD12ECA0AA1
:100D9C00031DD12ECB0A2100CE1BD52ED62EDB2E39
:100DAC00FD302000ED05FF30EE0521004E08803AA5
:100DBC002000B80080303802031DE72E01302100DE
:100DCC004D020318EA2EEB2EF12E01302000BE004E
:100DDC000030BF00F92E21004E082000BF0021007A
:100DEC004D082000BE0021004C082000C10021004D
:100DFC004B082000C00042084304031D062F072F98
:100E0C000B2F6D1D0A2F0B2F0F2FFF30C007FF303C
:100E1C00C13D1F30CC000030CD002100EE017E2FF3
:100E2C00FF302000CC07FF30CD3D0A30A000A101DF
:100E3C00A201A301A401A501A601A7014408A800D1
:100E4C004508A9004608AA004708AB004808AC00B2
:100E5C004908AD004A08AE004B08AF00833192231D
:100E6C00863120002108F4002008F30081312A216A
:100E7C0086317308303E2000B8004C08CF3E860007
:100E8C00870138088100FF30BE07FF30BF3DFF30BF
:100E9C00C007FF30C13D0A30A000A101A201A3018F
:100EAC00A401A501A601A7014408A8004508A900B2
:100EBC004608AA004708AB004808AC004908AD003A
:100ECC004A08AE004B08AF0084317C2486312000E8
:100EDC002008C4002108C5002208C6002308C7004A
:100EEC002408C8002508C9002608CA002708CB001A
:100EFC0020004D08803AB80080303802031D882F3E
:100F0C0001304C02031C8B2F8C2FB92F200044086E
:100F1C00450446044704480449044A044B04031D91
:100F2C00982F992F162F3F08803AB800803038023E
:100F3C00031DA22F01303E020318A52FA62F162F3A
:100F4C0020004108803AB80080303802031DB02FD1
:100F5C0001304002031CB32FB42FB92F2000ED1821
:100F6C00B82FB92F162F200042084304031DBF2FA2
:100F7C00C02FC42F6D1DC32FC42FDF2FFF30CC0704
:100F8C00FF30CD3D42084304031DCD2FCE2FD32F70
:100F9C002B30BB000030BC00D72F2D30BB000030F5
:100FAC00BC003B08B8004C08CF3E860087013808CF
:100FBC0081004C08CF3EB8003808A7004108A900B2
:100FCC004008A8003D0882316C2286312000280898
:100FDC00B1002708B00008002000ED01EE01C93077
:100FEC0084000030850026308031DC2087312000E1
:100FFC0083311C2B68346F346C34613420346D3481
:10100C0075346E3464346F342034253469340A34C6
:02101C0000349E
:020000040001F9
:08000000FF3FFF3FFF3FFF3F00
:0A000E008C3FFF3F9F3FFF3FFF3F85
:00000001FF
