:040000008031112812
:100008007E1480312E000C1C0F280C100130F000DB
:1000180070082000EF077E10090080311328FC01CA
:100028002000EF01A0308400003085003C308D3185
:1000380030258031203084000130850032308D3108
:1000480030257E1020008531B92D20001610961419
:10005800161596151A30890B2F28003220008D1896
:1000680046280530F2000F30F100F130890B3A28AC
:10007800F10B3A28F20B3A28000020008D1C412889
:10008800313008000D1959280530F2000F30F10001
:10009800F130890B4D28F10B4D28F20B4D2800004B
:1000A80020000D1D5428323008008D196C280530A9
:1000B800F2000F30F100F130890B6028F10B602855
:1000C800F20B6028000020008D1D672833300800DF
:1000D8000D1A7F280530F2000F30F100F130890B3E
:1000E8007328F10B7328F20B7328000020000D1EF3
:1000F8007A284130080016149610161596158D1892
:1001080096280530F2000F30F100F130890B8A286B
:10011800F10B8A28F20B8A28000020008D1C9128F8
:10012800343008000D19A9280530F2000F30F1000D
:10013800F130890B9D28F10B9D28F20B9D280000BA
:1001480020000D1DA428353008008D19BC28053065
:10015800F2000F30F100F130890BB028F10BB02814
:10016800F20BB028000020008D1DB728363008009B
:100178000D1ACF280530F2000F30F100F130890B4D
:10018800C328F10BC328F20BC328000020000D1E62
:10019800CA284230080016149614161196158D18A0
:1001A800E6280530F2000F30F100F130890BDA282B
:1001B800F10BDA28F20BDA28000020008D1CE12868
:1001C800373008000D19F9280530F2000F30F1001A
:1001D800F130890BED28F10BED28F20BED2800002A
:1001E80020000D1DF428383008008D190C29053021
:1001F800F2000F30F100F130890B0029F10B0029D2
:10020800F20B0029000020008D1D07293930080055
:100218000D1A1F290530F2000F30F100F130890B5B
:100228001329F10B1329F20B1329000020000D1ECE
:100238001A294330080016149614161596111A3008
:10024800890B2429003220008D183B290530F20043
:100258000F30F100F130890B2F29F10B2F29F20B08
:100268002F29000020008D1C36292A3008000D197E
:100278004E290530F2000F30F100F130890B422988
:10028800F10B4229F20B4229000020000D1D4929DB
:10029800303008008D1961290530F2000F30F10067
:1002A800F130890B5529F10B5529F20B552900001E
:1002B80020008D1D5C29233008000D1A7429053093
:1002C800F2000F30F100F130890B6829F10B682931
:1002D800F20B6829000020000D1E6F294430080029
:1002E80000300800BC003108C5003208C6003308D9
:1002F800C7003408C8003508C9003608CA003708DE
:10030800CB003808CC004530860000308700473FD6
:10031800B900B91F91290130922900302000BA0094
:10032800BB013A08C3003B08C4004308440403194E
:10033800BB29C509C609C709C809C909CA09CB091A
:10034800CC09C50A031DBB29C60A031DBB29C70A58
:10035800031DBB29C80A031DBB29C90A031DBB29E4
:10036800CA0A031DBB29CB0A031DBB29CC0A2100DD
:10037800AD1BC229FD30AE05FF30AF052D08803A10
:100388002000B90080303902031DCD290130210039
:100398002C020318D52901302000BF000030C0000E
:1003A800DD2921002D082000C00021002C08200094
:1003B800BF0021002B082000C20021002A082000CD
:1003C800C10043084404031DEC2921002E1DF12916
:1003D800FF302000C107FF30C23D1F302000CD0094
:1003E8000030CE002100D901842A200045084604A7
:1003F8004704480449044A044B044C04031D1E2ABC
:100408004008803AB90080303902031D0D2A0130B6
:100418003F0203181E2A20004208803AB9008030A3
:100428003902031D192A01304102031C902A2100B8
:10043800AE1C902AFF302000CD07FF30CE3D0A3099
:10044800A000A101A201A301A401A501A601A70181
:100458004508A8004608A9004708AA004808AB00B4
:100468004908AC004A08AD004B08AE004C08AF0084
:100478008431DD2481312108F5002008F4008D3114
:10048800A82581317408303E2000B9004D08BA3ED5
:100498008600870139088100FF30BF07FF30C03D63
:1004A800FF30C107FF30C23D0A30A000A101A20100
:1004B800A301A401A501A601A7014508A8004608B3
:1004C800A9004708AA004808AB004908AC004A0838
:1004D800AD004B08AE004C08AF008331EA238131F0
:1004E8002008C5002108C6002208C7002308C80044
:1004F8002408C9002508CA002608CB002708CC0014
:1005080020004E08803AB90080303902031D8E2A37
:1005180001304D020318F929200043084404031D43
:10052800982A21002E1DAF2AFF302000CD07FF306A
:10053800CE3D43084404031DA32A2B30A42A2D30A2
:10054800BD000030BE003D08B9004D08BA3E860027
:1005580087013908810020004D08BA3EB9003908E2
:10056800A8004208AA004108A9003C088F3160276A
:100578002908B2002808B1000800E0004F088600EA
:100588008701403FD100413FD20051088400520802
:1005980085001200253A031DC72B4F0886008701E6
:1005A8000130810741310318810A2100AA01AB01FA
:1005B800AE01AF01FF30AC00FF30AD0020004F08A6
:1005C80086008701403FD100413FD2005108840096
:1005D800520885001200633A031D122B4F0886004B
:1005E80087010130810741310318810A50088600CC
:1005F8008701010884008501023081070008D100C5
:100608005108DE005E08D1005108A000600886315C
:1006180033262108D0002008CF0008004F088600A4
:100628008701403FD100413FD20051088400520861
:1006380085001200643A0319302B4F0886008701A1
:10064800403FD100413FD200510884005208850044
:100658001200693A031D692B4F0886008701013093
:10066800810741310318810A500886008701010873
:100678008400850102308107003FD100013FD2008C
:100688005108D6005208D700890D893B8909D8003E
:10069800D900DA00DB00DC00DD005608B10057089D
:1006A800B2005808B3005908B4005A08B5005B08EE
:1006B800B6005C08B7005D08B80060088131762193
:1006C8003208D0003108CF0008004F0886008701A3
:1006D800403FD100413FD2005108840052088500B4
:1006E80012006E3A031D972B4F08860087010130D0
:1006F800810741310318810A500886008701403F6D
:1007080084008501810A0008D1005108DF005F08D4
:100718008600870121002808C03F2908C13F200022
:10072800CF01D00108004F0886008701403FD10063
:10073800413FD20051088400520885001200253A32
:10074800031DBE2B4F088600870101308107413108
:100758000318810A2530F4000030F5006008D10044
:100768005108F6008731B62701302000CF0000304D
:10077800D00008004F088600870101308107413109
:100788000318810A932B4F0886008701403FD10048
:10079800413FD20051088400520885000008D30068
:1007A800D4015308F4005408F5006008D500550832
:1007B800F6008731B627823120004F08860087016E
:1007C8000130810741310318810AB82BF301203029
:1007D800860000308700473FF100F11F142C2000ED
:1007E800A009A109A209A309A409A509A609A7099D
:1007F800A00A031D122CA10A031D122CA20A031D14
:10080800122CA30A031D122CA40A031D122CA50ADC
:10081800031D122CA60A031D122CA70AF301F30AC2
:100828002830860000308700473FF100F11F3F2C39
:100838002000A809A909AA09AB09AC09AD09AE09A4
:10084800AF09A80A031D3B2CA90A031D3B2CAA0AC1
:10085800031D3B2CAB0A031D3B2CAC0A031D3B2C90
:10086800AD0A031D3B2CAE0A031D3B2CAF0A013019
:10087800F1007108F30674308600003087000830F4
:10088800F10000301E00F10B462C20002008210446
:100898002204230424042504260427040319AA2C6B
:1008A800F201F20AA71B652CA035A10DA20DA30D1C
:1008B800A40DA50DA60DA70D0130F1007108F207D2
:1008C800562CF435F50DF60DF70DF80DF90DFA0D5A
:1008D800FB0D27082F02031D8B2C26082E02031D53
:1008E8008B2C25082D02031D8B2C24082C02031D9C
:1008F8008B2C23082B02031D8B2C22082A02031D94
:100908008B2C21082902031D8B2C20082802031C8C
:100918009E2C2008A8022108A93B2208AA3B2308EC
:10092800AB3B2408AC3B2508AD3B2608AE3B27086B
:10093800AF3B7414A736A60CA50CA40CA30CA20CF0
:10094800A10CA00C0130F202031D652C73080319D9
:10095800CB2CF409F509F609F709F809F909FA0998
:10096800FB09F40A031DCB2CF50A031DCB2CF60A50
:10097800031DCB2CF70A031DCB2CF80A031DCB2C27
:10098800F90A031DCB2CFA0A031DCB2CFB0A7408A9
:100998002000A0007508A1007608A2007708A3002F
:1009A8007808A4007908A5007A08A6007B08A700A3
:1009B8000800F3012830860000308700473FF10027
:1009C800F11F072D2000A809A909AA09AB09AC093C
:1009D800AD09AE09AF09A80A031D052DA90A031D13
:1009E800052DAA0A031D052DAB0A031D052DAC0A0A
:1009F800031D052DAD0A031D052DAE0A031D052D8A
:100A0800AF0AF301F30A2030860000308700473F21
:100A1800F100F11F2E2D2000A009A109A209A309A8
:100A2800A409A509A609A709A00A031D2E2DA10A34
:100A3800031D2E2DA20A031D2E2DA30A031D2E2DE4
:100A4800A40A031D2E2DA50A031D2E2DA60A031D7B
:100A58002E2DA70A200020082104220423042404A0
:100A68002504260427040319862DF201F20AA71B80
:100A78004A2DA035A10DA20DA30DA40DA50DA60DFF
:100A8800A70D0130F1007108F2073B2D27082F024E
:100A9800031D682D26082E02031D682D25082D022A
:100AA800031D682D24082C02031D682D23082B0222
:100AB800031D682D22082A02031D682D210829021A
:100AC800031D682D20082802031C7A2D2008A8027F
:100AD8002108A93B2208AA3B2308AB3B2408AC3BCE
:100AE8002508AD3B2608AE3B2708AF3BA736A60C2A
:100AF800A50CA40CA30CA20CA10CA00C0130F202B2
:100B0800031D4A2D73080319A72DA809A909AA09C5
:100B1800AB09AC09AD09AE09AF09A80A031DA72D99
:100B2800A90A031DA72DAA0A031DA72DAB0A031D99
:100B3800A72DAC0A031DA72DAD0A031DA72DAE0ACC
:100B4800031DA72DAF0A20002808A0002908A1002E
:100B58002A08A2002B08A3002C08A4002D08A50031
:100B68002E08A6002F08A70008008E310826853118
:100B78000030A8000030A7002530A6008030A5006E
:100B88008E31A02685318D31EE2585318D31522566
:100B980085318D313F25853186319A2685312A3038
:100BA8002000E9009030EA000030EB00EC00203033
:100BB8008E314D2685312030873160278531393097
:100BC800E9009030EA008D318725853168302100B1
:100BD800E400E430890BEE2DE40BEE2D000020003C
:100BE8006F08210039060319122E20006F08210012
:100BF800E4006408B90046302000E9009030EA00BB
:100C08006F082100E400E50164082000EB002100E2
:100C180065082000EC008D318725853120001608F5
:100C2800F739960003302100E5000830E4007730FA
:100C3800890B1C2EE40B1C2EE50B1C2E200016081D
:100C48000838960003302100E5000830E4007730CA
:100C5800890B2C2EE40B2C2EE50B2C2EF32DA90042
:100C680021002A082B04031D412E2B082000A80070
:100C780021002A082000A7004A2E2A08FF3E20004B
:100C8800A700FF3021002B3D2000A80021002E1CCA
:100C98005C2E20002008A200A3012208F4002308EB
:100CA800F5002908A4002408F6008731B627863104
:100CB8002000A81F612EA701A801A501A6012608EA
:100CC800803AA2002808803A2202031D6D2E2708C8
:100CD80025020318812E2030F4000030F500200092
:100CE8002908A2002208F6008731B627863101308C
:100CF8002000A5070030A63D632E21002E18922E55
:100D080020002008A200A3012208F4002308F5000F
:100D18002908A4002408F6008731B62720002508F2
:100D2800013EA0000030263DA10008008D3121259C
:100D380086314E308D315D25863100308D315D250F
:100D480086318D312625863102302000A1006C3095
:100D5800A0009F30890BAE2EA00BAE2EA10BAE2E9D
:100D68000032FB0103302000A0002008F30000300F
:100D78008F311A27863134302000A000F130890BDA
:100D8800C32EA00BC32E003201302000A000200883
:100D9800FB0703307B02031CB62E0230A00020089C
:100DA800F30000308F311A278631FB017B08003EA3
:100DB800840090300318013E850000082000A00040
:100DC8002008F70000308D31D625863134302000D8
:100DD800A000F130890BEE2EA00BEE2E0032013070
:100DE8002000A0002008FB0704307B02031CDA2E39
:100DF8002100B801FC010800F8008D312125873158
:100E080070308D315D25873100308D315D2587311A
:100E18008731FC27873171308D315D2587318D31E0
:100E280048258731F6007808860087017608810012
:100E38008D31362587318D31262587311A30890B3A
:100E4800232F00328D312125873170308D315D257A
:100E5800873102308D315D2587318731FC27873115
:100E680071308D315D2587318D3148258731F60008
:100E7800750886008701760881008D31362587310F
:100E88008D3126258731750886008701810E810CF2
:100E9800810C033081057508860087010108F6007A
:100EA8007608F10019308D319725F700750886000E
:100EB80087017708810008002000A6009A2FF70113
:100EC800F70A00308D31D625873115302000A4006F
:100ED800C630890B6D2FA40B6D2F00002100B801BF
:100EE800FC0115302000A400C630890B792FA40B13
:100EF800792F0000952F7C08023EA4002408FB00EF
:100F080001308E31DC268731952F26088600013086
:100F180087000108A4002408F70001308D31D62588
:100F2800873101302000A4002408A607260886007F
:100F380001308700010803190800260886000130DF
:100F480087000108A400A5012508003A0319AD2F60
:100F5800892F24080A3A03197F2F063A0319632FA9
:100F6800892F952F7608031D7608031DBF2F740857
:100F78008D312B2508007608033E86008701160070
:100F880001040319E22F7608033E86008701403FDB
:100F9800F700413FF800760A86008701403FF900D4
:100FA800413FFA007A08803AFB007808803A7B02D1
:100FB800031DE02F77087902031808007408F7006A
:100FC800760886008701760A8400850100080107F3
:100FD800F800780886000130870077088100760AD3
:100FE800860087010130810741310318810A080012
:080FF8009114911C0800FD2F6B
:101A420023001114111C0800232D23001115111D50
:101A52000800282DF30073088D3169250800640001
:101A620080010131890B312D00342E000F1023002B
:101A7200911211162E000F1808003B2D80308B009A
:101A820001302E00960005303D00900008002E0027
:101A92000F10230091152E000F1C4C2D23000C0853
:101AA200080020008D0196017F309200F0309100F5
:101AB2001E303E00C4000800F1002E000F10710815
:101AC20023008C002E000F1C632D23001108080038
:101AD200F2002E000F08F1000430F136890B6E2D52
:101AE200711C6A2D720822009A000800F2008D31E2
:101AF20021258D314E308D315D258D3172080838AA
:101B02008D315D258D318D31262508006B30ED003C
:101B12006D08EE006A08E2006908E1006E30ED002F
:101B22006D08E30000308E3173260800F400F301E3
:101B3200741C9F2D7108F2007208F3070310F10D57
:101B42000310F40C7408031D992D7308080075081E
:101B5200803AF60080307602031DB12D0130740206
:101B6200031808007409F6007509F700F60A03194C
:101B7200F70A7608F4007708F5000800F500750802
:101B8200F3007308F4007508860087010108031941
:101B9200CF2D0130F3007308F507C42D74087502C8
:101BA200F100F201F11BF2030800FA007708F800D5
:101BB2000430F836890BDA2D7808F9007908F30039
:101BC2007A088F311A278D3177080F39F800780893
:101BD200F3007A088F311A27080020009315131694
:101BE2003E00CE114E1214303D00C50015303E00AD
:101BF200A3001430A40013303D00C600803023003F
:101C02008F002830900092014F308D0008003E0076
:101C1200B801200096018C01F03091003E00B8011D
:101C220038081038B800200097018D0111080138DA
:101C320092003E00C30143080138C3000230200075
:101C420093003E00CE0120001308183893000800CC
:101C5200A700A501A60125082707A10021088600E3
:101C620087010108A2002208A40024080319080021
:101C72002408A100A2012108F4002208F50020088E
:101C8200A3002308F6008731B6278E3101302000E9
:101C9200A5070030A63D2C2E2100DD006B30DC00B4
:101CA2005C08DE005D08DC005C08DF00E001E101A9
:101CB200E201E30120006A08E2006908E100DE3087
:101CC2002100DC005C082000E300DF308E31732647
:101CD200210060085D07DC005C0886000130870097
:101CE20081010800E6006208E8006108E7002100BF
:101CF200A801A90120006708840068088500120075
:101D02000319972E6730E4006408CF006308E500EA
:101D12006508D00066088231C1228E314F08210049
:101D2200A807200050082100A93D7B2E2100290888
:101D32002000E200210028082000E100080008300D
:101D420022009F0090309D0024309E002000280831
:101D5200F4002708F3002608F2002508F1000130FC
:101D6200F800E830F7004830F6000030F5008F3117
:101D7200AE278E317108A9007208AA007308AB0061
:101D82007408AC000230AC36AB0CAA0CA90C890B5F
:101D9200C42E2908FF3EFA00FF302A3DFB007A08D4
:101DA20022009B007B089C0010303E00A0001130F6
:101DB2003D00CB000800A200E92EA301FF2E403017
:101DC200E52E1430E52E5430A0002008A300FF2E8B
:101DD2007B08A000A1012108003A0319F12EDE2E92
:101DE2002008013A0319DE2E033A0319E02E013AC4
:101DF2000319E22E073A0319E42EDE2E2208FF3ED3
:101E0200A0002008A30723088038A0002008F700BC
:101E120000308D31D62520002208FF3EA000200888
:101E22002100B8007B08FF3E2000A0002008FC0033
:101E32000800F500F601731C212F76081038232FB5
:101E42007608EF39F4007408F600F31C2B2F76089D
:101E520020382D2F7608DF39F4007408F600731D40
:101E6200352F76084038372F7608BF39F4007408CA
:101E7200F600F31D3F2F76088038412F76087F3910
:101E8200F4007408F600A030890B452F7508031979
:101E92004D2F760801384F2F7608FE39F40074086A
:101EA200F600760804388D3177258F310530890B9D
:101EB200582F00007608FB398D3177250800B000D5
:101EC20021002E1C6D2F20003008AB002B08A00033
:101ED20028088E3129268F312000AA1B752F2A0847
:101EE200AF002908AE00772FAE01AF01AC01AD0102
:101EF2002D08803AAB002F08803A2B02031D832F56
:101F02002E082C020318972F2030F4000030F50021
:101F120020003008AB002B08F6008731B6278F313E
:101F220001302000AC070030AD3D792F21002E1882
:101F3200A32F20003008AB002B08A00028088E3108
:101F420029268F31200028088D31BF252E087107E0
:101F5200A8002F08723DA90008000030A30000303D
:101F6200A2000030A1000030A000740873047204C3
:101F720071040319F72FA401A40AF41BCC2F01301A
:101F8200F135F20DF30DF40D890BC12F0130F9007B
:101F92007908A407BE2F0130A035A10DA20DA30D13
:101FA200890BCD2F74087802031DE12F7308770285
:101FB200031DE12F72087602031DE12F71087502DD
:101FC200031CEC2F7108F5027208F63B7308F73B0D
:101FD2007408F83B20140130F436F30CF20CF10CC7
:101FE200890BED2F0130A402031DCC2F2308F4002E
:101FF2002208F3002108F2002008F100080028342A
:102002000C34013406347434653463346C34613412
:102012002034703472346534733469346F346E34FE
:102022006134643461342034253463340A340A342C
:102032000034313432343334413434343534363488
:10204200423437343834393443342A343034233444
:1020520064340C3468346F346C34613420346D343D
:1020620075346E3464346F340A3425346934003480
:1020720048346F346C346134613461340A340A3464
:1020820000340C34253464342E34253464340A3458
:0A20920000340D34683453343B343D
:020000040001F9
:08000000FF3FFF3FFF3FFF3F00
:0A000E008C3FFF3F9F3FFF3FFF3F85
:00000001FF
