:08000000803102288731EA2F4C
:1000BA0071082100E7007008E600080071082100B5
:1000CA00EB007008EA00080071082100E9007008D6
:1000DA00E8000800F100710880319520803108009D
:1000EA00640080010131890B762800342F009601C3
:1000FA009701980199019A019B01080023008F0139
:10010A0008309000910104308D0090120800603090
:10011A0031008D008F019101033093009201080094
:10012A00F0002E000F1E9A289B289628700822009D
:10013A009A0008003E00C311200092110330F0001B
:10014A009830890BA628F00BA628200097150800DE
:10015A0069302000E9006908EA006808E0006708D9
:10016A00DF006A30E9006908E10000308131BF210F
:10017A008031080080317B208031803183208031BA
:10018A008131F021803180318C2080318031D22040
:10019A00803181311E218031080022008E018F01B9
:1001AA0090019101920193018D0121009E019B0111
:1001BA009C0194019501960197019A0199010330D6
:1001CA009800843093009D0108007408803AF50075
:1001DA0080307502031DF328013073020318F628D4
:1001EA00F72803297309F5007409F600F50A0319BB
:1001FA00F60A7508F3007608F40003290800F400EB
:10020A007408F2007208F3000E290130F200720835
:10021A00F40774088600013087000108031D1629B7
:10022A0017290A2973087402F000F101F01BF1037F
:10023A000800083022009F0090309D0024309E0064
:10024A00CF309B009C010030F0000030F10080317B
:10025A00632081310030F0000030F10080316920E4
:10026A0081310030F0000030F10080315D208131B1
:10027A002100D40108002000A300A101A2015829ED
:10028A002008FB00FC017B08F2007C08F3007A08D6
:10029A00FD007D08F40082312622813101302000E0
:1002AA00A1070030A23D21082307FB007B08860036
:1002BA00013087000108FC007C08A0002008031D0B
:1002CA0067296829452908002100D60069302000DD
:1002DA00EB006B082100D50056082000EB006B08E4
:1002EA002100D700D801D901DA01DB012000680812
:1002FA00E0006708DF00D530EB006B08E100D7307B
:10030A008131BF2181312100580856072000EB00B6
:10031A006B088600870181010800F301F201F301ED
:10032A0020008D1D99299A2995291430890B9B291A
:10033A0020008D1DA129A229AF290130F0007308E0
:10034A00073C890AA929F035890BA8297008F10008
:10035A007108F2048D19B229B329AF290130F000CE
:10036A007008F30708307302031CBC29BD299529BC
:10037A00720808002000E4006008E6005F08E50053
:10038A002100CB01CC01DD296530E2006208CE00F4
:10039A006108E3006308CF00640885317325813161
:1003AA0020004E082100CB0720004F082100CC3D39
:1003BA00200065088400660885001200031DE629EE
:1003CA00E729C92921004C082000E00021004B0838
:1003DA002000DF0008002000960197019801F03004
:1003EA009100FF309200FE309300A5303E00CE000F
:1003FA00FF30C300D030B800E501C401B901CF0114
:10040A00BA01C501D001FF30BB00FF30C600FF3082
:10041A00D100FF30BC00FF30C700FF30D2000830E7
:10042A00E8001030A00011303D00CB001430C500A8
:10043A0015303E00A3001430A40013303D00C6005E
:10044A000800740803192A2A2B2A302A7408031D63
:10045A002F2A302A352A720880316F208231742A75
:10046A007408033E860087011600010403193E2A18
:10047A003F2A5C2A7408033E86008701403FF50044
:10048A00413FF600740A86008701403FF700413F6A
:10049A00F8007808803AF9007608803A7902031D54
:1004AA00582A7508770203185B2A5C2A742A72088C
:1004BA00F500740886008701740A84008501000823
:1004CA000107F60076088600870175088100740A1C
:1004DA00860087010130810741310318810A08002B
:1004EA008031BF20823180319F208231003020004C
:1004FA00E7008830E8008031AD2082318331202343
:10050A00823149302000E7008830E80021004408A1
:10051A002000EC00ED016C08E9006D08EA00DC300F
:10052A00813169218231DC302000E7000030E800A7
:10053A008031AD20823154302000E7008830E80055
:10054A00210045082000EC00ED016C08E9006D0867
:10055A00EA00DC30813169218231DC302000E70099
:10056A000030E8008031AD2082310B302000ED00F0
:10057A002630EC005D30890BC02AEC0BC02AED0B4B
:10058A00C02A00327B2A803102282000AC006E1C6F
:10059A00CF2AD02AD82A2C08A7002708FA0024082C
:1005AA008131402182312000A61BDC2ADD2AE22A81
:1005BA002608AB002508AA00E42AAA01AB01A80173
:1005CA00A901F82A2030F2000030F30020002C089C
:1005DA00A7002708F4008231262282310130200048
:1005EA00A8070030A93D2908803AA7002B08803ABD
:1005FA002702031D022B2A082802031C052B062B9F
:10060A00E72A20006E180A2B0B2B132B2C08A700A5
:10061A002708FA0024088131402182312000240869
:10062A0081310421823120002A087007A4002B0896
:10063A00713DA50008002100BD0120009211971507
:10064A0097112F30F400C030890B292BF40B292B7A
:10065A00200097150E30890B302B0032200092159E
:10066A000330890B362B000020008D1D3D2B3E2BBD
:10067A00422B2100BD01BD0A872B3530890B432B44
:10068A00000020008D194A2B4B2B512B0230F4000D
:10069A0074082100BD00872B3530890B522B0000CE
:1006AA00F501813192218331F4007508BE3E86003E
:1006BA008701740881000130F4007408F5070530D9
:1006CA007502031C692B6A2B562B20009211971571
:1006DA0021003E083F0740074107F4007408C300A1
:1006EA004308420603197A2B7B2B7F2B0330F40035
:1006FA007408BD004008F4007408C4003E08F40001
:10070A007408C5000800F20128308600003087000E
:10071A00473FF000F01F922B932BB42B2000A8091F
:10072A00A909AA09AB09AC09AD09AE09AF09A80A1A
:10073A00031DB22BA90A031DB22BAA0A031DB22B51
:10074A00AB0A031DB22BAC0A031DB22BAD0A031D63
:10075A00B22BAE0A031DB22BAF0AF201F20A203005
:10076A00860000308700473FF000F01FBD2BBE2BEC
:10077A00DD2B2000A009A109A209A309A409A50942
:10078A00A609A709A00A031DDD2BA10A031DDD2B5B
:10079A00A20A031DDD2BA30A031DDD2BA40A031DD8
:1007AA00DD2BA50A031DDD2BA60A031DDD2BA70AD7
:1007BA0020002008210422042304240425042604FA
:1007CA0027040319E92BEA2B3D2CF101F10AF92B35
:1007DA00A035A10DA20DA30DA40DA50DA60DA70D63
:1007EA000130F0007008F107A71FFC2BFD2BED2B41
:1007FA0027082F02031D1B2C26082E02031D1B2C63
:10080A0025082D02031D1B2C24082C02031D1B2C5A
:10081A0023082B02031D1B2C22082A02031D1B2C52
:10082A0021082902031D1B2C20082802031C1E2C48
:10083A001F2C2F2C2008A8022108A93B2208AA3B1A
:10084A002308AB3B2408AC3B2508AD3B2608AE3B4E
:10085A002708AF3BA736A60CA50CA40CA30CA20C28
:10086A00A10CA00C0130F102031D3C2C3D2CFD2BE8
:10087A0072080319412C422C602CA809A909AA095B
:10088A00AB09AC09AD09AE09AF09A80A031D602C72
:10089A00A90A031D602CAA0A031D602CAB0A031DBA
:1008AA00602CAC0A031D602CAD0A031D602CAE0A35
:1008BA00031D602CAF0A20002808A0002908A10007
:1008CA002A08A2002B08A3002C08A4002D08A500C2
:1008DA002E08A6002F08A7000800F2012030860083
:1008EA0000308700473FF000F01F7C2C7D2C9E2CA7
:1008FA002000A009A109A209A309A409A509A6091A
:10090A00A709A00A031D9C2CA10A031D9C2CA20A5C
:10091A00031D9C2CA30A031D9C2CA40A031D9C2CBA
:10092A00A50A031D9C2CA60A031D9C2CA70AF201EA
:10093A00F20A2830860000308700473FF000F01F97
:10094A00A72CA82CCB2C2000A809A909AA09AB0915
:10095A00AC09AD09AE09AF09A80A031DC72CA90A3B
:10096A00031DC72CAA0A031DC72CAB0A031DC72CDB
:10097A00AC0A031DC72CAD0A031DC72CAE0A031D02
:10098A00C72CAF0A0130F0007008F20673308600F7
:10099A00003087000830F00000301E00F00BD22C27
:1009AA002000200821042204230424042504260408
:1009BA0027040319E12CE22C3E2DF101F10AF12C56
:1009CA00A035A10DA20DA30DA40DA50DA60DA70D71
:1009DA000130F0007008F107A71FF42CF52CE52C64
:1009EA00F335F40DF50DF60DF70DF80DF90DFA0DB9
:1009FA0027082F02031D1B2D26082E02031D1B2D5F
:100A0A0025082D02031D1B2D24082C02031D1B2D56
:100A1A0023082B02031D1B2D22082A02031D1B2D4E
:100A2A0021082902031D1B2D20082802031C1E2D44
:100A3A001F2D302D2008A8022108A93B2208AA3B15
:100A4A002308AB3B2408AC3B2508AD3B2608AE3B4C
:100A5A002708AF3B7314A736A60CA50CA40CA30C4D
:100A6A00A20CA10CA00C0130F102031D3D2D3E2D5C
:100A7A00F52C72080319422D432D612DF309F4094F
:100A8A00F509F609F709F809F909FA09F30A031D3C
:100A9A00612DF40A031D612DF50A031D612DF60A65
:100AAA00031D612DF70A031D612DF80A031D612D2F
:100ABA00F90A031D612DFA0A73082000A0007408C0
:100ACA00A1007508A2007608A3007708A400780898
:100ADA00A5007908A6007A08A70008002000DE0011
:100AEA004E0886008701403FD000413FD1005008A0
:100AFA008400510885001200253A031D852D862D94
:100B0A005A2E4E08860087010130810741310318A9
:100B1A00810A2100CD01CE012000EE01EF01FF3054
:100B2A002100CF00FF30D00020004E088600870148
:100B3A00403FD000413FD100500884005108850051
:100B4A001200643A0319AA2DAB2DBC2D4E0886005B
:100B5A008701403FD000413FD1005008840051082E
:100B6A0085001200693A031DBB2DBC2DF72D4E08D6
:100B7A00860087010130810741310318810A4F0835
:100B8A008600870101088400850102308107003F41
:100B9A00D000013FD1005008D5005108D600890D78
:100BAA00893B8909D700D800D900DA00DB00DC00CC
:100BBA005508B0005608B1005708B2005808B300EB
:100BCA005908B4005A08B5005B08B6005C08B700BB
:100BDA005E0886317E26853120003108CF00300834
:100BEA00CE007D2E4E0886008701403FD000413F4F
:100BFA00D100500884005108850012006E3A031D86
:100C0A00072E082E272E4E088600870101308107FD
:100C1A0041310318810A4F0886008701403F84004A
:100C2A008501810A0008D0005008DD005D088600B1
:100C3A00870121004B08C03F4C08C13F2000CE016C
:100C4A00CF017D2E4E0886008701403FD000413FEC
:100C5A00D10050088400510885001200253A031D6E
:100C6A00372E382E512E4E08860087010130810713
:100C7A0041310318810A2530F2000030F3005E0882
:100C8A00D0005008F400823126228531013020003C
:100C9A00CE000030CF007D2E4E088600870101303D
:100CAA00810741310318810A232E4E0886008701E5
:100CBA00403FD000413FD1005008840051088500D0
:100CCA000008D200D3015208F2005308F3005E086C
:100CDA00D4005408F40082312622853120004E08BF
:100CEA00860087010130810741310318810A4B2EA2
:100CFA0008002000BD003008C4003108C5003208D1
:100D0A00C6003308C7003408C8003508C9003608C9
:100D1A00CA003708CB004430860000308700473FBE
:100D2A00B800B81B992E9B2E01309C2E0030200053
:100D3A00B900BA013908C2003A08C300420843049C
:100D4A000319A82EA92EC72EC409C509C609C709A1
:100D5A00C809C909CA09CB09C40A031DC72EC50A8D
:100D6A00031DC72EC60A031DC72EC70A031DC72E99
:100D7A00C80A031DC72EC90A031DC72ECA0A031DA6
:100D8A00C72ECB0A2100D01BCB2ECC2ED12EFD3064
:100D9A002000EE05FF30EF0521005008803A2000C0
:100DAA00B80080303802031DDD2E013021004F02C9
:100DBA000318E02EE12EE72E01302000BE0000309D
:100DCA00BF00EF2E210050082000BF0021004F086D
:100DDA002000BE0021004E082000C10021004D085D
:100DEA002000C00042084304031DFC2EFD2E012FE3
:100DFA006E1D002F012F052FFF30C007FF30C13DA8
:100E0A001F30CC000030CD002200BF01752FFF300B
:100E1A002000CC07FF30CD3D0A30A000A101A2017D
:100E2A00A301A401A501A601A7014408A800450839
:100E3A00A9004608AA004708AB004808AC004908C0
:100E4A00AD004A08AE004B08AF00833188238631D3
:100E5A0020002108F4002008F3008031EA208631BE
:100E6A007308303E2000B8004C08203E860001304E
:100E7A00870038088100FF30BE07FF30BF3DFF30D2
:100E8A00C007FF30C13D0A30A000A101A201A301A1
:100E9A00A401A501A601A7014408A8004508A900C4
:100EAA004608AA004708AB004808AC004908AD004C
:100EBA004A08AE004B08AF00843172248631200004
:100ECA002008C4002108C5002208C6002308C7005C
:100EDA002408C8002508C9002608CA002708CB002C
:100EEA0020004D08803AB80080303802031D7F2F59
:100EFA0001304C02031C822F832FB02F200044089C
:100F0A00450446044704480449044A044B04031DA3
:100F1A008F2F902F0C2F3F08803AB800803038026C
:100F2A00031D992F01303E0203189C2F9D2F0C2F71
:100F3A0020004108803AB80080303802031DA72FEC
:100F4A0001304002031CAA2FAB2FB02F2000EE184D
:100F5A00AF2FB02F0C2F200042084304031DB62FD9
:100F6A00B72FBB2F6E1DBA2FBB2FD72FFF30CC0741
:100F7A00FF30CD3D42084304031DC42FC52FCA2F9D
:100F8A002B30BB000030BC00CE2F2D30BB00003010
:100F9A00BC003B08B8004C08203E860001308700A0
:100FAA00380881004C08203EB8003808A4004108DF
:100FBA00A6004008A5003D088231CA2286312000D9
:100FCA002508B1002408B00008002000EE01EF0156
:100FDA00A03084000030850035308031752087319B
:100FEA00203084000130850020308031752087311F
:100FFA0020008231752A0A340A34533465346E3437
:10100A0073346F3472342034643465342034543485
:10101A0065346D34703465347234613474347534C3
:10102A0072346134203479342034483475346D3460
:10103A006534643461346434203444344834543478
:10104A003134313420340034003400340034003474
:10105A0000340034003400340034003400340034E6
:10106A0000340034003400340034003400340034D6
:10107A0000340034003400340034003400340034C6
:10108A000034003400340034543465346D343A3456
:10109A00253469342E34303430340A340034483438
:1010AA0075346D343A34253469342E34303430345E
:0C10BA000A34003428340C3401340634AD
:020000040001F9
:0A000E00EC3FFF3F9F3FFF3FFF3F25
:00000001FF
