:08000000803102288731F32F43
:10000A002100AD00A2302000EA006A082100AC00FD
:10001A002D082000EA006A082100AE00AF01B001F5
:10002A00B101B20121082000E300210020082000CC
:10003A00E200AC30EA006A08E400AE308C318A246F
:10004A00803121002F082D072000EA006A08860067
:10005A008701810108002000A501A60127308C3103
:10006A00BB2480315B302000B300E730890B3B288A
:10007A00B30B3B2800322000B4010330B30033082D
:10008A00AB0000308031902080310D302000B30069
:10009A00FB30890B4E28B30B4E280032013020006A
:1000AA00B3003308B40703303402031C5D285E280A
:1000BA0042280230B3003308AB0000308031902070
:1000CA0080312000B4013408853E84009030031842
:1000DA00013E85000008B3003308AF0000308A31C2
:1000EA00A12280310D302000B300FB30890B7B2820
:1000FA00B30B7B28003201302000B3003308B40769
:10010A0004303402031C8A288B2868282200C5017F
:10011A002100EF0108002000AD00AE012B1C96283B
:10012A0097289D282E081038AC002C08AE00A2286B
:10013A002E08EF39AC002C08AE00AB1CA528A62867
:10014A00AC282E082038AC002C08AE00B1282E08A6
:10015A00DF39AC002C08AE002B1DB428B528BB280B
:10016A002E084038AC002C08AE00C0282E08BF3933
:10017A00AC002C08AE00AB1DC328C428CA282E0820
:10018A008038AC002C08AE00CF282E087F39AC008E
:10019A002C08AE002830890BD02820002D0803191E
:1001AA00D728D828DE282E080138AC002C08AE0043
:1001BA00E3282E08FE39AC002C08AE002E080438BD
:1001CA0089315B2180310032003220002E08FB3950
:1001DA0089315B21803108002000A701A801A00114
:1001EA00A101FB280130F6070030F73DA601A60A57
:1001FA0076088400770885001200203A0319062938
:10020A0007291C2976088400770885000008F73E2C
:10021A00F800FF3003180030F90000307902053089
:10022A0003197802031C1A291B291C29A60126086E
:10023A00F800F9017808A2007908A300220823042B
:10024A00031D28292929F72833290130A000003065
:10025A00A1000130F6070030F73D672976088400CF
:10026A00770885000008F800F9017908003A0319AF
:10027A003F29672978082B3A03192E29063A0319C8
:10028A002A29672976088400770885000008F8007B
:10029A002808F1002708F0000A30F2000030F300C5
:1002AA008A31D82280317108FA0078087002F90080
:1002BA00031CFA037908303E2000A70000307A3D7B
:1002CA00A8002E2976088400770885000008D03E09
:1002DA00F800FF3003180030F900003079020A30C4
:1002EA0003197802031C7A297C2901307D29003000
:1002FA00FA00FB017A08A4007B08A500240825045B
:10030A00031D88298929472920082104031D8E29CC
:10031A008F299B292709F8002809F900F80A0319E7
:10032A00F90A7808F6007908F7009F292808F700E3
:10033A002708F6000800F2012830860000308700FE
:10034A00473FF000F01FAA29AB29CC292000A809B1
:10035A00A909AA09AB09AC09AD09AE09AF09A80AEE
:10036A00031DCA29A90A031DCA29AA0A031DCA29E3
:10037A00AB0A031DCA29AC0A031DCA29AD0A031D0B
:10038A00CA29AE0A031DCA29AF0AF201F20A2030AD
:10039A00860000308700473FF000F01FD529D62994
:1003AA00F5292000A009A109A209A309A409A50900
:1003BA00A609A709A00A031DF529A10A031DF52903
:1003CA00A20A031DF529A30A031DF529A40A031D80
:1003DA00F529A50A031DF529A60A031DF529A70A69
:1003EA0020002008210422042304240425042604CE
:1003FA0027040319012A022A552AF101F10A112AAE
:10040A00A035A10DA20DA30DA40DA50DA60DA70D36
:10041A000130F0007008F107A71F142A152A052ACF
:10042A0027082F02031D332A26082E02031D332A0A
:10043A0025082D02031D332A24082C02031D332A02
:10044A0023082B02031D332A22082A02031D332AFA
:10045A0021082902031D332A20082802031C362AF0
:10046A00372A472A2008A8022108A93B2208AA3BC2
:10047A002308AB3B2408AC3B2508AD3B2608AE3B22
:10048A002708AF3BA736A60CA50CA40CA30CA20CFC
:10049A00A10CA00C0130F102031D542A552A152A79
:1004AA0072080319592A5A2A782AA809A909AA09ED
:1004BA00AB09AC09AD09AE09AF09A80A031D782A30
:1004CA00A90A031D782AAA0A031D782AAB0A031D62
:1004DA00782AAC0A031D782AAD0A031D782AAE0AC7
:1004EA00031D782AAF0A20002808A0002908A100C5
:1004FA002A08A2002B08A3002C08A4002D08A50096
:10050A002E08A6002F08A7000800F2012030860056
:10051A0000308700473FF000F01F942A952AB62A38
:10052A002000A009A109A209A309A409A509A609ED
:10053A00A709A00A031DB42AA10A031DB42AA20A04
:10054A00031DB42AA30A031DB42AA40A031DB42A4C
:10055A00A50A031DB42AA60A031DB42AA70AF20192
:10056A00F20A2830860000308700473FF000F01F6B
:10057A00BF2AC02AE32A2000A809A909AA09AB09A7
:10058A00AC09AD09AE09AF09A80A031DDF2AA90AF9
:10059A00031DDF2AAA0A031DDF2AAB0A031DDF2A6D
:1005AA00AC0A031DDF2AAD0A031DDF2AAE0A031DAA
:1005BA00DF2AAF0A0130F0007008F20673308600B5
:1005CA00003087000830F00000301E00F00BEA2AE5
:1005DA0020002008210422042304240425042604DC
:1005EA0027040319F92AFA2A562BF101F10A092BD1
:1005FA00A035A10DA20DA30DA40DA50DA60DA70D45
:10060A000130F0007008F107A71F0C2B0D2BFD2AF3
:10061A00F335F40DF50DF60DF70DF80DF90DFA0D8C
:10062A0027082F02031D332B26082E02031D332B06
:10063A0025082D02031D332B24082C02031D332BFE
:10064A0023082B02031D332B22082A02031D332BF6
:10065A0021082902031D332B20082802031C362BEC
:10066A00372B482B2008A8022108A93B2208AA3BBD
:10067A002308AB3B2408AC3B2508AD3B2608AE3B20
:10068A002708AF3B7314A736A60CA50CA40CA30C21
:10069A00A20CA10CA00C0130F102031D552B562B04
:1006AA000D2B720803195A2B5B2B792BF309F409CA
:1006BA00F509F609F709F809F909FA09F30A031D10
:1006CA00792BF40A031D792BF50A031D792BF60AF7
:1006DA00031D792BF70A031D792BF80A031D792BC1
:1006EA00F90A031D792BFA0A73082000A00074087E
:1006FA00A1007508A2007608A3007708A40078086C
:10070A00A5007908A6007A08A70008002000BD0005
:10071A003008C4003108C5003208C6003308C700D3
:10072A003408C8003508C9003608CA003708CB00A3
:10073A004430860000308700473FB800B81BA62B1C
:10074A00A82B0130A92B00302000B900BA013908C2
:10075A00C2003A08C300420843040319B52BB62B5A
:10076A00D42BC409C509C609C709C809C909CA09D0
:10077A00CB09C40A031DD42BC50A031DD42BC60AF0
:10078A00031DD42BC70A031DD42BC80A031DD42B5F
:10079A00C90A031DD42BCA0A031DD42BCB0A220073
:1007AA00C21BD82BD92BDD2BFD30C305FF30C40566
:1007BA004208803A2000B80080303802031DE82B36
:1007CA000130220041020318EB2BEC2BF22B0130F3
:1007DA002000BE000030BF00FA2B22004208200091
:1007EA00BF00220041082000BE002200400820006D
:1007FA00C10022003F082000C00042084304031D34
:10080A00072C082C0D2C2200431D0C2C0D2C122C0D
:10081A00FF302000C007FF30C13D1F302000CC0050
:10082A000030CD002200E601832CFF302000CC07E7
:10083A00FF30CD3D0A30A000A101A201A301A4010D
:10084A00A501A601A7014408A8004508A900460871
:10085A00AA004708AB004808AC004908AD004A089E
:10086A00AE004B08AF008131A0218331200021085E
:10087A00F4002008F3008A316D2283317308303E78
:10088A002000B8004C08473E86000130870038082F
:10089A008100FF30BE07FF30BF3DFF30C007FF3089
:1008AA00C13D0A30A000A101A201A301A401A50132
:1008BA00A601A7014408A8004508A9004608AA00FD
:1008CA004708AB004808AC004908AD004A08AE002A
:1008DA004B08AF0082318A22833120002008C400ED
:1008EA002108C5002208C6002308C7002408C8003A
:1008FA002508C9002608CA002708CB0020004D0891
:10090A00803AB80080303802031D8D2C01304C0229
:10091A00031C902C912CBE2C20004408450446044C
:10092A004704480449044A044B04031D9D2C9E2C89
:10093A001A2C3F08803AB80080303802031DA72CD1
:10094A0001303E020318AA2CAB2C1A2C20004108B5
:10095A00803AB80080303802031DB52C01304002BD
:10096A00031CB82CB92CBE2C2200C318BD2CBE2CDB
:10097A001A2C200042084304031DC42CC52CCA2C7F
:10098A002200431DC92CCA2CE72CFF302000CC07BB
:10099A00FF30CD3D42084304031DD42CD52CDA2C5C
:1009AA002B30BB000030BC00DE2C2D30BB000030E9
:1009BA00BC003B08B8004C08473E8600013087005F
:1009CA003808810020004C08473EB8003808A400C7
:1009DA004108A6004008A5003D088F314C27833105
:1009EA0020002508B1002408B00008002100E50114
:1009FA0089316821843189311C2184318B318423E6
:100A0A00843180313020843162302000B800903047
:100A1A00B9008F31A52784312000A50138308D31E6
:100A2A00242584312100B3003308E7000230B300E3
:100A3A0033082000A50038308D3124258431210067
:100A4A00B4003408EE00EE0EEE0CEE0C0330EE05A8
:100A5A006E08B3003308F00019308931CC21843193
:100A6A002100B4003408EE0020302000EA00903063
:100A7A00EB0021006708B300B40133082000EC0042
:100A8A00210034082000ED0021006E08B500B601EF
:100A9A0035082000EE00210036082000EF008931D9
:100AAA00E12184315E302000EA009030EB00210021
:100ABA006508B300B40133082000EC0021003408B3
:100ACA002000ED008931E121843101302100B30099
:100ADA003308E5074F30A0009030A1006708B30043
:100AEA00B4013308A2003408A3006E08B500B601A9
:100AFA003508A4003608A500BD30803105208431B0
:100B0A00BD308931F6218431E9302100B300330840
:100B1A002000A900EA302100B40034082000AA000D
:100B2A00E8308D315A2584317B302100A000903085
:100B3A00A1006808B300B4013308A2003408A30076
:100B4A006908B500B6013508A4003608A5006A0888
:100B5A00B700B8013708A6003808A700BD308031B1
:100B6A0005208431BD302000EA000030EB008931D5
:100B7A00E1218431BD308931F62184313A302100B6
:100B8A00A0009030A1006708B300B4013308A200A6
:100B9A003408A3006E08B500B6013508A40036086B
:100BAA00A5006808B700B8013708A6003808A700EA
:100BBA006908B900BA013908A8003A08A9006A0800
:100BCA00BB00BC013B08AA003C08AB00BD30803129
:100BDA0005208431BD302000B8000030B9008F31C3
:100BEA00A527843103302100B3009730890BFB2DF0
:100BFA00B30BFB2D0032EC302100B3003308200088
:100C0A00A900ED302100B40034082000AA00E63023
:100C1A002100B50035082000AB00EB308E31582694
:100C2A00843170302100A0009030A1006B08B3001D
:100C3A00B4013308A2003408A3006C08B500B60159
:100C4A003508A4003608A5006D08B700B8013708B2
:100C5A00A6003808A700BD30803105208431BD3098
:100C6A002000EA000030EB008931E1218431BD30F7
:100C7A008931F62184316F302100A0009030A10023
:100C8A006B08B300B4013308A2003408A3006C084F
:100C9A00B500B6013508A4003608A5006D08B700EE
:100CAA00B8013708A6003808A700BD3080310520F2
:100CBA008431BD302000B8000030B9008F31A5273B
:100CCA0084310E302100B4003130B3009430890BE6
:100CDA006C2EB30B6C2EB40B6C2E0000112D8031D0
:100CEA0002282000E1004E0886008701403FD0001C
:100CFA00413FD10050088400510885001200253A6E
:100D0A00031D882E892ECF2F4E08860087010130B9
:100D1A00810741310318810A2200BF01C001C301C2
:100D2A00C401FF30C100FF30C20020004E08860017
:100D3A008701403FD000413FD1005008840051084C
:100D4A00850012002A3A031DAB2EAC2ECC2E4E087B
:100D5A00860087010130810741310318810A4F0853
:100D6A008600870101088400850102308107003F5F
:100D7A002200BF00013FC000C01FC42EC52E0E2F87
:100D8A004314BF09C009BF0A0319C00A0E2F4E082F
:100D9A0086008701403FF600413FF7008031F1208D
:100DAA00863177082200C0007608BF00E42E4E087C
:100DBA00860087010130810741310318810A20002A
:100DCA004E0886008701403FD000413FD1005008BD
:100DDA008400510885000008D03ED200FF30031875
:100DEA000030D300003053020A3003195202031CA8
:100DFA00FF2E012F0130022F0030D400D5015408F4
:100E0A00DE005508DF005E085F04031D0D2F0E2F5C
:100E1A00DC2E20004E0886008701403FD000413F6B
:100E2A00D10050088400510885001200643A031961
:100E3A001F2F202F312F4E0886008701403FD000F8
:100E4A00413FD10050088400510885001200693AD8
:100E5A00031D302F312F6C2F4E0886008701013079
:100E6A00810741310318810A4F088600870101086A
:100E7A008400850102308107003FD000013FD10084
:100E8A005008D6005108D700890D893B8909D80036
:100E9A00D900DA00DB00DC00DD005608B000570894
:100EAA00B1005808B2005908B3005A08B4005B08E8
:100EBA00B5005C08B6005D08B700610883318B2372
:100ECA00863120003108CF003008CE00F22F4E08BC
:100EDA0086008701403FD000413FD100500884007E
:100EEA005108850012006E3A031D7C2F7D2F9C2F1E
:100EFA004E08860087010130810741310318810AB3
:100F0A004F0886008701403F84008501810A000856
:100F1A00D0005008E00060088600870122003D08E2
:100F2A00C03F3E08C13F2000CE01CF01F22F4E083C
:100F3A0086008701403FD000413FD100500884001D
:100F4A00510885001200253A031DAC2FAD2FC62F7C
:100F5A004E08860087010130810741310318810A52
:100F6A002530F2000030F3006108D0005008F40088
:100F7A008E31A626863101302000CE000030CF0007
:100F8A00F22F4E088600870101308107413103188C
:100F9A00810A982F4E0886008701403FD000413FC2
:100FAA00D10050088400510885000008D200D301FE
:100FBA005208F2005308F3006108D4005408F40000
:100FCA008E31A626863120004E0886008701013020
:100FDA00810741310318810AC02F08002100EF015F
:100FEA00203084000130850047308831DA2087318B
:060FFA0020008431FB2CF5
:1010B00001300800053008002E000F100800230042
:1010C000901208002E0019100800230011140800C7
:1010D0002300911408002300111508002300911526
:1010E000080023000C0808002E000F14080023003D
:1010F0009116111608002300911211160800F00035
:10110000700823008C0008002200BC10BB010E30C8
:101110000800883168208831013008008831682053
:101120008831023008008831682088310130080099
:1011300088316B2088310030080088317B2088316D
:10114000053008008831772088310A30080088315E
:1011500077208831093008002200BC10BB010E3016
:10116000080000308B313A238831080071082200D2
:10117000E8007008E700080071082200EC00700821
:10118000EB00080071082200EA007008E90008007E
:101190002300110E890C890C013908002E000F1C48
:1011A000D228D328CE280800F100710889311221F5
:1011B00088310800640080010131890BDB2800348C
:1011C00022003C1088316E208831043008002F0046
:1011D00096019701980199019A019B01080022004C
:1011E0003C14363588317F208831033008002300D5
:1011F0008F0108309000910104308D00901208009A
:10120000603031008D008F01910103309300920115
:10121000080022003C140314360D88317F208931E8
:1012200005300800F0002E000F1E17291829132979
:10123000700822009A000800200098160E179312DA
:10124000131798164530890B2329000008007608EB
:10125000F1007508F0007708F8007808F200003017
:101260008B31D623893108003B298831CE20893142
:101270008C312D2489312200BC183F294029352981
:1012800008002300901A452946294D298F0108306E
:101290009000910104308D00901608007608F1004E
:1012A0007508F0007708F8007808F20002308B31FA
:1012B000D623893108002000AA00A5012A08083891
:1012C000A9002908A60027308C31BB2489310800E9
:1012D0008831E72089318831F72089318C31EE243B
:1012E00089318931002189318B31182389310800F6
:1012F000F3002200BC1D7D297E2987297308F20096
:101300007208B7007108B9007008B800BC11080075
:101310000230F0000030F1007908893178218931FC
:101320000030F500F600F7018931272189310430BA
:1013300008000130F0000030F1007908893178218F
:1013400089310030F500F600F70189312721893114
:10135000023008000230F0000030F10079088931D5
:10136000782189310030F500F600F7018931272115
:101370008931023008000130F0000030F1007908B6
:101380008931782189310030F500F600F701893183
:101390002721893104300800F300F201731CD129A0
:1013A000D229D6297008F1007108F2070310F00D58
:1013B0000310F30C7308031DDE29DF29CE29720800
:1013C00008006C302100A0002008A10020006B085C
:1013D000E3006A08E200A1302100A00020082000FC
:1013E000E40000308C318A2489310800F400032A9B
:1013F00074088600870101088B315D238931013033
:10140000F3007308F4077408860087010108031DC0
:101410000A2A0B2AF8290800790886008701403F2C
:10142000F000413FF1007908023E86008701010883
:10143000893178218A310030F500F600F7018931D1
:1014400027218A3102300800F2007208F00070088B
:10145000F3000310F30C7830F0007008F3050F3040
:101460007205F0007308F1000230F136890B352A5D
:1014700071087007730708007008D03EF200FF3053
:10148000713DF300003073020A3003197202031C2D
:101490004A2A4C2A01304D2A0030F400F501740824
:1014A000F0007508F1000800F1007108F000700804
:1014B000F300F2010A307302031C5F2A602A672AD4
:1014C0000A30F3021030F0007008F2075A2A73084D
:1014D000F0007008F207720808007408803AF500FE
:1014E00080307502031D762A013073020318792AB1
:1014F0007A2A862A7309F5007409F600F50A031999
:10150000F60A7508F3007608F400862A0800F4004D
:101510007408F2007208F300912A0130F200720898
:10152000F40774088600013087000108031D992A1A
:101530009A2A8D2A73087402F000F101F01BF1035E
:1015400008002000B2002F08B0000430B036890B2C
:10155000A62A3008B1003108AB0032088031902053
:101560008A3120002F080F39B0003008AB00320854
:10157000803190208A310800F101F10A2200BC1864
:10158000C22AC32AD62A3C11FF30F0007008B600E8
:1015900088315C208A31883162208A3188315F202D
:1015A0008A3122003B08F0007008F1007108080041
:1015B000F401F501701CDD2ADE2AE22A7208F40724
:1015C0007308F53D0130F235F30D890BE32A013044
:1015D000F136F00C890BE82A70087104031DF12A1A
:1015E000F22ADA2A7508F1007408F0000800F40104
:1015F000F40A2030700671040319FF2A002B102B07
:101600007008F73EF200FF30713DF30000307302C6
:10161000053003197202031C0E2B0F2B102BF40143
:101620007408F200F3017208F0007308F10008007A
:10163000083022009F0090309D0024309E00CF3063
:101640009B009C010030F0000030F1008831BC208C
:101650008B310030F0000030F1008831C2208B3136
:101660000030F0000030F1008831B6208B312200CC
:10167000C60108002000A300A401A40A2200BC188F
:10168000422B432B5A2BBC142000A401230803191E
:101690004A2B4B2B4F2B2200BA01BA0A542B023093
:1016A000FD007D082200BA00883165208B31893128
:1016B00034218B31200024080800F100200098120A
:1016C0004530890B612B0000F201F20A71087205A6
:1016D00003196B2B6C2B6F2B20009816712B20009D
:1016E00098124430890B722B7235F0007008F200AA
:1016F0007208031D7C2B7D2B662B2000981645302D
:10170000890B802B000008002000A50168308D3176
:1017100024258B318A3124228B312000A90029080D
:10172000AA002A087F398A3154228B312000A9006F
:101730002908AA000630890B9B2B00322000A50146
:101740002A08A9002908A60068308C31BB248B31F7
:101750000630890BA92B003208002000A300A1014C
:10176000A201C52B2008FB00FC017B08F2007C08CD
:10177000F3007A08FD007D08F4008E31A6268B3137
:1017800001302000A1070030A23D21082307FB0003
:101790007B088600013087000108FC007C08A0005F
:1017A0002008031DD42BD52BB22B0800F4007008A1
:1017B00071040319DC2BDD2BF02B7435203E8600E1
:1017C000013087007008C03F7108C13F7208F30004
:1017D00074082C3E86000130870073088100FF2BBF
:1017E0007435203E8600013087005830C03F0830F5
:1017F000C13F74082C3E860001308700810108003B
:1018000022003C100230FA007A08BB000F2C88310D
:1018100093208C312C2C883198208C312C2C2E0844
:10182000FA007A08F9000430203E86000130870073
:10183000413F8A00403F0A008C31FB00FC017C08DC
:10184000003A0319242C0B2C7B08023A0319072CAD
:10185000013A0319072C0B2C080088315C208C31CD
:1018600022003C1C342C352C432C8831C8208C3170
:10187000003A03193C2C3D2C432C0F302000A000D3
:1018800020082200BA0022003A082000A000A1018E
:10189000A035A10D0030200784009030213D850047
:1018A000013F8A00003F0A008C312000A20022087C
:1018B0002200BA0008002200BC156B2C883193204E
:1018C0008C31892C883174208C310330892C8831FB
:1018D00098208C31892C2C08FA007A08F90021080C
:1018E0008A0020080A008C31FB00FC017C08003AC9
:1018F00003197B2C672C7B08013A0319672C033AE8
:1019000003195E2C013A03195E2C073A0319622C65
:10191000672C08002000E7006308E9006208E8007F
:101920002200BD01BE01A82C6830E5006508CE008C
:101930006408E6006608CF006708863176268C3199
:1019400020004E082200BD0720004F082200BE3DA7
:10195000200068088400690885001200031DB12C6E
:10196000B22C942C22003E082000E30022003D0807
:101970002000E20008002000A800200028088D3187
:1019800091258C31003A0319C62CC72CBD2CBB30D5
:10199000F5000930F60026302000A7002708F700E0
:1019A000893127218C310130F0000030F1002530E1
:1019B000893178218C310030F500F600F70189314A
:1019C0004E218C318831B1208C318A31BC228C314E
:1019D000013A0319EC2CED2CE52C080020009601AF
:1019E00097019801F0309100FF309200FE30930093
:1019F000E4303E00CE00FF30C300C030B800E50147
:101A0000C401B901CF01BA01C501D001FF30BB004B
:101A1000FF30C600FF30D100FF30BC00FF30C700F0
:101A2000FF30D2000830E8001030A00011303D0037
:101A3000CB001430C50015303E00A3001430A400C4
:101A400013303D00C60008002000A700A8012000B8
:101A500027088D3191258D31003A0319302D312D14
:101A6000272D9930F5000930F60028302000A60017
:101A70002608F700893127218D310130F000003030
:101A8000F1002530893178218D310030F500F600E4
:101A9000F70189314E218D318831B1208D318A3164
:101AA000BC228D31013A0319562D572D4F2D2000A0
:101AB000280808002000AD00A50168308D312425DC
:101AC0008D317F398A3124228D312000AB002A08E4
:101AD000860087012B088100A501A50A68308D3199
:101AE00024258D317F398A3124228D312000AB00AD
:101AF0002908860087012B0881000230AB002B08E3
:101B0000A50068308D3124258D313F398A3124225A
:101B10008D312000AC002D08860087012C08810043
:101B20000800F100F201F20A22003C19982D992DCB
:101B3000C92D7108F0007008B600BC103C153C10AF
:101B40000E30F0007008BA00F430B4000130B50077
:101B5000BC155830A0000830A100AC015830A200DC
:101B60000830A300AD015830A4000830A500AE0134
:101B70005830A6000830A700AF015A30A80008303E
:101B8000A900B00188315C208D31893141218D312E
:101B9000F20172080800883171208D31FA002200AC
:101BA0003708860087017A0881000130FA007A0838
:101BB000B7070130B8020030B93B380839040319BF
:101BC000E22DE32DE82D88317B208D310530102E5C
:101BD000BC15F22D8831A7208D31102E8831A2201E
:101BE0008D31102E2C08FA007A08F90021088A009D
:101BF00020080A008D31FB00FC017C08003A031923
:101C0000022EEE2D7B08013A0319EE2D033A03193B
:101C1000EA2D013A0319EA2D073A0319EE2DEE2DAC
:101C200008002000B600252EB7013B2E4030B4003E
:101C30003408B7003B2E1430B4003408B7003B2EF4
:101C40005430B4003408B7003B2E3308B400B5015B
:101C50003508003A03192D2E142E3408013A0319C1
:101C6000142E033A0319162E013A03191B2E073AB4
:101C70000319202E142E3608FF3EB4003408B7078F
:101C800037088038B4003408AF0000308A31A12210
:101C90008E3120003608FF3EB40034082200C50013
:101CA00020003308FF3EB40034082100EF00080094
:101CB0002000AE000330AC002C08A50068308D3148
:101CC00024258E317F398A3124228E312000AD00C7
:101CD0002B08860087012D0881000430AC002C08F9
:101CE000A50068308D3124258E313F398A31242278
:101CF0008E312000AD002E08860087012D0881005E
:101D00000530AC002C08A50068308D3124258E31BB
:101D10001F398A3124228E312000AD002908860027
:101D200087012D0881000630AC002C08A500683022
:101D30008D3124258E318A3124228E312000AD0050
:101D40002A08860087012D088100080074080319FD
:101D5000AA2EAB2EB02E7408031DAF2EB02EB52EBA
:101D600072088831D4208E31F42E7408033E860028
:101D70008701160001040319BE2EBF2EDC2E740845
:101D8000033E86008701403FF500413FF600740A9C
:101D900086008701403FF700413FF8007808803A0D
:101DA000F9007608803A7902031DD82E750877026B
:101DB0000318DB2EDC2EF42E7208F5007408860062
:101DC0008701740A8400850100080107F60076087F
:101DD0008600870175088100740A8600870101303A
:101DE000810741310318810A08008831C8208E31EB
:101DF000003A0319FC2EFD2E2E2F0A2F8831892040
:101E00008E314B2F88318E208E314B2F8831982088
:101E10008E314B2F22002F08FA007A08F900063085
:101E2000203E860001308700413F8A00403F0A0083
:101E30008F31FB00FC017C08003A0319202F062F8C
:101E40007B08013A0319062F033A0319FE2E013AC3
:101E50000319022F073A0319062F062F22003C1000
:101E60001730203E860001308700403F8400850106
:101E7000810A000888317F208E3101302200B802AB
:101E80000030B93B38083904031D472F482F4A2F2B
:101E900006304B2F033008002000AC002200431C0A
:101EA000522F532F5C2F20002C08A7002708FA0080
:101EB00024088B31AD238F312000A61B602F612FAA
:101EC000662F2608AB002508AA00682FAA01AB01DF
:101ED000A801A9017C2F2030F2000030F30020007F
:101EE0002C08A7002708F4008E31A6268F31013078
:101EF0002000A8070030A93D2908803AA7002B0838
:101F0000803A2702031D862F2A082802031C892FE6
:101F10008A2F6B2F220043188E2F8F2F982F20008F
:101F20002C08A7002708FA0024088B31AD238F3135
:101F3000200024088A3187228F3120002A08700768
:101F4000A4002B08713DA5000800F52FAF01AF0AD2
:101F500000308A31A1228F3106302000BA003030A3
:101F6000890BB02FBA0BB02F00002200C501210051
:101F7000EF0106302000BA003030890BBD2FBA0BBC
:101F8000BD2F0000F02F21006F08023E2000BA0094
:101F90003A08B30001308E3111268F31F02F380806
:101FA0008400390885000008BA003A08AF00013003
:101FB0008A31A1228F31F02F38088400390885003A
:101FC0000008BA00BB013B08003A0319E82FCF2FE5
:101FD0003A080A3A0319C32F063A0319A62FCF2F3E
:101FE00001302000B8070030B93D200038088400D7
:101FF000390885001200031DFE2FFF2FDC2F08007B
:102000008434083409340934EF340834F5340E3498
:10201000CB340D34E03408345B340C348934083468
:102020008E34083493340834983408349D3408349A
:10203000A2340834A7340834AC34083400340C34E7
:102040006C3461342034743465346D3470346534E8
:1020500072346134743475347234613420346534CC
:1020600073343A342034253464342E3425346434C3
:10207000093400340C34253464342E34253432349D
:10208000643443342C342034253464343A342534D5
:1020900064343A34253432346434093400344C34F2
:1020A00061342034743465346D34703420346534D4
:1020B00073343A342034253464342E342534643473
:1020C0000A3400340C3448346F346C3461340A34CC
:1020D00064347334333432343334313400340A34B6
:1020E000253464342D34253464342D34253464345B
:1020F0000A340A340034253464343A3425346434E0
:102100003A34253464340934003428340C3401342E
:02211000063493
:020000040001F9
:0A000E00EC3FFF3F9F3FFF3FFF3F25
:00000001FF
