:08000000803102288731FA2F3C
:100D8C003E00B801200096018C011108F039910049
:100D9C001108203891003E00B801200097018D0108
:100DAC001208043892003E00C3010800F301F4015C
:100DBC0071087402031DE42E7008730203180E2FC1
:100DCC000B30F2006230890BE92EF20BE92E003267
:100DDC0020000C08F2000530F236890BF22E721846
:100DEC00092F0C08F2000530F236890BFA2E721C12
:100DFC00F72E0130F2007208AD0705302D06031DE9
:100E0C00092F013008000130F3070030F43DDE2ECD
:100E1C0000300800083022009F0090309D002430E4
:100E2C009E0020002308F3002208F2002108F100A4
:100E3C002008F0000130F700E830F6004830F500EB
:100E4C000030F40087314E2787317008A4007108F8
:100E5C00A5007208A6007308A7000230A736A60CDE
:100E6C00A50CA40C890B342F2408FF3EA800FF30DE
:100E7C00253DA900280822009B00200029082200FB
:100E8C009C0010303E00A00011303D00CB0008004B
:100E9C000030FC000030FB000030FA000030F9009C
:100EAC0073087204710470040319972FFD01FD0A75
:100EBC00F31B6C2F0130F035F10DF20DF30D890B96
:100ECC00612F0130F8007808FD075E2F0130F935ED
:100EDC00FA0DFB0DFC0D890B6D2F73087702031DAA
:100EEC00812F72087602031D812F71087502031D74
:100EFC00812F70087402031C8C2F7008F402710887
:100F0C00F53B7208F63B7308F73B79140130F33666
:100F1C00F20CF10CF00C890B8D2F0130FD02031D2E
:100F2C006C2F7C08F3007B08F2007A08F10079083A
:100F3C00F00008008631C626873100302000A3005F
:100F4C000030A2002530A1008030A000873110278E
:100F5C00873120000C08AA000530AA36890BB32F64
:100F6C002A18EB2F2E08031DEB2FAB01AC01200030
:100F7C00160808389600FA30F0000030F10086317F
:100F8C00DC268731013A031DCE2FAE01AE0AEE2FBF
:100F9C001608F7399600EE30F0000230F100863179
:100FAC00DC268731013A0319CB2F0130AB07003017
:100FBC00AC3D2C08803AAA0080302A02031DE82F91
:100FCC0005302B020318EE2FBD2F1608FE399600A4
:100FDC0020000D08AA000230AA36890BF22F2A181D
:100FEC00AF2FAE01AD01AF2F2000AD01AE0120003F
:040FFC008731A02F6A
:020000040001F9
:08000000FF3FFF3FFF3FFF3F00
:0A000E008C3FFF3F9F3FFF3FFF3F85
:00000001FF
